:100000000C94C9050C94E6050C94E6050C94FD2BA4
:100010000C94E6050C94E6050C94E6050C94E605B4
:100020000C94E6050C94E6050C94D3160C948F16EC
:100030000C9443240C94E6050C94E6050C94E60518
:100040000C94E6050C94E6050C94E6050C94E60584
:100050000C94E6050C94AC170C94E6050C94E6059C
:100060000C94E6050C94E6050C94E6050C94E60564
:100070000C94E6050C94E6050C94E6050C94E60554
:100080000C94E6050C94E6050C94E6050C94E60544
:100090000C94E6050C94E6050C94E6050C94E60534
:1000A0000C94E6050C94E6050C94E605050109029E
:1000B000A10185020901A1000509190129081500FE
:1000C0002501950875018102050109300931158165
:1000D000257F95027508810609381581257F9501D0
:1000E00075088106050C0A38021581257F95017572
:1000F000088106C0C00660FF0961A1010962150000
:1001000026FF009520750881020963150026FF006F
:10011000952075089102C005010906A1010507197E
:10012000E029E71500250195087501810295017503
:100130000881010507190029FF150026FF00950613
:100140007508810005081901290515002501950587
:1001500075019102950175039101C08081828384AC
:1001600085868788898A8B8C8D8E8F9091929394C7
:10017000A0A1A2A3A4A5A6A7A8A9AAABACADAEAF07
:10018000B0B1B2B3B4C0C1C2C3C4C5C6C7C8C9CA7E
:10019000CBCCCDCECFD0D1D2D3D400000000000044
:1001A000000000000000000000000000000000004F
:1001B0000000000000000000000000000000007EC1
:1001C0000F00D4FFFFFFC700000078000000000010
:1001D0000000002A2B2800000000000000000000A2
:1001E00000000000000029000000002C1E34202127
:1001F0002224342627252E362D3738271E1F20216E
:1002000022232425263333362E37381F04050607CC
:1002100008090A0B0C0D0E0F1011121314151617E6
:1002200018191A1B1C1D2F3130232D350405060704
:1002300008090A0B0C0D0E0F1011121314151617C6
:1002400018191A1B1C1D2F3130354C00DA0281FFA2
:10025000D9F1DB20A4A62EAF00A0C0D30000A1C816
:10026000D30000AED580A81F408D14200000AF0041
:10027000AE1E0029001F0020002100220014004CA7
:10028000001A0008001500170004002B00160007D4
:100290000009000A001D0021521B0006001900057C
:1002A00000E300000091412C4290433000230024E1
:1002B000002500260027002D001C0018000C00124D
:1002C00000130089000B000D000E000F0033002406
:1002D0000211001000360037003800E5000000323F
:1002E000002A002842914100001E0229022F00200E
:1002F000022102220214024C021A020802150217FD
:100300000204022B021602070209020A021D020160
:10031000001B02060219020502E3020000010001AF
:1003200000010030022E002302340225022602873B
:10033000021C0218020C021202130289020B020DA7
:10034000020E020F0234001F0211021002360237A1
:10035000023802E502000032020100010001000043
:10036000003A0001003B003C003D003E000100015E
:1003700000240025002600010001000100210022C8
:100380000023003302010001001E001F0020002D89
:10039000023700000001000100010025023F00407B
:1003A0000041004200430044000100500052004F51
:1003B00000010045004B00D1005100D200D30001E4
:1003C000004E0001000100010001000100000026B4
:1003D000024C000100010000000100207801000132
:1003E0000001000100237821782578277801000199
:1003F0000024782278267828780100010001000185
:100400000001000100010001005100000052004FF6
:1004100000010001002B782C782D782E782F783071
:1004200078317832783378347801000100010001A6
:100430000001000100010001004A004E004B004D88
:1004400000010001000000010001002A000100007D
:100450000001000100010001000100010001000194
:100460000001000100010001000100010001000184
:100470000001000100010001000100010001000174
:100480000001000000010001000100010001000165
:100490000001000100010001000100010001000154
:1004A0000001000100010001000100010001000144
:1004B000000100407E0100417E01000100000001BA
:1004C0000001000100010000000100010001000125
:1004D0000001000100010001000100010001000114
:1004E0000001000100010001000100010001000104
:1004F00000010001000100010001000000010001F5
:1005000000010001000100010001000100010001E3
:1005100000010001000100010001000100010001D3
:100520000001000100010001000100407E010041C6
:100530007E01000100000001000100010001000037
:1005400000010001000100010001000100010001A3
:100550000001000100010001000100010001000193
:100560000001000100010001000100010001000183
:100570000001000000010001000100010001000174
:100580000001000100010001000100010001000163
:100590000001000100010001000100010001000153
:1005A000000100407E0100417E01000100000001C9
:1005B00000010001000100000009025B00030100CE
:1005C000A0FA090400000103010100092111010042
:1005D000012244000705810308000109040100020B
:1005E00003000000092111010001222200070582F9
:1005F0000320000107050303200001090402000194
:1006000003000000092111010001224900070584AF
:1006100003200001120100020000000857F6000448
:100620000001010200011603530075006D006E0009
:1006300069006700680074003500370000000E0391
:100640006D00610072006200790033000000040355
:10065000090407087F0807003E5B4F5B3E003E6BC6
:100660004F6B3E001C3E7C3E1C00183C7E3C18003C
:100670001C577D571C001C5E7F5E1C0000183C1838
:100680000000FFE7C3E7FF00001824180000FFE7A1
:10069000DBE7FF0030483A060E00262979292600BC
:1006A000407F05050700407F05253F005A3CE73C99
:1006B0005A007F3E1C1C0800081C1C3E7F001422B0
:1006C0007F2214005F5F005F5F0006097F017F00EB
:1006D000006689956A0060606060600094A2FFA275
:1006E000940008047E04080010207E2010000808F2
:1006F0002A1C0800081C2A0808001E1010101000F0
:100700000C1E0C1E0C0030383E383000060E3E0E1B
:10071000060000000000000000005F00000000076D
:1007200000070000147F147F1400242A7F2A12007F
:10073000231308646200364956205000000807035E
:100740000000001C224100000041221C00002A1C65
:100750007F1C2A0008083E08080000807030000056
:100760000808080808000000606000002010080465
:1007700002003E5149453E0000427F400000724960
:10078000494946002141494D33001814127F100099
:100790002745454539003C4A494931004121110965
:1007A0000700364949493600464949291E000000DC
:1007B0001400000000403400000000081422410032
:1007C00014141414140000412214080002015909E1
:1007D00006003E415D594E007C1211127C007F499B
:1007E000494936003E41414122007F4141413E009E
:1007F0007F49494941007F09090901003E414151B2
:1008000073007F0808087F0000417F4100002040FE
:10081000413F01007F08142241007F4040404000DA
:100820007F021C027F007F0408107F003E4141418F
:100830003E007F09090906003E4151215E007F0903
:100840001929460026494949320003017F01030066
:100850003F4040403F001F2040201F003F403840A5
:100860003F00631408146300030478040300615913
:10087000494D4300007F414141000204081020001F
:10088000004141417F000402010204004040404019
:1008900040000003070800002054547840007F28DF
:1008A00044443800384444442800384444287F00F5
:1008B00038545454180000087E09020018A4A49C5F
:1008C00078007F080404780000447D400000204048
:1008D000403D00007F102844000000417F400000A0
:1008E0007C04780478007C0804047800384444448C
:1008F0003800FC182424180018242418FC007C0854
:100900000404080048545454240004043F442400C0
:100910003C4040207C001C2040201C003C403040DB
:100920003C004428102844004C9090907C00446483
:10093000544C4400000836410000000077000000DD
:100940000041360800000201020402003C26232672
:100950003C00000000000000404040F0F8F8FF3884
:10096000FFF8F83FF8F8FF38FFF8F8F04040400093
:10097000000000000080C0C0C0800000C0C0800037
:10098000000080C0C000C0C0000080C0C0000000E7
:100990000000C0C0C0C0C000C0C000000000000017
:1009A0000000000000000000000000000000000047
:1009B0000000000000000000000000000000000037
:1009C0000000000000000000000000000000000027
:1009D00000C0F0F8FC3E1E06010000007F414141CE
:1009E0007F007F4141417F000080C0E07E5B4F5B24
:1009F000FEC00000C000DCD7DEDEDED7DC00C000B9
:100A000000000000000000000000000000000000E6
:100A10000000000000000000494949FFFFFFFFE01F
:100A2000DFBFBF00BFBFDFE0FFFFFFFF4949490055
:100A3000000000001F3F6060E0BF1F007F7F071EB7
:100A4000381E077F7F007F7F0E1F3B716000000014
:100A500000007F7F0C0C0C007E7E007F7E03030075
:100A60007F7E03037E7E03037F7E000F3E703C0685
:100A70003C703E0F00327B49493F7E007F7E03037E
:100A8000001E3F69696F26000000000000000000A2
:100A900000030F1F3F3C7870600000007F41414120
:100AA0007F007F4141417F00307B7F7830202030C4
:100AB000787F3B0003000F7F0F0F0F7F0F000300B5
:100AC0000000000000000000000000000000000026
:100AD0000000000000000000010101070F0F7F0F60
:100AE0007F0F0F7E0F0F7F0F7F0F0F070101010098
:100AF00000000000000000000001010000000000F4
:100B000000000000000000000000000000000000E5
:100B100000000000000000000000000000000000D5
:100B200000000000000000000000000000000000C5
:100B300000000000000000000000000000000000B5
:100B400000000000000000000000000000000000A5
:100B50000000000000000000000000000000000095
:100B60000000000000000000000000000000000085
:100B70000000000000000000000000000000000075
:100B80000000000000000000000000000000000065
:100B9000000011241FBECFEFDAE0DEBFCDBF11E0B1
:100BA000A0E0B1E0EAE8FCE502C005900D92A23AAF
:100BB000B107D9F725E0A2EAB1E001C01D92A73440
:100BC000B207E1F70E946A240C94082E0C940000EE
:100BD000FC01909135038181981321C080913603E7
:100BE000882319F0928189131AC0809137038823D2
:100BF00019F09381891313C080913903882319F068
:100C0000958189130CC080913803882351F091E0BD
:100C10002481281301C090E0892F8170089581E01C
:100C2000FCCF80E0FACF482F209133039091FA0255
:100C300057E0291302C080E0089530E0529FF00190
:100C4000539FF00D1124E550FD4F8181681306C0BC
:100C50008081481303C085818111EECF2F5F3F4F04
:100C60002770E7CFE8EDF0E080818E7F80831092DF
:100C7000E2001092DA001092E100A0EEB0E08C9158
:100C800081608C9380818F77808319BCA7EDB0E061
:100C90008C918E7F8C9380818F7E80831092E20274
:100CA00008952091E4003091E50095E6A901209196
:100CB000EC00822F817020FF06C08091E80080FF49
:100CC00006C080E008952091E80022FD1AC08091BE
:100CD000F002882389F0853089F08091EB0085FD52
:100CE0000FC02091E4003091E50042175307F9F25C
:100CF0009150E1F684E0089582E0089583E008953C
:100D000081E008958091F20287FF13C08091E8008E
:100D100082FF06C08091E8008B778093E80004C0D2
:100D20008091F0028111F2CF08958091F002882322
:100D3000D9F38091E80080FFF8CF8091E8008E77AA
:100D4000ECCF982F9093E900242F762F50E089174D
:100D500031F07091EC002091ED005091F00021FDF8
:100D600007C09F5F973071F78093E90081E0089595
:100D70003091EB003E7F3093EB003091ED003D7FF2
:100D80003093ED003091EB0031603093EB007093C5
:100D9000EC002093ED005093F0002091EE0027FD31
:100DA000E0CF80E00895B0E0A0E0E9EDF6E00C943B
:100DB000372DC8EDD0E088818F7E8883E7EDF0E0A5
:100DC00080818160808384E082BF81E08093E20241
:100DD00088818E7F888302EE10E0F80110821092E5
:100DE000DA0081EEC82ED12CF601108288818F772F
:100DF000888388818068888388818F7D888319BCF7
:100E00001092F0021092F1021092EF021092EE0294
:100E100090EEE92EF12CF70180818B7F8083888111
:100E20008160888342E060E080E00E94A106F601D4
:100E300080818E7F8083F8018081816080838081C2
:100E400088608083F70180818E7F808388818061C4
:100E50008883CDB7DEB7E8E00C94532DFC01809178
:100E6000F8029091F90286179707A0F061157105B5
:100E700029F49091E8009E779093E80090E0611546
:100E8000710551F4911108C08091E80082FF34C0CF
:100E900080E00895BC01F2CF8091F0028823C1F177
:100EA0008530C1F18091E80083FD30C08091E80079
:100EB00082FDEACF8091E80080FFE1CF8091F300CE
:100EC0002091F200382F6115710519F02830310595
:100ED00058F091E02830310509F090E02091E800C9
:100EE0002E772093E800CBCF81918093F100615061
:100EF00071092F5F3F4FE7CF8091F002882341F0C7
:100F0000853041F08091E80083FFBECF81E00895F5
:100F100082E0089583E0089508958091E5020895A0
:100F200087E797E7909301088093000888E19AE0AB
:100F30000FB6F894A895809360000FBE9093600060
:100F4000FFCF2FB7F8946091DE027091DF0280919D
:100F5000E0029091E1022FBF0895FC01680F791F14
:100F60008FEF91E32191822728E030E087FF09C0CD
:100F7000880F892721503109C9F7E617F70791F73C
:100F80000895880FF7CFCF93DF93E9E7F2E08381ED
:100F90009481A581B681E90188839983AA83BB8363
:100FA0001482138216821582DF91CF91089580E01A
:100FB000089563E070E083EF91E00E94AD079091A7
:100FC000F201891318C0E091F301EA30A4F488E03B
:100FD000E802F0011124E45FFE4F0680F781E02D66
:100FE000309749F026E132E04091F50166EF71E07B
:100FF0008091F40109950895ECE0F1E0A8EEB1E0EC
:101000001C968C911C9780A31D968C9183AB0895A0
:10101000F894E82FE295EF70F0E031A1282F2F70BF
:1010200081E090E001C0880F2A95EAF7982F90950B
:10103000932391A392A1892B82A3789408959091F0
:10104000560292FF10C041E0282F2471243009F08D
:1010500040E031E0282F2871283009F030E04317B4
:1010600011F02CE0822793FF10C041E0282F24715B
:10107000243109F040E031E0282F2871283109F0AF
:1010800030E0431711F02CE082273091570230FFF7
:1010900010C051E0282F2171213009F050E041E0CB
:1010A000282F2871283009F040E0541711F029E06A
:1010B000822731FF10C041E0282F2171213109F032
:1010C00040E031E0282F2871283109F030E0431743
:1010D00011F029E0822794FD877E089582389105DA
:1010E000B9F1B0F48133910509F47DC048F4893237
:1010F000910509F46DC08A32910509F47BC0089509
:101100008533910509F45FC08933910509F108958C
:10111000833E9105D9F138F4803E910529F1823E54
:10112000910579F10895863E9105D9F1873E9105A3
:1011300009F43EC0843E910541F52091570221FFFC
:1011400024C08091560284FD19C087EE90E0089576
:1011500020915602237009F05AC02091570223FFB4
:1011600014C089E290E008952091560220FD38C015
:101170003091570230FF09C024FF43C090E080E067
:1011800008952091560222FDF7CF0895209156022E
:1011900022FD3AC03091570230FD39C024FFF5CF0F
:1011A000EDCF2091560223FFF0CF24FDE7CFCDCF26
:1011B0002091560223FD2EC03091570231FFEECF11
:1011C00084EE90E008952091560225FFDECFC9CF2E
:1011D0002091560225FD21C02091570223FFD5CF33
:1011E00089E390E0D2CF2091560226FFCECF8AE24B
:1011F00090E008952091560226FFC7CF81E390E04A
:10120000089583EE90E0089582EE90E0089580EED8
:1012100090E0089586EE90E0089585E390E00895CB
:101220001F93CF93DF930E946E08EC01C11582E5F6
:10123000D80708F03FC0C11590E5D90708F0C2C033
:10124000C83ED105C0F4C03ED10580F4C53AD105F1
:1012500048F4C430D10550F4C130D10539F0D0E0A4
:10126000C0E004C0CD3CD105D0F3D065CE01DF9104
:10127000CF911F910895C11580E4D80708F053C09D
:10128000C11590E2D90708F0B7C0C11581E0D807B1
:1012900030F38D2F0E941F08182FCE0199270E942E
:1012A0006E08C12FD0E0DC2FCC27CC27DF71C82BF4
:1012B000D92BDCCFC03892E5D907A8F4C03682E537
:1012C000D80708F063C0C03492E5D90708F049C0D8
:1012D000C03282E5D80788F1CF71D0E0DC2FCC276F
:1012E000C16FD06AC3CFC03C92E5D90780F48C2F80
:1012F0008F71C03AD24508F45EC00E941F08C82F03
:10130000D0E0DC2FCC27CC27DF71D062AFCFC03E3E
:1013100082E5D80708F0A3CFDC2FCC27CC27DF71DC
:10132000C06FD06AA3CFCE0199270E946E08CC2748
:10133000DF70C82BD92BD06A99CF2C2F26952695F4
:1013400090E2299F900111248C2F8370C1E0D0E09E
:1013500002C0CC0FDD1F8A95E2F7C22BD32BDD68CC
:1013600085CF2C2F26952695277080E2289F900107
:1013700011248C2F8370C1E0D0E002C0CC0FDD1FA0
:101380008A95E2F7C22BD32BDC6870CF2C2F2695E1
:101390002695277090E2299F900111248C2F83704D
:1013A000C1E0D0E002C0CC0FDD1F8A95E2F7C22B6E
:1013B000D32BDA685BCFC82FD0E0DC2FCC27C46FEB
:1013C000D06A54CF8C2F8F710E941F0855E0D6959C
:1013D000C7955A95E1F7CF70D0E0DC2FCC27282FA6
:1013E00030E084FF05C044E0220F331F4A95E1F747
:1013F000C22BD32BD0693ACF8D2F8F710E941F083B
:10140000182FCE0199270E946E08C12FD0E0DC2F43
:10141000CC27CC27DF71C82BD92B77CF8095909123
:10142000E30298239093E30208958091330390910F
:10143000FA02981301C008958F5F8770FACF292FA1
:101440009A3078F5863068F590E036E0239F800D7D
:10145000911D1124682F677023E0969587952A9532
:10146000E1F7FC01EE0FFF1FE80FF91FEF54FE4FED
:1014700050E040E080E0219130E0062E02C0369539
:1014800027950A94E2F721703327042E01C0220F1A
:101490000A94EAF7822B4F5F5F4F4330510559F7AB
:1014A000089580E00895292F9A3098F5863088F5C0
:1014B00090E036E0239F800D911D1124282F277086
:1014C00041E001C0440F2A95EAF723E096958795FD
:1014D0002A95E1F7FC01EE0FFF1FE80FF91FEF540B
:1014E000FE4F30E020E070E05191DF011197CB0119
:1014F000022E02C0969587950A94E2F78170819535
:101500008527842385278C932F5F3F4F2330310518
:1015100059F708958093550208959091550221E05E
:1015200030E0F90101C0EE0F8A95EAF7D90102C057
:10153000AA0FBB1F6A95E2F7EA2B01C0220F4A955A
:10154000EAF7892F8E23E81305C0292B822F0E94EA
:101550008A0A089520952923F9CF21E030E001C0BF
:10156000220F8A95EAF720958091550282230E94E6
:101570008A0A08959091D001809589238093D001A3
:10158000282F277069F4891759F09091570292FF1C
:1015900007C08695869586950E94AD0A1092D00167
:1015A000089521E030E001C0220F8A95EAF780918A
:1015B0005502822B0E948A0A08958093540208954E
:1015C000CF93C82F809186028C1751F00E94A107FB
:1015D00060938702709388028093890290938A02B5
:1015E000C0938602CF91089580917902F90180839A
:1015F0000895B0E0A0E0EFEFFAE00C94372DFC0185
:10160000EB0190918B02911101C094E06081718196
:1016100091509B01092E02C0359527950A94E2F757
:10162000D901092E02C0AA0FBB1F0A94E2F76A1B58
:101630007B0B71836083628173818B01092E02C0F1
:10164000159507950A94E2F7D80102C0AA0FBB1FAF
:101650009A95E2F76A1B7B0B7383628381E80138FA
:10166000BFEF1B072CF0802F003811050CF08FE71F
:101670008D8321389FEF390754F1203831054CF51F
:10168000922F91959C83442319F081958D832C830F
:101690000E94A1072D81211103C02C812223D9F0A2
:1016A00060938C0270938D0280938E0290938F02D0
:1016B000809190029BE0980F973120F4080F0093DF
:1016C00090021D82CDB7DEB7E8E00C94532D21E8DF
:1016D000D7CF2FE7D5CFC0908C02D0908D02E0906D
:1016E0008E02F0908F026C197D098E099F09643675
:1016F000710581059105E0F210929002D9CFFC01AD
:10170000DB012281338191E821388FEF38072CF0FB
:10171000922F203831050CF09FE712969C93129778
:101720002081318121388FEF3807A4F0203831052E
:101730009CF413962C931397442339F091951296A9
:101740009C931297219513962C93118210821382E9
:101750001282089521E8EDCF2FE7EBCF9C01860F91
:10176000971F37FD07C077FD04C097FF02C08FEFBA
:101770009FE7089577FFFDCF97FDFBCF80E090E8CE
:101780000895CF938BE992E00E94E805C82F882343
:1017900079F0E091DB02F091DC02309749F082E0D1
:1017A000809334030480F581E02D84E393E0099570
:1017B0009091350386E0E4E3F3E0DF01282F1D92EA
:1017C0002A95E9F790933503ABE9B2E001900D92C9
:1017D0008A95E1F781E0C11103C0911101C080E059
:1017E0008170CF9108952FE2280F283078F481E09E
:1017F00090E001C0880F2A95EAF72091350366230F
:1018000031F0822B809335030E94C10B089580959F
:101810008223F8CFCF93DF93C0914305D091440545
:101820008A30C1F420913A03CE018D539340622F48
:1018300070E00E94192D281B822F66E00E94642D03
:10184000C82FC15018F4DF91CF91089580E20E9413
:101850000A0CF7CF8D30E9F4CD53D34020913A03F1
:10186000622F70E0CE010E94192D281B822F9E014D
:10187000280F311D2115324018F080E0D0E0C0E083
:10188000C80FD11DC35CDC4FD0934405C093430502
:10189000DACF96E0FE01ADE3B5E001900D929A95A6
:1018A000E1F7803E08F458C086E0FE0111928A9567
:1018B000E9F7C0914305D091440546E050E0BE01F0
:1018C0008DE395E00E949A2D9E012D533340892B84
:1018D00041F1C90145E0969587954A95E1F741E0C8
:1018E00050E0BA0102C0660F771F8A95E2F7CB017C
:1018F00060913B0370913C03862B972BB9016B5F82
:101900007F4FE5E076956795EA95E1F702C0440FD1
:10191000551F6A95E2F7842B952B90933C03809397
:101920003B032A5F3F4F40913A03642F70E0C901A7
:101930000E94192D481B463010F4240F311D21152B
:1019400072E0370710F030E020E0235C3C4F30932A
:1019500044052093430577CFF6E08F9FB001112413
:101960006E5A794F46E050E0CE010E94912DA1CFF2
:10197000CF93DF93EBE5F1E08491EF01811103C098
:10198000DF91CF9108950E940A0C2196FE01849167
:10199000F5CF8091E3029091DA01892B8093A40125
:1019A0009091D901992391F0892B8093A40120E093
:1019B00086EA91E0FC013191CF0131112F5FF1E016
:1019C0008C3A9F07B9F721111092D90148E050E0F5
:1019D00061ED71E084EA91E00E949A2D892BA9F0D3
:1019E00088E0E4EAF1E0A1EDB1E001900D928A9582
:1019F000E1F7E091DB02F091DC02309731F00280F8
:101A0000F381E02D84EA91E009950895E6EAF1E09A
:101A100086E0DF011D928A95E9F71092DA010E94B3
:101A2000C90C0895AAE2B0E0E8E1FDE00C943C2D79
:101A300082EF92E02091F100DC012D93CD01B2E024
:101A40008A3F9B07B9F78091F302833009F472C093
:101A5000B8F4813009F449C0823009F4B5C08091EE
:101A6000E80083FF8DC28091F2029091F3029A30D8
:101A700008F086C2E92FF0E0E65FF14D0C94842D6A
:101A80008A3009F490C08B3009F471C0893039F77D
:101A90008091F202813219F78091F6029091F7025B
:101AA000009711F00297D9F68091E800877F809324
:101AB000E8008091E80082FF38C09091F3008091A7
:101AC000F200029731F48091F100813011F08630FC
:101AD00021F48091F1008093E5028091E8008B77FA
:101AE0008093E8000E948206BACF8091F202813A88
:101AF00009F0B5CF8091E800877F8093E80080915E
:101B0000F6029091F702892B61F468E086EE92E08C
:101B100070E00E942E078091E8008B778093E800A8
:101B20009ECF60E090E080E0F3CF8091F0028111E1
:101B3000C0CF95CF8091F202813A09F090CF809189
:101B4000F6029091F702892B09F089CF8091E80085
:101B5000877F8093E8008091E80080FFFCCF809130
:101B60006B018093F1008091E8008E77B9CF80916E
:101B7000F202813209F073CF8091F6029091F70260
:101B8000892B09F06CCF8091E800877F8093E80073
:101B90000E9482068091F40280936B011092E3020E
:101BA0000E94060D5CCF8091F202813209F057CF7E
:101BB0008091E800877F8093E8000E9482068091F0
:101BC000F5028093E4024BCF8091F202813A09F052
:101BD00046CF8091E800877F8093E8008091E800FD
:101BE00080FFFCCF8091E402BCCF803899F082382E
:101BF00009F0C6C18091F6028F70873008F0C0C12D
:101C00008093E9008091EB0085FB882780F9109292
:101C1000E90006C08091EE029091EF02911182607E
:101C20009091E800977F9093E8008093F1001092E4
:101C3000F1008091E8008E779FC1882309F48DC15F
:101C4000823009F09DC18091F402811190C1809190
:101C5000F6028F702FEF280F263008F091C1809385
:101C6000E9002091EB0020FF82C1933031F4809194
:101C7000EB0080628093EB007AC19091EB00906161
:101C80009093EB0021E030E001C0220F8A95EAF743
:101C90002093EA001092EA008091EB008860EACF7E
:101CA00081116EC11091F4021F778091E30080785A
:101CB000812B8093E3008091E800877F8093E80088
:101CC0000E9482068091E80080FFFCCF8091E300B3
:101CD00080688093E30082E0111183E08093F0023A
:101CE0004FC18058823008F04BC12091F4023091EE
:101CF000F5022C3DE3E03E07A1F583E08A838AE20A
:101D000089834FB7F894DE01139620E03EE051E25C
:101D1000E32FF0E050935700E49120FF03C0E295D9
:101D2000EF703F5FEF708E2F90E0EA30C0F0C79603
:101D30008D939D932F5F243159F74FBF8091E80019
:101D4000877F8093E8006AE270E0CE0101960E94EE
:101D50002E078091E8008B778093E80011C1C09630
:101D6000E7CF8091F6029091F702432F5527433039
:101D7000510509F44AC078F54130510509F47AC09B
:101D80008BE590E0E9EBF5E04230510509F0F8C051
:101D90002091E800277F2093E8002091F8023091FD
:101DA000F9028217930708F49C0140E021153105E0
:101DB00009F065C0411163C08091E80082FDC9CF80
:101DC0008091F002882329F2853019F28091E80091
:101DD00083FFF2CFBECF4132510509F43CC04232FD
:101DE000510509F0CDC08330910508F0C9C0FC0150
:101DF000EE0FFF1FEB56FE4F0190F081E02D8E5647
:101E00009E4FDC018C9190E01AC0332721303105C0
:101E1000D1F02115310561F02230310509F0B0C053
:101E2000E6E2F6E0E4918E2F90E0E6E2F6E007C00D
:101E3000EEE4F6E0E4918E2F90E0EEE4F6E0009719
:101E400009F49EC0A5CFEEE3F6E0E4918E2F90E07A
:101E5000EEE3F6E0F4CF8330910508F091C0880FEF
:101E6000991FFC01E556FE4F0190F081E02D89E0BD
:101E700090E08ECF82E190E0E4E1F6E089CF8091BE
:101E8000F002882309F465CF853009F462CF809190
:101E9000E80083FD5ECF8091E80082FD8DCF8091C8
:101EA000E80080FF83CF9091F3008091F20021152C
:101EB000310519F08830910550F041E0089709F09C
:101EC00040E08091E8008E778093E8006FCF4491E6
:101ED0004093F1003196215031090196E8CF8038C6
:101EE00009F04EC08091E800877F8093E8008091E0
:101EF000F1028093F1009DCE811142C01091F40255
:101F00001230F0F58091E800877F8093E80010930D
:101F1000F1020E948206112311F084E005C0809135
:101F2000E30087FDFACF81E08093F00242E061ECAC
:101F300081E00E94A10642E261EC84E00E94A106D9
:101F400042E261EC82E00E94A10642E260EC83E0A2
:101F50000E94A1068091F00213C08091F4028130AA
:101F600079F481E0933009F080E08093EF021092E1
:101F7000E9008091E800877F8093E8000E94820654
:101F80008091E80083FF0AC08091E800877F8093FA
:101F9000E8008091EB0080628093EB00AA96E3E07A
:101FA0000C94582D882321F00E940E0A0E94C90C1F
:101FB0000895882339F09091E302982B9093E302DF
:101FC0000E94C90C0895882349F19CEF980F913A1B
:101FD00080F4E6EAF1E02CEA31E09191891303C044
:101FE000DF0111971C922E173F07B9F70E94C90C09
:101FF000089590E2980F983050F4877091E001C0F6
:10200000990F8A95EAF7892F0E940E0AEFCF93E382
:10201000980F933118F460E00E94F30B08950F932A
:102020001F93CF93C82F882341F18CEF8C0F813AF7
:10203000B0F506EA11E08CEA91E0F8012191C217AF
:1020400001F18E179F07D1F7EFEF80E0D8019D9146
:102050008D01C91781F0EF3F19F4911101C0E82FEC
:102060008F5F863099F7EF3F31F00E2E000CFF0B9B
:10207000EC55FE4FC2830E94C90CCF911F910F9166
:102080000895E6EAF1E02191C21303C0DF01119740
:102090001C928E179F07B9F70E94C90CD5CF80E21A
:1020A0008C0F883068F4C77021E030E001C0220F47
:1020B000CA95EAF78091E302822B8093E302DBCF9B
:1020C00083E38C0F8331C8F661E08C2F0E94F30B01
:1020D000D4CF0F931F93CF93DF938B01EA0190919D
:1020E000F002943061F58093E9008FEF9091E80061
:1020F000815095FD06C095ED9A95F1F7000081118C
:10210000F5CF8091E80085FF1AC00E945106811129
:1021100011C08091E80085FD06C08091E8008E77AF
:102120008093E800F2CFF80181918F018093F10054
:10213000219779F78091E8008E778093E800DF910E
:10214000CF911F910F91089546E050E0BC0184E0CB
:102150000E9469100895CF93DF93EC0148E050E0AE
:10216000BC0181E00E94691088E0FE01A6EEB2E0A9
:1021700001900D928A95E1F7DF91CF910895B0E03B
:10218000A0E0E5ECF0E10C94352D7C015B016A01E7
:102190008091430201E010E08A3010F40AE010E080
:1021A000C1E0D0E0B501C701F6010995811104C075
:1021B00021960C171D072CF4CDB7DEB7EAE00C947E
:1021C000512DCC9F9001CD9F300D300D112490E00A
:1021D00080E045E34A95F1F70000019682179307E6
:1021E000C1F7E0CF8091E701811119C082E390E04F
:1021F0002091E30027FD10C0EFE3FCE93197F1F7F0
:1022000000C000000197A1F782E08093E7010E94DF
:1022100032061092F00203C081E08093E70181E072
:102220009091E701913011F080E0089508950E94A7
:10223000F210882359F0E091DB02F091DC02309734
:1022400029F00190F081E02D0995089580E008952E
:102250000F931F930E94F210882329F00E94A10778
:102260001F910F9108950E94A107009144021091BF
:1022700045022091460230914702600F711F821F74
:10228000931FEECF86988E9A259A2D9885E08A9591
:10229000F1F700008FB125982D9A90EA9A95F1F701
:1022A00090E026E0959587952A95E1F780959095A1
:1022B000817008951F93CF93DF93182FEB010E9435
:1022C0000F108FE99FE00197F1F700C00000219700
:1022D000C1F7812F0E94E30FDF91CF911F910895E5
:1022E0001092E3020E94060D2FEF84E39CE0215040
:1022F00080409040E1F700C0000088E19AE00FB60E
:10230000F894A895809360000FBE90936000FFCF73
:10231000CF93DF93C1E7D3E060E0CE010E94D42DDC
:102320002196C11584E0D807B9F7DF91CF910895C0
:102330001F93CF93DF93122F8730E0F46A30D0F4ED
:102340004630C0F4C42FD0E0CC0FDD1F9CE0699F65
:10235000C00DD11D112498E7899FC00DD11D1124F6
:10236000632FCE0189960E94D42D612FCE018A96CB
:102370000E94D42DDF91CF911F910895AF92BF920B
:10238000CF92DF92EF92FF921F93CF93DF9381E77B
:10239000C82E82E0D82ED0E07601C0E014C0F5014E
:1023A00025913491412F6C2F8D2F0E94981182E03E
:1023B000A80EB11C1F5F163091F78CE0E80EF11CDF
:1023C000CF5FCA3019F0570110E0E9CFDF5F88E72F
:1023D000C80ED11CD73001F7DF91CF911F91FF902C
:1023E000EF90DF90CF90BF90AF90089588E290E09B
:1023F0000E94D42D0895CF93C82F6FEF811163E20F
:1024000085E290E00E94D42D6FEFC11160E186E279
:1024100090E00E94D42D6FEFC11160E387E290E05D
:102420000E94D42DCF91089580E00E94FB1160E0BE
:1024300070E0CB010E94F6110E94BE110E9488112B
:1024400081E00E94FB1108950F931F93CF93DF93B8
:10245000873030F56A3020F5463010F5C42FD0E0D3
:10246000CC0FDD1F2CE0629FC00DD11D112438E779
:10247000839FC00DD11D1124CE0189960E94B02DDD
:10248000082F10E0102F0027CE018A960E94B02D51
:102490009801282BC901DF91CF911F910F910895C9
:1024A00090E080E0F8CF462F7A3040F4663030F488
:1024B000873020F4672F0E942412089590E080E076
:1024C0000895CF92DF92FF920F931F93CF93DF93E4
:1024D0006C010091550280915402082BC6E0D0E0B7
:1024E00010E0FC2EC8010C2E02C0959587950A9429
:1024F000E2F780FD0CC02197A0F7F12C8F2DDF9122
:10250000CF911F910F91FF90DF90CF900895B6016A
:102510008C2F0E9453120E941009019761F3EECF95
:10252000CF93DF93EC010E946112BE010E9453120F
:102530000E941009DF91CF910895FC01248122238C
:10254000C1F0808191810E94901292959F70963087
:1025500091F058F4925F9F70923058F4803F19F0D8
:1025600030F4883E30F481E008959A5FF4CF843FE0
:10257000D1F380E00895883EB0F3813FD1F7F3CFE7
:10258000A6E0B0E0E6ECF2E10C943C2D49835A83DE
:1025900049815A819923A1F0222391F0CA010E9416
:1025A0006112182F682F89819A810E94530A6981CC
:1025B0007A81812F0E9453122696E3E00C94582DC5
:1025C000CA010E941F0A182FF2CF88E290E00E94F1
:1025D000B02D682F70E090E080E0089585E290E0F3
:1025E0000E94B02D833289F486E290E00E94B02DE3
:1025F000803159F487E290E00E94B02D91E0803361
:1026000009F090E0892F8170089580E0FCCFB0E060
:10261000A0E0EDE0F3E10C94372D6C017B0164E662
:1026200070E088E70E94772A8C01E601EC0CFD1C23
:1026300017FD0BC0FE01849164E670E00E94E32A5E
:102640008C012196CE15DF0599F70E94592B81E068
:102650000115110509F080E0CDB7DEB7E8E00C9474
:10266000532D8091D7029091DA02911103C091E02D
:1026700089270895882369F062E070E08FE692E090
:102680000E940713811103C08091D7020895109210
:10269000D7028091D702EBCFCF93C091D702809120
:1026A000DA028823D1F00E94A107605A75418F4F4A
:1026B0009F4F6093D3027093D4028093D50290937E
:1026C000D602C11108C062E070E08DE692E00E947F
:1026D0000713811105C0C091D7028C2FCF910895A7
:1026E00081E08093D702F7CF9091570292FB222787
:1026F00020F9281779F080FB92F9909357026091A6
:1027000056027091570284E090E00E94F22D82E020
:102710000E94BA0A089590E080E00E94BE2D863E95
:102720009E4F19F40E94EE12089580E00895B0E0E3
:10273000A0E0EDE9F3E10C94382D7901C82F880F62
:10274000DD0B41155105A9F0FE0193E0EE0FFF1FCF
:102750009A95E1F7E45FFE4F8181928188519E4F07
:10276000208130E04217530708F49A01A9010E9422
:10277000A72DCE010E94A32CD82E8823D1F00115BD
:102780001105B9F083E0CC0FDD1F8A95E1F7FE015A
:10279000E45FFE4F438150E00417150708F4A801D9
:1027A000C45FDE4F6C817D8168517E4FC7010E94FE
:1027B000A72D8D2DCDB7DEB7E7E00C94542DA5E005
:1027C000B0E0E5EEF3E10C94352D8D83E62E5A0151
:1027D000F22E6801809143028A3028F080E025962D
:1027E000EAE00C94512D8D818730C4F31A8219824E
:1027F0008A836B832C8363E070E0CE0102960E9493
:10280000AD078983E0922C01F0923F0110E000E0D7
:1028100030E020E044E050E0BE016F5F7F4F83E096
:102820000E9497138823D1F24E2D50E030E020E033
:10283000B50184E00E949713882381F230E020E004
:1028400041E050E0BE016B5F7F4F85E00E9497132F
:10285000882321F20F2D10E0960150E040E070E057
:1028600060E086E00E949713BACFA4E0B0E0EBE30B
:10287000F4E10C943B2D40913F0250914002609155
:102880004102709142022FB7F8948091DE0290913C
:10289000DF02A091E002B091E1022FBF841B950BF3
:1028A000A60BB70B11E084369105A105B10518F10F
:1028B0000E9428116E5F7F4F8F4F9F4F69837A83ED
:1028C0008B839C8310E000E030E020E044E050E0A7
:1028D000BE016F5F7F4F82E00E949713182F8823FD
:1028E00051F00E94A10760933F02709340028093D1
:1028F000410290934202812F2496E4E00C94572DDC
:10290000A6E0B0E0E6E8F4E10C94392D7B0101E0AB
:1029100010E09E012A5F3F4F50E040E070E060E031
:1029200080E00E949713182F882309F453C0409128
:102930003B0250913C0260913D0270913E022FB7E4
:10294000F8948091DE029091DF02A091E002B091B4
:10295000E1022FBF841B950BA60BB70B84369105A4
:10296000A105B10548F465E070E089EE91E00E94B0
:10297000AD079E81891771F105E010E09E012F5F80
:102980003F4F50E040E070E060E081E00E9497132C
:10299000082F65E070E089EE91E00E94AD0711E03C
:1029A0009E81981310E0102301F10E94A10760930B
:1029B0003B0270933C0280933D0290933E0285E07F
:1029C000FE013196A6E3B2E001900D928A95E1F7FF
:1029D00011E00BC085E0E9EEF1E0DE011196019017
:1029E0000D928A95E1F71111EACF85E0E6E3F2E076
:1029F000D70101900D928A95E1F7812F2696E6E0A6
:102A00000C94552D28E030E043E060E086E30E941E
:102A10009F290895ACE0B0E0E0E1F5E10C94372D9A
:102A20004F83588769877A878B879C878091790243
:102A3000882399F00E94021580E50E94172A8AEBEC
:102A40008A95F1F700C00E942F2A8878992780384C
:102A5000910509F487C00E94472A0E94F21088233A
:102A600009F46BC00E94A1070091AC011091AD0167
:102A70002091AE013091AF016B017C01C01AD10AE7
:102A8000E20AF30A97018601083011052105310594
:102A900008F453C06093AC017093AD018093AE0114
:102AA0009093AF01009187021091880220918902D2
:102AB00030918A02601B710B820B930B623371059C
:102AC0008105910580F410927D0210927C02109293
:102AD0007F0210927E021092810210928002109268
:102AE000830210928202109186020E944211482FA6
:102AF000BE01695F7F4F8CE792E0112309F45FC04C
:102B00000E94F90A00918602109179020E944211F6
:102B100041E04827BE01695F7F4F80E892E00117DE
:102B200009F450C00E94F90A86E0FE013796A5E933
:102B3000B2E001900D928A95E1F786E0FE013796AA
:102B4000DE01119601900D928A95E1F729813A8173
:102B50004B815C816D817E8180E090E02C96E8E085
:102B60000C94532D0E942F2A0E942F2A7C010E9430
:102B70002F2A20E0E22AF82A0E942F2A8C010E94A4
:102B80002F2A20E0022B182B0E94472AF894B70125
:102B900080917C0290917D020E94AE0B90937D0209
:102BA00080937C02B80180917E0290917F020E9406
:102BB000AE0B90937F0280937E0278944ECF0E945A
:102BC0007F0BA0CF0E947F0BAFCFCF93DF93D82F87
:102BD000C62F0E9402158D2F80680E94172A8C2F05
:102BE0000E94172A0E94472A8FEC92E00197F1F782
:102BF00000C00000DF91CF910895682F893708F059
:102C000068E76093840291E0909385029091790245
:102C1000992359F06150811101C064E08FE00E9456
:102C2000E51560E080E50E94E5150895FB018081CF
:102C30000E94FD15089590918402911101C095E0C4
:102C4000282F880F330BA901490F511DCA011816EF
:102C5000190614F081E090E00E94FD150895CF93CD
:102C6000C82F0E9402158C2F0E94172A8FE792E02E
:102C70000197F1F700C000000E942F2AC82F0E9480
:102C8000472A9AE69A95F1F700C08C2FCF910895C4
:102C9000CF93DF930E949729269A0E9402156AE536
:102CA0008AE30E94E5152FEF80E792E021508040F3
:102CB0009040E1F700C0000082E00E942F1683E000
:102CC0000E942F1684E00E942F1685E00E942F1686
:102CD00086E00E942F1660E080E10E94E51580E00A
:102CE0000E942F16D82F81E00E942F16C82F0E9415
:102CF000472AD23419F481E0C13009F080E08170B4
:102D000080937902882341F064E08FE00E94E5150A
:102D100060E080E50E94E515DF91CF9108951F9254
:102D20000F920FB60F9211242F933F934F935F93FF
:102D30006F937F938F939F93AF93BF93CF93DF93C3
:102D4000EF93FF93D091E900DF708091EC00C82FE2
:102D5000C17080FDC0E81092E9008091F000877F8B
:102D60008093F00078940E94120D1092E9008091F7
:102D7000F00088608093F000CD2BCF70C093E90005
:102D8000FF91EF91DF91CF91BF91AF919F918F9183
:102D90007F916F915F914F913F912F910F900FBE57
:102DA0000F901F9018951F920F920FB60F9211243B
:102DB0002F933F934F935F936F937F938F939F9343
:102DC000AF93BF93EF93FF938091E10082FF09C01F
:102DD0008091E20082FF05C08091E1008B7F8093AB
:102DE000E1008091DA0080FF24C08091D80080FF4C
:102DF00020C08091DA008E7F8093DA008091D90024
:102E000080FF9DC080E189BD82E189BD09B400FEDB
:102E1000FDCF81E08093F0028091E202811109C030
:102E20000E9432060E94D3068091E2008460809363
:102E3000E2008091E10080FF17C08091E20080FFF6
:102E400013C08091E2008E7F8093E2008091E200C7
:102E500080618093E2008091D80080628093D800E6
:102E600019BC85E08093F0028091E10084FF2BC0C3
:102E70008091E20084FF27C080E189BD82E189BDA5
:102E800089B5982F917080FFFBCF8091D8008F7DFE
:102E90008093D8008091E1008F7E8093E100809143
:102EA000E2008F7E8093E2008091E2008160809357
:102EB000E2008091F102882309F447C084E0809306
:102EC000F0028091F0028091E10083FF27C08091A1
:102ED000E20083FF23C08091E100877F8093E100BF
:102EE00082E08093F0021092F1028091E1008E7FE7
:102EF0008093E1008091E2008E7F8093E2008091D8
:102F0000E20080618093E20042E060E080E00E94A5
:102F1000A1068091F00088608093F000FF91EF910E
:102F2000BF91AF919F918F917F916F915F914F91E1
:102F30003F912F910F900FBE0F901F90189519BCC5
:102F40001092F0021092E20274CF8091E30087FDAC
:102F500093E09093F002B5CF78941F921FB61F9222
:102F600011248F939F93AF93BF938091DE02909132
:102F7000DF02A091E002B091E1020196A11DB11D16
:102F80008093DE029093DF02A093E002B093E1020F
:102F9000BF91AF919F918F911F901FBE1F90189569
:102FA0009C014FB7F8948091DE029091DF02A091CE
:102FB000E002B091E1024FBF821B930B08952FB73F
:102FC000F8948091DE029091DF02A091E002B0912E
:102FD000E1022FBF08952F923F925F926F927F92EE
:102FE0008F929F92AF92BF92CF92DF92EF92FF9219
:102FF0000F931F93CF93DF938091DA028823C9F157
:103000008091D8029091D9020E94D017C29790F077
:103010000E94DF179093D9028093D8028DE393E04A
:1030200090934405809343050E94F210882399F100
:103030000E94B80C80913B0390913C03892B71F561
:103040008091D7028823A9F00E94A1070091D302A2
:103050001091D4022091D5023091D602601B710BE1
:10306000820B930B6F3F7F4F8F4F9F4710F40E944F
:103070003113DF91CF911F910F91FF90EF90DF906F
:10308000CF90BF90AF909F908F907F906F905F9008
:103090003F902F9008950E94B80CCCCF8091DA0217
:1030A000882371F28091D2028111CACF0E944C1301
:1030B00020913B0330913C032115310509F280E05A
:1030C00041E050E0082F10E01A01082E02C0220C47
:1030D000331C0A94E2F7B10162237323672B11F4C6
:1030E0008F5FF0CF9091D10290FF95C0880F880F2D
:1030F000880F8093660110926901895F8093670150
:1031000083E080936A0124E630E047E050E064E623
:1031100071E088E70E94112B892B09F091CFA8015B
:1031200025E0440F551F2A95E1F78091D10280FFD9
:1031300084C0E1EBF2E080E2DF011D928A95E9F7BD
:10314000AEE8B1E00AE811E082E9C82E81E0D82EAD
:1031500097E0592E772473948D91E80129918E017F
:10316000240F352F311D235C3C4FE82FF0E0EF5446
:10317000FD4F90E080E0652C681A872C082E01C076
:10318000880C0A94EAF77901A12CE701B9907E0135
:10319000B820662D6A196770962E062E000C770BE4
:1031A000DB2D01C0DD0F9A94EAF7719561957109E5
:1031B0006770772701C0B6946A95EAF7BD2A6081E7
:1031C000962E9B289082A39468E0A612DECF0196EB
:1031D00031968830910579F6CA16DB0609F0BCCF26
:1031E00004E610E020E230E041EB52E060E488E7E2
:1031F0000E94322B892B09F023CFE101C095D09595
:1032000080913B0390913C03C823D923D0933C0386
:10321000C0933B0315CF8295880F8076809366011B
:103220009801369527953695279520936901815EFB
:103230008093670120936A0166CF435C5C4F04E68C
:1032400010E020E230E0D2CFAFE0B0E0EAE2F9E116
:103250000C94322D8E010F5F1F4F8AE0D8011D9212
:103260008A95E9F786E0C82E81E0D82EF12CE12C72
:10327000AA24A394B12C26E0822E21E0922EF601FE
:1032800081916F018F3F09F442C0F894E82FE295D5
:10329000EF70F0E021A18F70A50102C0440F551F0F
:1032A0008A95E2F7CA01922F982B91A392A180955B
:1032B000892382A3789400C0E0E0F1E0712C31E032
:1032C00021912F3F09F46BC0A22FA295AF70B0E0FF
:1032D00090968C9190E02F7002C0959587952A95D5
:1032E000E2F780FD5CC0832F782A330F8E169F068D
:1032F00039F7F601319780818F3F11F00E9408085D
:1033000050EA5A95F1F7F801EE0DFF1D70828FEF2C
:10331000E81AF80AA5E0EA16F10409F0B0CF4AE08D
:1033200050E0B80188E492E00E949A2D009741F0A5
:103330002AE0F801A8E4B2E001900D922A95E1F7A5
:1033400000915302892B69F181E08093DF010E9493
:10335000DF179093DE018093DD018091DD01909174
:10336000DE010E94D017059700F110E00C591D4FA7
:1033700045E050E068E472E0C8010E949A2DB12C4B
:10338000892B51F085E0E8E4F2E0D80101900D923C
:103390008A95E1F7BB24B3941092DF0107C080E067
:1033A000A3CF8091DF018111D8CFB12C0E94F21000
:1033B000F82EE0915302882309F46DC06E01BBE042
:1033C000CB0ED11C85E0D6011D928A95E9F70E2F10
:1033D00010E00C591D4F809143028A3050F540E8AF
:1033E00054E1B601C8010E94BF10882309F442C00D
:1033F00045E354E1B601C8010E94BF108823D1F112
:10340000109243028091520290E045E050E0B601F4
:103410008C599D4F0E949A2D21E02093E601892B23
:10342000E1F4F12C1F2D812F8B292F96EDE00C94C8
:103430004E2D8091E0019091E1010E94D017843FD0
:10344000914068F68091E601882359F385E0F60102
:1034500011928A95E9F71092E601A0915202B0E02C
:10346000AC59BD4F85E0FE013B9601900D928A95C7
:10347000E1F7D8CF809143028F3F31F08F5F809387
:1034800043028A3008F4BECF0E94DF179093E10117
:103490008093E001D7CFF0E0EC59FD4F85E0A9EE35
:1034A000B1E001900D928A95E1F765E070E089EE58
:1034B00091E00E94AD078093E801C090EE01D090AA
:1034C000EF01E090F001F090F1018091E201909124
:1034D000E301A091E401B091E501C816D906EA061E
:1034E000FB0611F410E09FCFC092E201D092E301FD
:1034F000E092E401F092E5010E94F210182F811190
:10350000F1CF0E94A107C61AD70AE80AF90AC092A9
:103510004402D0924502E0924602F092470283CFE5
:1035200086E00E94D10A0E94DF179093AE0280933A
:10353000AD0282E08093AF020895AEE1B0E0E3EA2D
:10354000FAE10C94392D4091340350913503609188
:1035500036037091370380913803909139030E94AC
:103560000A15209334033093350340933603509368
:103570003703609338037093390386E0E4E3F3E0A4
:10358000DE01179601900D928A95E1F786E0FE0123
:103590003796DE011D9601900D928A95E1F786E03F
:1035A000FE013D96DE01119601900D928A95E1F79C
:1035B00086E0FE013196A4E3B3E001900D928A9576
:1035C000E1F786E0E4E3F3E0DE01599601900D9225
:1035D0008A95E1F786E0FE017996DE011796019063
:1035E0000D928A95E1F70B8DEC8C9E2D902B80919E
:1035F000AF02992309F41DC1002E000C110B0E2CF3
:10360000000CFF088230F1F188F4813009F4E8C041
:103610000E94DF179093AE028093AD0281E0809309
:10362000AF021092A2021092A10232C0833099F12F
:10363000843071F7980117FF04C022273327201B1D
:10364000310BC701F7FE04C0882799278E199F09FF
:10365000880F991F281739070CF042C08091A902E2
:103660009091AA02E80EF91E40E0F7FE17C17EEC29
:10367000E7167FEFF7067CF1F092AA02E092A9022A
:1036800080E041C00E94DF179093AE028093AD02AC
:1036900080E020E069C0C701F7FE04C088279927B1
:1036A0008E199F09980117FF04C022273327201B7A
:1036B000310B280F391F8091AB029091AC02821B15
:1036C000930B9093AC028093AB021816190604F783
:1036D00080E020E045C022E3E20EF11C4E5CC5CF45
:1036E0008091A7029091A802080F191F80E017FF90
:1036F000DFC00E3C9FEF19070CF46BC01093A802BB
:103700000093A70240E0082E000C990B62E370E0E2
:103710000E94702D8091A60281115FC081E090E02F
:10372000689F9001699F300D789F300D1124642FA0
:10373000772761950CF47095CB0162E370E00E94ED
:10374000702D8091A50241E050E0882311F04FEFE9
:103750005FEF649FC001659F900D749F900D1124D1
:10376000F12CE12C10E000E00987EA868B872C879A
:1037700086E0FE013796DE01119601900D928A9542
:10378000E1F786E0FE013196DE01539601900D923D
:103790008A95E1F786E0FE017396DE0117960190A7
:1037A0000D928A95E1F786E0FE013796A4E3B3E037
:1037B00001900D928A95E1F70E94C10B81116BC0B7
:1037C0008091B0021092B00281706E96E6E00C9487
:1037D000552D0E5C1F4F8E5C8ACF8FEF9FEFA0CFD1
:1037E000C701F7FE04C0882799278E199F09980101
:1037F00017FF04C022273327201B310B820F931F92
:103800002091A1023091A202820F931F9093A202F5
:103810008093A1022091A3023091A4028217930702
:103820000CF436CF1092A2021092A1020E94901ABC
:103830002FCF823071F048F4813019F11092A2023A
:103840001092A1021092AF0243CF853008F440CF0E
:10385000F5CF8091AD029091AE020E94D017893EC3
:10386000934008F435CF1092AF0286E00E94AD0A73
:103870001092AA021092A9021092A8021092A70216
:1038800027CF8091AD029091AE020E94D017C397CE
:1038900008F41ECFD3CF81E090E094CF83E3E81605
:1038A000F1040CF4E9CE62E3E61AF1084253DDCEEE
:1038B000033311050CF422CF02531109825317CFA1
:1038C000A4E1B0E0E6E6FCE10C942F2D8C01DC01D4
:1038D00014968C911497882309F4BEC021E04C9172
:1038E00011965C91119712966C91129713967C9198
:1038F000139715969C910E94C0127C01F801858156
:10390000882309F46AC1C70197578038910508F0E8
:1039100064C1FFE0FE1508F48FC08FEF93E00E94B2
:10392000B02D811189C061E7A62E63E0B62EE110AB
:103930004DC0FE01339686E0DF011D928A95E9F7BE
:103940005AE0452E7501BFEFEB1AFB0AC5010E9434
:10395000B02D89831A82882309F46EC0813009F062
:103960007FC06501E2E0CE0ED11CC7010E94B02DE0
:103970008A83882309F460C09FEF980F9330A0F5E5
:10398000F3E0AF0EB11CC6010E94B02D8B838823DB
:1039900009F452C01C82DE0111967D01F7012081DD
:1039A000222381F2213009F0BAC0918182819130C5
:1039B00009F058C0F2E0EF0EF11C65E070E08933C9
:1039C00011F460E570E00E945A1153C0A11424E084
:1039D000B20691F1C5010E94B02D811101C0EA9497
:1039E0003FEFA31AB30AA3CF56018430A1F642E0F9
:1039F000E42EF12C56012FEFA21AB20AC6010E9442
:103A0000B02DE1E0F0E0EC0FFD1FEE0DFF1D808317
:103A1000882391F08C3741F4E2E0F0E0EC0FFD1FD9
:103A2000EE0DFF1D1082B7CF3FEFE31AF30A6501D9
:103A300087E0E816F104F1F68091D001877061F01B
:103A4000D80115968C91882339F08091570282FF16
:103A500003C082E00E94BA0A6496E0E10C944B2D08
:103A6000570199CF923039F522E0E20EF11C0E9405
:103A70000F10FFEFEF1AFF0A8FE99FE00197F1F7B0
:103A800000C00000AFE9BFE01197F1F700C00000EF
:103A9000EFE9FFE03197F1F700C000008FE99FE008
:103AA0000197F1F700C00000AFE9BFE01197F1F70F
:103AB00000C0000073CF933031F432E0E30EF11C0C
:103AC0000E94E30FD6CF943021F08FEFE81AF80A66
:103AD000D0CF92E0E90EF11C30E020E0B7016F5F3B
:103AE0007F4FD70111964C918053990B8A309105E5
:103AF00058F02150310908F4BCCFEFE9FFE03197CD
:103B0000F1F700C00000F5CF429EF001439EF00D9A
:103B100011249C012E0F3F1F842F7B01DFCFE22F4A
:103B2000F0E0E553FE4F5490822F8695869586955A
:103B300090E0FC01E554FE4F64902770712C022E3A
:103B400002C0759467940A94E2F731E06322772407
:103B5000FC01E555FE4F8490912C022E02C09594F5
:103B600087940A94E2F7A1E08A229924FC01E556A1
:103B7000FE4FC490D12C02C0D594C7942A95E2F789
:103B8000B1E0CB22DD246114710419F081EE0E94B2
:103B90000F108114910419F086EE0E940F10E9E3D2
:103BA00065E070E05E1202C060E570E0852D0E9465
:103BB0005A118114910419F086EE0E94E30F6114EA
:103BC000710419F081EE0E94E30FC114D10409F4CD
:103BD00050CF65E070E08CE2F6CEF0929202E09277
:103BE0009102F801808191819093940280939302D5
:103BF000970120543E472830310508F09EC0F90156
:103C0000EC5EF14D0C94842D86E0E4E3F3E0DE01FC
:103C1000199601900D928A95E1F786E0FE0139969A
:103C2000DE011F9601900D928A95E1F7FA8481E0FA
:103C300090E001C0880F2A95EAF7D80115962C91DB
:103C4000222341F1F82A83E08093AF028EE190E0D5
:103C50009093AC028093AB020E94901AF88A86E09F
:103C6000FE013F96DE01119601900D928A95E1F7D3
:103C7000CE0101960E94E8058093B00286E0FE0125
:103C80003196A4E3B3E001900D928A95E1F70E948A
:103C9000C10BD2CE8095F822DFCFF8018581882331
:103CA00021F084E08093AF02C7CE0E94901AC4CE68
:103CB000D80115968C91882309F4BECE8091A30279
:103CC0009091A40205969093A4028093A302409140
:103CD000A3025091A4026091A5027091A60283E113
:103CE00090E00E94E62DA8CEF8018581882309F492
:103CF000A3CE8091A3029091A402059785309105EF
:103D000014F785E090E0DFCFD80115968C918823D9
:103D100009F492CE8091A50291E089278093A502B3
:103D2000D6CFF8018581882309F486CE8091A6023A
:103D300091E089278093A602CACF85818823F9F074
:103D40008091AF028350823008F4AFCFE8E7F1E012
:103D500088E891E021913191E216F30681F08E1707
:103D60009F07C1F71092AF0286E00E94AD0A109241
:103D7000AA021092A9021092A8021092A702C701EB
:103D80009A95F70181159F4108F4FF27D8011596F0
:103D90008C91E13DF10540F0E93DF10578F0E73027
:103DA000BEE7FB0709F4A3C0882361F0FE57EA30A1
:103DB000F10540F4E45EF14D0C94842D682F8E2FB4
:103DC0000E94F30BF8018581F7E7EF16FCE7FF0689
:103DD00009F4A6C028E7E2162CE7F20609F4AFC002
:103DE000882399F033E0E3163CE7F30609F4CEC0EC
:103DF00008F0ABC0E1149CE7F90609F4B8C0A1E0F3
:103E0000EA16ACE7FA0609F4C7C0F8018581E0803C
:103E1000F180882309F4CEC0C7010E946112D82E18
:103E2000682FC7010E94530AB7018D2D0E945312BB
:103E30000E9410097C01882ED8011596AC90159728
:103E400016969C9092943FE093228091D0018770C7
:103E5000F1F0CA2CAA20E1F08F2D807F803451F040
:103E600080E28E0D883098F0911004C08F2D807EF6
:103E7000803269F08091570282FF09C082E00E947F
:103E8000BA0A8091D0018770CC24C3948111C12CCF
:103E9000BF2CB2942FE0B222BBE0BB1508F4F2C0F5
:103EA000EB2DF0E0EA5DF14D0C94842D80E00E9452
:103EB000FD1510928B02C0CD4091840250918B026F
:103EC00050FB47F95695537060E070E08FE090E04A
:103ED00008CF81E00E941B16AFCD8FEFFBCF8AE0A9
:103EE000F9CF86EFF7CF9091860281E089270E9473
:103EF000E00AA2CD80918B02811101C084E08F5F26
:103F000018160CF081E0883008F087E080938B026F
:103F100093CD80918B02811101C084E08150F0CF5C
:103F2000882349F081E00E94D10A43E062E081E009
:103F30000E948D0A81CD81E00E94AD0AF6CF8823D0
:103F400011F082E0F0CF82E0F7CFBBE5EB16BCE7E3
:103F5000FB0671F1ECE5EE16ECE7FE06F9F0FAE58A
:103F6000EF16FCE7FF0609F050CF81E01EC010926B
:103F7000E3020E94060D2FEF34E38CE02150304025
:103F80008040E1F700C000000E9490076FEF7FEFD4
:103F900090E080E00E94F22D0E9470118091570203
:103FA00082FB882780F991E089270E9474132DCF26
:103FB00080E0FBCFC7010E941F0AD82E35CFEF2D1E
:103FC000EF70DE2E8F2D807F19F0D29490EFD922E2
:103FD000AA20B9F0DD2069F080E28E0D883010F063
:103FE000811009C08091E302D82AD092E3020E9496
:103FF000C90C8E2D45C08091DA01D82AD092DA0101
:10400000F6CF8E2D0E94E30FDD20E1F180E28E0DD0
:10401000883010F0811004C08D2D0E940E0A06C059
:10402000D0948091DA01D822D092DA010E94C90C92
:1040300029C0FF2DFF70DF2E8F2D807F803219F079
:10404000D29480EFD822882059F021E0821609F41A
:1040500081C0AA2009F48DC0992009F44FC0C9CFAE
:104060008091570282FD46C0AA20F1F1DD2039F08F
:104070008091E302D82AD092E3020E94C90C80E02A
:104080000E940F10AB2DA850BB0B149710F40E9488
:104090001711CC20A9F08091D00180FD11C0F8014A
:1040A00015828695869586950E94D10AC8010E9440
:1040B000601C8091D0018695869586950E94AD0AF8
:1040C00020E0D8014C9111965C91119712966C9159
:1040D000129713967C91139714968C9114971596BA
:1040E0009C910E94C012B8CC80E00E94E30FDD20BA
:1040F00049F292CFAA20A1F0911004C08D2D0E9408
:10410000D90FC0CF31E09312BDCF8091D9019D2D41
:104110009823D91609F4B6CFD82AD092D901B2CFB4
:104120009110B0CF8D2D0E94D20F9091D9018D2D7D
:10413000892329F08D2D809589238093D901809141
:10414000B0019D2D982309F49DCFD094D822D09210
:10415000B00198CFAA2029F085E0891508F492CF04
:10416000CDCF94E0991508F48DCF8D2D0E94D20FFC
:1041700089CF9920D1F3A9E38A1209C1BFEFE7EEF5
:10418000F3E0B150E040F040E1F700C000008E2DB8
:104190000E94E30F77CF6A2D8E2D0E94F30B72CF12
:1041A0008F2D837091F5A1106DCF4E2D42954695C0
:1041B0004770440F440F8E2D8F70042E01C0880F5E
:1041C0000A94EAF72E2D2071E4FE07C02FE030E0BC
:1041D00001C0220F4A95EAF720953F2D3695369576
:1041E0003370323069F050F440915402313029F08C
:1041F000822B84230E94DD0A45CF842B822BFACFA9
:10420000282B809154028227F5CF8695AA2011F0A1
:104210008F2D8170882309F435CF4E2D4295469518
:104220004770440F440F8E2D8F70042E01C0880FED
:104230000A94EAF72E2D2071E4FE07C02FE030E04B
:1042400001C0220F4A95EAF720953F2D3695369505
:104250003370323069F050F440915502313029F01A
:10426000822B84230E948A0A0DCF842B822BFACFC3
:10427000282B809155028227F5CF9F2D9F70F92E14
:10428000AA2029F0892F0E94D10A8E2D38CF8E2D99
:104290000E94D20F8F2D0E94AD0AF4CE8E2DA2EF78
:1042A0008A16B1F1A81570F0B0EF8B16D1F0E1EFDE
:1042B0008E1691F0AA2009F45EC091109ACE8F2D2F
:1042C0008F712AC0F3EF8F1651F124EF8212F2CFD3
:1042D0008091570282FD2FC08F2D8F71AA20D9F2B5
:1042E0001BC0AA2081F034E0391508F4CBCE2F2D65
:1042F0002F7181E090E001C0880F2A95EAF7909134
:1043000055028927AFCF85E0891508F4BBCEEFCFE2
:104310008F2D8F71A110BFCF0E94D10AB3CE80E044
:10432000AA2009F49FCF9F2D9F7181E001C0880FC3
:104330009A95EAF797CFAA2099F09F2D9F71F92EB1
:10434000892F0E94D10A8091570282FF07C0A8E0FE
:10435000FA9EC001112483608093D0018F2DDCCFA1
:1043600081E00E94BA0AB1E0B91508F08BCE82E074
:104370000E94BA0A87CE992079F0893341F4EFEF91
:10438000F7EE23E0E150F0402040E1F7FECE8FE170
:104390009EE40197F1F7F9CE8F2D8F717CCFCF93EB
:1043A000DF938091CF01807F09F04DC08091CE01D5
:1043B000882309F448C0E09133035091FA02C09178
:1043C000CA01D091C9016091CB017091CC0147E045
:1043D0005E17C9F18E2F90E0E49FF0011124E550A3
:1043E000FD4F2481222391F1489FF001499FF00D58
:1043F0001124DF01A550BD4F11962C9111972C135C
:1044000025C02C912D1322C015962C9115972111A2
:104410001DC012962D913C91261B370B283C31056F
:10442000A8F48091CF018F7080618093CF01EF5FFE
:10443000FC4F80818F708061808389EC91E00E94C5
:10444000601C0E94150ADF91CF910895FC013196FE
:10445000E770BECFA4E1B0E0E0E3F2E20C94332DCC
:104460008C0186E0F801DE011F9601900D928A957D
:10447000E1F7F8018481E58099ECA92E91E0B92E4D
:104480009091CD01911128C0882319F1EE20F1F00F
:10449000C8010E949D12F82E8823C1F087E0F80120
:1044A000D50101900D928A95E1F78091CD0181307F
:1044B00031F48091C9019091CA010E9490120E942A
:1044C000CF218F2D6496ECE00C944F2DC8010E94F3
:1044D000601CFF24F394F5CFD080C180828093804C
:1044E000F090CE012091CB013091CC01A401421B70
:1044F000530BFF2009F4D9C0483C510508F092C085
:104500008823F9F29091CA018091CF01282F207F52
:1045100009F056C0C91214C09091C901D91210C037
:10452000E11048C08F7080618093CF0189EC91E0E9
:104530000E94601C8091CF01F8018683F12CC1CFCD
:10454000E11038C06C2D8D2D0E9413066C2D8D2D21
:104550000E941306E82E8111F1CFDF86C88A8F856D
:1045600098890E949012292F22952F70243058F498
:104570009F70223088F0992399F0F8019681907FFE
:1045800079F4FE2C9ECF2A5F2F70223068F0C8018C
:104590000E94601CEF2CF5CF992311F0882389F33A
:1045A000805E883070F3F3CF803F58F3815F8330B3
:1045B00070F7E7CF8091CF0181608093CF01BECFAC
:1045C000C91207C09091C901D91203C0EE2009F4A5
:1045D0008DC0C8010E949D12882309F477CFEE2078
:1045E00009F474CF8091CF01803288F02091C90105
:1045F0003091CA01398728879B868A869091CD01A0
:104600009C871D868E87CE0108960E94601C87E0DD
:10461000F801A9ECB1E001900D928A95E1F70E94B2
:10462000CF2157CF9091CF01292F207F51F489ECD2
:1046300091E00E94601C87E0F50111928A95E9F7EC
:104640007DCF882309F43DCF8091CA018C1110C021
:104650008091C901D8120CC0E1100AC09683C8012C
:104660000E94601C87E0F50111928A95E9F729CF35
:10467000C8010E949D12882309F428CFEE2009F476
:1046800025CF8091CF01803210F22091C901309165
:10469000CA013A8329839C828B829091CD019D83AC
:1046A0001E828F83CE010196B0CF483C5105D0F6D3
:1046B000882309F40ECFFE2CEE2009F407CF809159
:1046C000CA018C1120C08091C901D8121CC08091F0
:1046D000CF0180FD0FC0982F907F61F08683903FBF
:1046E00031F0982F907F905F8F70892B8683C8015F
:1046F0000E94601C87E0F801A9ECB1E001900D92E6
:104700008A95E1F7DECEC8010E949D1281117FCF0C
:104710008091CF0181608093CF01C8010E94601C0D
:10472000D0CEABE1B0E0E7E9F3E20C943B2D4E8B49
:104730005F8B688F798F8A8F9B8F192F91111092C1
:10474000DA011D8A86E0FE017696DE011F96019051
:104750000D928A95E1F70A8D002341F021E04F8503
:10476000588969897A89C8010E94C0120B8B1C8BF9
:1047700087E0FE013F96DE01189601900D928A9522
:10478000E1F7CE0108960E942A2281110CC087E031
:10479000FE013896DE01119601900D928A95E1F79F
:1047A0008C8581110BC017E0809133039091FA0240
:1047B000891333C06B96E4E00C94572D2091FA02D4
:1047C00030E0C9010196877099274091330348175B
:1047D000190699F097E0929FD001939FB00D112494
:1047E000A550BD4FFE01319601900D929A95E1F7CB
:1047F0008093FA020E94150AD6CF1092E3020E941B
:10480000060D1092FA021092330387E0E9ECF1E012
:10481000DF011D928A95E9F7C6CF819FC00111245F
:1048200085509D4F0E942A22882321F280913303D4
:1048300090E001968770992780933303B5CFA6E067
:10484000B0E0E5E2F4E20C943B2D0E94DF178C010E
:104850008091DB019091DC018017910781F0198232
:104860001A820E94DF17682F49815A81792F80E0D0
:1048700090E00E9491231093DC010093DB012696C7
:10488000E4E00C94572D1F921FB61F9211248F93B2
:104890009F93AF93BF938091DD02811113C08091EC
:1048A000DE029091DF02A091E002B091E102419618
:1048B000A11DB11D8093DE029093DF02A093E00260
:1048C000B093E102BF91AF919F918F911F901FBE56
:1048D0001F901895CDB7DEB7A6970FB6F894DEBF38
:1048E0000FBECDBF85B7806885BF85B7806885BF9F
:1048F00084B7877F84BF0FB6F894A8958091600035
:10490000886180936000109260000FBE80E890E0A4
:104910000FB6F89480936100909361000FBE87ED0D
:1049200097E09093A3018093A2010E9432060E9417
:10493000D3068091E20084608093E20078948091B5
:10494000F0028823A1F01091E9001F709091EC0013
:10495000892F817090FD80E8182B1092E9008091DA
:10496000E80083FD0E94120D1F701093E90082E0A1
:1049700084BD93E095BD9AEF97BD80936E00109231
:1049800044021092450210924602109247020E9481
:10499000EE12811102C00E9414120E9442118093F3
:1049A0000B010E94F21081110E94B72B80910B0124
:1049B00081112CC085E0EDE6F1E0DE0191960190D9
:1049C0000D928A95E1F789A1809306018AA18093CF
:1049D00007018BA1809308018CA1809309018DA10F
:1049E00080930A0186E0E2E7F1E0DE011196019092
:1049F0000D928A95E1F7FE013196A0E0B1E0CE017B
:104A0000079621912D938E179F07D9F780910B015F
:104A100095E0811190E09093530285E0891B80938B
:104A2000520206E011E06BE0E62E61E0F62ED801BE
:104A30008D918D018F3F11F00E940808E016F1065C
:104A4000B1F700E011E0F80181918F018F3F11F083
:104A50000E940808F1E006301F07A9F78AE0E4E6A3
:104A6000F2E0DF01282E1D922A94E9F7E8E4F2E053
:104A7000DF011D928A95E9F70E948B1381117AC09C
:104A800066EE7EEF90E080E00E94F22D60E082E032
:104A900090E00E94D42D60E083E090E00E94D42D4D
:104AA0001092540260E074E184E090E00E94F22DE4
:104AB00060E086E090E00E94D42D6FEF87E090E008
:104AC0000E94D42D40E050E0BA0188E090E00E94BE
:104AD000E62D60E084E290E00E94D42D60E087E162
:104AE00090E00E94D42D60E08CE090E00E94D42DF4
:104AF00060E08DE090E00E94D42D19821A821B8222
:104B00001C821D821E821F82188648E050E068E1E8
:104B100070E0CE0101960E94C42D40E050E0BA0141
:104B200080E290E00E94E62D80E00E94FB110E944E
:104B3000141240E050E0BA018FE090E00E94E62DB0
:104B40001092A3021092A4021092A5021092A60243
:104B500082E390E09093A4028093A3024091A30289
:104B60005091A4026091A5027091A60283E190E0A9
:104B70000E94E62D82E090E00E94B02D80935802C2
:104B800084E090E00E94BE2D9093570280935602DD
:104B90000E942419EFE3FCE93197F1F700C000000F
:104BA0000E9424198091640280FF08C06FEF7FEF9C
:104BB00090E080E00E94F22D0E94900783E090E058
:104BC0000E94B02D0E94DD0A0E94F210882309F491
:104BD0000CC180E08093D10280E880933A030E9468
:104BE000712A6BE070E082E692E00E94071388234E
:104BF000E9F18091D10265E070E081FDF8C08DE5BA
:104C000092E00E940713882389F16DE070E08BE445
:104C100092E00E940713882349F10E94A107605A7D
:104C200075418F4F9F4F6093D3027093D40280934E
:104C3000D5029093D602EDE3F3E080E092E0DF014D
:104C40009C011D9221503040E1F7F0934405E09320
:104C500043058FEF9FEF90933C0380933B0381E0EC
:104C60008093DA028093D7021092D2020E94F2104F
:104C7000811102C00E94BA2B0E9448160E94F210B5
:104C800081112EC084EF9AE090934B0180934A01EA
:104C90002EE030E030934601209345018EE290E013
:104CA000909349018093480143EC57E0509353019E
:104CB0004093520130934E0120934D019093510146
:104CC0008093500146E156E150935B0140935A01B5
:104CD00030935601209355019093590180935801C8
:104CE0000E948B13882389F08FE090E00E94B82DFA
:104CF0008B01862F8F770E94FD15001F0027001F54
:104D00001370110F102B10938B0283E190E00E941F
:104D1000B82D6093A3027093A4028093A502909390
:104D2000A6028CE591E09093DC028093DB0248E1DF
:104D3000C42ED12C50E4652EBB24B39477247394F5
:104D400030E1A32E8091F00212E1853009F48AC08F
:104D50000E94241909E512E024E6E22E22E0F22E58
:104D6000D701F80191918D9142E0E336F40709F4FF
:104D700085C09817B9F30E94F210282E912CD70104
:104D80008D907D01F80131908F01381429F138247C
:104D9000512C44244394842D8321B1F02220A1F08E
:104DA00059A29AA20E94DF179CA38BA37DA291E037
:104DB000842D882109F490E09EA349A15AA16BA1FA
:104DC0007CA18DA10E9491235394440CF6E05F12C4
:104DD000E2CFF8013197808293949AE0392E9310B4
:104DE000CECF0E94281111E04EC082E0F3CE88E5BC
:104DF00092E007CF8091F002843029F10E943113B4
:104E00000E949D1A1092DD020FB6F894A895C092E8
:104E100060000FBE6092600083B7817F846083BFB3
:104E200083B7816083BF7894889583B78E7F83BF73
:104E30000FB6F894A8958091600088618093600017
:104E4000109260000FBE8091EF02882359F00E94FB
:104E50002419E4E6F2E08191811151C232E0EE368C
:104E6000F307C9F78091F002853009F4C3CF10929F
:104E7000E3020E94060D0E9417116ACF98137BCFA0
:104E80000E941F2410E00E94F2100E949D1A8823A5
:104E900039F00E9428110E94EB170E944C1304C0A5
:104EA0000E94EB171111F9CF0E9417119091630224
:104EB000891721F0809363020E94A1078091F0027C
:104EC000843009F4DBC00E94F210882309F43ACF41
:104ED0000E94A1072091740221116BC00091700201
:104EE0001091710220917202309173021B012C010A
:104EF000201A310A420A530A92018101043F1140EB
:104F00002105310508F455C0609370027093710259
:104F1000809372029093730280916E0290916F025F
:104F2000019690936F0280936E0219828E010F5F3B
:104F30001F4F21E050E040E060E087E00E94DF1377
:104F4000811106C080916E0290916F020A978CF1D8
:104F5000B0927402B0927A0281E09981911101C0FD
:104F600080E080937B028091790210E0882329F011
:104F70000E94421111E0811112E080917B0288238E
:104F800009F4B9C10E9442118111B7C182E0182B06
:104F90000E94E5129B01AC01DC01CB018C7FBC01BE
:104FA000CD01612B261737074807590711F00E94DA
:104FB000F61180917B02882309F4C2CE0E94A107DA
:104FC0004B015C018091750290917602A09177026D
:104FD000B091780214012501281A390A4A0A5B0A9D
:104FE000D201C1010497A105B10580F119821A828D
:104FF0001B821C828E010F5F1F4F24E050E040E0B7
:1050000060E088E00E94DF138823C1F069817A8123
:1050100080918002909181020E94AE0B9093810258
:10502000809380026B817C818091820290918302C7
:105030000E94AE0B9093830280938202809275024D
:1050400090927602A0927702B092780280918502C7
:10505000882309F471CE80918402898310E000E0F6
:1050600020E0AE014F5F5F4F61E089E00E94DF13F7
:10507000882309F461CE109285025ECE83E080938E
:10508000E9008091E80082FF1ECF8091E80090E067
:1050900085FF05C00E945106882391F091E0809120
:1050A000E8008B778093E800992309F40CCFE9811D
:1050B000E150E33168F5F0E0EE5CF14D0C94842DA5
:1050C00080E2E82EF12C8E010F5F1F4F8091E800E7
:1050D00085FD0AC08091E8008B778093E8000E94EC
:1050E0005106882399F3DACF8091F100D8018D938E
:1050F0008D01B1E0EB1AF10849F7D0CF1A828CE0AC
:105100008B831AC08A81823001F128F4813061F0EA
:105110008FEF898311C08330D9F08430C9F71B82A7
:105120001C821D821E8208C00E94A1070E948A2D37
:105130006B837C838D839E8340E250E0BE016F5F72
:105140007F4F82E00E946910BECE0E94E512EECF32
:105150002B81822F90E0FE013496245E8A309105E7
:1051600058F7DC01AC59BD4F3C913193019628139F
:10517000F5CFE2CF8A81823019F08530E9F2C8CFCD
:105180006B817C818D819E810E948A2D0E94F61107
:10519000D3CF4C816B818A810E9424129827892762
:1051A00098279E838D83C8CF2D813E813227232768
:1051B00032274C816B818A810E949811BDCF0E9459
:1051C000BE11BACFAA82B8CF1A828FE899CFEA80EF
:1051D000FB80FE24EF24FE248E010F5F1F4F8C8086
:1051E000800E912E911CC7018F589C4F80169106FE
:1051F00009F4A2CFEFE8EE16F10458F40E94B02DA6
:10520000D80114968C93FFEFEF1AFF0A0F5F1F4F20
:10521000EACFF8011482F7CF0A811B8110270127FA
:1052200010279E012F5F3F4F4901EC80E00EF12EC9
:10523000F11CC8018F589C4FE016F10609F47CCF91
:105240000F38110528F4D40114966C910E94D42DC6
:10525000BFEF8B1A9B0A0F5F1F4FEBCF0E94881185
:105260006BCF87E08A8368CFEA80FB80FE24EF243F
:10527000FE248E010F5F1F4F8C80800E912E911C9B
:10528000C70189960815190509F456CFE8E4EE160A
:10529000E3E0FE0658F40E94B02DD80114968C93DA
:1052A000FFEFEF1AFF0A0F5F1F4FEACFF8011482DA
:1052B000F7CF0A811B811027012710279E012F5F3E
:1052C0003F4F4901EC80E00EF12EF11CC801899698
:1052D000E016F10609F430CF083433E0130728F460
:1052E000D40114966C910E94D42DBFEF8B1A9B0AA7
:1052F0000F5F1F4FEBCF80E04ACE81E048CEA9BCC4
:1053000019BD09B400FEFDCF8091D8008F7D809338
:10531000D8008091E00082608093E0008091E000FE
:1053200081FDFCCF1092E3020E94060D9BCD289ACE
:10533000219A229A23982B9880E58CBD089590910C
:105340006C019F3F09F071C08F3F09F46EC061117D
:1053500044C01092460590914605423009F441C080
:10536000433009F442C094604130E1F141E050E043
:1053700042175307E0F1909146054031510509F479
:1053800052C0C0F54230510509F446C048305105BD
:1053900009F446C09CB520914605922B9CBD909186
:1053A0004505992319F09DB591609DBD80936C01D1
:1053B000E82FE295EF70F0E031A1282F2F7081E007
:1053C00090E001C0880F2A95EAF7382B31A392A10B
:1053D0008095892382A381E0089590E29093460509
:1053E000BACF986090934605C1CF9C60FBCF440F25
:1053F000551FBECF4034510549F04038510541F0AA
:105400004032510539F621E020934505926001C0F4
:10541000936090934605BECF91E090934505BACF37
:1054200021E0209345059160F4CF80E00895CF936B
:10543000DF938EBD0E94DF17EC010DB407FE05C09F
:105440008EB590E0DF91CF9108950E94DF178C1BFD
:105450009D0B8436910588F38EEF9FEFF3CFCF93AA
:10546000DF931EBC0E94DF17EC010DB407FE05C0E0
:105470008EB590E0DF91CF9108950E94DF178C1BCD
:105480009D0B8436910588F38EEF9FEFF3CF8091CB
:105490006C018F3F29F1E82FE295EF70F0E041A118
:1054A0008F7021E030E0B90102C0660F771F8A9546
:1054B000E2F7CB01942F982B91A392A1892B82A381
:1054C0008FEF80936C018DB58E7F8DBD9CB58091E3
:1054D0004605809589238CBD10924605109245059E
:1054E00008951092B9008CE08093B8000895B0E060
:1054F000A0E0EDE7FAE20C94342DB82EEB010E9407
:10550000DF176C01EE24E394F12CC431D10560F077
:1055100025E0E22EF12CCF3FDC0731F0CE0164E133
:1055200070E00E94192D7B0184EAA82E94E8992E40
:105530001092BC00A092BC000E94DF178C018091E9
:10554000BC0087FF0DC08091B900887F8830F9F0DA
:105550008091B900887F8031D1F00FEF1FEF08C034
:10556000C8010E94D017E816F90648F70EEF1FEFA2
:10557000CF3FDC07E9F2C6010E94D017C817D90750
:10558000B8F6C801CDB7DEB7EBE00C94502DB09261
:10559000BB009092BC000E94DF178C018091BC0080
:1055A00087FF0AC08091B900887F883111F080346C
:1055B000A1F610E000E0E5CFC8010E94D017E81680
:1055C000F90660F7D3CF0F931F93CF93DF93EB01CF
:1055D0008093BB0084E88093BC000E94DF178C019D
:1055E0008091BC0087FF11C02091B900287F81E025
:1055F00090E0283211F490E080E091958195910936
:10560000DF91CF911F910F910895CF3FDC0741F3B8
:10561000C8010E94D017C817D90710F78EEF9FEF67
:10562000EFCFB0E0A0E0E7E1FBE20C94372D6B0197
:105630008A017901B9010E94772AE6010C0D1D1D2E
:10564000C017D10711F097FF08C024E92093BC00D0
:10565000CDB7DEB7E8E00C94532DB70189910E94D5
:10566000E32AEECFB0E0A0E0E8E3FBE20C94372DB4
:10567000C62F6A017901B8010E94772A97FD0CC0F4
:10568000B8018C2F0E94E32AE601EC0CFD1CCE151C
:10569000DF0511F097FF08C024E92093BC00CDB7C7
:1056A000DEB7E8E00C94532DB80189910E94E32AFB
:1056B000EECF84E98093BC0008958EE14A9B02C03E
:1056C0008150E1F74A9BFECF08955A9880E28A956F
:1056D000F1F75A9A0895FC013BE03A95F1F798E00A
:1056E00020E080E031E040E14A95F1F7880F4A9BE5
:1056F00002C08160232742E04A95F1F7000040E1B3
:105700004A95F1F7915079F790E19A95F1F799B1AF
:1057100032E03A95F1F7000040E14A95F1F792FB4B
:10572000992790F992272081920F90830895A1E004
:10573000B0E0EDE9FBE20C94392D19828C017C017B
:10574000E60EF11C0E151F0541F481E099819111BF
:1057500080E02196E6E00C94552D0E945D2BCE0151
:1057600001960E946B2BF80181938F01EBCF529A27
:105770005A9A089552985A9AEA9AE9E6F0E0808196
:105780008F7C808308956150770B91E001C0990F61
:105790006A95EAF720E031E0911108C0222391F0E8
:1057A0005A9A80E28A95F1F75A980895492F48232A
:1057B00039F05A9A232740E24A95F1F79695ECCFB3
:1057C0005A98F9CF5A98EDCFFF920F931F93CF932A
:1057D000DF93EC018C01060F111DC017D10729F4CE
:1057E000CDB7DEB7E5E00C94562DF9900E94652BFD
:1057F00068E08F2D0E94C32BF0CF1F920F920FB63F
:105800000F9211240F931F932F933F934F935F9306
:105810006F937F938F939F93AF93BF93EF93FF9378
:10582000CF93DF930F92CDB7DEB719820E945D2B25
:10583000CE0101960E946B2B082F069506950695C2
:10584000282F22952570902F9570290F922F9370F5
:1058500026952695920F982797708981982B09F0A5
:105860005CC00B3008F059C080E18A95F1F75A9A74
:10587000529A82E08A95F1F700C05A9888E0089F12
:1058800080011124D801A45FBE4F1696ED91FC91C2
:1058900017973097A9F0609188017091890114964B
:1058A0002D913C911597260F371F11968D919C9144
:1058B0001297680F791F13964C9113978C91099545
:1058C000F801E45FFE4F6381662351F02091880167
:1058D0003091890184819581820F931F0E94E42B6E
:1058E0000E94652B80E18A95F1F75A9852985A9A4E
:1058F00080E18A95F1F7F801E45FFE4F608166234D
:1059000051F0209188013091890181819281820F2B
:10591000931F0E94972B0E945D2B0F90DF91CF91D8
:10592000FF91EF91BF91AF919F918F917F916F9177
:105930005F914F913F912F911F910F910F900FBE4B
:105940000F901F9018950F931F93CF93DF93EC0147
:105950000B970CF04CC0F894529A5A9885E08A95AF
:10596000F1F700009C2F969595708C2F8570980FFD
:10597000892F83709695969523E0CC0FDD1F2A958D
:10598000E1F7980F8E01092B0E94652B00C068E09B
:10599000802F0E94C32B80E18A95F1F752985A9A82
:1059A0004A9B1EC087E090E04A991CC0FE01E45F5C
:1059B000FE4F63816623F9F02091880130918901BF
:1059C00084819581820F931F0E94972B811113C0B0
:1059D000529A5A9A7894DF91CF911F910F9108951E
:1059E00000C0DECF019729F4529A5A9A789480E049
:1059F000F2CF00C0D9CF0E945D2B80E28A95F1F7EB
:105A00005A98529A80E18A95F1F7C45FDE4F688117
:105A1000662351F0209188013091890189819A8112
:105A2000820F931F0E94E42B0E94652B789481E0E3
:105A3000D2CFAA1BBB1B51E107C0AA1FBB1FA617D1
:105A4000B70710F0A61BB70B881F991F5A95A9F727
:105A500080959095BC01CD0108952F923F924F9271
:105A60005F926F927F928F929F92AF92BF92CF92EE
:105A7000DF92EF92FF920F931F93CF93DF93CDB7F7
:105A8000DEB7CA1BDB0B0FB6F894DEBF0FBECDBF6F
:105A900009942A88398848885F846E847D848C8440
:105AA0009B84AA84B984C884DF80EE80FD800C8149
:105AB0001B81AA81B981CE0FD11D0FB6F894DEBF2C
:105AC0000FBECDBFED010895991B79E004C0991F69
:105AD000961708F0961B881F7A95C9F78095089548
