:100000000C94D1050C94EE050C94EE050C94A330E1
:100010000C94EE050C94EE050C94EE050C94EE0594
:100020000C94EE050C94EE050C94041A0C94C01973
:100030000C9449280C94EE050C94EE050C94EE05F6
:100040000C94EE050C94EE050C94EE050C94EE0564
:100050000C94EE050C94DD1A0C94EE050C94EE0550
:100060000C94EE050C94EE050C94EE050C94EE0544
:100070000C94EE050C94EE050C94EE050C94EE0534
:100080000C94EE050C94EE050C94EE050C94EE0524
:100090000C94EE050C94EE050C94EE050C94EE0514
:1000A0000C94EE050C94EE050C94EE050501090286
:1000B000A10185020901A1000509190129081500FE
:1000C0002501950875018102050109300931158165
:1000D000257F95027508810609381581257F9501D0
:1000E00075088106050C0A38021581257F95017572
:1000F000088106C0C00660FF0961A1010962150000
:1001000026FF009520750881020963150026FF006F
:10011000952075089102C005010906A1010507197E
:10012000E029E71500250195087501810295017503
:100130000881010507190029FF150026FF00950613
:100140007508810005081901290515002501950587
:1001500075019102950175039101C08081828384AC
:1001600085868788898A8B8C8D8E8F9091929394C7
:10017000A0A1A2A3A4A5A6A7A8A9AAABACADAEAF07
:10018000B0B1B2B3B4C0C1C2C3C4C5C6C7C8C9CA7E
:10019000CBCCCDCECFD0D1D2D3D400000000000044
:1001A000000000000000000000000000000000004F
:1001B0000000000000000000000000000000007EC1
:1001C0000F00D4FFFFFFC700000078000000000010
:1001D0000000002A2B2800000000000000000000A2
:1001E00000000000000029000000002C1E34202127
:1001F0002224342627252E362D3738271E1F20216E
:1002000022232425263333362E37381F04050607CC
:1002100008090A0B0C0D0E0F1011121314151617E6
:1002200018191A1B1C1D2F3130232D350405060704
:1002300008090A0B0C0D0E0F1011121314151617C6
:1002400018191A1B1C1D2F3130354C00DA0281FFA2
:10025000D9F1DB20A4A62EAF00A0C0D30000A1C816
:10026000D30000AED580A81F408D142000000101EE
:100270000101010101010102020202020202020265
:100280000303030303030303040404040404040535
:1002900005050505060606060607070707070808F9
:1002A0000808090909090A0A0A0B0B0B0C0C0C0DAA
:1002B0000D0D0E0E0E0F0F0F101011111112121343
:1002C000131414151516161717181819191A1A1BBE
:1002D0001B1C1D1D1E1E1F2020212222232424251D
:1002E0002626272829292A2B2C2D2D2E2F30313256
:1002F00032333435363738393A3B3C3D3E3F404166
:1003000042434445464748494A4C4D4E4F5051534D
:1003100054555658595A5B5D5E5F61626465666804
:10032000696B6C6D6F7072737577787A7B7D7E8088
:1003300082838587888A8C8E8F91939596989A9CD4
:100340009EA0A2A3A5A7A9ABADAFB1B3B5B7BABCE8
:10035000BEC0C2C4C6C9CBCDCFD1D4D6D8DBDDDFB9
:10036000E2E4E7E9EBEEF0F3F5F8FAFDFF00AF00A9
:10037000AE29001E001F002000210022004C0014A6
:10038000001A000800150017002B000400160007D3
:100390000009000A0021521D001B0006001900057B
:1003A000000000E30091412C4290433000230024E0
:1003B000002500260027002D001C0018000C00124C
:1003C00000130089000B000D000E000F0033002405
:1003D0000211001000360037003800E50032002A14
:1003E00000284291410000000029021E022F002037
:1003F00002210222024C0214021A020802150217FC
:10040000022B0204021602070209020A0201001D61
:10041000021B020602190205020000E302010001AC
:1004200000010030022E002302340225022602873A
:10043000021C0218020C021202130289020B020DA6
:10044000020E020F0234001F0211021002360237A0
:10045000023802E502320201000100010000000042
:100460000001003A003B003C003D003E000100015D
:1004700000240025002600010001000100210022C7
:100480000023003302010001001E001F0020002D88
:10049000020000370001000100010025023F00407A
:1004A0000041004200430044000100500052004F50
:1004B00000010045004B00D1005100D200D30001E3
:1004C000004E000100010001000100010026024C65
:1004D000000100010000000000207801000100017F
:1004E0000001000100217823782578277801000198
:1004F0000022782478267828780100010001000184
:100500000001000100010001000000510052004FF5
:1005100000010001002B782C782D782E782F783070
:1005200078317832783378347801000100010001A5
:100530000001000100010001004A004E004B004D87
:100540000001000100010001002A0001000000007C
:100550000001000100010001000100010001000193
:100560000001000100010001000100010001000183
:100570000001000100010001000100010001000173
:100580000000000100010001000100010001000164
:100590000001000100010001000100010001000153
:1005A0000001000100010001000100010001000143
:1005B000000100407E0100417E01000100010001B8
:1005C00000010001000000000009025B00030100BF
:1005D000A0FA090400000103010100092111010032
:1005E00001224400070581030800010904010002FB
:1005F00003000000092111010001222200070582E9
:100600000320000107050303200001090402000183
:10061000030000000921110100012249000705849F
:1006200003200001120100020000000857F6000438
:100630000001010200011603530075006D006E00F9
:1006400069006700680074003500370000000E0381
:100650006D00610072006200790033000000040345
:10066000090407087F0807003E5B4F5B3E003E6BB6
:100670004F6B3E001C3E7C3E1C00183C7E3C18002C
:100680001C577D571C001C5E7F5E1C0000183C1828
:100690000000FFE7C3E7FF00001824180000FFE791
:1006A000DBE7FF0030483A060E00262979292600AC
:1006B000407F05050700407F05253F005A3CE73C89
:1006C0005A007F3E1C1C0800081C1C3E7F001422A0
:1006D0007F2214005F5F005F5F0006097F017F00DB
:1006E000006689956A0060606060600094A2FFA265
:1006F000940008047E04080010207E2010000808E2
:100700002A1C0800081C2A0808001E1010101000DF
:100710000C1E0C1E0C0030383E383000060E3E0E0B
:10072000060000000000000000005F00000000075D
:1007300000070000147F147F1400242A7F2A12006F
:10074000231308646200364956205000000807034E
:100750000000001C224100000041221C00002A1C55
:100760007F1C2A0008083E08080000807030000046
:100770000808080808000000606000002010080455
:1007800002003E5149453E0000427F400000724950
:10079000494946002141494D33001814127F100089
:1007A0002745454539003C4A494931004121110955
:1007B0000700364949493600464949291E000000CC
:1007C0001400000000403400000000081422410022
:1007D00014141414140000412214080002015909D1
:1007E00006003E415D594E007C1211127C007F498B
:1007F000494936003E41414122007F4141413E008E
:100800007F49494941007F09090901003E414151A1
:1008100073007F0808087F0000417F4100002040EE
:10082000413F01007F08142241007F4040404000CA
:100830007F021C027F007F0408107F003E4141417F
:100840003E007F09090906003E4151215E007F09F3
:100850001929460026494949320003017F01030056
:100860003F4040403F001F2040201F003F40384095
:100870003F00631408146300030478040300615903
:10088000494D4300007F414141000204081020000F
:10089000004141417F000402010204004040404009
:1008A00040000003070800002054547840007F28CF
:1008B00044443800384444442800384444287F00E5
:1008C00038545454180000087E09020018A4A49C4F
:1008D00078007F080404780000447D400000204038
:1008E000403D00007F102844000000417F40000090
:1008F0007C04780478007C0804047800384444447C
:100900003800FC182424180018242418FC007C0843
:100910000404080048545454240004043F442400B0
:100920003C4040207C001C2040201C003C403040CB
:100930003C004428102844004C9090907C00446473
:10094000544C4400000836410000000077000000CD
:100950000041360800000201020402003C26232662
:100960003C00000000000000404040F0F8F8FF3874
:10097000FFF8F83FF8F8FF38FFF8F8F04040400083
:10098000000000000080C0C0C0800000C0C0800027
:10099000000080C0C000C0C0000080C0C0000000D7
:1009A0000000C0C0C0C0C000C0C000000000000007
:1009B0000000000000000000000000000000000037
:1009C0000000000000000000000000000000000027
:1009D0000000000000000000000000000000000017
:1009E00000C0F0F8FC3E1E06010000007F414141BE
:1009F0007F007F4141417F000080C0E07E5B4F5B14
:100A0000FEC00000C000DCD7DEDEDED7DC00C000A8
:100A100000000000000000000000000000000000D6
:100A20000000000000000000494949FFFFFFFFE00F
:100A3000DFBFBF00BFBFDFE0FFFFFFFF4949490045
:100A4000000000001F3F6060E0BF1F007F7F071EA7
:100A5000381E077F7F007F7F0E1F3B716000000004
:100A600000007F7F0C0C0C007E7E007F7E03030065
:100A70007F7E03037E7E03037F7E000F3E703C0675
:100A80003C703E0F00327B49493F7E007F7E03036E
:100A9000001E3F69696F2600000000000000000092
:100AA00000030F1F3F3C7870600000007F41414110
:100AB0007F007F4141417F00307B7F7830202030B4
:100AC000787F3B0003000F7F0F0F0F7F0F000300A5
:100AD0000000000000000000000000000000000016
:100AE0000000000000000000010101070F0F7F0F50
:100AF0007F0F0F7E0F0F7F0F7F0F0F070101010088
:100B000000000000000000000001010000000000E3
:100B100000000000000000000000000000000000D5
:100B200000000000000000000000000000000000C5
:100B300000000000000000000000000000000000B5
:100B400000000000000000000000000000000000A5
:100B50000000000000000000000000000000000095
:100B60000000000000000000000000000000000085
:100B70000000000000000000000000000000000075
:100B80000000000000000000000000000000000065
:100B90000000000000000000000000000000000055
:100BA000000011241FBECFEFDAE0DEBFCDBF11E0A1
:100BB000A0E0B1E0ECE6F6E602C005900D92A23CA2
:100BC000B107D9F726E0A2ECB1E001C01D92A53132
:100BD000B207E1F70E9470280C94E4320C940000F4
:100BE000FC01909103048181981321C08091040439
:100BF000882319F0928189131AC0809105048823F3
:100C000019F09381891313C080910704882319F088
:100C1000958189130CC080910604882351F091E0DE
:100C20002481281301C090E0892F8170089581E00C
:100C3000FCCF80E0FACF482F209101049091C803A7
:100C400057E0291302C080E0089530E0529FF00180
:100C5000539FF00D1124E753FC4F8181681306C0A8
:100C60008081481303C085818111EECF2F5F3F4FF4
:100C70002770E7CFE8EDF0E080818E7F80831092CF
:100C8000E2001092DA001092E100A0EEB0E08C9148
:100C900081608C9380818F77808319BCA7EDB0E051
:100CA0008C918E7F8C9380818F7E80831092B00395
:100CB00008952091E4003091E50095E6A901209186
:100CC000EC00822F817020FF06C08091E80080FF39
:100CD00006C080E008952091E80022FD1AC08091AE
:100CE000BE03882389F0853089F08091EB0085FD73
:100CF0000FC02091E4003091E50042175307F9F24C
:100D00009150E1F684E0089582E0089583E008952B
:100D100081E008958091C00387FF13C08091E800AF
:100D200082FF06C08091E8008B778093E80004C0C2
:100D30008091BE038111F2CF08958091BE03882374
:100D4000D9F38091E80080FFF8CF8091E8008E779A
:100D5000ECCF982F9093E900242F762F50E089173D
:100D600031F07091EC002091ED005091F00021FDE8
:100D700007C09F5F973071F78093E90081E0089585
:100D80003091EB003E7F3093EB003091ED003D7FE2
:100D90003093ED003091EB0031603093EB007093B5
:100DA000EC002093ED005093F0002091EE0027FD21
:100DB000E0CF80E00895B0E0A0E0E1EEF6E00C9432
:100DC000DD31C8EDD0E088818F7E8883E7EDF0E0EB
:100DD00080818160808384E082BF81E08093B00362
:100DE00088818E7F888302EE10E0F80110821092D5
:100DF000DA0081EEC82ED12CF601108288818F771F
:100E0000888388818068888388818F7D888319BCE6
:100E10001092BE031092BF031092BD031092BC0348
:100E200090EEE92EF12CF70180818B7F8083888101
:100E30008160888342E060E080E00E94A906F601BC
:100E400080818E7F8083F8018081816080838081B2
:100E500088608083F70180818E7F808388818061B4
:100E60008883CDB7DEB7E8E00C94F931FC018091BE
:100E7000C6039091C70386179707A0F06115710507
:100E800029F49091E8009E779093E80090E0611536
:100E9000710551F4911108C08091E80082FF34C0BF
:100EA00080E00895BC01F2CF8091BE038823C1F198
:100EB0008530C1F18091E80083FD30C08091E80069
:100EC00082FDEACF8091E80080FFE1CF8091F300BE
:100ED0002091F200382F6115710519F02830310585
:100EE00058F091E02830310509F090E02091E800B9
:100EF0002E772093E800CBCF81918093F100615051
:100F000071092F5F3F4FE7CF8091BE03882341F0E7
:100F1000853041F08091E80083FFBECF81E00895E5
:100F200082E0089583E0089508958091B3030895C1
:100F300087E797E7909301088093000888E19AE09B
:100F40000FB6F894A895809360000FBE9093600050
:100F5000FFCF2FB7F8946091AC037091AD038091EF
:100F6000AE039091AF032FBF08959C01FC01329610
:100F70009FEF80E04191461751F09F3F19F44111D6
:100F800001C0982F8F5F8630A9F79F3F09F408951D
:100F9000290F311D97FD3A95F90162830895FC01EF
:100FA000680F791F8FEF91E32191822728E030E0CD
:100FB00087FF09C0880F892721503109C9F7E61733
:100FC000F70791F70895880FF7CFFA01811101C053
:100FD000FB010995089580917703982F9E7F71F406
:100FE00080917703817082608093770380917A0388
:100FF000873918F086E980937A030895843080F762
:10100000F5CFCF93DF93ECE6F1E083819481A58166
:10101000B681E90188839983AA83BB8314821382F2
:1010200016821582DF91CF91089580E0089563E0E4
:1010300070E080E292E00E94CF0790911F02891336
:1010400018C0E0912002EB30A4F488E0E802F0013F
:101050001124E45FFE4F0680F781E02D309749F0C0
:1010600023E432E04091220263E272E080912102A7
:1010700009950895ECE0F1E0AAE0B2E057968C9172
:10108000579780A758968C9183AF0895F894E82FCE
:10109000E295EF70F0E031A1282F2F7081E090E011
:1010A00001C0880F2A95EAF7982F9095932391A372
:1010B00092A1892B82A3789408959091860292FF41
:1010C00010C041E0282F2471243009F040E031E0C5
:1010D000282F2871283009F030E0431711F02CE058
:1010E000822793FF10C041E0282F2471243109F09A
:1010F00040E031E0282F2871283109F030E0431713
:1011000011F02CE082273091870230FF10C051E0AF
:10111000282F2171213009F050E041E0282F28715B
:10112000283009F040E0541711F029E0822731FF00
:1011300010C041E0282F2171213109F040E031E059
:10114000282F2871283109F030E0431711F029E0E9
:10115000822794FD877E089582389105B9F1B0F415
:101160008133910509F47DC048F48932910509F471
:101170006DC08A32910509F47BC0089585339105CD
:1011800009F45FC08933910509F10895833E910503
:10119000D9F138F4803E910529F1823E910579F12B
:1011A0000895863E9105D9F1873E910509F43EC028
:1011B000843E910541F52091870221FF24C0809152
:1011C000860284FD19C087EE90E008952091860282
:1011D000237009F05AC02091870223FF14C089E2CE
:1011E00090E008952091860220FD38C0309187025A
:1011F00030FF09C024FF43C090E080E008952091B3
:10120000860222FDF7CF08952091860222FD3AC082
:101210003091870230FD39C024FFF5CFEDCF20910A
:10122000860223FFF0CF24FDE7CFCDCF20918602A9
:1012300023FD2EC03091870231FFEECF84EE90E087
:1012400008952091860225FFDECFC9CF2091860226
:1012500025FD21C02091870223FFD5CF89E390E0AF
:10126000D2CF2091860226FFCECF8AE290E0089569
:101270002091860226FFC7CF81E390E0089583EE98
:1012800090E0089582EE90E0089580EE90E0089559
:1012900086EE90E0089585E390E008951F93CF9344
:1012A000DF930E94AC08EC01C11582E5D80708F075
:1012B0003FC0C11590E5D90708F0C2C0C83ED105AE
:1012C000C0F4C03ED10580F4C53AD10548F4C4301D
:1012D000D10550F4C130D10539F0D0E0C0E004C0F0
:1012E000CD3CD105D0F3D065CE01DF91CF911F91D8
:1012F0000895C11580E4D80708F053C0C11590E2E5
:10130000D90708F0B7C0C11581E0D80730F38D2F99
:101310000E945D08182FCE0199270E94AC08C12FAA
:10132000D0E0DC2FCC27CC27DF71C82BD92BDCCF2A
:10133000C03892E5D907A8F4C03682E5D80708F08E
:1013400063C0C03492E5D90708F049C0C03282E5D5
:10135000D80788F1CF71D0E0DC2FCC27C16FD06ADD
:10136000C3CFC03C92E5D90780F48C2F8F71C03A6F
:10137000D24508F45EC00E945D08C82FD0E0DC2F83
:10138000CC27CC27DF71D062AFCFC03E82E5D80733
:1013900008F0A3CFDC2FCC27CC27DF71C06FD06A39
:1013A000A3CFCE0199270E94AC08CC27DF70C82BB1
:1013B000D92BD06A99CF2C2F2695269590E2299F7C
:1013C000900111248C2F8370C1E0D0E002C0CC0FBB
:1013D000DD1F8A95E2F7C22BD32BDD6885CF2C2F3A
:1013E00026952695277080E2289F900111248C2F46
:1013F0008370C1E0D0E002C0CC0FDD1F8A95E2F718
:10140000C22BD32BDC6870CF2C2F26952695277006
:1014100090E2299F900111248C2F8370C1E0D0E0CD
:1014200002C0CC0FDD1F8A95E2F7C22BD32BDA68FE
:101430005BCFC82FD0E0DC2FCC27C46FD06A54CF4D
:101440008C2F8F710E945D0855E0D695C7955A95EF
:10145000E1F7CF70D0E0DC2FCC27282F30E084FFDD
:1014600005C044E0220F331F4A95E1F7C22BD32B6E
:10147000D0693ACF8D2F8F710E945D08182FCE0151
:1014800099270E94AC08C12FD0E0DC2FCC27CC27B5
:10149000DF71C82BD92B77CF80959091B10398231A
:1014A0009093B1030895809101049091C80398131B
:1014B00001C008958F5F8770FACF292F9A3078F591
:1014C000863068F590E036E0239F800D911D112451
:1014D000682F677023E0969587952A95E1F7FC01C0
:1014E000EE0FFF1FE80FF91FEE52FE4F50E040E0F5
:1014F00080E0219130E0062E02C0369527950A94AF
:10150000E2F721703327042E01C0220F0A94EAF774
:10151000822B4F5F5F4F4330510559F7089580E0AC
:101520000895292F9A3098F5863088F590E036E0B6
:10153000239F800D911D1124282F277041E001C0A9
:10154000440F2A95EAF723E0969587952A95E1F7C7
:10155000FC01EE0FFF1FE80FF91FEE52FE4F30E0C7
:1015600020E070E05191DF011197CB01022E02C003
:10157000969587950A94E2F7817081958527842353
:1015800085278C932F5F3F4F2330310559F70895FE
:101590008093850208959091850221E030E0F90161
:1015A00001C0EE0F8A95EAF7D90102C0AA0FBB1F4E
:1015B0006A95E2F7EA2B01C0220F4A95EAF7892FD4
:1015C0008E23E81305C0292B822F0E94C80A089594
:1015D00020952923F9CF21E030E001C0220F8A9520
:1015E000EAF720958091850282230E94C80A089517
:1015F0009091F101809589238093F101282F277024
:1016000069F4891759F09091870292FF07C0869577
:10161000869586950E94EB0A1092F101089521E0CB
:1016200030E001C0220F8A95EAF780918502822B73
:101630000E94C80A08958093FC010895CF93C82F93
:10164000809179018C1751F00E94A90760937A016B
:1016500070937B0180937C0190937D01C09379010D
:10166000CF91089580916C01F90180830895B0E0D5
:10167000A0E0EDE3FBE00C94DD31FC01EB01909187
:101680007E01911101C094E06081718191509B01B4
:10169000092E02C0359527950A94E2F7D901092E43
:1016A00002C0AA0FBB1F0A94E2F76A1B7B0B71836F
:1016B0006083628173818B01092E02C015950795A5
:1016C0000A94E2F7D80102C0AA0FBB1F9A95E2F76D
:1016D0006A1B7B0B7383628381E80138BFEF1B07B2
:1016E0002CF0802F003811050CF08FE78D83213806
:1016F0009FEF390754F1203831054CF5922F919521
:101700009C83442319F081958D832C830E94A90723
:101710002D81211103C02C812223D9F060937F01F8
:101720007093800180938101909382018091830165
:101730009BE0980F973120F4080F009383011D82DE
:10174000CDB7DEB7E8E00C94F93121E8D7CF2FE729
:10175000D5CFC0907F01D0908001E0908101F090C2
:1017600082016C197D098E099F0964367105810516
:101770009105E0F210928301D9CFFC01DB012281B7
:10178000338191E821388FEF38072CF0922F2038E1
:1017900031050CF09FE712969C93129720813181BE
:1017A00021388FEF3807A4F0203831059CF41396C8
:1017B0002C931397442339F0919512969C9312978A
:1017C000219513962C931182108213821282089510
:1017D00021E8EDCF2FE7EBCF9C01860F971F37FD58
:1017E00007C077FD04C097FF02C08FEF9FE7089501
:1017F00077FFFDCF97FDFBCF80E090E80895CF9372
:101800008AEA92E00E94F005C82F882379F0E091DF
:10181000A903F091AA03309749F082E08093020473
:101820000480F581E02D82E094E009959091030415
:1018300086E0E2E0F4E0DF01282F1D922A95E9F727
:1018400090930304AAEAB2E001900D928A95E1F721
:1018500081E0C11103C0911101C080E08170CF917E
:1018600008952FE2280F283078F481E090E001C03D
:10187000880F2A95EAF720910304662331F0822B22
:10188000809303040E94FF0B089580958223F8CF74
:10189000CF93DF93C0911106D09112068A30C1F424
:1018A00020910804CE018B509440622F70E00E947A
:1018B000BF31281B822F66E00E940A32C82FC15018
:1018C00018F4DF91CF91089580E20E94480CF7CF81
:1018D0008D30E9F4CB50D44020910804622F70E0A1
:1018E000CE010E94BF31281B822F9E01280F311D7F
:1018F0002115324018F080E0D0E0C0E0C80FD11DC3
:10190000C55FDB4FD0931206C0931106DACF96E085
:10191000FE01ABE0B6E001900D929A95E1F7803EB2
:1019200008F458C086E0FE0111928A95E9F7C0914B
:101930001106D091120646E050E0BE018BE096E021
:101940000E9476329E012B503440892B41F1C9010F
:1019500045E0969587954A95E1F741E050E0BA0158
:1019600002C0660F771F8A95E2F7CB0160910904E8
:1019700070910A04862B972BB9016B5F7F4FE5E0CE
:1019800076956795EA95E1F702C0440F551F6A9571
:10199000E2F7842B952B90930A04809309042A5F25
:1019A0003F4F40910804642F70E0C9010E94BF318D
:1019B000481B463010F4240F311D211572E0370703
:1019C00010F030E020E0255F3B4F3093120620936B
:1019D000110677CFF6E08F9FB00111246E59794F31
:1019E00046E050E0CE010E946D32A1CFCF93DF934D
:1019F000EBE5F1E08491EF01811103C0DF91CF911C
:101A000008950E94480C2196FE018491F5CF8091A3
:101A1000B1039091FB01892B8093C4019091FA014D
:101A2000992391F0892B8093C40120E086EC91E00A
:101A3000FC013191CF0131112F5FF1E08C3C9F0708
:101A4000B9F721111092FA0148E050E062EF71E01D
:101A500084EC91E00E947632892BA9F088E0E4ECD6
:101A6000F1E0A2EFB1E001900D928A95E1F7E091EB
:101A7000A903F091AA03309731F00280F381E02DA1
:101A800084EC91E009950895E6ECF1E086E0DF0151
:101A90001D928A95E9F71092FB010E94070D0895A7
:101AA000AAE2B0E0E6E5FDE00C94E23180EC93E0E0
:101AB0002091F100DC012D93CD01B3E0883C9B0720
:101AC000B9F78091C103833009F472C0B8F4813052
:101AD00009F449C0823009F4B5C08091E80083FF61
:101AE0008DC28091C0039091C1039A3008F086C2E4
:101AF000E92FF0E0EA51FD4C0C942A328A3009F4C7
:101B000090C08B3009F471C0893039F78091C003DF
:101B1000813219F78091C4039091C503009711F0A9
:101B20000297D9F68091E800877F8093E800809142
:101B3000E80082FF38C09091F3008091F200029794
:101B400031F48091F100813011F0863021F48091E0
:101B5000F1008093B3038091E8008B778093E800D5
:101B60000E948A06BACF8091C003813A09F0B5CFAE
:101B70008091E800877F8093E8008091C403909172
:101B8000C503892B61F468E084EB93E070E00E9468
:101B900036078091E8008B778093E8009ECF60E065
:101BA00090E080E0F3CF8091BE038111C0CF95CF4C
:101BB0008091C003813A09F090CF8091C403909145
:101BC000C503892B09F089CF8091E800877F809336
:101BD000E8008091E80080FFFCCF80919A0180931B
:101BE000F1008091E8008E77B9CF8091C0038132F7
:101BF00009F073CF8091C4039091C503892B09F03C
:101C00006CCF8091E800877F8093E8000E948A066D
:101C10008091C20380939A011092B1030E94440DF7
:101C20005CCF8091C003813209F057CF8091E800EA
:101C3000877F8093E8000E948A068091C303809387
:101C4000B2034BCF8091C003813A09F046CF809117
:101C5000E800877F8093E8008091E80080FFFCCF58
:101C60008091B203BCCF803899F0823809F0C6C1A8
:101C70008091C4038F70873008F0C0C18093E90061
:101C80008091EB0085FB882780F91092E90006C05F
:101C90008091BC039091BD03911182609091E80006
:101CA000977F9093E8008093F1001092F10080916B
:101CB000E8008E779FC1882309F48DC1823009F036
:101CC0009DC18091C203811190C18091C4038F7026
:101CD0002FEF280F263008F091C18093E900209162
:101CE000EB0020FF82C1933031F48091EB008062E1
:101CF0008093EB007AC19091EB0090619093EB00A0
:101D000021E030E001C0220F8A95EAF72093EA0033
:101D10001092EA008091EB008860EACF81116EC1D9
:101D20001091C2031F778091E3008078812B80930C
:101D3000E3008091E800877F8093E8000E948A0694
:101D40008091E80080FFFCCF8091E3008068809361
:101D5000E30082E0111183E08093BE034FC18058FD
:101D6000823008F04BC12091C2033091C3032C3D57
:101D7000E3E03E07A1F583E08A838AE289834FB7D7
:101D8000F894DE01139620E03EE051E2E32FF0E00C
:101D900050935700E49120FF03C0E295EF703F5F3E
:101DA000EF708E2F90E0EA30C0F0C7968D939D9330
:101DB0002F5F243159F74FBF8091E800877F8093D0
:101DC000E8006AE270E0CE0101960E943607809139
:101DD000E8008B778093E80011C1C096E7CF80912F
:101DE000C4039091C503432F55274330510509F48F
:101DF0004AC078F54130510509F47AC08BE590E08E
:101E0000E9ECF5E04230510509F0F8C02091E80016
:101E1000277F2093E8002091C6033091C7038217E3
:101E2000930708F49C0140E02115310509F065C0D5
:101E3000411163C08091E80082FDC9CF8091BE034B
:101E4000882329F2853019F28091E80083FFF2CFD0
:101E5000BECF4132510509F43CC04232510509F070
:101E6000CDC08330910508F0C9C0FC01EE0FFF1F03
:101E7000EA54FE4F0190F081E02D8D549E4FDC011D
:101E80008C9190E01AC0332721303105D1F0211513
:101E9000310561F02230310509F0B0C0E6E3F6E02B
:101EA000E4918E2F90E0E6E3F6E007C0EEE5F6E081
:101EB000E4918E2F90E0EEE5F6E0009709F49EC0E5
:101EC000A5CFEEE4F6E0E4918E2F90E0EEE4F6E0AC
:101ED000F4CF8330910508F091C0880F991FFC0161
:101EE000E454FE4F0190F081E02D89E090E08ECF28
:101EF00082E190E0E4E2F6E089CF8091BE0388239E
:101F000009F465CF853009F462CF8091E80083FD44
:101F10005ECF8091E80082FD8DCF8091E80080FF48
:101F200083CF9091F3008091F2002115310519F0D3
:101F30008830910550F041E0089709F040E0809129
:101F4000E8008E778093E8006FCF44914093F100D2
:101F50003196215031090196E8CF803809F04EC002
:101F60008091E800877F8093E8008091BF03809391
:101F7000F1009DCE811142C01091C2031230F0F5E4
:101F80008091E800877F8093E8001093BF030E9450
:101F90008A06112311F084E005C08091E30087FDDB
:101FA000FACF81E08093BE0342E061EC81E00E94C1
:101FB000A90642E261EC84E00E94A90642E261ECDB
:101FC00082E00E94A90642E260EC83E00E94A9063A
:101FD0008091BE0313C08091C203813079F481E007
:101FE000933009F080E08093BD031092E900809166
:101FF000E800877F8093E8000E948A068091E800CD
:1020000083FF0AC08091E800877F8093E800809179
:10201000EB0080628093EB00AA96E3E00C94FE3123
:10202000882321F00E944C0A0E94070D08958823FE
:1020300039F09091B103982B9093B1030E94070D52
:102040000895882349F19CEF980F913A80F4E6ECCB
:10205000F1E02CEC31E09191891303C0DF0111977D
:102060001C922E173F07B9F70E94070D089590E2C2
:10207000980F983050F4877091E001C0990F8A95BD
:10208000EAF7892F0E944C0AEFCF93E3980F933120
:1020900018F460E00E94310C0895CF93C82F882374
:1020A000A9F08CEF8C0F813A00F5E6ECF1E0DF014E
:1020B0008D91C81769F081E0AC3CB807C9F76C2F67
:1020C00084EC91E00E94B5070E94070DCF9108951E
:1020D0008191C81303C0DF0111971C9281E0EC3C91
:1020E000F807B1F70E94070DEACF80E28C0F883025
:1020F00068F4C77021E030E001C0220FCA95EAF70A
:102100008091B103822B8093B103DECF83E38C0FE8
:102110008331E0F661E08C2F0E94310CD7CF0F9312
:102120001F93CF93DF938B01EA019091BE0394300C
:1021300061F58093E9008FEF9091E800815095FD63
:1021400006C095ED9A95F1F700008111F5CF8091C9
:10215000E80085FF1AC00E945906811111C08091C4
:10216000E80085FD06C08091E8008E778093E80046
:10217000F2CFF80181918F018093F100219779F7D7
:102180008091E8008E778093E800DF91CF911F91D6
:102190000F91089546E050E0BC0184E00E948F104A
:1021A0000895CF93DF93EC0148E050E0BC0181E05B
:1021B0000E948F1088E0FE01A4EBB3E001900D9225
:1021C0008A95E1F7DF91CF91089560918F01809119
:1021D000770380FF20C080918E0143E0849FC0017F
:1021E00011248D539D4F539A2BB1277F3BB13860FB
:1021F0005FB7F894FC01649FE00DF11D1124BF014D
:1022000068177907D1F45FBF8FE594E00197F1F784
:1022100000C000000895809190019091910123E009
:10222000829FF0011124ED53FD4F8917A0F6118212
:10223000108212828F5F3396F8CFFC014191CF015B
:10224000E8E03BB9000000C047FF2BB9440F000095
:1022500000C000C000C02BB900C0EA9591F7D0CFF4
:10226000E7E7F3E080818E7F8083E0ECF2E082811B
:10227000816082830E94E5100895B0E0A0E0E3E46D
:10228000F1E10C94DB317C015B016A018091740205
:1022900001E010E08A3010F40AE010E0C1E0D0E084
:1022A000B501C701F6010995811104C021960C17EB
:1022B0001D072CF4CDB7DEB7EAE00C94F731CC9FC4
:1022C0009001CD9F300D300D112490E080E045E36A
:1022D0004A95F1F70000019682179307C1F7E0CF06
:1022E00080910902811119C082E390E02091E300FE
:1022F00027FD10C0EFE3FCE93197F1F700C00000C3
:102300000197A1F782E0809309020E943A06109299
:10231000BE0303C081E08093090281E0909109022D
:10232000913011F080E0089508950E947011882383
:1023300059F0E091A903F091AA03309729F0019098
:10234000F081E02D0995089580E008950F931F9383
:102350000E947011882329F00E94A9071F910F91F4
:1023600008950E94A90700917502109176022091AC
:10237000770230917802600F711F821F931FEECF9A
:102380003E98469A549A5C9885E08A95F1F7000049
:1023900086B154985C9A90EA9A95F1F790E026E01D
:1023A000959587952A95E1F7809590958170089588
:1023B0001F93CF93DF93182FEB010E944D108FE9ED
:1023C0009FE00197F1F700C000002197C1F7812F2E
:1023D0000E942110DF91CF911F9108951092B103B7
:1023E0000E94440D2FEF84E39CE0215080409040F8
:1023F000E1F700C0000088E19AE00FB6F894A895D4
:10240000809360000FBE90936000FFCFCF93DF9367
:10241000C1E8D2E060E0CE010E94B0322196C11541
:1024200084E0D807B9F7DF91CF9108951F93CF9338
:10243000DF93122F8530E0F46A30D0F44630C0F4D8
:10244000C42FD0E0CC0FDD1F9CE0699FC00DD11DD3
:10245000112498E7899FC00DD11D1124632FCE014F
:1024600089960E94B032612FCE018A960E94B032C6
:10247000DF91CF911F910895AF92BF92CF92DF92DB
:10248000EF92FF921F93CF93DF9381E7C82E83E0F3
:10249000D82ED0E07601C0E014C0F501259134912A
:1024A000412F6C2F8D2F0E94161282E0A80EB11CB6
:1024B0001F5F163091F78CE0E80EF11CCF5FCA3039
:1024C00019F0570110E0E9CFDF5F88E7C80ED11C93
:1024D000D53001F7DF91CF911F91FF90EF90DF9002
:1024E000CF90BF90AF90089588E290E00E94B03204
:1024F0000895CF93C82F6FEF811163E285E290E0DA
:102500000E94B0326FEFC11160E186E290E00E945C
:10251000B0326FEFC11166E287E290E00E94B03204
:10252000CF91089580E00E94791260E070E0CB01C5
:102530000E9474120E943C120E94061281E00E94C6
:10254000791208950F931F93CF93DF93853030F561
:102550006A3020F5463010F5C42FD0E0CC0FDD1FD7
:102560002CE0629FC00DD11D112438E7839FC00D60
:10257000D11D1124CE0189960E948C32082F10E0C3
:10258000102F0027CE018A960E948C329801282BAA
:10259000C901DF91CF911F910F91089590E080E0E4
:1025A000F8CF462F7A3040F4663030F4853020F48E
:1025B000672F0E94A212089590E080E00895CF92C4
:1025C000DF92FF920F931F93CF93DF936C010091E3
:1025D00085028091FC01082BC4E0D0E010E0FC2EC5
:1025E000C8010C2E02C0959587950A94E2F780FDEC
:1025F0000CC02197A0F7F12C8F2DDF91CF911F9167
:102600000F91FF90DF90CF900895B6018C2F0E941C
:10261000D1120E944E09019761F3EECFCF93DF9361
:10262000EC010E94DF12BE010E94D1120E944E09ED
:10263000DF91CF910895FC0124812223C1F0808194
:1026400091810E940E1392959F70963091F058F4EC
:10265000925F9F70923058F4803F19F030F4883EBA
:1026600030F481E008959A5FF4CF843FD1F380E0A5
:102670000895883EB0F3813FD1F7F3CFA6E0B0E0F4
:10268000E4E4F3E10C94E23149835A8349815A81AD
:102690009923A1F0222391F0CA010E94DF12182F82
:1026A000682F89819A810E94910A69817A81812F9C
:1026B0000E94D1122696E3E00C94FE31CA010E94DA
:1026C0005D0A182FF2CF88E290E00E948C32682FCA
:1026D00070E090E080E0089585E290E00E948C3206
:1026E000833289F486E290E00E948C32803159F482
:1026F00087E290E00E948C3291E0863209F090E00F
:10270000892F8170089580E0FCCFB0E0A0E0EBE875
:10271000F3E10C94DD316C017B0164E670E088E745
:102720000E941D2F8C01E601EC0CFD1C17FD0BC057
:10273000FE01849164E670E00E94892F8C0121964D
:10274000CE15DF0599F70E94FF2F81E001151105D5
:1027500009F080E0CDB7DEB7E8E00C94F931809164
:10276000A5039091A803911103C091E089270895D2
:10277000882369F062E070E08FE693E00E948513A1
:10278000811103C08091A50308951092A503809143
:10279000A503EBCFCF93C091A5038091A803882315
:1027A000D1F00E94A907605A75418F4F9F4F6093E7
:1027B000A1037093A2038093A3039093A403C11178
:1027C00008C062E070E08DE693E00E9485138111FD
:1027D00005C0C091A5038C2FCF91089581E080930F
:1027E000A503F7CFB0E0A0E0E8EFF3E10C94D93116
:1027F00049015A016B017C010E94EB078401A4018D
:102800006A2D7B2D88E090E00E94C23294014A2D0F
:102810005B2DB601C70100E20E945232622F84E2B2
:1028200090E00E94B032CDB7DEB7ECE00C94F53109
:10283000B0E0A0E0EEE1F4E10C94D931182FC62FFE
:10284000D42F822E0091770300FF50C0809178032F
:10285000811308C080917903861304C080917A03A4
:10286000841729F08091C20282608093C202E02F17
:10287000E695F0E0E755FE4F80818093C002802FFF
:102880008E7F8230E9F4ED2FD73908F0E6E9F0E0E9
:10289000E359FD4FC1112FC02491F22FE22F00FF09
:1028A0000FC0809190019091910133E0839FD001FE
:1028B0001124AD53BD4F891708F492C00E94E51052
:1028C00010937803C0937903D0937A03882071F032
:1028D0002091770360917B0370917C03312FAE01CF
:1028E00080917D0390917E030E94F213CDB7DEB7F5
:1028F000ECE00C94F531EC2EF12CE4919E2ECE2ED2
:10290000D12C26E0129FC00111242FEF30E0B90135
:102910000E94BF31812F90E0880F991FF5E5F69F47
:10292000A001F79F500D1124841B950BB82EBB0CF2
:10293000B80EA9014E195F094C9DC0014D9D900D27
:102940005C9D900D1124F92FCB9DA0011124452FE2
:102950005527D901A41BB50BAC9DA001AD9D500D11
:10296000BC9D500D1124D901AB19B1095D01AE9C7C
:10297000D001AF9CB00DBE9CB00D1124AB2FBB2776
:102980002A1B3B0B2C9DD0012D9DB00D3C9DB00D05
:1029900011242B2F62307105A1F050F461157105DF
:1029A00009F47DCF6130710581F0292FF52F77CFA4
:1029B0006430710569F080F06630710509F46FCFFD
:1029C000F4CF2E2FE92FFB2F6ACF2E2FE52F67CFC5
:1029D000292FFE2FEB2F63CFE92FF92D252F5FCF66
:1029E0001196EC9311972C931296FC9312978F5F8C
:1029F000139661CFE7E7F3E043812FE0421B08F431
:102A000040E021E0628181810E9418140895E7E787
:102A1000F3E043812FE0420F08F44FEF21E06281A1
:102A200081810E9418140895E7E7F3E0628121E1B3
:102A3000621B08F460E021E0438181810E94181448
:102A40000895E7E7F3E0628121E1620F08F46FEF98
:102A500021E0438181810E9418140895E7E7F3E0A3
:102A6000818121E04381628181510E94181408957F
:102A7000E7E7F3E0818121E0438162818F5E0E947C
:102A80001814089580917B03882319F08150809356
:102A90007B03209177033091780340917903509123
:102AA0007A0360917B0370917C0380917D03909108
:102AB0007E030E94F213089580917B03833018F403
:102AC0008F5F80937B03209177033091780340914F
:102AD000790350917A0360917B0370917C0380911C
:102AE0007D0390917E030E94F21308952091770355
:102AF00020FF24C021702260209377038091C202BE
:102B000081608093C202662381F030917803409106
:102B1000790350917A0360917B0370917C038091DB
:102B20007D0390917E030E94F21320E040917A038E
:102B300060917903809178030E9418140895809120
:102B400077038695815009F481E061E00E94761553
:102B5000089561E081E00E9476150895E7E7F3E0CB
:102B600083E0808311828FEF828386E983831482DE
:102B7000A0ECB2E012968C911297836012968C931F
:102B8000758123E030E04FEF56E960E08681978160
:102B90000E94F21308959091870292FB222720F958
:102BA000281779F080FB92F9909387026091860252
:102BB0007091870284E090E00E94CE3282E00E9411
:102BC000F80A089590E080E00E949A32863E9E4F77
:102BD00019F40E946C13089580E00895B0E0A0E01D
:102BE000E4EFF5E10C94DE317901C82F880FDD0B9D
:102BF00041155105A9F0FE0193E0EE0FFF1F9A95D4
:102C0000E1F7E45FFE4F81819281865F9D4F2081D5
:102C100030E04217530708F49A01A9010E94833259
:102C2000CE010E944931D82E8823D1F0011511051B
:102C3000B9F083E0CC0FDD1F8A95E1F7FE01E45F78
:102C4000FE4F438150E00417150708F4A801C45F44
:102C5000DE4F6C817D81665F7D4FC7010E948332AC
:102C60008D2DCDB7DEB7E7E00C94FA31A5E0B0E0EA
:102C7000ECE3F6E10C94DB318D83E62E5A01F22E63
:102C80006801809174028A3028F080E02596EAE09D
:102C90000C94F7318D818830C4F31A8219828A83AB
:102CA0006B832C8363E070E0CE0102960E94CF0715
:102CB0008983E0923401F092470110E000E030E0B7
:102CC00020E044E050E0BE016F5F7F4F84E00E944F
:102CD000EE158823D1F24E2D50E030E020E0B50112
:102CE00085E00E94EE15882381F230E020E041E08B
:102CF00050E0BE016B5F7F4F86E00E94EE15882397
:102D000021F20F2D10E0960150E040E070E060E00D
:102D100087E00E94EE15BACFABE0B0E0E2E9F6E161
:102D20000C94E13188E0E7E7F3E0DE0111960190D1
:102D30000D928A95E1F78091C0029091C102A09115
:102D4000C20289879A87AB872B8540917002509188
:102D5000710260917202709173023FB7F894809192
:102D6000AC039091AD03A091AE03B091AF033FBF10
:102D7000841B950BA60BB70B84369105A105B105F5
:102D800010F42223C1F010E000E030E020E04BE03E
:102D900050E0BE016F5F7F4F83E00E94EE158823F5
:102DA00069F00E94A907609370027093710280938A
:102DB0007202909373021092C20281E02B96E4E0BB
:102DC0000C94FD31A4E0B0E0E8EEF6E10C94E131C2
:102DD00040916C0250916D0260916E0270916F0291
:102DE0002FB7F8948091AC039091AD03A091AE03FE
:102DF000B091AF032FBF841B950BA60BB70B11E04F
:102E000084369105A105B10518F10E94A6116E5FE7
:102E10007F4F8F4F9F4F69837A838B839C8310E012
:102E200000E030E020E044E050E0BE016F5F7F4F03
:102E300082E00E94EE15182F882351F00E94A90706
:102E400060936C0270936D0280936E0290936F0298
:102E5000812F2496E4E00C94FD31A6E0B0E0E3E39A
:102E6000F7E10C94DF317B0101E010E09E012A5F65
:102E70003F4F50E040E070E060E080E00E94EE15DF
:102E8000182F882309F453C04091680250916902B9
:102E900060916A0270916B022FB7F8948091AC0335
:102EA0009091AD03A091AE03B091AF032FBF841BEF
:102EB000950BA60BB70B84369105A105B10548F417
:102EC00065E070E08BE092E00E94CF079E81891759
:102ED00071F105E010E09E012F5F3F4F50E040E0B0
:102EE00070E060E081E00E94EE15082F65E070E080
:102EF0008BE092E00E94CF0711E09E81981310E0D2
:102F0000102301F10E94A90760936802709369027F
:102F100080936A0290936B0285E0FE013196A3E6EE
:102F2000B2E001900D928A95E1F711E00BC085E0C7
:102F3000EBE0F2E0DE01119601900D928A95E1F747
:102F40001111EACF85E0E3E6F2E0D70101900D929E
:102F50008A95E1F7812F2696E6E00C94FB31A8E0F4
:102F6000B0E0E5EBF7E10C94E33166EE7EEF90E044
:102F700080E00E94CE3260E082E090E00E94B032B9
:102F800060E083E090E00E94B0321092FC0160E0CB
:102F900074E184E090E00E94CE3260E086E090E050
:102FA0000E94B0326FEF87E090E00E94B03240E0C4
:102FB00050E0BA0188E090E00E94C23260E084E212
:102FC00090E00E94B03260E087E190E00E94B03271
:102FD00060E08CE090E00E94B03260E08DE090E034
:102FE0000E94B03219821A821B821C821D821E82AC
:102FF0001F82188648E050E068E170E0CE0101963B
:103000000E94A03240E050E0BA0180E290E00E94CD
:10301000C23280E00E9479120E94921240E050E099
:10302000BA018FE090E00E94C2321092B202109278
:10303000B3021092B4021092B50282E390E0909332
:10304000B3028093B2024091B2025091B3026091F8
:10305000B4027091B50283E190E00E94C2322896DA
:10306000E2E00C94FF3128E030E043E060E086E3EA
:103070000E94452E0895ACE0B0E0E1E4F8E10C9444
:10308000DD314F83588769877A878B879C8780914A
:103090006C01882399F00E94331880E50E94BD2EB0
:1030A0008AEB8A95F1F700C00E94D52E887899277F
:1030B0008038910509F487C00E94ED2E0E9470119E
:1030C000882309F46BC00E94A9070091CC011091DC
:1030D000CD012091CE013091CF016B017C01C01A4E
:1030E000D10AE20AF30A9701860108301105210589
:1030F000310508F453C06093CC017093CD018093E7
:10310000CE019093CF0100917A0110917B01209123
:103110007C0130917D01601B710B820B930B62333C
:1031200071058105910580F41092700110926F0174
:103130001092720110927101109274011092730139
:103140001092760110927501109179010E94C011C0
:10315000482FBE01695F7F4F8FE691E0112309F48C
:103160005FC00E94370B0091790110916C010E94A1
:10317000C01141E04827BE01695F7F4F83E791E0BE
:10318000011709F450C00E94370B86E0FE01379604
:10319000A8E8B1E001900D928A95E1F786E0FE0182
:1031A0003796DE01119601900D928A95E1F72981FB
:1031B0003A814B815C816D817E8180E090E02C962C
:1031C000E8E00C94F9310E94D52E0E94D52E7C01A6
:1031D0000E94D52E20E0E22AF82A0E94D52E8C01EA
:1031E0000E94D52E20E0022B182B0E94ED2EF89481
:1031F000B70180916F01909170010E94EC0B909348
:10320000700180936F01B8018091710190917201FA
:103210000E94EC0B909372018093710178944ECFD1
:103220000E94BD0BA0CF0E94BD0BAFCFCF93DF9309
:10323000D82FC62F0E9433188D2F80680E94BD2E74
:103240008C2F0E94BD2E0E94ED2E8FEC92E00197F4
:10325000F1F700C00000DF91CF910895682F893702
:1032600008F068E76093770191E09093780190917E
:103270006C01992359F06150811101C064E08FE025
:103280000E94161960E080E50E9416190895FB015E
:1032900080810E942E19089590917701911101C0AB
:1032A00095E0282F880F330BA901490F511DCA0142
:1032B0001816190614F081E090E00E942E19089566
:1032C000CF93C82F0E9433188C2F0E94BD2E8FE7FA
:1032D00092E00197F1F700C000000E94D52EC82FA0
:1032E0000E94ED2E9AE69A95F1F700C08C2FCF91AF
:1032F0000895CF93DF930E943D2E269A0E943318A3
:103300006AE58AE30E9416192FEF80E792E02150C8
:1033100080409040E1F700C0000082E00E94601908
:1033200083E00E94601984E00E94601985E00E9499
:10333000601986E00E94601960E080E10E94161921
:1033400080E00E946019D82F81E00E946019C82F88
:103350000E94ED2ED23419F481E0C13009F080E0F2
:10336000817080936C01882341F064E08FE00E94BB
:10337000161960E080E50E941619DF91CF9108953B
:103380001F920F920FB60F9211242F933F934F93DA
:103390005F936F937F938F939F93AF93BF93CF93DD
:1033A000DF93EF93FF93D091E900DF708091EC0001
:1033B000C82FC17080FDC0E81092E9008091F00034
:1033C000877F8093F00078940E94500D1092E9005E
:1033D0008091F00088608093F000CD2BCF70C09377
:1033E000E900FF91EF91DF91CF91BF91AF919F9154
:1033F0008F917F916F915F914F913F912F910F909E
:103400000FBE0F901F9018951F920F920FB60F923C
:1034100011242F933F934F935F936F937F938F93D9
:103420009F93AF93BF93EF93FF938091E10082FF4F
:1034300009C08091E20082FF05C08091E1008B7F8E
:103440008093E1008091DA0080FF24C08091D80051
:1034500080FF20C08091DA008E7F8093DA00809117
:10346000D90080FF9DC080E189BD82E189BD09B49A
:1034700000FEFDCF81E08093BE038091B0038111F7
:1034800009C00E943A060E94DB068091E200846037
:103490008093E2008091E10080FF17C08091E200FC
:1034A00080FF13C08091E2008E7F8093E2008091C4
:1034B000E20080618093E2008091D8008062809376
:1034C000D80019BC85E08093BE038091E10084FFA1
:1034D0002BC08091E20084FF27C080E189BD82E19A
:1034E00089BD89B5982F917080FFFBCF8091D8005E
:1034F0008F7D8093D8008091E1008F7E8093E100E2
:103500008091E2008F7E8093E2008091E2008160F2
:103510008093E2008091BF03882309F447C084E0D0
:103520008093BE038091BE038091E10083FF27C09A
:103530008091E20083FF23C08091E100877F809328
:10354000E10082E08093BE031092BF038091E1000E
:103550008E7F8093E1008091E2008E7F8093E20075
:103560008091E20080618093E20042E060E080E0D0
:103570000E94A9068091F00088608093F000FF917E
:10358000EF91BF91AF919F918F917F916F915F91DB
:103590004F913F912F910F900FBE0F901F90189554
:1035A00019BC1092BE031092B00374CF8091E30057
:1035B00087FD93E09093BE03B5CF78941F921FB61A
:1035C0001F9211248F939F93AF93BF938091AC036D
:1035D0009091AD03A091AE03B091AF030196A11DF0
:1035E000B11D8093AC039093AD03A093AE03B09351
:1035F000AF03BF91AF919F918F911F901FBE1F90FE
:1036000018959C014FB7F8948091AC039091AD034D
:10361000A091AE03B091AF034FBF821B930B0895EF
:103620002FB7F8948091AC039091AD03A091AE03B5
:10363000B091AF032FBF08952F923F925F926F9288
:103640007F928F929F92AF92BF92CF92DF92EF9232
:10365000FF920F931F93CF93DF938091A80388234A
:10366000C9F18091A6039091A7030E94011BC29704
:1036700090F00E94101B9093A7038093A6038BE009
:1036800094E090931206809311060E947011882393
:1036900099F10E94F60C8091090490910A04892BFB
:1036A00071F58091A5038823A9F00E94A9070091D4
:1036B000A1031091A2032091A3033091A403601BE6
:1036C000710B820B930B6F3F7F4F8F4F9F4710F40F
:1036D0000E94AF13DF91CF911F910F91FF90EF9058
:1036E000DF90CF90BF90AF909F908F907F906F9022
:1036F0005F903F902F9008950E94F60CCCCF809160
:10370000A803882371F28091A0038111CACF0E947F
:10371000CA132091090430910A042115310509F2D8
:1037200080E041E050E0082F10E01A01082E02C0AE
:10373000220C331C0A94E2F7B10162237323672B36
:1037400011F48F5FF0CF90919F0390FF95C0880F89
:10375000880F880F8093950110929801895F80935C
:10376000960183E08093990124E630E047E050E041
:1037700063E971E088E70E94B72F892B09F091CFA8
:10378000A80125E0440F551F2A95E1F780919F037A
:1037900080FF84C0EFE7F3E080E2DF011D928A95AD
:1037A000E9F7AFEAB1E00BEA11E083EBC82E81E064
:1037B000D82E97E0592E772473948D91E8012991A2
:1037C0008E01240F352F311D255F3B4FE82FF0E090
:1037D000E158FC4F90E080E0652C681A872C082E99
:1037E00001C0880C0A94EAF77901A12CE701B9908D
:1037F0007E01B820662D6A196770962E062E000C81
:10380000770BDB2D01C0DD0F9A94EAF77195619576
:1038100071096770772701C0B6946A95EAF7BD2AE7
:103820006081962E9B289082A39468E0A612DECF3A
:10383000019631968830910579F6CA16DB0609F0B3
:10384000BCCF04E610E020E230E04FE753E060E454
:1038500088E70E94D82F892B09F023CFE101C0957A
:10386000D0958091090490910A04C823D923D0935C
:103870000A04C093090415CF8295880F807680933F
:1038800095019801369527953695279520939801AF
:10389000815E809396012093990166CF455F5B4FCF
:1038A00004E610E020E230E0D2CFA5E1B0E0EBE5A5
:1038B000FCE10C94D8318E01045F1F4F8AE0D801DF
:1038C0001D928A95E9F786E0C82E81E0D82EF12C6A
:1038D000E12CAA24A394B12C26E0822E21E0922E82
:1038E000F60181916F018F3F09F442C0F894E82FEF
:1038F000E295EF70F0E021A18F70A50102C0440FA6
:10390000551F8A95E2F7CA01922F982B91A392A195
:103910008095892382A3789400C0E0E0F1E0712CC7
:1039200031E021912F3F09F46BC0A22FA295AF7017
:10393000B0E090968C9190E02F7002C0959587959D
:103940002A95E2F780FD5CC0832F782A330F8E160C
:103950009F0639F7F601319780818F3F11F00E9461
:10396000460850EA5A95F1F7F801EE0DFF1D7082F6
:103970008FEFE81AF80A95E0E916F10409F0B0CFE4
:103980004AE050E0B80189E792E00E947632009761
:1039900041F02AE0F801A9E7B2E001900D922A95E2
:1039A000E1F700918402892B69F181E080930102A3
:1039B0000E94101B909300028093FF018091FF01F1
:1039C000909100020E94011B059700F110E00B5638
:1039D0001D4F45E050E069E772E0C8010E94763271
:1039E000D12C892B51F085E0E9E7F2E0D801019074
:1039F0000D928A95E1F7DD24D3941092010207C05D
:103A000080E0A3CF809101028111D8CFD12C0E94F8
:103A10007011C82EE0918402DE0111967D01882389
:103A200009F46EC085E01D928A95E9F70E2F10E02B
:103A30000B561D4F809174028A3090F54DE257E18C
:103A4000B701C8010E943D11882309F449C042EE24
:103A500056E1B701C8010E943D11882309F440C016
:103A60004CE856E1B701C8010E943D118823C1F11D
:103A7000109274028091830290E045E050E0B7011B
:103A80008B569D4F0E94763221E020930802892BAD
:103A9000D9F4C12C8C2D8D296596EDE00C94F43170
:103AA00080910202909103020E94011B843F914089
:103AB00028F680910802882361F385E0F7011192CE
:103AC0008A95E9F710920802A0918302B0E0AB5604
:103AD000BD4F85E0F70101900D928A95E1F7DACFAD
:103AE000809174028F3F29F08F5F809374028A3037
:103AF00008F20E94101B9093030280930202D9CF18
:103B0000F0E0EB56FD4F85E0ABE0B2E001900D92A6
:103B10008A95E1F765E070E08BE092E00E94CF07C4
:103B200080930A028090100290901102A0901202DD
:103B3000B09013028091040290910502A0910602B8
:103B4000B091070288169906AA06BB06D1F08092AA
:103B5000040290920502A0920602B09207020E940F
:103B6000701181110EC00E94A907861A970AA80A2F
:103B7000B90A8092750290927602A0927702B09272
:103B800078028BE0E4E1F2E0D70101900D928A9592
:103B9000E1F780911402869500911502F0901602CB
:103BA000E090170210911E0210921E02112309F4D8
:103BB00071CF10FF0BC0998190FF11C090917703D6
:103BC00091609093770360E00E94761511FF62CFB9
:103BD00020E04E2D6F2D802F0E9418145BCF0E9485
:103BE0003011F4CF88E00E940F0B0E94101B9093BD
:103BF000BD028093BC0282E08093BE020895AEE1D4
:103C0000B0E0E5E0FEE10C94DF3140910204509118
:103C1000030460910404709105048091060490915E
:103C200007040E943B18209302043093030440933E
:103C3000040450930504609306047093070486E01F
:103C4000E2E0F4E0DE01179601900D928A95E1F72B
:103C500086E0FE013796DE011D9601900D928A9551
:103C6000E1F786E0FE013D96DE01119601900D928E
:103C70008A95E1F786E0FE013196A2E0B4E001907A
:103C80000D928A95E1F786E0E2E0F4E0DE015996D4
:103C900001900D928A95E1F786E0FE017996DE01AA
:103CA000179601900D928A95E1F70B8DEC8C9E2D65
:103CB000902B8091BE02992309F41DC1002E000CA7
:103CC000110B0E2C000CFF088230F1F188F48130CA
:103CD00009F4E8C00E94101B9093BD028093BC02BF
:103CE00081E08093BE021092B1021092B00232C005
:103CF000833099F1843071F7980117FF04C02227AF
:103D00003327201B310BC701F7FE04C088279927F2
:103D10008E199F09880F991F281739070CF042C088
:103D20008091B8029091B902E80EF91E40E0F7FECA
:103D300017C17EECE7167FEFF7067CF1F092B9022F
:103D4000E092B80280E041C00E94101B9093BD0237
:103D50008093BC0280E020E069C0C701F7FE04C088
:103D6000882799278E199F09980117FF04C02227D9
:103D70003327201B310B280F391F8091BA029091F5
:103D8000BB02821B930B9093BB028093BA0218165E
:103D9000190604F780E020E045C022E3E20EF11CA2
:103DA0004E5CC5CF8091B6029091B702080F191FE3
:103DB00080E017FFDFC00E3C9FEF19070CF46BC0CB
:103DC0001093B7020093B60240E0082E000C990B46
:103DD00062E370E00E9416328091B50281115FC0EB
:103DE00081E090E0689F9001699F300D789F300DD1
:103DF0001124642F772761950CF47095CB0162E351
:103E000070E00E9416328091B40241E050E08823B5
:103E100011F04FEF5FEF649FC001659F900D749F9D
:103E2000900D1124F12CE12C10E000E00987EA86C6
:103E30008B872C8786E0FE013796DE011196019074
:103E40000D928A95E1F786E0FE013196DE015396E8
:103E500001900D928A95E1F786E0FE017396DE01EE
:103E6000179601900D928A95E1F786E0FE0137964C
:103E7000A2E0B4E001900D928A95E1F70E94FF0B59
:103E800081116BC08091BF021092BF0281706E964B
:103E9000E6E00C94FB310E5C1F4F8E5C8ACF8FEFF7
:103EA0009FEFA0CFC701F7FE04C0882799278E197E
:103EB0009F09980117FF04C022273327201B310BCD
:103EC000820F931F2091B0023091B102820F931F95
:103ED0009093B1028093B0022091B2023091B3026C
:103EE000821793070CF436CF1092B1021092B002F1
:103EF0000E94F21D2FCF823071F048F4813019F109
:103F00001092B1021092B0021092BE0243CF8530DF
:103F100008F440CFF5CF8091BC029091BD020E9481
:103F2000011B893E934008F435CF1092BE0288E011
:103F30000E94EB0A1092B9021092B8021092B702D6
:103F40001092B60227CF8091BC029091BD020E94D0
:103F5000011BC39708F41ECFD3CF81E090E094CF2C
:103F600083E3E816F1040CF4E9CE62E3E61AF10803
:103F70004253DDCE033311050CF422CF0253110955
:103F8000825317CFA4E1B0E0E8ECFFE10C94D53107
:103F90008C01DC0114968C911497882309F4BEC01F
:103FA00021E04C9111965C91119712966C911297A9
:103FB00013967C91139715969C910E943E137C0159
:103FC000F8018581882309F46AC1C70197578038B1
:103FD000910508F064C1FFE0FE1508F48FC08FEF73
:103FE00093E00E948C32811189C061E8A62E62E0C4
:103FF000B62EE1104DC0FE01339686E0DF011D9222
:104000008A95E9F75AE0452E7501BFEFEB1AFB0AD6
:10401000C5010E948C3289831A82882309F46EC0FC
:10402000813009F07FC06501E2E0CE0ED11CC701EE
:104030000E948C328A83882309F460C09FEF980F16
:104040009330A0F5F3E0AF0EB11CC6010E948C3294
:104050008B83882309F452C01C82DE0111967D01F6
:10406000F7012081222381F2213009F0BAC0918129
:104070008281913009F058C0F2E0EF0EF11C65E04A
:1040800070E0893311F460E570E00E94D81153C0EC
:10409000A11424E0B20691F1C5010E948C32811175
:1040A00001C0EA943FEFA31AB30AA3CF56018430AC
:1040B000A1F642E0E42EF12C56012FEFA21AB20A2B
:1040C000C6010E948C32E1E0F0E0EC0FFD1FEE0D26
:1040D000FF1D8083882391F08C3741F4E2E0F0E00B
:1040E000EC0FFD1FEE0DFF1D1082B7CF3FEFE31A5F
:1040F000F30A650187E0E816F104F1F68091F10119
:10410000877061F0D80115968C91882339F08091E1
:10411000870282FF03C082E00E94F80A6496E0E111
:104120000C94F131570199CF923039F522E0E20E2B
:10413000F11C0E944D10FFEFEF1AFF0A8FE99FE07C
:104140000197F1F700C00000AFE9BFE01197F1F768
:1041500000C00000EFE9FFE03197F1F700C0000078
:104160008FE99FE00197F1F700C00000AFE9BFE0E1
:104170001197F1F700C0000073CF933031F432E0B3
:10418000E30EF11C0E942110D6CF943021F08FEF66
:10419000E81AF80AD0CF92E0E90EF11C30E020E0F6
:1041A000B7016F5F7F4FD70111964C918053990BE8
:1041B0008A30910558F02150310908F4BCCFEFE95D
:1041C000FFE03197F1F700C00000F5CF429EF0010B
:1041D000439EF00D11249C012E0F3F1F842F7B0165
:1041E000DFCFE22FF0E0E553FE4F5490822F86950B
:1041F0008695869590E0FC01E554FE4F649027700B
:10420000712C022E02C0759467940A94E2F731E093
:1042100063227724FC01E555FE4F8490912C022EF9
:1042200002C0959487940A94E2F7A1E08A22992427
:10423000FC01E556FE4FC490D12C02C0D594C79422
:104240002A95E2F7B1E0CB22DD246114710419F064
:1042500081EE0E944D108114910419F086EE0E94A7
:104260004D10E9E365E070E05E1202C060E570E0C9
:10427000852D0E94D8118114910419F086EE0E94B8
:1042800021106114710419F081EE0E942110C114F3
:10429000D10409F450CF65E070E08CE2F6CEF092E4
:1042A0008501E0928401F8018081918190938701DA
:1042B00080938601970120543E472830310508F04D
:1042C0009EC0F901E051FD4C0C942A3286E0E2E0F8
:1042D000F4E0DE01199601900D928A95E1F786E0EF
:1042E000FE013996DE011F9601900D928A95E1F745
:1042F000FA8481E090E001C0880F2A95EAF7D8019E
:1043000015962C91222341F1F82A83E08093BE0276
:104310008EE190E09093BB028093BA020E94F21D5E
:10432000F88A86E0FE013F96DE01119601900D921B
:104330008A95E1F7CE0101960E94F0058093BF02B5
:1043400086E0FE013196A2E0B4E001900D928A95DC
:10435000E1F70E94FF0BD2CE8095F822DFCFF80163
:104360008581882321F084E08093BE02C7CE0E941D
:10437000F21DC4CED80115968C91882309F4BECEC7
:104380008091B2029091B30205969093B30280930C
:10439000B2024091B2025091B3026091B4027091A6
:1043A000B50283E190E00E94C232A8CEF801858177
:1043B000882309F4A3CE8091B2029091B3020597AD
:1043C0008530910514F785E090E0DFCFD801159690
:1043D0008C91882309F492CE8091B40291E08927D0
:1043E0008093B402D6CFF8018581882309F486CE64
:1043F0008091B50291E089278093B502CACF85816B
:104400008823D9F08091BE028350823008F4AFCF68
:10441000B3EEEB16F10481F1E0EEEE16F10461F17A
:104420001092BE0288E00E94EB0A1092B90210922C
:10443000B8021092B7021092B602C7019A95811580
:104440009F41E8F4F701FF27D80115968C91E13DD3
:10445000F10540F0E93DF105A0F0E730BEE7FB07CC
:1044600009F451C0882389F0FE57EA30F10568F459
:10447000E850FD4C0C942A320E94F21DDECFF70169
:10448000E3CF682F8E2F0E94310CF8018581F6E171
:10449000EF16FCE7FF0609F064C0882309F44CC05E
:1044A0008091B1038A7A91E009F490E09093D00171
:1044B00069E2811165E384EC91E00E94B5070E94F6
:1044C000070D1CCE80E00E942E1910927E0116CEA0
:1044D0004091770150917E0150FB47F956955370FA
:1044E00060E070E08FE090E05ECF81E00E944C19C8
:1044F00005CE8FEFFBCF8AE0F9CF86EFF7CF909113
:10450000790181E089270E941E0BF8CD80917E0100
:10451000811101C084E08F5F18160CF081E08830B3
:1045200008F087E080937E01E9CD80917E018111C2
:1045300001C084E08150F0CF8091D00181110FC083
:1045400089E2E6ECF1E02CEC31E09191891303C0B3
:10455000DF0111971C922E173F07B9F7B0CF85E303
:10456000F0CF811114C38091B1038272F701E05240
:10457000F847E531F10508F063C0EE5FFC4C0C94A0
:104580002A328091770380FF1CC0282F2E7F209332
:104590007703309178034091790350917A036091C9
:1045A0007B0370917C0380917D0390917E030E9438
:1045B000F2138091C20281608093C2020E94E510D2
:1045C0009DCD81608093770361E086950E9476158A
:1045D00095CD4FE955E169EA75E10E94E5078ECD79
:1045E00049EA55E16FE975E1F8CF4EE255E168E33C
:1045F00075E1F3CF48E355E16EE275E1EECF44E1BA
:1046000055E161E275E1E9CF41E255E164E175E12F
:10461000E4CF4AEF54E167E075E1DFCF47E055E1D1
:104620006AEF74E1DACF42E455E16CE575E1D5CF8C
:104630004CE555E162E475E1D0CF61E081E0C6CFA1
:1046400027E7E2162CE7F20609F460C038E7E31624
:104650003CE7F30609F45EC0F8018581E080F18053
:10466000882309F49FC0C7010E94DF12D82E682F4B
:10467000C7010E94910AB7018D2D0E94D1120E949C
:104680004E097C01882ED8011596AC901597169688
:104690009C9092943FE093228091F1018770F1F019
:1046A000CA2CAA20E1F08F2D807F803451F080E267
:1046B0008E0D883098F0911004C08F2D807E80324E
:1046C00069F08091870282FF09C082E00E94F80AA7
:1046D0008091F1018770CC24C3948111C12CBF2C2F
:1046E000B2942FE0B222BBE0BB1508F4C3C0EB2D9F
:1046F000F0E0E95EFC4C0C942A3281E00E940F0B42
:1047000043E062E081E00E94CB0AF8CC81E00E94A5
:10471000EB0AF6CF82E0FBCF83E0E8168CE7F806E1
:1047200071F160F4E114ACE7FA06D1F0B1E0EB16F8
:10473000BCE7FB0609F090CF0E94EE11EBE5EE1608
:10474000ECE7FE0669F1FCE5EF16FCE7FF06F1F089
:104750002AE5E2162CE7F20609F07ECF81E01DC0C3
:104760001092B1030E94440D3FEF84E39CE031506E
:1047700080409040E1F700C000000E9498076FEF72
:104780007FEF90E080E00E94CE32D6CF809187020A
:1047900082FB882780F991E089270E94CB155CCFA6
:1047A00080E0FBCFC7010E945D0AD82E64CFEF2DB9
:1047B000EF70DE2E8F2D807F19F0D29490EFD922EA
:1047C000AA20B9F0DD2069F080E28E0D883010F06B
:1047D000811009C08091B103D82AD092B1030E9400
:1047E000070D8E2D45C08091FB01D82AD092FB0188
:1047F000F6CF8E2D0E942110DD20E1F180E28E0D9A
:10480000883010F0811004C08D2D0E944C0A06C023
:10481000D0948091FB01D822D092FB010E94070D19
:1048200029C0FF2DFF70DF2E8F2D807F803219F081
:10483000D29480EFD822882059F021E0821609F422
:1048400081C0AA2009F48DC0992009F44FC0C9CFB6
:104850008091870282FD46C0AA20F1F1DD2039F067
:104860008091B103D82AD092B1030E94070D80E055
:104870000E944D10AB2DA850BB0B149710F40E9452
:104880009511CC20A9F08091F10180FD11C0F801B3
:1048900015828695869586950E940F0BC8010E9409
:1048A000C21F8091F1018695869586950E94EB0A3C
:1048B00020E0D8014C9111965C91119712966C9161
:1048C000129713967C91139714968C9114971596C2
:1048D0009C910E943E1322CC80E00E942110DD209A
:1048E00049F292CFAA20A1F0911004C08D2D0E9410
:1048F0001710C0CF31E09312BDCF8091FA019D2DEA
:104900009823D91609F4B6CFD82AD092FA01B2CF9B
:104910009110B0CF8D2D0E9410109091FA018D2D25
:10492000892329F08D2D809589238093FA01809128
:10493000D1019D2D982309F49DCFD094D822D092F7
:10494000D10198CFAA2029F085E0891508F492CFEB
:10495000CDCF94E0991508F48DCF8D2D0E941010C5
:1049600089CF9920D1F3A9E38A1209C1BFEFE7EEFD
:10497000F3E0B150E040F040E1F700C000008E2DC0
:104980000E94211077CF6A2D8E2D0E94310C72CF9C
:104990008F2D837091F5A1106DCF4E2D42954695C8
:1049A0004770440F440F8E2D8F70042E01C0880F66
:1049B0000A94EAF72E2D2071E4FE07C02FE030E0C4
:1049C00001C0220F4A95EAF720953F2D369536957E
:1049D0003370323069F050F44091FC01313029F0ED
:1049E000822B84230E941B0B45CF842B822BFACF72
:1049F000282B8091FC018227F5CF8695AA2011F003
:104A00008F2D8170882309F435CF4E2D4295469520
:104A10004770440F440F8E2D8F70042E01C0880FF5
:104A20000A94EAF72E2D2071E4FE07C02FE030E053
:104A300001C0220F4A95EAF720953F2D369536950D
:104A40003370323069F050F440918502313029F0F2
:104A5000822B84230E94C80A0DCF842B822BFACF8D
:104A6000282B809185028227F5CF9F2D9F70F92EEC
:104A7000AA2029F0892F0E940F0B8E2D38CF8E2D62
:104A80000E9410108F2D0E94EB0AF4CE8E2DA2EF03
:104A90008A16B1F1A81570F0B0EF8B16D1F0E1EFE6
:104AA0008E1691F0AA2009F45EC091109ACE8F2D37
:104AB0008F712AC0F3EF8F1651F124EF8212F2CFDB
:104AC0008091870282FD2FC08F2D8F71AA20D9F28D
:104AD0001BC0AA2081F034E0391508F4CBCE2F2D6D
:104AE0002F7181E090E001C0880F2A95EAF790913C
:104AF00085028927AFCF85E0891508F4BBCEEFCFBB
:104B00008F2D8F71A110BFCF0E940F0BB3CE80E00D
:104B1000AA2009F49FCF9F2D9F7181E001C0880FCB
:104B20009A95EAF797CFAA2099F09F2D9F71F92EB9
:104B3000892F0E940F0B8091870282FF07C0A8E097
:104B4000FA9EC001112483608093F1018F2DDCCF88
:104B500081E00E94F80AB1E0B91508F08BCE82E03E
:104B60000E94F80A87CE992079F0893341F4EFEF5B
:104B7000F7EE23E0E150F0402040E1F7FECE8FE178
:104B80009EE40197F1F7F9CE8F2D8F717CCFB7E7B7
:104B9000EB16BCE7FB0609F4B0CDE8E7EE16ECE750
:104BA000FE0609F0B9CD82E0A9CDCF93DF938091C5
:104BB000F001807F09F04DC08091EF01882309F456
:104BC00048C0E09101045091C803C091EB01D0911D
:104BD000EA016091EC017091ED0147E05E17C9F1C7
:104BE0008E2F90E0E49FF0011124E753FC4F2481C5
:104BF000222391F1489FF001499FF00D1124DF011C
:104C0000A753BC4F11962C9111972C1325C02C91B2
:104C10002D1322C015962C91159721111DC01296A7
:104C20002D913C91261B370B283C3105A8F480912F
:104C3000F0018F7080618093F001E153FC4F80811F
:104C40008F70806180838AEE91E00E94C21F0E9473
:104C5000530ADF91CF910895FC013196E770BECFE2
:104C6000A4E1B0E0E6E3F6E20C94D9318C0186E0F1
:104C7000F801DE011F9601900D928A95E1F7F80187
:104C80008481E5809AEEA92E91E0B92E9091EE01F3
:104C9000911128C0882319F1EE20F1F0C8010E947B
:104CA0001B13F82E8823C1F087E0F801D50101908D
:104CB0000D928A95E1F78091EE01813031F4809177
:104CC000EA019091EB010E940E130E94D5258F2DD1
:104CD0006496ECE00C94F531C8010E94C21FFF24D9
:104CE000F394F5CFD080C18082809380F090EF0163
:104CF0002091EC013091ED01A401421B530BFF20E8
:104D000009F4D9C0483C510508F092C08823F9F253
:104D10009091EB018091F001282F207F09F056C07F
:104D2000C91214C09091EA01D91210C0E11048C014
:104D30008F7080618093F0018AEE91E00E94C21F23
:104D40008091F001F8018683F12CC1CFE11038C0C9
:104D50006C2D8D2D0E941B066C2D8D2D0E941B0627
:104D6000E82E8111F1CFDF86C88A8F8598890E944D
:104D70000E13292F22952F70243058F49F70223063
:104D800088F0992399F0F8019681907F79F4FE2CB0
:104D90009ECF2A5F2F70223068F0C8010E94C21F88
:104DA000EF2CF5CF992311F0882389F3805E8830AA
:104DB00070F3F3CF803F58F3815F833070F7E7CF14
:104DC0008091F00181608093F001BECFC91207C0CD
:104DD0009091EA01D91203C0EE2009F48DC0C801F8
:104DE0000E941B13882309F477CFEE2009F474CFB7
:104DF0008091F001803288F02091EA013091EB013E
:104E0000398728879B868A869091EE019C871D862C
:104E10008E87CE0108960E94C21F87E0F801AAEE95
:104E2000B1E001900D928A95E1F70E94D52557CF08
:104E30009091F001292F207F51F48AEE91E00E9499
:104E4000C21F87E0F50111928A95E9F77DCF88238B
:104E500009F43DCF8091EB018C1110C08091EA01E3
:104E6000D8120CC0E1100AC09683C8010E94C21F6C
:104E700087E0F50111928A95E9F729CFC8010E94D0
:104E80001B13882309F428CFEE2009F425CF809145
:104E9000F001803210F22091EA013091EB013A8367
:104EA00029839C828B829091EE019D831E828F8349
:104EB000CE010196B0CF483C5105D0F6882309F4C5
:104EC0000ECFFE2CEE2009F407CF8091EB018C1160
:104ED00020C08091EA01D8121CC08091F00180FDB1
:104EE0000FC0982F907F61F08683903F31F0982F0C
:104EF000907F905F8F70892B8683C8010E94C21FAC
:104F000087E0F801AAEEB1E001900D928A95E1F7F1
:104F1000DECEC8010E941B1381117FCF8091F0016A
:104F200081608093F001C8010E94C21FD0CEABE126
:104F3000B0E0EDE9F7E20C94E1314E8B5F8B688FC6
:104F4000798F8A8F9B8F192F91111092FB011D8AE7
:104F500086E0FE017696DE011F9601900D928A95FD
:104F6000E1F70A8D002341F021E04F8558896989D6
:104F70007A89C8010E943E130B8B1C8B87E0FE01CF
:104F80003F96DE01189601900D928A95E1F7CE01C9
:104F900008960E94302681110CC087E0FE013896E9
:104FA000DE01119601900D928A95E1F78C858111B1
:104FB0000BC017E0809101049091C803891333C09E
:104FC0006B96E4E00C94FD312091C80330E0C901F8
:104FD000019687709927409101044817190699F0A6
:104FE00097E0929FD001939FB00D1124A753BC4F1F
:104FF000FE01319601900D929A95E1F78093C803D6
:105000000E94530AD6CF1092B1030E94440D109211
:10501000C8031092010487E0EAEEF1E0DF011D927F
:105020008A95E9F7C6CF819FC001112487539C4F11
:105030000E943026882321F28091010490E001969D
:105040008770992780930104B5CFA6E0B0E0EBE22A
:10505000F8E20C94E1310E94101B8C018091FD015B
:105060009091FE018017910781F019821A820E94A7
:10507000101B682F49815A81792F80E090E00E94AF
:1050800097271093FE010093FD012696E4E00C940F
:10509000FD311F921FB61F9211248F939F93AF93E0
:1050A000BF938091AB03811113C08091AC039091A9
:1050B000AD03A091AE03B091AF034196A11DB11D08
:1050C0008093AC039093AD03A093AE03B093AF0372
:1050D000BF91AF919F918F911F901FBE1F90189508
:1050E000CDB7DEB7A6970FB6F894DEBF0FBECDBF23
:1050F00085B7806885BF85B7806885BF84B7877F9F
:1051000084BF0FB6F894A895809160008861809361
:105110006000109260000FBE80E890E00FB6F89437
:1051200080936100909361000FBE85E198E09093B9
:10513000C3018093C2010E943A060E94DB0680915F
:10514000E20084608093E20078948091BE0388231B
:10515000A1F01091E9001F709091EC00892F8170EF
:1051600090FD80E8182B1092E9008091E80083FD03
:105170000E94500D1F701093E90082E084BD93E0FF
:1051800095BD9AEF97BD80936E00109275021092B4
:10519000760210927702109278020E946C138111AD
:1051A00002C00E9492120E94C01180930B01809154
:1051B0000B01882309F49AC010928E018EE180932E
:1051C0008F010E94701181110E945D3080910B014E
:1051D00081112CC085E0ECE9F1E0DE0191960190AF
:1051E0000D928A95E1F789A1809306018AA18093A7
:1051F00007018BA1809308018CA1809309018DA1E7
:1052000080930A0186E0E1EAF1E0DE011196019067
:105210000D928A95E1F7FE013196A0E0B1E0CE0152
:10522000079621912D93E817F907D9F780910B0183
:1052300095E0811190E09093840285E0891B809332
:10524000830206E011E05BE0E52E51E0F52ED80187
:105250008D918D018F3F11F00E944608E016F106F6
:10526000B1F700E011E0F80181918F018F3F11F05B
:105270000E944608F1E006301F07A9F78AE0E5E939
:10528000F2E0DF01882E1D928A94E9F7E9E7F2E067
:10529000DF011D928A95E9F70E94E215811102C093
:1052A0000E94AF1782E090E00E948C3280938902C6
:1052B00084E090E00E949A32909387028093860265
:1052C0000E94551CEFE3FCE93197F1F700C00000A4
:1052D0000E94551C8091950280FF0CC06FEF7FEFFC
:1052E00090E080E00E94CE320E9498078EE1809389
:1052F0008E0165CF83E090E00E948C320E941B0BF0
:105300000E947011882309F486C180E080939F0376
:1053100080E8809308040E94172F6BE070E082E61B
:1053200092E00E9485138823E9F180919F0365E054
:1053300070E081FD72C18DE592E00E9485138823A3
:1053400089F16DE070E08BE492E00E948513882380
:1053500049F10E94A907605A75418F4F9F4F609392
:10536000A1037093A2038093A3039093A403EBE0A3
:10537000F4E080E092E0DF019C011D92215030407A
:10538000E1F7F0931206E09311068FEF9FEF9093F1
:105390000A048093090481E08093A8038093A50305
:1053A0001092A00380918802811176C00E94E215BC
:1053B000811104C00E94AF170E94AE1588E090E0F2
:1053C0000E9494324B015C0184E290E00E948C3296
:1053D000282F30E040E050E060E070E080E090E0B6
:1053E00000E20E943732282939294A295B29209373
:1053F0007703309378034093790350937A03609353
:105400007B0370937C0380937D0390937E03809154
:10541000C20283608093C2022E7F89F50E94AE157E
:1054200088E090E00E9494326B017C0184E290E07D
:105430000E948C32282F30E040E050E060E070E0C5
:1054400080E090E00E943732B22FA32FF42FE52F97
:105450005B0197018601BC29A12BFE29E32BB093A8
:105460007703A0937803F0937903E0937A03609332
:105470007B03B0927C0380937D0390937E030E9414
:10548000EB078091770380FF04C060E086950E945F
:10549000761581E0809388020E947011811102C00C
:1054A0000E9460300E9479190E94701181112EC0F3
:1054B00082E39BE0909353018093520129E130E015
:1054C00030934E0120934D0189E390E09093510178
:1054D0008093500141E058E050935B0140935A01A2
:1054E00030935601209355019093590180935801B0
:1054F00047E459E1509363014093620130935E01A8
:1055000020935D0190936101809360010E94E215F8
:10551000882389F08FE090E00E9494328B01862FDF
:105520008F770E942E19001F0027001F1370110F84
:10553000102B10937E0183E190E00E9494326093DF
:10554000B2027093B3028093B4029093B50284E6E2
:1055500091E09093AA038093A90328E1622E712C15
:105560003FE9E32E32E0F32E46E9C42ED12C8091A0
:10557000BE0300E112E1853009F48AC00E94551C87
:105580000AE812E095E9A92E92E0B92ED501F801BA
:1055900091918D9142E0E439F40709F485C09817A0
:1055A000B9F30E947011282E912CD5018D905D01C8
:1055B000F80131908F01381431F13824512C4424F2
:1055C0004394832D8421B9F02220A9F059A29AA2F4
:1055D0000E94101B9CA38BA3F1E0FDA391E0882DFA
:1055E000842109F490E09EA349A15AA16BA17CA15A
:1055F0008DA10E9497275394440C26E05212E1CFCC
:10560000F8013197808293943AE09312CECF0E94B2
:10561000A61111E04EC082E079CE88E592E08DCEF1
:105620008091BE03843031F10E94AF130E94FF1DB0
:105630001092AB0330E40FB6F894A8956092600026
:105640000FBE3093600083B7817F846083BF83B7D0
:10565000816083BF7894889583B78E7F83BF0FB6B0
:10566000F894A89580916000886180936000109202
:1056700060000FBE8091BD03882351F00E94551C2D
:10568000E5E9F2E081918111E0C2EE16FF06D1F763
:105690008091BE03853009F4C3CF1092B1030E94FC
:1056A000440D0E9495116ACF98137BCF0E94252844
:1056B00010E00E9470110E94FF1D882339F00E94A3
:1056C000A6110E941C1B0E94CA1304C00E941C1B2E
:1056D0001111F9CF0E94951190919402891721F030
:1056E000809394020E94A9078091BE03843009F43C
:1056F000DBC00E947011882309F439CF0E94A907EA
:105700002091A50221116BC00091A1021091A2026B
:105710002091A3023091A4024B015C01801A910AEE
:10572000A20AB30A95018401043F11402105310505
:1057300008F455C06093A1027093A2028093A30263
:105740009093A40280919F029091A0020196909361
:10575000A00280939F0219828E010F5F1F4F21E0EC
:1057600050E040E060E088E00E943616811106C0FB
:1057700080919F029091A0020A978CF181E0809322
:10578000A50280936D019981911101C080E0809301
:105790006E0180916C0110E0882329F00E94C011F5
:1057A00011E0811112E080916E01882309F449C251
:1057B0000E94C011811147C282E0182B0E9463131E
:1057C0004B015C01DC01CB018C7FBC01CD01612B65
:1057D00086169706A806B90611F00E9474128091E9
:1057E0006E01882309F4C3CE0E94A9074B015C0116
:1057F0008091A6029091A702A091A802B091A9025F
:10580000A5019401281B390B4A0B5B0BDA01C90176
:105810000497A105B10580F119821A821B821C82AE
:105820008E010F5F1F4F24E050E040E060E089E010
:105830000E9436168823C1F069817A8180917301B4
:10584000909174010E94EC0B90937401809373010A
:105850006B817C8180917501909176010E94EC0BA7
:1058600090937601809375018092A6029092A70290
:10587000A092A802B092A90280917801882309F42D
:1058800076CE80917701898310E000E020E0AE01C0
:105890004F5F5F4F61E08AE00E943616882309F46B
:1058A00066CE1092780163CE83E08093E900809108
:1058B000E80082FF1ECF8091E80090E085FF05C0E0
:1058C0000E945906882399F091E08091E8008B7737
:1058D0008093E800992309F40CCF8981EFEFE80F5A
:1058E000E33168F5F0E0ED5DFC4C0C942A3280E287
:1058F000A82EB12C8E010F5F1F4F8091E80085FD0F
:105900000AC08091E8008B778093E8000E945906D6
:10591000882399F3D9CF8091F100D8018D938D011F
:10592000B1E0AB1AB10849F7CFCF1A828CE08B8374
:105930001AC08A81823001F128F4813061F08FEF42
:10594000898311C08330D9F08430C9F71B821C824F
:105950001D821E8208C00E94A9070E9430326B83FC
:105960007C838D839E8340E250E0BE016F5F7F4F5A
:1059700082E00E948F10BDCE0E946313EECF2B8178
:10598000822F90E0FE013496245E8A30910558F70C
:10599000DC01AB56BD4F3C91319301962813F5CFF6
:1059A000E2CF8A81823049F0853049F680917703D1
:1059B00080FF0CC00E943011D6CF6B817C818D811D
:1059C0009E810E9430320E947412CDCF81608093FC
:1059D000770360E086950E947615C5CF4C816B8178
:1059E0008A810E94A2129827892798279E838D83F7
:1059F000BACF2D813E813227232732274C816B81FC
:105A00008A810E941612AFCF0E943C12ACCF9A81BD
:105A1000923009F094CF8830D9F1893009F462C00E
:105A20008B81823009F1A8F4813009F09CCF8C8100
:105A3000E6E98E9FC00111246FEF70E00E94BF3134
:105A4000462F20E060917903809178030E9418141A
:105A50008ACF8330C9F0843009F085CF20E04091AF
:105A60007A036D818C81F2CF8C81882309F4A2CFD7
:105A70008091770381608093770360E086950E9430
:105A8000761560E08C81A7CF8C8180937B036BCFF0
:105A90008B818230D9F070F4813009F064CF80912D
:105AA0007A03FFEF8F9FC0011124B6010E94BF311E
:105AB0006C8359CF833099F0843009F054CF8091B2
:105AC00078038C83809179038D834DCF8091770308
:105AD00080FF03C086958C8346CF80E0FCCF809109
