:100000000C947E020C949B020C949B020C94332360
:100010000C949B020C949B020C949B020C949B02EC
:100020000C949B020C949B020C942D1A0C94E919CD
:100030000C94DE1C0C949B020C949B020C949B026F
:100040000C949B020C949B020C949B020C949B02BC
:100050000C949B020C94061B0C949B020C949B0228
:100060000C949B020C949B020C949B020C949B029C
:100070000C949B020C949B020C949B020C949B028C
:100080000C949B020C949B020C949B020C949B027C
:100090000C949B020C949B020C949B020C949B026C
:1000A0000C949B020C949B020C949B020501090288
:1000B000A10185020901A1000509190129081500FE
:1000C0002501950875018102050109300931158165
:1000D000257F95027508810609381581257F9501D0
:1000E00075088106050C0A38021581257F95017572
:1000F000088106C0C00660FF0961A1010962150000
:1001000026FF009520750881020963150026FF006F
:10011000952075089102C005010906A1010507197E
:10012000E029E71500250195087501810295017503
:100130000881010507190029FF150026FF00950613
:100140007508810005081901290515002501950587
:1001500075019102950175039101C0000000000036
:10016000000000000000000000000000000000008F
:100170000000000000000000000000000000007E01
:100180000F00D4FFFFFFC700000078000000000050
:100190000000002A2B2800000000000000000000E2
:1001A00000000000000029000000002C1E34202167
:1001B0002224342627252E362D3738271E1F2021AE
:1001C00022232425263333362E37381F040506070D
:1001D00008090A0B0C0D0E0F101112131415161727
:1001E00018191A1B1C1D2F3130232D350405060745
:1001F00008090A0B0C0D0E0F101112131415161707
:1002000018191A1B1C1D2F3130354C29001E001FD8
:10021000002000210022004C0014001A00080015E4
:100220000017002B0004001600070009000A002137
:10023000521D001B000600190005000000E300919C
:10024000412C429043300023002400250026002743
:10025000002D001C0018000C001200130089000B78
:10026000000D000E000F00330024021100100036B4
:100270000037003800E50032002A00284291410092
:1002800000000029021E022F002002210222024C3F
:100290000214021A020802150217022B02040216A7
:1002A00002070209020A0201001D021B02060219CE
:1002B0000205020000E30201000100010030022EED
:1002C00000230234022502260287021C0218020CB7
:1002D000021202130289020B020D020E020F0234F7
:1002E000001F0211021002360237023802E5023204
:1002F000020100010001000000000001003A003B83
:10030000003C003D003E00010001002400250026C5
:10031000000100010001002100220023003302013E
:100320000001001E001F0020002D02000037000108
:10033000000100010025023F00400041004200434F
:100340000044000100500052004F00010045004BE6
:1003500000D1005100D200D30001004E0001000185
:100360000001000100010026024C00010001000014
:1003700000000020780100010001000100010021BF
:1003800078237825782778010001002278247826C0
:10039000782878010001000100010001000100013E
:1003A0000001000000510052004F00010001002B2D
:1003B000782C782D782E782F783078317832783301
:1003C0007834780100010001000100010001000102
:1003D0000001004A004E004B004D000100010001E9
:1003E0000001002A000100000000000100010001DE
:1003F00000010001000100010001000100010001F5
:1004000000010001000100010001000100010001E4
:1004100000010001000100010001000000010001D5
:1004200000010001000100010001000100010001C4
:1004300000010001000100010001000100010001B4
:1004400000010001000100010001000100D10001D4
:1004500000D20001000100010001000100010000C4
:1004600000000009025B00030100A0FA090400007B
:1004700001030101000921110100012244000705C7
:1004800081030800010904010002030000000921A2
:100490001101000122220007058203200001070547
:1004A00003032000010904020001030000000921E8
:1004B00011010001224900070584032000011201F7
:1004C00000020000000857F60004000101020001CC
:1004D0001603530075006D006E0069006700680028
:1004E00074003500370000000E036D0061007200DB
:1004F00062007900330000000403090411241FBEC8
:10050000CFEFDAE0DEBFCDBF11E0A0E0B1E0ECE676
:10051000FAE402C005900D92A238B107D9F722E0A3
:10052000A2E8B1E001C01D92A43EB207E1F70E942B
:10053000051D0C9401250C940000482F2091E10228
:100540009091A80257E0291302C080E0089530E09E
:10055000529FF001539FF00D1124E755FD4F81810B
:10056000681306C08081481303C085818111EECFD6
:100570002F5F3F4F2770E7CFE8EDF0E080818E7F5F
:1005800080831092E2001092DA001092E100A0EE57
:10059000B0E08C9181608C9380818F77808319BCCF
:1005A000A7EDB0E08C918E7F8C9380818F7E8083CD
:1005B0001092900208952091E4003091E50095E6B4
:1005C000A9012091EC00822F817020FF06C080914C
:1005D000E80080FF06C080E008952091E80022FD39
:1005E0001AC080919E02882389F0853089F080911D
:1005F000EB0085FD0FC02091E4003091E50042172B
:100600005307F9F29150E1F684E0089582E00895ED
:1006100083E0089581E008958091A00287FF13C0D0
:100620008091E80082FF06C08091E8008B7780937C
:10063000E80004C080919E028111F2CF089580915C
:100640009E028823D9F38091E80080FFF8CF809143
:10065000E8008E77ECCF982F9093E900242F762F27
:1006600050E0891731F07091EC002091ED0050912D
:10067000F00021FD07C09F5F973071F78093E9007C
:1006800081E008953091EB003E7F3093EB00309194
:10069000ED003D7F3093ED003091EB003160309301
:1006A000EB007093EC002093ED005093F00020914C
:1006B000EE0027FDE0CF80E00895B0E0A0E0E3E6A3
:1006C000F3E00C945924C8EDD0E088818F7E8883B4
:1006D000E7EDF0E080818160808384E082BF81E08B
:1006E0008093900288818E7F888302EE10E0F8016B
:1006F00010821092DA0081EEC82ED12CF601108201
:1007000088818F77888388818068888388818F7DBE
:10071000888319BC10929E0210929F0210929D0233
:1007200010929C0290EEE92EF12CF70180818B7FD4
:10073000808388818160888342E060E080E00E945D
:100740002B03F60180818E7F8083F8018081816098
:100750008083808188608083F70180818E7F8083A1
:10076000888180618883CDB7DEB7E8E00C9475247A
:10077000FC018091A6029091A70286179707A0F02E
:100780006115710529F49091E8009E779093E80037
:1007900090E06115710551F4911108C08091E80055
:1007A00082FF34C080E00895BC01F2CF80919E02A8
:1007B0008823C1F18530C1F18091E80083FD30C00C
:1007C0008091E80082FDEACF8091E80080FFE1CFD0
:1007D0008091F3002091F200382F6115710519F016
:1007E0002830310558F091E02830310509F090E0CB
:1007F0002091E8002E772093E800CBCF8191809361
:10080000F100615071092F5F3F4FE7CF80919E0249
:10081000882341F0853041F08091E80083FFBECF0E
:1008200081E0089582E0089583E00895089580911D
:100830009302089587E797E7909301088093000853
:1008400088E19AE00FB6F894A895809360000FBEF7
:1008500090936000FFCF2FB7F89460918C02709155
:100860008D0280918E0290918F022FBF08959C017E
:10087000FC0132969FEF80E04191461751F09F3F77
:1008800019F4411101C0982F8F5F8630A9F79F3F5F
:1008900009F40895290F311D97FD3A95F9016283F6
:1008A0000895FC01680F791F8FEF91E32191822752
:1008B00028E030E087FF09C0880F892721503109DF
:1008C000C9F7E617F70791F70895880FF7CF8091DA
:1008D0005A02F90180830895CF93DF93EAE5F2E0AD
:1008E00083819481A581B681E90188839983AA8354
:1008F000BB831482138216821582DF91CF910895F3
:1009000080E0089563E070E084ED91E00E9451047E
:100910009091D301891318C0E091D401EA30A4F476
:1009200088E0E802F0011124E45FFE4F0680F781C1
:10093000E02D309749F027EF31E04091D60167ED87
:1009400071E08091D50109950895ECE0F1E0A9EC02
:10095000B1E01C968C911C9780A31D968C9183AB63
:100960000895F894E82FE295EF70F0E031A1282F78
:100970002F7081E090E001C0880F2A95EAF7982F48
:100980009095932391A392A1892B82A378940895A3
:100990009091370292FF10C041E0282F247124303B
:1009A00009F040E031E0282F2871283009F030E0CC
:1009B000431711F02CE0822793FF10C041E0282F4D
:1009C0002471243109F040E031E0282F28712831CA
:1009D00009F030E0431711F02CE082273091380203
:1009E00030FF10C051E0282F2171213009F050E074
:1009F00041E0282F2871283009F040E0541711F009
:100A000029E0822731FF10C041E0282F21712131D8
:100A100009F040E031E0282F2871283109F030E05A
:100A2000431711F029E0822794FD877E08958238CC
:100A30009105B9F1B0F48133910509F47DC048F412
:100A40008932910509F46DC08A32910509F47BC0A1
:100A500008958533910509F45FC08933910509F143
:100A60000895833E9105D9F138F4803E910529F12E
:100A7000823E910579F10895863E9105D9F1873E30
:100A8000910509F43EC0843E910541F5209138025C
:100A900021FF24C08091370284FD19C087EE90E0C9
:100AA000089520913702237009F05AC0209138022E
:100AB00023FF14C089E290E008952091370220FDC1
:100AC00038C03091380230FF09C024FF43C090E0A5
:100AD00080E008952091370222FDF7CF08952091FC
:100AE000370222FD3AC03091380230FD39C024FF70
:100AF000F5CFEDCF2091370223FFF0CF24FDE7CFD4
:100B0000CDCF2091370223FD2EC03091380231FF26
:100B1000EECF84EE90E008952091370225FFDECFDE
:100B2000C9CF2091370225FD21C02091380223FF33
:100B3000D5CF89E390E0D2CF2091370226FFCECFE8
:100B40008AE290E008952091370226FFC7CF81E323
:100B500090E0089583EE90E0089582EE90E008958D
:100B600080EE90E0089586EE90E0089585E390E0B1
:100B700008951F93CF93DF930E941705EC01C115D1
:100B800082E5D80708F03FC0C11590E5D90708F005
:100B9000C2C0C83ED105C0F4C03ED10580F4C53AFC
:100BA000D10548F4C430D10550F4C130D10539F035
:100BB000D0E0C0E004C0CD3CD105D0F3D065CE017B
:100BC000DF91CF911F910895C11580E4D80708F0F7
:100BD00053C0C11590E2D90708F0B7C0C11581E034
:100BE000D80730F38D2F0E94C804182FCE01992703
:100BF0000E941705C12FD0E0DC2FCC27CC27DF7156
:100C0000C82BD92BDCCFC03892E5D907A8F4C03661
:100C100082E5D80708F063C0C03492E5D90708F030
:100C200049C0C03282E5D80788F1CF71D0E0DC2F0F
:100C3000CC27C16FD06AC3CFC03C92E5D90780F4FE
:100C40008C2F8F71C03AD24508F45EC00E94C80450
:100C5000C82FD0E0DC2FCC27CC27DF71D062AFCFFC
:100C6000C03E82E5D80708F0A3CFDC2FCC27CC27E5
:100C7000DF71C06FD06AA3CFCE0199270E941705FC
:100C8000CC27DF70C82BD92BD06A99CF2C2F269573
:100C9000269590E2299F900111248C2F8370C1E04A
:100CA000D0E002C0CC0FDD1F8A95E2F7C22BD32B18
:100CB000DD6885CF2C2F26952695277080E2289F0A
:100CC000900111248C2F8370C1E0D0E002C0CC0FC2
:100CD000DD1F8A95E2F7C22BD32BDC6870CF2C2F57
:100CE00026952695277090E2299F900111248C2F3C
:100CF0008370C1E0D0E002C0CC0FDD1F8A95E2F71F
:100D0000C22BD32BDA685BCFC82FD0E0DC2FCC27E7
:100D1000C46FD06A54CF8C2F8F710E94C80455E0E5
:100D2000D695C7955A95E1F7CF70D0E0DC2FCC2748
:100D3000282F30E084FF05C044E0220F331F4A957E
:100D4000E1F7C22BD32BD0693ACF8D2F8F710E9440
:100D5000C804182FCE0199270E941705C12FD0E093
:100D6000DC2FCC27CC27DF71C82BD92B77CF8095F0
:100D70009091910298239093910208958091E102BD
:100D80009091A802981301C008958F5F8770FACFE1
:100D9000292F9A3078F5863068F590E036E0239F69
:100DA000800D911D1124682F677023E0969587951B
:100DB0002A95E1F7FC01EE0FFF1FE80FF91FEE5631
:100DC000FE4F50E040E080E0219130E0062E02C06E
:100DD000369527950A94E2F721703327042E01C037
:100DE000220F0A94EAF7822B4F5F5F4F4330510581
:100DF00059F7089580E00895292F9A3098F58630A4
:100E000088F590E036E0239F800D911D1124282F56
:100E1000277041E001C0440F2A95EAF723E0969538
:100E200087952A95E1F7FC01EE0FFF1FE80FF91FE8
:100E3000EE56FE4F30E020E070E05191DF01119757
:100E4000CB01022E02C0969587950A94E2F7817035
:100E500081958527842385278C932F5F3F4F2330EF
:100E6000310559F70895809335020895982F92958A
:100E70009F7011F0892F94E0282F2695269511F068
:100E80009E5F822F869509F09F5F892F0895CF93EB
:100E9000C82F809167028C1751F00E942B04609339
:100EA00068027093690280936A0290936B02C09308
:100EB0006702CF910895CF93C82F0E94360791E023
:100EC000833009F090E0892F0E944707C0933602D3
:100ED000CF9108959091360221E030E0F90101C0F0
:100EE000EE0F8A95EAF7D90102C0AA0FBB1F6A95D7
:100EF000E2F7EA2B01C0220F4A95EAF7892F8E23E9
:100F0000E81305C0292B822F0E945B0708952095C6
:100F10002923F9CF21E030E001C0220F8A95EAF7BA
:100F200020958091360282230E945B07089590915C
:100F3000B101809589238093B101282F277069F42E
:100F4000891759F09091380292FF07C086958695CF
:100F500086950E948A071092B101089521E030E041
:100F600001C0220F8A95EAF780913602822B0E94F7
:100F70005B070895B0E0A0E0E0ECF7E00C945924A2
:100F8000FC01EB0190916C02911101C094E0608131
:100F9000718191509B01092E02C0359527950A94C5
:100FA000E2F7D901092E02C0AA0FBB1F0A94E2F78B
:100FB0006A1B7B0B71836083628173818B01092EB5
:100FC00002C0159507950A94E2F7D80102C0AA0F4E
:100FD000BB1F9A95E2F76A1B7B0B7383628381E8E0
:100FE0000138BFEF1B072CF0802F003811050CF0E3
:100FF0008FE78D8321389FEF390754F12038310571
:101000004CF5922F91959C83442319F081958D8303
:101010002C830E942B042D81211103C02C812223BB
:10102000D9F060936D0270936E0280936F0290937B
:101030007002809171029BE0980F973120F4080FA5
:10104000009371021D82CDB7DEB7E8E00C947524E1
:1010500021E8D7CF2FE7D5CFC0906D02D0906E0298
:10106000E0906F02F09070026C197D098E099F0963
:101070006436710581059105E0F210927102D9CFB5
:10108000FC01DB012281338191E821388FEF3807A1
:101090002CF0922F203831050CF09FE712969C938C
:1010A00012972081318121388FEF3807A4F0203842
:1010B00031059CF413962C931397442339F09195A2
:1010C00012969C931297219513962C93118210825D
:1010D00013821282089521E8EDCF2FE7EBCF9C0118
:1010E000860F971F37FD07C077FD04C097FF02C02A
:1010F0008FEF9FE7089577FFFDCF97FDFBCF80E04F
:1011000090E808950F931F93CF93DF938B01EA012B
:1011100090919E02943061F58093E9008FEF909159
:10112000E800815095FD06C095ED9A95F1F7000015
:101130008111F5CF8091E80085FF1AC00E94DB0283
:10114000811111C08091E80085FD06C08091E80002
:101150008E778093E800F2CFF80181918F01809320
:10116000F100219779F78091E8008E778093E8006D
:10117000DF91CF911F910F91089546E050E0BC019F
:1011800084E00E9482080895CF93DF93EC0148E049
:1011900050E0BC0181E00E94820888E0FE01A4E9E1
:1011A000B2E001900D928A95E1F7DF91CF91089519
:1011B000B0E0A0E0EEEDF8E00C9457247C015B0178
:1011C0006A018091240201E010E08A3010F40AE004
:1011D00010E0C1E0D0E0B501C701F6010995811129
:1011E00004C021960C171D072CF4CDB7DEB7EAE03A
:1011F0000C947324CC9F9001CD9F300D300D1124A1
:1012000090E080E045E34A95F1F7000001968217EF
:101210009307C1F7E0CF8091C801811119C082E323
:1012200090E02091E30027FD10C0EFE3FCE9319747
:10123000F1F700C000000197A1F782E08093C80198
:101240000E94BC0210929E0203C081E08093C801FC
:1012500081E09091C801913011F080E008950895E7
:101260000E940B09882359F0E0918902F0918A02CB
:10127000309729F00190F081E02D0995089580E0E4
:1012800008950F931F930E940B09882329F00E9451
:101290002B041F910F9108950E942B0400912502A9
:1012A000109126022091270230912802600F711FB1
:1012B000821F931FEECF3E98469A229A2A9885E085
:1012C0008A95F1F7000086B122982A9A90EA9A95B9
:1012D000F1F790E026E0959587952A95E1F78095BE
:1012E000909581700895CF93DF93C1E8D2E060E0DC
:1012F000CE010E94B7242196C11584E0D807B9F722
:10130000DF91CF9108951F93CF93DF93122F8530F4
:10131000E0F46A30D0F44630C0F4C42FD0E0CC0FF3
:10132000DD1F9CE0699FC00DD11D112498E7899FA6
:10133000C00DD11D1124632FCE0189960E94B724C0
:10134000612FCE018A960E94B724DF91CF911F9121
:101350000895AF92BF92CF92DF92EF92FF921F93C8
:10136000CF93DF938BE0C82E82E0D82ED0E07601B9
:10137000C0E014C0F50125913491412F6C2F8D2FC1
:101380000E94830982E0A80EB11C1F5F163091F7FE
:101390008CE0E80EF11CCF5FCA3019F0570110E065
:1013A000E9CFDF5F88E7C80ED11CD53001F7DF91A8
:1013B000CF911F91FF90EF90DF90CF90BF90AF90B3
:1013C000089588E290E00E94B7240895CF93C82F33
:1013D0006FEF811163E285E290E00E94B7246FEF26
:1013E000C11160E186E290E00E94B7246FEFC11165
:1013F00062E087E290E00E94B724CF91089580E0F8
:101400000E94E60960E070E0CB010E94E1090E94C1
:10141000A9090E94730981E00E94E60908950F93CB
:101420001F93CF93DF93853030F56A3020F5463037
:1014300010F5C42FD0E0CC0FDD1F2CE0629FC00D53
:10144000D11D112438E7839FC00DD11D1124CE0179
:1014500089960E949324082F10E0102F0027CE01B8
:101460008A960E9493249801282BC901DF91CF917D
:101470001F910F91089590E080E0F8CF462F7A30C9
:1014800040F4663030F4853020F4672F0E940F0A54
:10149000089590E080E00895CF92DF92FF920F933D
:1014A0001F93CF93DF936C01009136028091350238
:1014B000082BC4E0D0E010E0FC2EC8010C2E02C0C6
:1014C000959587950A94E2F780FD0CC02197A0F7C7
:1014D000F12C8F2DDF91CF911F910F91FF90DF9015
:1014E000CF900895B6018C2F0E943E0A0E94B90544
:1014F000019761F3EECFCF93DF93EC010E944C0A8A
:10150000BE010E943E0A0E94B905DF91CF91089565
:10151000FC0124812223C1F0808191810E947B0AF9
:1015200092959F70963091F058F4925F9F70923030
:1015300058F4803F19F030F4883E30F481E008958B
:101540009A5FF4CF843FD1F380E00895883EB0F3F2
:10155000813FD1F7F3CFA6E0B0E0E1EBFAE00C94E5
:101560005E2449835A8349815A819923A1F0222319
:1015700091F0CA010E944C0A182F682F89819A8124
:101580000E94FC0669817A81812F0E943E0A26967C
:10159000E3E00C947A24CA010E94C806182FF2CF07
:1015A00088E290E00E949324682F70E090E080E051
:1015B000089585E290E00E949324833289F486E2C4
:1015C00090E00E949324803159F487E290E00E94D9
:1015D000932491E0823009F090E0892F8170089582
:1015E00080E0FCCFCF939091840280917D0298138C
:1015F00023C080918502882321F090917E02891377
:101600001BC080918602882321F090917F0289136C
:1016100013C080918802882321F090918102891360
:101620000BC090918702992329F081E020918002DC
:10163000291303C080E001C081E0C82FC17080FF82
:101640000FC0E0918902F0918A02309749F082E060
:10165000809383020480F581E02D83E892E0099570
:101660009091840286E0E3E8F2E0DF01282F1D92EA
:101670002A95E9F790938402ACE7B2E001900D92CD
:101680008A95E1F781E0C11103C0911101C080E0AA
:101690008170CF910895AEE1B0E0E1E5FBE00C94FC
:1016A0005F24409183025091840260918502709181
:1016B000860280918702909188020E9438112093BF
:1016C0008302309384024093850250938602609394
:1016D00087027093880286E0E3E8F2E0DE01179665
:1016E00001900D928A95E1F786E0FE013796DE01C2
:1016F0001D9601900D928A95E1F786E0FE013D96D8
:10170000DE01119601900D928A95E1F786E0FE01C7
:101710003196A3E8B2E001900D928A95E1F786E058
:10172000E3E8F2E0DE01599601900D928A95E1F727
:1017300086E0FE017996DE01179601900D928A955A
:10174000E1F786E0FE013796DE01119601900D92D9
:101750008A95E1F786E0FE013196DE01539601900D
:101760000D928A95E1F786E0FE017396DE011796E9
:1017700001900D928A95E1F786E0FE013796A3E885
:10178000B2E001900D928A95E1F70E94F20A811170
:1017900009C0809182021092820281706E96E2E00E
:1017A0000C947B2481E090E0F6CF2FE2280F2830C4
:1017B00078F481E090E001C0880F2A95EAF7209143
:1017C0008402662331F0822B809384020E94F20A05
:1017D000089580958223F8CF9091380292FB2227BA
:1017E00020F9281779F080FB92F9909338026091E4
:1017F00037027091380284E090E00E94D52482E0A4
:101800000E949707089590E080E00E94A124863E00
:101810009E4F19F40E94D90A089580E00895B0E01F
:10182000A0E0E5E1FCE00C945A247901C82F880F70
:10183000DD0B41155105A9F0FE0193E0EE0FFF1FEE
:101840009A95E1F7E45FFE4F8181928187539E4F25
:10185000208130E04217530708F49A01A9010E9441
:10186000F824CE010E94D923D82E8823D1F0011567
:101870001105B9F083E0CC0FDD1F8A95E1F7FE0179
:10188000E45FFE4F438150E00417150708F4A801F8
:10189000C45FDE4F6C817D8167537E4FC7010E941C
:1018A000F8248D2DCDB7DEB7E7E00C947624A5E0C3
:1018B000B0E0EDE5FCE00C9457248D83E62E5A0150
:1018C000F22E6801809124028A3028F080E025966B
:1018D000EAE00C9473248D818730C4F31A82198254
:1018E0008A836B832C8363E070E0CE0102960E94B2
:1018F00051048983E0922C01F0923F0110E000E056
:1019000030E020E044E050E0BE016F5F7F4F83E0B5
:101910000E940F0C8823D1F24E2D50E030E020E0E1
:10192000B50184E00E940F0C882381F230E020E0B2
:1019300041E050E0BE016B5F7F4F85E00E940F0CDD
:10194000882321F20F2D10E0960150E040E070E076
:1019500060E086E00E940F0CBACFA4E0B0E0E3EBB9
:10196000FCE00C945D244091200250912102609192
:101970002202709123022FB7F89480918C029091EB
:101980008D02A0918E02B0918F022FBF841B950B08
:10199000A60BB70B11E084369105A105B10518F12E
:1019A0000E9441096E5F7F4F8F4F9F4F69837A83FB
:1019B0008B839C8310E000E030E020E044E050E0C6
:1019C000BE016F5F7F4F82E00E940F0C182F8823AB
:1019D00051F00E942B0460932002709321028093A7
:1019E000220290932302812F2496E4E00C94792420
:1019F000A6E0B0E0EEEFFCE00C945B247B0101E09C
:101A000010E09E012A5F3F4F50E040E070E060E050
:101A100080E00E940F0C182F882309F453C04091D6
:101A20001C0250911D0260911E0270911F022FB77F
:101A3000F89480918C0290918D02A0918E02B091C9
:101A40008F022FBF841B950BA60BB70B8436910515
:101A5000A105B10548F465E070E08AEC91E00E94D0
:101A600051049E81891771F105E010E09E012F5FFE
:101A70003F4F50E040E070E060E081E00E940F0CDA
:101A8000082F65E070E08AEC91E00E94510411E0BB
:101A90009E81981310E0102301F10E942B046093A3
:101AA0001C0270931D0280931E0290931F0285E01A
:101AB000FE013196A7E1B2E001900D928A95E1F71F
:101AC00011E00BC085E0EAECF1E0DE011196019037
:101AD0000D928A95E1F71111EACF85E0E7E1F2E096
:101AE000D70101900D928A95E1F7812F2696E6E0C5
:101AF0000C947724809191029091BB01892B809363
:101B000084019091BA01992391F0892B80938401EB
:101B100020E086E891E0FC013191CF0131112F5F87
:101B2000F1E08C389F07B9F721111092BA0148E013
:101B300050E062EB71E084E891E00E94EB24892B95
:101B4000A9F088E0E4E8F1E0A2EBB1E001900D92A9
:101B50008A95E1F7E0918902F0918A02309731F09D
:101B60000280F381E02D84E891E009950895E6E88C
:101B7000F1E086E0DF011D928A95E9F71092BB0142
:101B80000E947A0D0895AAE2B0E0E9ECFDE00C9421
:101B90005E2480EA92E02091F100DC012D93CD01DA
:101BA000B2E0883A9B07B9F78091A102833009F42B
:101BB00072C0B8F4813009F449C0823009F4B5C06C
:101BC0008091E80083FF8DC28091A0029091A102D4
:101BD0009A3008F086C2E92FF0E0ED5FFA4D0C94E0
:101BE00086248A3009F490C08B3009F471C08930A2
:101BF00039F78091A002813219F78091A402909167
:101C0000A502009711F00297D9F68091E800877F2E
:101C10008093E8008091E80082FF38C09091F30043
:101C20008091F200029731F48091F100813011F03F
:101C3000863021F48091F100809393028091E80036
:101C40008B778093E8000E940C03BACF8091A002AA
:101C5000813A09F0B5CF8091E800877F8093E80052
:101C60008091A4029091A502892B61F468E084E937
:101C700092E070E00E94B8038091E8008B77809337
:101C8000E8009ECF60E090E080E0F3CF80919E027C
:101C90008111C0CF95CF8091A002813A09F090CFF9
:101CA0008091A4029091A502892B09F089CF80919F
:101CB000E800877F8093E8008091E80080FFFCCFF8
:101CC000809164018093F1008091E8008E77B9CF14
:101CD0008091A002813209F073CF8091A40290918B
:101CE000A502892B09F06CCF8091E800877F809353
:101CF000E8000E940C038091A2028093640110927C
:101D000091020E94B70D5CCF8091A002813209F050
:101D100057CF8091E800877F8093E8000E940C03F2
:101D20008091A302809392024BCF8091A002813ACE
:101D300009F046CF8091E800877F8093E80080918A
:101D4000E80080FFFCCF80919202BCCF803899F0F0
:101D5000823809F0C6C18091A4028F70873008F0E4
:101D6000C0C18093E9008091EB0085FB882780F952
:101D70001092E90006C080919C0290919D02911101
:101D800082609091E800977F9093E8008093F10043
:101D90001092F1008091E8008E779FC1882309F4AA
:101DA0008DC1823009F09DC18091A202811190C144
:101DB0008091A4028F702FEF280F263008F091C178
:101DC0008093E9002091EB0020FF82C1933031F431
:101DD0008091EB0080628093EB007AC19091EB00E0
:101DE00090619093EB0021E030E001C0220F8A95D2
:101DF000EAF72093EA001092EA008091EB008860F5
:101E0000EACF81116EC11091A2021F778091E30089
:101E10008078812B8093E3008091E800877F809316
:101E2000E8000E940C038091E80080FFFCCF8091C5
:101E3000E30080688093E30082E0111183E08093E7
:101E40009E024FC18058823008F04BC12091A202FF
:101E50003091A3022C3DE3E03E07A1F583E08A83A5
:101E60008AE289834FB7F894DE01139620E03EE0C2
:101E700051E2E32FF0E050935700E49120FF03C0BC
:101E8000E295EF703F5FEF708E2F90E0EA30C0F088
:101E9000C7968D939D932F5F243159F74FBF809143
:101EA000E800877F8093E8006AE270E0CE01019647
:101EB0000E94B8038091E8008B778093E80011C1FD
:101EC000C096E7CF8091A4029091A502432F552799
:101ED0004330510509F44AC078F54130510509F401
:101EE0007AC08BE590E0E3E6F4E04230510509F07A
:101EF000F8C02091E800277F2093E8002091A602F7
:101F00003091A7028217930708F49C0140E0211545
:101F1000310509F065C0411163C08091E80082FD80
:101F2000C9CF80919E02882329F2853019F28091D1
:101F3000E80083FFF2CFBECF4132510509F43CC027
:101F40004232510509F0CDC08330910508F0C9C077
:101F5000FC01EE0FFF1FEA58FE4F0190F081E02DCB
:101F60008D589E4FDC018C9190E01AC033272130B0
:101F70003105D1F02115310561F02230310509F02C
:101F8000B0C0E0EDF4E0E4918E2F90E0E0EDF4E0FD
:101F900007C0E8EFF4E0E4918E2F90E0E8EFF4E082
:101FA000009709F49EC0A5CFE8EEF4E0E4918E2FEF
:101FB00090E0E8EEF4E0F4CF8330910508F091C0B2
:101FC000880F991FFC01E458FE4F0190F081E02D2D
:101FD00089E090E08ECF82E190E0EEEBF4E089CFF3
:101FE00080919E02882309F465CF853009F462CF81
:101FF0008091E80083FD5ECF8091E80082FD8DCF67
:102000008091E80080FF83CF9091F3008091F200EF
:102010002115310519F08830910550F041E00897FD
:1020200009F040E08091E8008E778093E8006FCF60
:1020300044914093F1003196215031090196E8CF47
:10204000803809F04EC08091E800877F8093E800D7
:1020500080919F028093F1009DCE811142C010912A
:10206000A2021230F0F58091E800877F8093E800AB
:1020700010939F020E940C03112311F084E005C00D
:102080008091E30087FDFACF81E080939E0242E0D9
:1020900061EC81E00E942B0342E261EC84E00E944B
:1020A0002B0342E261EC82E00E942B0342E260ECEF
:1020B00083E00E942B0380919E0213C08091A202B4
:1020C000813079F481E0933009F080E080939D02C3
:1020D0001092E9008091E800877F8093E8000E94D9
:1020E0000C038091E80083FF0AC08091E800877F9D
:1020F0008093E8008091EB0080628093EB00AA96C9
:10210000E3E00C947A24109291020E94B70D2FEF15
:1021100084E39CE0215080409040E1F700C0000043
:1021200088E19AE00FB6F894A895809360000FBEFE
:1021300090936000FFCF882321F00E94B7060E9491
:102140007A0D0895882339F090919102982B9093FD
:1021500091020E947A0D0895882349F19CEF980F0F
:10216000913A80F4E6E8F1E02CE831E091918913AE
:1021700003C0DF0111971C922E173F07B9F70E9489
:102180007A0D089590E2980F983050F4877091E09E
:1021900001C0990F8A95EAF7892F0E94B706EFCF01
:1021A00093E3980F933118F460E00E94D50B0895E3
:1021B000CF93C82F8823A9F08CEF8C0F813A00F5BC
:1021C000E6E8F1E0DF018D91C81769F081E0AC38F5
:1021D000B807C9F76C2F84E891E00E9437040E9489
:1021E0007A0DCF9108958191C81303C0DF01119733
:1021F0001C9281E0EC38F807B1F70E947A0DEACF23
:1022000080E28C0F883068F4C77021E030E001C0B4
:10221000220FCA95EAF780919102822B8093910256
:10222000DECF83E38C0F8331E0F661E08C2F0E94D8
:10223000D50BD7CF1F93CF93DF93182FEB010E94BD
:10224000D8108FE99FE00197F1F700C000002197B7
:10225000C1F7812F0E94AC10DF91CF911F9108959B
:1022600028E030E043E060E086E30E94C121089569
:10227000ACE0B0E0EEE3F1E10C9459244F835887D1
:1022800069877A878B879C8780915A02882399F087
:102290000E94301180E50E9439228AEB8A95F1F77D
:1022A00000C00E945122887899278038910509F44E
:1022B00087C00E9469220E940B09882309F46BC021
:1022C0000E942B0400918C0110918D0120918E01B0
:1022D00030918F016B017C01C01AD10AE20AF30A26
:1022E00097018601083011052105310508F453C016
:1022F00060938C0170938D0180938E0190938F0178
:10230000009168021091690220916A0230916B027B
:10231000601B710B820B930B623371058105910574
:1023200080F410925E0210925D0210926002109290
:102330005F02109262021092610210926402109287
:102340006302109167020E945B09482FBE01695F1A
:102350007F4F8DE592E0112309F45FC00E94BA0718
:102360000091670210915A020E945B0941E04827E0
:10237000BE01695F7F4F81E692E0011709F450C00A
:102380000E94BA0786E0FE013796A6E7B2E0019008
:102390000D928A95E1F786E0FE013796DE011196EF
:1023A00001900D928A95E1F729813A814B815C81F8
:1023B0006D817E8180E090E02C96E8E00C9475249D
:1023C0000E9451220E9451227C010E94512220E051
:1023D000E22AF82A0E9451228C010E94512220E018
:1023E000022B182B0E946922F894B70180915D029C
:1023F00090915E020E946F0890935E0280935D024E
:10240000B80180915F02909160020E946F089093E2
:10241000600280935F0278944ECF0E944008A0CF64
:102420000E944008AFCFCF93DF93D82FC62F0E94D2
:1024300030118D2F80680E9439228C2F0E94392202
:102440000E9469228FEC92E00197F1F700C0000032
:10245000DF91CF910895682F893708F068E760937E
:10246000650291E09093660290915A02992359F087
:102470006150811101C064E08FE00E94131260E09E
:1024800080E50E9413120895FB0180810E942B12A7
:10249000089590916502911101C095E0282F880F51
:1024A000330BA901490F511DCA011816190614F062
:1024B00081E090E00E942B120895A8E0B0E0E3E6EE
:1024C000F2E10C9451248C01DC0114968C91149748
:1024D000882309F4BEC021E04C9111965C911197BC
:1024E00012966C91129713967C91139715969C9166
:1024F0000E94AB0A7C01F8018581882309F46AC136
:10250000C70197578038910508F064C1FFE0FE15B8
:1025100008F48FC08FEF93E00E949324811189C04B
:1025200061E8A62E62E0B62EE1104DC0FE013396A2
:1025300086E0DF011D928A95E9F75AE0452E750184
:10254000BFEFEB1AFB0AC5010E94932489831A820C
:10255000882309F46EC0813009F07FC06501E2E094
:10256000CE0ED11CC7010E9493248A83882309F4CC
:1025700060C09FEF980F9330A0F5F3E0AF0EB11C51
:10258000C6010E9493248B83882309F452C01C82C5
:10259000DE0111967D01F7012081222381F2213095
:1025A00009F0BAC091818281913009F058C0F2E0FF
:1025B000EF0EF11C65E070E0893311F460E570E026
:1025C0000E941A1153C0A11424E0B20691F1C50172
:1025D0000E949324811101C0EA943FEFA31AB30A29
:1025E000A3CF56018430A1F642E0E42EF12C56012F
:1025F0002FEFA21AB20AC6010E949324E1E0F0E094
:10260000EC0FFD1FEE0DFF1D8083882391F08C37AA
:1026100041F4E2E0F0E0EC0FFD1FEE0DFF1D108233
:10262000B7CF3FEFE31AF30A650187E0E816F1043C
:10263000F1F68091B101877061F0D80115968C9107
:10264000882339F08091380282FF03C082E00E9423
:1026500097072896E0E10C946D24570199CF9230AA
:1026600039F522E0E20EF11C0E94D810FFEFEF1ABC
:10267000FF0A8FE99FE00197F1F700C00000AFE982
:10268000BFE01197F1F700C00000EFE9FFE03197DC
:10269000F1F700C000008FE99FE00197F1F700C05B
:1026A0000000AFE9BFE01197F1F700C0000073CF61
:1026B000933031F432E0E30EF11C0E94AC10D6CF1F
:1026C000943021F08FEFE81AF80AD0CF92E0E90EAB
:1026D000F11C30E020E0B7016F5F7F4FD70111960A
:1026E0004C918053990B8A30910558F02150310953
:1026F00008F4BCCFEFE9FFE03197F1F700C000002C
:10270000F5CF429EF001439EF00D11249C012E0F47
:102710003F1F842F7B01DFCFE22FF0E0E557FE4F14
:102720005490822F86958695869590E0FC01E55819
:10273000FE4F64902770712C022E02C0759467942E
:102740000A94E2F731E063227724FC01E559FE4F59
:102750008490912C022E02C0959487940A94E2F7FB
:10276000A1E08A229924FC01E55AFE4FC490D12CA5
:1027700002C0D594C7942A95E2F7B1E0CB22DD24BC
:102780006114710419F081EE0E94D8108114910433
:1027900019F086EE0E94D810E9E365E070E05E1261
:1027A00002C060E570E0852D0E941A118114910429
:1027B00019F086EE0E94AC106114710419F081EEDC
:1027C0000E94AC10C114D10409F450CF65E070E050
:1027D0008CE2F6CEF0927302E0927202F8018081F0
:1027E00091819093750280937402C7019A95811527
:1027F0009F41D0F4F701FF27D80115968C91E13D58
:10280000F10540F0E93DF10588F0E730BEE7FB0750
:1028100009F450C0882371F0FE57EA30F10550F4F6
:10282000E35FFA4D0C948624F701E6CF682F8E2FD4
:102830000E94D50BF8018581F6E1EF16FCE7FF0653
:1028400009F066C0882309F44EC0809191028A7A0B
:1028500091E009F490E09093900169E2811165E3C1
:1028600084E891E00E9437040E947A0DE2CE80E075
:102870000E942B1210926C02DCCE409165025091A6
:102880006C0250FB47F95695537060E070E08FE0A2
:1028900090E00E94C924CDCE81E00E944912C9CEA9
:1028A0008FEFFBCF8AE0F9CF86EFF7CF90916702E9
:1028B00081E089270E944707BCCE80916C0281117C
:1028C00001C084E08F5F18160CF081E0883008F0BA
:1028D00087E080936C02ADCE80916C02811101C0C3
:1028E00084E08150F0CF8091900181110FC089E286
:1028F000E6E8F1E02CE831E09191891303C0DF01B3
:1029000011971C922E173F07B9F7AECF85E3F0CF92
:1029100027E7E2162CE7F20609F46CC038E7E31665
:102920003CE7F30609F475C0882399F083E0E816C4
:102930008CE7F80609F494C008F071C0E114ACE724
:10294000FA0609F47EC0B1E0EB16BCE7FB0609F419
:102950008DC0F8018581E080F180882309F494C05E
:10296000C7010E944C0AD82E682FC7010E94FC069E
:10297000B7018D2D0E943E0A0E94B9057C01882E68
:10298000D8011596AC90159716969C9092943FE0BE
:1029900093228091B1018770F1F0CA2CAA20E1F056
:1029A0008F2D807F803451F080E28E0D883098F03A
:1029B000911004C08F2D807E803269F080913802A2
:1029C00082FF09C082E00E9497078091B101877061
:1029D000CC24C3948111C12CBF2CB2942FE0B2221D
:1029E000BBE0BB1508F4B8C0EB2DF0E0E95EFA4D92
:1029F0000C948624882349F081E00E94AE0743E0CE
:102A000062E081E00E946A0714CE81E00E948A079A
:102A1000F6CF882311F082E0F0CF82E0F7CFEBE52C
:102A2000EE16ECE7FE0671F1FCE5EF16FCE7FF069B
:102A3000F9F02AE5E2162CE7F20609F08ACF81E0E8
:102A40001EC0109291020E94B70D3FEF84E39CE0FC
:102A5000315080409040E1F700C000000E941A040D
:102A60006FEF7FEF90E080E00E94D5240E948310FA
:102A70008091380282FB882780F991E089270E94A3
:102A8000EC0B67CF80E0FBCFC7010E94C806D82EB1
:102A90006FCFEF2DEF70DE2E8F2D807F19F0D29447
:102AA00090EFD922AA20B9F0DD2069F080E28E0DE6
:102AB000883010F0811009C080919102D82AD092FC
:102AC00091020E947A0D8E2D45C08091BB01D82ABB
:102AD000D092BB01F6CF8E2D0E94AC10DD20E1F12B
:102AE00080E28E0D883010F0811004C08D2D0E9480
:102AF000B70606C0D0948091BB01D822D092BB010A
:102B00000E947A0D29C0FF2DFF70DF2E8F2D807F50
:102B1000803219F0D29480EFD822882059F021E039
:102B2000821609F481C0AA2009F48DC0992009F405
:102B30004FC0C9CF8091380282FD46C0AA20F1F172
:102B4000DD2039F080919102D82AD09291020E9422
:102B50007A0D80E00E94D810AB2DA850BB0B1497C3
:102B600010F40E943009CC20A9F08091B10180FDC1
:102B700011C0F80115828695869586950E94AE074C
:102B8000C8010E945D128091B10186958695869557
:102B90000E948A0720E0D8014C9111965C91119710
:102BA00012966C91129713967C91139714968C91B0
:102BB000149715969C910E94AB0A4BCD80E00E9421
:102BC000AC10DD2049F292CFAA20A1F0911004C0F0
:102BD0008D2D0E94A210C0CF31E09312BDCF809105
:102BE000BA019D2D9823D91609F4B6CFD82AD092D0
:102BF000BA01B2CF9110B0CF8D2D0E949B10909151
:102C0000BA018D2D892329F08D2D809589238093FC
:102C1000BA01809191019D2D982309F49DCFD09404
:102C2000D822D092910198CFAA2029F085E0891569
:102C300008F492CFCDCF94E0991508F48DCF8D2D67
:102C40000E949B1089CF9920D1F3A9E38A1209C170
:102C5000BFEFE7EEF3E0B150E040F040E1F700C035
:102C600000008E2D0E94AC1077CF6A2D8E2D0E9411
:102C7000D50B72CF8F2D837091F5A1106DCF4E2D96
:102C8000429546954770440F440F8E2D8F70042E49
:102C900001C0880F0A94EAF72E2D2071E4FE07C0C8
:102CA0002FE030E001C0220F4A95EAF720953F2D32
:102CB000369536953370323069F050F440913502D4
:102CC000313029F0822B84230E94330745CF842B97
:102CD000822BFACF282B809135028227F5CF86955B
:102CE000AA2011F08F2D8170882309F435CF4E2D45
:102CF000429546954770440F440F8E2D8F70042ED9
:102D000001C0880F0A94EAF72E2D2071E4FE07C057
:102D10002FE030E001C0220F4A95EAF720953F2DC1
:102D2000369536953370323069F050F44091360262
:102D3000313029F0822B84230E945B070DCF842B36
:102D4000822BFACF282B809136028227F5CF9F2D38
:102D50009F70F92EAA2029F0892F0E94AE078E2D90
:102D600038CF8E2D0E949B108F2D0E948A07F4CEA3
:102D70008E2DA2EF8A16B1F1A81570F0B0EF8B1668
:102D8000D1F0E1EF8E1691F0AA2009F45EC0911007
:102D90009ACE8F2D8F712AC0F3EF8F1651F124EF49
:102DA0008212F2CF8091380282FD2FC08F2D8F7159
:102DB000AA20D9F21BC0AA2081F034E0391508F40A
:102DC000CBCE2F2D2F7181E090E001C0880F2A9586
:102DD000EAF7909136028927AFCF85E0891508F48C
:102DE000BBCEEFCF8F2D8F71A110BFCF0E94AE074A
:102DF000B3CE80E0AA2009F49FCF9F2D9F7181E080
:102E000001C0880F9A95EAF797CFAA2099F09F2DD5
:102E10009F71F92E892F0E94AE078091380282FFA0
:102E200007C0A8E0FA9EC001112483608093B1011D
:102E30008F2DDCCF81E00E949707B1E0B91508F033
:102E40008BCE82E00E94970787CE992079F0893354
:102E500041F4EFEFF7EE23E0E150F0402040E1F7DE
:102E6000FECE8FE19EE40197F1F7F9CE8F2D8F71A1
:102E70007CCFCF93DF938091B001807F09F04DC06C
:102E80008091AF01882309F448C0E091E10250919C
:102E9000A802C091AB01D091AA016091AC017091E0
:102EA000AD0147E05E17C9F18E2F90E0E49FF0017D
:102EB0001124E755FD4F2481222391F1489FF00111
:102EC000499FF00D1124DF01A755BD4F11962C919C
:102ED00011972C1325C02C912D1322C015962C91DF
:102EE000159721111DC012962D913C91261B370B71
:102EF000283C3105A8F48091B0018F7080618093E7
:102F0000B001E155FD4F80818F70806180838AEA36
:102F100091E00E945D120E94BE06DF91CF9108955C
:102F2000FC013196E770BECFA4E1B0E0EAE9F7E139
:102F30000C9455248C0186E0F801DE011F96019067
:102F40000D928A95E1F7F8018481E5809AEAA92E2D
:102F500091E0B92E9091AE01911128C0882319F10A
:102F6000EE20F1F0C8010E94880AF82E8823C1F0F3
:102F700087E0F801D50101900D928A95E1F78091E3
:102F8000AE01813031F48091AA019091AB010E9491
:102F90007B0A0E9439178F2D6496ECE00C94712403
:102FA000C8010E945D12FF24F394F5CFD080C18048
:102FB00082809380F090AF012091AC013091AD01FF
:102FC000A401421B530BFF2009F4D9C0483C510512
:102FD00008F092C08823F9F29091AB018091B00182
:102FE000282F207F09F056C0C91214C09091AA0161
:102FF000D91210C0E11048C08F7080618093B00179
:103000008AEA91E00E945D128091B001F801868306
:10301000F12CC1CFE11038C06C2D8D2D0E949D0286
:103020006C2D8D2D0E949D02E82E8111F1CFDF863F
:10303000C88A8F8598890E947B0A292F22952F7034
:10304000243058F49F70223088F0992399F0F801C9
:103050009681907F79F4FE2C9ECF2A5F2F702230CC
:1030600068F0C8010E945D12EF2CF5CF992311F092
:10307000882389F3805E883070F3F3CF803F58F364
:10308000815F833070F7E7CF8091B00181608093DA
:10309000B001BECFC91207C09091AA01D91203C0D6
:1030A000EE2009F48DC0C8010E94880A882309F423
:1030B00077CFEE2009F474CF8091B001803288F090
:1030C0002091AA013091AB01398728879B868A8697
:1030D0009091AE019C871D868E87CE0108960E9436
:1030E0005D1287E0F801AAEAB1E001900D928A959D
:1030F000E1F70E94391757CF9091B001292F207F17
:1031000051F48AEA91E00E945D1287E0F501119284
:103110008A95E9F77DCF882309F43DCF8091AB01F3
:103120008C1110C08091AA01D8120CC0E1100AC005
:103130009683C8010E945D1287E0F50111928A957D
:10314000E9F729CFC8010E94880A882309F428CF0B
:10315000EE2009F425CF8091B001803210F2209149
:10316000AA013091AB013A8329839C828B82909192
:10317000AE019D831E828F83CE010196B0CF483C65
:103180005105D0F6882309F40ECFFE2CEE2009F469
:1031900007CF8091AB018C1120C08091AA01D81279
:1031A0001CC08091B00180FD0FC0982F907F61F00E
:1031B0008683903F31F0982F907F905F8F70892B9E
:1031C0008683C8010E945D1287E0F801AAEAB1E097
:1031D00001900D928A95E1F7DECEC8010E94880A1F
:1031E00081117FCF8091B00181608093B001C801CF
:1031F0000E945D12D0CEABE1B0E0E1E0F9E10C94C9
:103200005D244E8B5F8B688F798F8A8F9B8F192FF0
:1032100091111092BB011D8A86E0FE017696DE01B7
:103220001F9601900D928A95E1F70A8D002341F0D7
:1032300021E04F85588969897A89C8010E94AB0AC3
:103240000B8B1C8B87E0FE013F96DE0118960190E8
:103250000D928A95E1F7CE0108960E94941781118C
:103260000CC087E0FE013896DE01119601900D92A8
:103270008A95E1F78C8581110BC017E08091E102FE
:103280009091A802891333C06B96E4E00C947924E2
:103290002091A80230E0C9010196877099274091DA
:1032A000E1024817190699F097E0929FD001939F89
:1032B000B00D1124A755BD4FFE01319601900D921E
:1032C0009A95E1F78093A8020E94BE06D6CF10928D
:1032D00091020E94B70D1092A8021092E10287E0BD
:1032E000EAEAF1E0DF011D928A95E9F7C6CF819FF6
:1032F000C001112487559D4F0E949417882321F205
:103300008091E10290E00196877099278093E10215
:10331000B5CFCF93C82F0E9430118C2F0E94392235
:103320008FE792E00197F1F700C000000E94512260
:10333000C82F0E9469229AE69A95F1F700C08C2F57
:10334000CF910895CF93DF930E94B921269A0E94CE
:1033500030116AE58AE30E9413122FEF80E792E0B2
:10336000215080409040E1F700C0000082E00E94C0
:10337000891983E00E94891984E00E94891985E0F7
:103380000E94891986E00E94891960E080E10E940C
:10339000131280E00E948919D82F81E00E948919B8
:1033A000C82F0E946922D23419F481E0C13009F09B
:1033B00080E0817080935A02882341F064E08FE0BE
:1033C0000E94131260E080E50E941312DF91CF91FA
:1033D00008951F920F920FB60F9211242F933F93CF
:1033E0004F935F936F937F938F939F93AF93BF930D
:1033F000CF93DF93EF93FF93D091E900DF7080913B
:10340000EC00C82FC17080FDC0E81092E9008091E7
:10341000F000877F8093F00078940E94C30D109293
:10342000E9008091F00088608093F000CD2BCF7090
:10343000C093E900FF91EF91DF91CF91BF91AF91E0
:103440009F918F917F916F915F914F913F912F91BC
:103450000F900FBE0F901F9018951F920F920FB6EE
:103460000F9211242F933F934F935F936F937F930A
:103470008F939F93AF93BF93EF93FF938091E1005E
:1034800082FF09C08091E20082FF05C08091E100C7
:103490008B7F8093E1008091DA0080FF24C08091CF
:1034A000D80080FF20C08091DA008E7F8093DA0000
:1034B0008091D90080FF9DC080E189BD82E189BDF6
:1034C00009B400FEFDCF81E080939E0280919002BE
:1034D000811109C00E94BC020E945D038091E2003C
:1034E00084608093E2008091E10080FF17C08091AA
:1034F000E20080FF13C08091E2008E7F8093E200A3
:103500008091E20080618093E2008091D800806227
:103510008093D80019BC85E080939E028091E100E1
:1035200084FF2BC08091E20084FF27C080E189BD29
:1035300082E189BD89B5982F917080FFFBCF809182
:10354000D8008F7D8093D8008091E1008F7E80939A
:10355000E1008091E2008F7E8093E2008091E200A2
:1035600081608093E20080919F02882309F447C024
:1035700084E080939E0280919E028091E10083FF0F
:1035800027C08091E20083FF23C08091E100877F04
:103590008093E10082E080939E0210929F028091CE
:1035A000E1008E7F8093E1008091E2008E7F809326
:1035B000E2008091E20080618093E20042E060E0FE
:1035C00080E00E942B038091F00088608093F000DF
:1035D000FF91EF91BF91AF919F918F917F916F91EB
:1035E0005F914F913F912F910F900FBE0F901F90C1
:1035F000189519BC10929E021092900274CF80917F
:10360000E30087FD93E090939E02B5CF78941F92DC
:103610001FB61F9211248F939F93AF93BF938091F6
:103620008C0290918D02A0918E02B0918F02019632
:10363000A11DB11D80938C0290938D02A0938E02E8
:10364000B0938F02BF91AF919F918F911F901FBE3A
:103650001F9018952FB7F89480918C0290918D024D
:10366000A0918E02B0918F022FBF0895AFE0B0E01D
:10367000ECE3FBE10C9454248E010F5F1F4F8AE0B2
:10368000D8011D928A95E9F786E0C82E81E0D82EF0
:10369000F12CE12CAA24A394B12C26E0822E21E067
:1036A000922EF60181916F018F3F09F442C0F89488
:1036B000E82FE295EF70F0E021A18F70A50102C024
:1036C000440F551F8A95E2F7CA01922F982B91A3B8
:1036D00092A18095892382A3789400C0E0E0F1E074
:1036E000712C31E021912F3F09F476C0A22FA295D1
:1036F000AF70B0E090968C9190E02F7002C09595DD
:1037000087952A95E2F780FD67C0832F782A330FCB
:103710008E169F0639F7F601319780818F3F11F0A1
:103720000E94B10450EA5A95F1F7F801EE0DFF1D21
:1037300070828FEFE81AF80AA5E0EA16F10409F0A2
:10374000B0CF4AE050E0B80189E292E00E94EB2459
:10375000009741F02AE0F801A9E2B2E001900D9251
:103760002A95E1F700913402892BC1F181E0809321
:10377000C0010E942A1B9093BF018093BE0120913B
:10378000BE013091BF014FB7F89480918C029091A7
:103790008D02A0918E02B0918F024FBF821B930BBE
:1037A000059700F110E00B5B1D4F45E050E069E22A
:1037B00072E0C8010E94EB24B12C892B51F085E006
:1037C000E9E2F2E0D80101900D928A95E1F7BB247D
:1037D000B3941092C00107C080E098CF8091C001DF
:1037E0008111CDCFB12C0E940B09F82EE09134024B
:1037F000882309F47AC06E01BBE0CB0ED11C85E0B2
:10380000D6011D928A95E9F70E2F10E00B5B1D4F34
:10381000809124028A3058F548EF5CE0B601C80177
:103820000E94D808882309F44FC04DEA5CE0B60135
:10383000C8010E94D808882309F446C010922402C7
:103840008091330290E045E050E0B6018B5B9D4FE4
:103850000E94EB2421E02093C701892B41F5F12C34
:103860001F2D812F8B292F96EDE00C947024209131
:10387000C1013091C2014FB7F89480918C029091B0
:103880008D02A0918E02B0918F024FBF821B930BCD
:10389000843F914008F0C0CF8091C7018823F9F29E
:1038A00085E0F60111928A95E9F71092C701A0917F
:1038B0003302B0E0AB5BBD4F85E0FE013B9601906B
:1038C0000D928A95E1F7CCCF809124028F3F31F0A1
:1038D0008F5F809324028A3008F4B2CF0E942A1BA3
:1038E0009093C2018093C101D7CFF0E0EB5BFD4F15
:1038F00085E0AAECB1E001900D928A95E1F765E0D0
:1039000070E08AEC91E00E9451048093C901C0905C
:10391000CF01D090D001E090D101F090D201809100
:10392000C3019091C401A091C501B091C601C81610
:10393000D906EA06FB0611F410E093CFC092C3014A
:10394000D092C401E092C501F092C6010E940B0919
:10395000182F8111F1CF0E942B04C61AD70AE80A4A
:10396000F90AC0922502D0922602E0922702F09234
:10397000280277CFA6E0B0E0E0ECFCE10C945D24F7
:103980000E942A1B8C018091BC019091BD0180177F
:10399000910781F019821A820E942A1B682F49819F
:1039A0005A81792F80E090E00E94FB181093BD01AE
:1039B0000093BC012696E4E00C9479241F921FB674
:1039C0001F9211248F939F93AF93BF9380918B028B
:1039D000811113C080918C0290918D02A0918E0272
:1039E000B0918F024196A11DB11D80938C029093DE
:1039F0008D02A0938E02B0938F02BF91AF919F91E1
:103A00008F911F901FBE1F901895CDB7DEB7A69758
:103A10000FB6F894DEBF0FBECDBF85B7806885BFF7
:103A200085B7806885BF84B7877F84BF0FB6F89459
:103A3000A89580916000886180936000109260007A
:103A40000FBE80E890E00FB6F894809361009093E9
:103A500061000FBE80E894E090938301809382011F
:103A60000E94BC020E945D038091E200846080930A
:103A7000E200789480919E028823A1F01091E900E1
:103A80001F709091EC00892F817090FD80E8182BB9
:103A90001092E9008091E80083FD0E94C30D1F7021
:103AA0001093E90082E084BD93E095BD9AEF97BD45
:103AB00080936E0010922502109226021092270227
:103AC000109228020E94D90A811102C00E94FF09A7
:103AD0000E945B0980930B010E940B0981110E94D7
:103AE000ED2280910B0181112CC085E0E6E6F1E02A
:103AF000DE01919601900D928A95E1F789A180935C
:103B000006018AA1809307018BA1809308018CA1F3
:103B1000809309018DA180930A0186E0EBE6F1E034
:103B2000DE01119601900D928A95E1F7FE01319622
:103B3000A0E0B1E0CE01079621912D93E817F90797
:103B4000D9F780910B0195E0811190E090933402B8
:103B500085E0891B8093330206E011E0D8018D9146
:103B60008D018F3F11F00E94B104B1E00B301B07B3
:103B7000A9F700E011E0F80181918F018F3F11F06A
:103B80000E94B104F1E006301F07A9F78AE0E5E4DE
:103B9000F2E0DF01882E1D928A94E9F7E9E2F2E073
:103BA000DF011D928A95E9F70E94030C811167C01D
:103BB00066EE7EEF90E080E00E94D52460E082E037
:103BC00090E00E94B72460E083E090E00E94B72478
:103BD0001092350260E074E184E090E00E94D52408
:103BE00060E086E090E00E94B7246FEF87E090E00D
:103BF0000E94B72440E050E0BA0188E090E00E94C3
:103C0000C92460E084E290E00E94B72460E087E18C
:103C100090E00E94B72460E08CE090E00E94B7241E
:103C200060E08DE090E00E94B72419821A821B8226
:103C30001C821D821E821F82188648E050E068E1C7
:103C400070E0CE0101960E94A72440E050E0BA0146
:103C500080E290E00E94C92480E00E94E6090E9470
:103C6000FF0940E050E0BA018FE090E00E94C924D3
:103C700040E050E0BA0183E190E00E94C92482E074
:103C800090E00E9493248093390284E090E00E94A7
:103C9000A12490933802809337020E94361BEFE3F1
:103CA000FCE93197F1F700C000000E94361B8091BB
:103CB000450280FF08C06FEF7FEF90E080E00E9438
:103CC000D5240E941A0483E090E00E9493240E946D
:103CD0003307809136020E94360791E0833009F065
:103CE00090E0892F0E9447070E940B09811102C0B2
:103CF0000E94F0220E94A2190E940B0981112EC07D
:103D000087E694E090934B0180934A012EE030E0E7
:103D100030934601209345018EE290E09093490153
:103D2000809348014CE654E0509353014093520174
:103D300030934E0120934D01909351018093500197
:103D400044E452E150935B0140935A013093560191
:103D50002093550190935901809358010E94030CC0
:103D6000882389F08FE090E00E949B248B01862FAE
:103D70008F770E942B12001F0027001F1370110F56
:103D8000102B10936C028CE591E090938A02809343
:103D9000890228E1622E712C3FE4E32E32E0F32EFB
:103DA00044E4C42E42E0D42E80919E0200E112E150
:103DB000853009F481C00E94361B0AE312E095E4C5
:103DC000A92E92E0B92ED501F80191918D91CE16D0
:103DD000DF0609F47DC09817C1F30E940B09282E55
:103DE000912CD5018D905D01F80131908F0138142F
:103DF00031F13824512C44244394832D8421B9F08B
:103E00002220A9F059A29AA20E942A1B9CA38BA34C
:103E1000F1E0FDA391E0882D842109F490E09EA3B8
:103E200049A15AA16BA17CA18DA10E94FB185394BA
:103E3000440C26E05212E1CFF8013197808293942E
:103E40003AE09312CECF0E94410946C080919E0273
:103E5000843021F10E944B0B10928B02F0E40FB6DC
:103E6000F894A895609260000FBEF093600083B74D
:103E7000817F846083BF83B7816083BF7894889596
:103E800083B78E7F83BF0FB6F894A89580916000AA
:103E9000886180936000109260000FBE80919D0247
:103EA000882351F00E94361BE5E4F2E081918111F4
:103EB00048C2EE16FF06D1F780919E02853009F4C4
:103EC000C5CF109291020E94B70D0E94300973CFA6
:103ED000981383CF0E94BA1C0E940B090E944B0BBF
:103EE00081110E9441090E94300990914402891772
:103EF00021F0809344020E942B0480919E02843022
:103F000009F4DBC00E940B09882309F44DCF0E94FD
:103F10002B042091550221116BC000915102109188
:103F2000520220915302309154024B015C01801ADD
:103F3000910AA20AB30A95018401043F11402105A8
:103F4000310508F455C0609351027093520280937A
:103F500053029093540280914F0290915002019627
:103F60009093500280934F0219828E010F5F1F4F72
:103F700021E050E040E060E087E00E94570C8111B2
:103F800006C080914F02909150020A978CF181E017
:103F90008093550280935B029981911101C080E06A
:103FA00080935C0280915A0210E0882329F00E94DD
:103FB0005B0911E0811112E080915C02882309F411
:103FC000BCC10E945B098111BAC182E0182B0E941A
:103FD000D00A4B015C01DC01CB018C7FBC01CD011F
:103FE000612B86169706A806B90611F00E94E10912
:103FF00080915C02882309F4D7CE0E942B044B01E8
:104000005C018091560290915702A0915802B091A4
:104010005902A5019401281B390B4A0B5B0BDA01ED
:10402000C9010497A105B10580F119821A821B828A
:104030001C828E010F5F1F4F24E050E040E060E0E3
:1040400088E00E94570C8823C1F069817A818091B1
:104050006102909162020E946F08909362028093C5
:1040600061026B817C8180916302909164020E9465
:104070006F0890936402809363028092560290923C
:104080005702A0925802B09259028091660288238A
:1040900009F48ACE80916502898310E000E020E077
:1040A000AE014F5F5F4F61E089E00E94570C8823AB
:1040B00009F47ACE1092660277CE83E08093E9000D
:1040C0008091E80082FF1ECF8091E80090E085FF9C
:1040D00005C00E94DB02882391F091E08091E80006
:1040E0008B778093E800992309F40CCFE981E150A4
:1040F000E33168F5F0E0ED5DFA4D0C94862480E242
:10410000A82EB12C8E010F5F1F4F8091E80085FD16
:104110000AC08091E8008B778093E8000E94DB0260
:10412000882399F3DACF8091F100D8018D938D0126
:10413000B1E0AB1AB10849F7D0CF1A828CE08B837B
:104140001AC08A81823001F128F4813061F08FEF4A
:10415000898311C08330D9F08430C9F71B821C8257
:104160001D821E8208C00E942B040E948C246B8337
:104170007C838D839E8340E250E0BE016F5F7F4F62
:1041800082E00E948208BECE0E94D00AEECF2B8130
:10419000822F90E0FE013496245E8A30910558F714
:1041A000DC01AB5BBD4F3C91319301962813F5CFF9
:1041B000E2CF8A81823019F08530E9F2C8CF6B8175
:1041C0007C818D819E810E948C240E94E109D3CF45
:1041D0004C816B818A810E940F0A98278927982732
:1041E0009E838D83C8CF2D813E813227232732279E
:1041F0004C816B818A810E948309BDCF0E94A909ED
:10420000BACF80E18A83B7CF81E08A838FE797CFE7
:10421000AA80BB80BA24AB24BA248E010F5F1F4F43
:104220008C80800E912E911CC5018F579D4F80165A
:10423000910609F4A0CFEFE7AE16E1E0BE0658F410
:104240000E949324D80114968C93FFEFAF1ABF0AF3
:104250000F5F1F4FE9CFF8011482F7CF0A811B814E
:104260001027012710279E012F5F3F4F4901AC8087
:10427000A00EB12EB11CC8018F579D4FA016B106DC
:1042800009F479CF0F3731E0130728F4D4011496DD
:104290006C910E94B724BFEF8B1A9B0A0F5F1F4FD0
:1042A000EACF0E94730967CF85E0ACCFAA80BB80BC
:1042B000BA24AB24BA248E010F5F1F4F8C80800E6E
:1042C000912E911CC50189968016910609F453CF51
:1042D000E8E5AE16E2E0BE0658F40E949324D80149
:1042E00014968C93FFEFAF1ABF0A0F5F1F4FEACFF0
:1042F000F8011482F7CF0A811B81102701271027AC
:104300009E012F5F3F4F4901AC80A00EB12EB11C22
:10431000C8018996A016B10609F42DCF083532E000
:10432000130728F4D40114966C910E94B724BFEFB0
:104330008B1A9B0A0F5F1F4FEBCF80E047CE81E0C7
:1043400045CE09BD19BD09B400FEFDCF8091D8004E
:104350008F7D8093D8008091E00082608093E000A0
:104360008091E00081FDFCCF109291020E94B70D78
:10437000A3CD289A219A229A23982B9880E58CBD68
:104380000895909165019F3F09F071C08F3F09F436
:104390006EC0611144C01092E3029091E30242307A
:1043A00009F441C0433009F442C094604130E1F166
:1043B00041E050E042175307E0F19091E3024031B1
:1043C000510509F452C0C0F54230510509F446C008
:1043D0004830510509F446C09CB52091E302922B68
:1043E0009CBD9091E202992319F09DB591609DBD0D
:1043F00080936501E82FE295EF70F0E031A1282F5E
:104400002F7081E090E001C0880F2A95EAF7382BE1
:1044100031A392A18095892382A381E0089590E23F
:104420009093E302BACF98609093E302C1CF9C606F
:10443000FBCF440F551FBECF4034510549F04038E3
:10444000510541F04032510539F621E02093E20256
:10445000926001C093609093E302BECF91E090938D
:10446000E202BACF21E02093E2029160F4CF80E033
:104470000895CF93DF938EBD0E942A1BEC010DB4EB
:1044800007FE05C08EB590E0DF91CF9108950E94A0
:104490002A1B8C1B9D0B8436910588F38EEF9FEFB2
:1044A000F3CFCF93DF931EBC0E942A1BEC010DB407
:1044B00007FE05C08EB590E0DF91CF9108950E9470
:1044C0002A1B8C1B9D0B8436910588F38EEF9FEF82
:1044D000F3CF809165018F3F29F1E82FE295EF70CE
:1044E000F0E041A18F7021E030E0B90102C0660F19
:1044F000771F8A95E2F7CB01942F982B91A392A175
:10450000892B82A38FEF809365018DB58E7F8DBD42
:104510009CB58091E302809589238CBD1092E302C3
:104520001092E20208958EE14A9B02C08150E1F7A9
:104530004A9BFECF08955A9880E28A95F1F75A9ADD
:104540000895FC013BE03A95F1F798E020E080E027
:1045500031E040E14A95F1F7880F4A9B02C0816043
:10456000232742E04A95F1F7000040E14A95F1F730
:10457000915079F790E19A95F1F799B132E03A9537
:10458000F1F7000040E14A95F1F792FB992790F985
:1045900092272081920F90830895A1E0B0E0E3ED8F
:1045A000F2E20C945B2419828C017C01E60EF11C72
:1045B0000E151F0541F481E09981911180E021964B
:1045C000E6E00C9477240E949322CE0101960E948B
:1045D000A122F80181938F01EBCF529A5A9A089544
:1045E00052985A9AEA9AE9E6F0E080818F7C8083BB
:1045F00008956150770B91E001C0990F6A95EAF731
:1046000020E031E0911108C0222391F05A9A80E213
:104610008A95F1F75A980895492F482339F05A9A04
:10462000232740E24A95F1F79695ECCF5A98F9CFB7
:104630005A98EDCFFF920F931F93CF93DF93EC0126
:104640008C01060F111DC017D10729F4CDB7DEB7B5
:10465000E5E00C947824F9900E949B2268E08F2D6D
:104660000E94F922F0CF1F920F920FB60F921124E1
:104670000F931F932F933F934F935F936F937F936A
:104680008F939F93AF93BF93EF93FF93CF93DF935A
:104690000F92CDB7DEB719820E949322CE01019608
:1046A0000E94A122082F069506950695282F22958F
:1046B0002570902F9570290F922F9370269526952F
:1046C000920F982797708981982B09F05CC00B3066
:1046D00008F059C080E18A95F1F75A9A529A82E01F
:1046E0008A95F1F700C05A9888E0089F800111244C
:1046F000D801A45FBE4F1696ED91FC9117973097A5
:10470000A9F0609171017091720114962D913C9104
:104710001597260F371F11968D919C911297680F50
:10472000791F13964C9113978C910995F801E45FCA
:10473000FE4F6381662351F0209171013091720127
:1047400084819581820F931F0E941A230E949B22CD
:1047500080E18A95F1F75A9852985A9A80E18A95A1
:10476000F1F7F801E45FFE4F6081662351F020917C
:1047700071013091720181819281820F931F0E9499
:10478000CD220E9493220F90DF91CF91FF91EF9164
:10479000BF91AF919F918F917F916F915F914F9159
:1047A0003F912F911F910F910F900FBE0F901F906F
:1047B00018950F931F93CF93DF93EC010B970CF099
:1047C0004CC0F894529A5A9885E08A95F1F7000007
:1047D0009C2F969595708C2F8570980F892F8370DC
:1047E0009695969523E0CC0FDD1F2A95E1F7980F5B
:1047F0008E01092B0E949B2200C068E0802F0E943E
:10480000F92280E18A95F1F752985A9A4A9B1EC084
:1048100087E090E04A991CC0FE01E45FFE4F63818F
:104820006623F9F0209171013091720184819581A4
:10483000820F931F0E94CD22811113C0529A5A9A5F
:104840007894DF91CF911F910F91089500C0DECF32
:10485000019729F4529A5A9A789480E0F2CF00C0D6
:10486000D9CF0E94932280E28A95F1F75A98529A02
:1048700080E18A95F1F7C45FDE4F6881662351F0CD
:10488000209171013091720189819A81820F931F69
:104890000E941A230E949B22789481E0D2CF2F920B
:1048A0003F924F925F926F927F928F929F92AF92C0
:1048B000BF92CF92DF92EF92FF920F931F93CF930D
:1048C000DF93CDB7DEB7CA1BDB0B0FB6F894DEBFA4
:1048D0000FBECDBF09942A88398848885F846E84CA
:1048E0007D848C849B84AA84B984C884DF80EE8014
:1048F000FD800C811B81AA81B981CE0FD11D0FB61D
:10490000F894DEBF0FBECDBFED010895EE0FFF1F7F
:104910000590F491E02D0994692796276927782757
:10492000872778270895F999FECF92BD81BDF89A1F
:10493000992780B50895A6E1B0E044E050E00C94DA
:10494000DD24A8E1B0E042E050E00C94DD24DC017D
:10495000A40FB51F4150504048F0CB01840F951F64
:104960002E910E94B82441505040D0F70895262F30
:10497000F999FECF92BD81BDF89A019700B4021655
:1049800039F01FBA20BD0FB6F894FA9AF99A0FBE03
:1049900008950396272F0E94B8240E94B724252F3C
:1049A0000E94B824242F0C94B8240196272F0E942B
:1049B000B8240C94B724DC01CB01FC01F999FECF9B
:1049C00006C0F2BDE1BDF89A319600B40D92415097
:1049D0005040B8F70895FB01DC0104C08D910190AF
:1049E000801921F441505040C8F7881B990B089555
:1049F000FB01DC0102C001900D9241505040D8F7FC
:104A00000895F894FFCFA60ECE0E7110CE0E711041
:104A1000010F220F711020102D1037143D144C146B
:104A200050145214541456141A145D146C1449156D
:104A3000491583158315AC153516AC15AC153A160A
:104A4000A716B816B8169D20A120D920E820F3207B
:104A5000FE20A720A720A720A720A720012104210E
:0C4A600008212E215121542156217B21D8
:104A6C00669497C63435F6F73133320100000001F5
:104A7C00000000000000000501000000040600001A
:104A8C0000000000040A00000000A504200E000035
:104A9C0000000000010B0000000082040000002058
:104AAC002E000000000000000000000000000000CC
:104ABC000000000000000000000000001704C40803
:104ACC00BD08160401FF6697C63435F7F6F5F49069
:104ADC0094C9014422491701F500AC0075048E04F9
:024AEC00AE0416
:00000001FF
