:100000000C9431030C944E030C944E030C94C71FB4
:100010000C944E030C944E030C944E030C944E031C
:100020000C944E030C944E030C941E180C94DA1787
:100030000C94DC1A0C944E030C944E030C944E0357
:100040000C944E030C944E030C944E030C944E03EC
:100050000C944E030C94F7180C944E030C944E031E
:100060000C944E030C944E030C944E030C944E03CC
:100070000C944E030C944E030C944E030C944E03BC
:100080000C944E030C944E030C944E030C944E03AC
:100090000C944E030C944E030C944E030C944E039C
:1000A0000C944E030C944E030C944E0329001E0036
:1000B0001F002000210022000000000000000000BE
:1000C000000000004C0014001A0008001500170082
:1000D0000000000000000000000000002B000400F1
:1000E0001600070009000A000000000000000000E0
:1000F0000000000021521D001B0006001900050031
:100100000000000000000000000000000000E3000C
:1001100091412C429043300000000000000000009C
:1001200000000000230024002500260027002D00E9
:100130000000000000000000000000001C0018008B
:100140000C001200130089000000000000000000F5
:10015000000000000B000D000E000F003300240211
:10016000000000000000000000000000110010006E
:10017000360037003800E5000000000000000000F5
:100180000000000032002A002842914100000000D7
:1001900000000000000000000000000029021E0214
:1001A0002F002002210222020000000000000000B7
:1001B000000000004C0214021A0208021502170285
:1001C0000000000000000000000000002B020402FC
:1001D0001602070209020A020000000000000000E7
:1001E0000000000001001D021B02060219020502A8
:1001F0000000000000000000000000000000E3021A
:1002000001000100010030020000000000000000B9
:10021000000000002E00230234022502260287027D
:100220000000000000000000000000001C02180296
:100230000C021202130289020000000000000000FC
:10024000000000000B020D020E020F0234001F021C
:100250000000000000000000000000001102100279
:10026000360237023802E5020000000000000000FC
:100270000000000032020100010001000000000047
:1002800000000000000000000000000001003A0033
:100290003B003C003D003E0000000000000000006C
:1002A00000000000010001002400250026000100DC
:1002B000000000000000000000000000010001003C
:1002C0002100220023003302000000000000000093
:1002D00000000000010001001E001F0020002D0290
:1002E00000000000000000000000000000003700D7
:1002F00001000100010025020000000000000000D4
:10030000000000003F004000410042004300440064
:10031000000000000000000000000000010050008C
:1003200052004F00010045000000000000000000E6
:10033000000000004B00D1005100D200D3000100AA
:100340000000000000000000000000004E0001005E
:100350000100010001000100000000000000000099
:100360000000000026024C00010001000000000017
:1003700000000000000000000000000020780100E4
:100380000100010001000100000000000000000069
:1003900000000000217823782578277801000100EB
:1003A0000000000000000000000000002278247817
:1003B00026782878010001000000000000000000FD
:1003C0000000000001000100010001000100010027
:1003D00000000000000000000000000000005100CC
:1003E00052004F000100010000000000000000006A
:1003F000000000002B782C782D782E782F7830781C
:100400000000000000000000000000003178327899
:100410003378347801000100000000000000000083
:1004200000000000010001000100010001000100C6
:100430000000000000000000000000004A004E0024
:100440004B004D0001000100000000000000000012
:1004500000000000010001002A000100000000006F
:10046000000000000000000000000000010001008A
:100470000100010001000100000000000000000078
:100480000000000001000100010001000100010066
:10049000000000000000000000000000010001005A
:1004A0000100010001000100000000000000000048
:1004B0000000000001000100010001000100010036
:1004C000000000000000000000000000000001002B
:1004D0000100010001000100000000000000000018
:1004E0000000000001000100010001000100010006
:1004F00000000000000000000000000001000100FA
:1005000001000100010001000000000000000000E7
:1005100000000000010001000100010001000100D5
:100520000000000000000000000000000100D100F9
:100530000100D200010001000000000000000000E6
:1005400000000000010001000100010000000000A7
:10055000000000000000000000000000050109028A
:10056000A10185020901A100050919012908150049
:1005700025019508750181020501093009311581B0
:10058000257F95027508810609381581257F95011B
:1005900075088106050C0A38021581257F950175BD
:1005A000088106C0C005010906A101050719E02957
:1005B000E7150025019508750181029501750881EF
:1005C000010507190029FF150026FF00950675088B
:1005D00081000508190129051500250195057501FA
:1005E0009102950175039101C009023B00020100CF
:1005F000A0FA090400000103010100092111010012
:1006000001224400070581030800010904010001DB
:1006100003000000092111010001224900070582A1
:1006200003200001120100020000000857F6000438
:100630000001010200011603530075006D006E00F9
:1006400069006700680074003500370000000E0381
:100650006D00610072006200790033000000040345
:10066000090411241FBECFEFDAE0DEBFCDBF11E0D9
:10067000A0E0B1E0E0E6F3E402C005900D92A437FB
:10068000B107D9F723E0A4E7B1E001C01D92A3317F
:10069000B207E1F70E94031B0C948E210C9400001A
:1006A000482F209110039091D70257E0291302C0E0
:1006B00080E0089530E0529FF001539FF00D112427
:1006C000E852FD4F8181681306C08081481303C042
:1006D00085818111EECF2F5F3F4F2770E7CFE8ED87
:1006E000F0E080818E7F80831092E2001092DA0029
:1006F0001092E100A0EEB0E08C9181608C9380813B
:100700008F77808319BCA7EDB0E08C918E7F8C939E
:1007100080818F7E80831092BF0208952091E40033
:100720003091E50095E6A9012091EC00822F8170BF
:1007300020FF06C08091E80080FF06C080E0089599
:100740002091E80022FD1AC08091CD02882389F013
:10075000853089F08091EB0085FD0FC02091E40089
:100760003091E50042175307F9F29150E1F684E029
:10077000089582E0089583E0089581E008958091CE
:10078000CF0287FF13C08091E80082FF06C08091EE
:10079000E8008B778093E80004C08091CD0281113E
:1007A000F2CF08958091CD028823D9F38091E8009B
:1007B00080FFF8CF8091E8008E77ECCF982F909350
:1007C000E900242F762F50E0891731F07091EC006A
:1007D0002091ED005091F00021FD07C09F5F973000
:1007E00071F78093E90081E008953091EB003E7F3E
:1007F0003093EB003091ED003D7F3093ED00309170
:10080000EB0031603093EB007093EC002093ED002F
:100810005093F0002091EE0027FDE0CF80E0089596
:10082000B0E0A0E0E6E1F4E00C94ED20C8EDD0E00B
:1008300088818F7E8883E7EDF0E08081816080830E
:1008400084E082BF81E08093BF0288818E7F8883AD
:1008500002EE10E0F80110821092DA0081EEC82E4C
:10086000D12CF601108288818F77888388818068F7
:10087000888388818F7D888319BC1092CD02109265
:10088000CE021092CC021092CB0290EEE92EF12C07
:10089000F70180818B7F808388818160888342E03B
:1008A00060E080E00E94DE03F60180818E7F80831D
:1008B000F801808181608083808188608083F70176
:1008C00080818E7F8083888180618883CDB7DEB709
:1008D000E8E00C940921FC018091D5029091D602A8
:1008E00086179707A0F06115710529F49091E8002B
:1008F0009E779093E80090E06115710551F4911195
:1009000008C08091E80082FF34C080E00895BC01F7
:10091000F2CF8091CD028823C1F18530C1F1809161
:10092000E80083FD30C08091E80082FDEACF80912D
:10093000E80080FFE1CF8091F3002091F200382F92
:100940006115710519F02830310558F091E0283013
:10095000310509F090E02091E8002E772093E8001F
:10096000CBCF81918093F100615071092F5F3F4F90
:10097000E7CF8091CD02882341F0853041F080910E
:10098000E80083FFBECF81E0089582E0089583E010
:10099000089508958091C20208952FB7F894609148
:1009A000BB027091BC028091BD029091BE022FBF2C
:1009B00008959C01FC0132969FEF80E0419146171B
:1009C00051F09F3F19F4411101C0982F8F5F86307D
:1009D000A9F79F3F09F40895290F311D97FD3A9516
:1009E000F90162830895FC01680F791F8FEF91E38D
:1009F0002191822728E030E087FF09C0880F8927EE
:100A000021503109C9F7E617F70791F70895880FC4
:100A1000F7CF80918902F90180830895CF93DF9306
:100A2000E9E8F2E083819481A581B681E9018883B8
:100A30009983AA83BB831482138216821582DF9165
:100A4000CF91089580E0089563E070E080EE91E03A
:100A50000E94F3049091DF01891318C0E091E00136
:100A6000EA30A4F488E0E802F0011124EE5EFE4FC3
:100A70000680F781E02D309749F023E032E0409185
:100A8000E20163EE71E08091E10109950895E2E1F0
:100A9000F1E0A0EDB1E051968C91519780A3529670
:100AA0008C9183AB0895F894E82FE295EF70F0E015
:100AB00031A1282F2F7081E090E001C0880F2A9586
:100AC000EAF7982F9095932391A392A1892B82A363
:100AD000789408959091520292FF10C041E0282F1F
:100AE0002471243009F040E031E0282F28712830AB
:100AF00009F030E0431711F02CE0822793FF10C07B
:100B000041E0282F2471243109F040E031E0282F02
:100B10002871283109F030E0431711F02CE08227CA
:100B20003091530230FF10C051E0282F2171213045
:100B300009F050E041E0282F2871283009F040E00A
:100B4000541711F029E0822731FF10C041E0282F0F
:100B50002171213109F040E031E0282F287128313E
:100B600009F030E0431711F029E0822794FD877ED9
:100B7000089582389105B9F1B0F48133910509F4F3
:100B80007DC048F48932910509F46DC08A3291051F
:100B900009F47BC008958533910509F45FC089335A
:100BA000910509F10895833E9105D9F138F4803E0D
:100BB000910529F1823E910579F10895863E9105CE
:100BC000D9F1873E910509F43EC0843E910541F577
:100BD0002091530221FF24C08091520284FD19C04C
:100BE00087EE90E0089520915202237009F05AC0D8
:100BF0002091530223FF14C089E290E008952091D0
:100C0000520220FD38C03091530230FF09C024FF4A
:100C100043C090E080E008952091520222FDF7CF7A
:100C200008952091520222FD3AC03091530230FDC6
:100C300039C024FFF5CFEDCF2091520223FFF0CF32
:100C400024FDE7CFCDCF2091520223FD2EC030915D
:100C5000530231FFEECF84EE90E0089520915202CE
:100C600025FFDECFC9CF2091520225FD21C0209162
:100C7000530223FFD5CF89E390E0D2CF20915202D7
:100C800026FFCECF8AE290E008952091520226FFFF
:100C9000C7CF81E390E0089583EE90E0089582EE5F
:100CA00090E0089580EE90E0089586EE90E008953B
:100CB00085E390E00895972F7A30B8F46C30A8F46B
:100CC0008530B0F470E02CE0929F600D711D11240E
:100CD000FB0198E7899FE00DF11D1124EE0FFF1F26
:100CE000E455FF4F85919491089580E090E0089538
:100CF00081E0FCCF1F93CF93DF930E94B905EC01F5
:100D0000C11582E5D80708F03FC0C11590E5D907A5
:100D100008F0C2C0C83ED105C0F4C03ED10580F481
:100D2000C53AD10548F4C430D10550F4C130D105DD
:100D300039F0D0E0C0E004C0CD3CD105D0F3D0659F
:100D4000CE01DF91CF911F910895C11580E4D8079E
:100D500008F053C0C11590E2D90708F0B7C0C1151B
:100D600081E0D80730F38D2F0E946A05182FCE013D
:100D700099270E94B905C12FD0E0DC2FCC27CC27C2
:100D8000DF71C82BD92BDCCFC03892E5D907A8F486
:100D9000C03682E5D80708F063C0C03492E5D907B1
:100DA00008F049C0C03282E5D80788F1CF71D0E0A1
:100DB000DC2FCC27C16FD06AC3CFC03C92E5D907E6
:100DC00080F48C2F8F71C03AD24508F45EC00E9427
:100DD0006A05C82FD0E0DC2FCC27CC27DF71D0628A
:100DE000AFCFC03E82E5D80708F0A3CFDC2FCC27D9
:100DF000CC27DF71C06FD06AA3CFCE0199270E94A4
:100E0000B905CC27DF70C82BD92BD06A99CF2C2FEE
:100E10002695269590E2299F900111248C2F8370AE
:100E2000C1E0D0E002C0CC0FDD1F8A95E2F7C22BF3
:100E3000D32BDD6885CF2C2F26952695277080E251
:100E4000289F900111248C2F8370C1E0D0E002C054
:100E5000CC0FDD1F8A95E2F7C22BD32BDC6870CF55
:100E60002C2F26952695277090E2299F900111241A
:100E70008C2F8370C1E0D0E002C0CC0FDD1F8A95BB
:100E8000E2F7C22BD32BDA685BCFC82FD0E0DC2F80
:100E9000CC27C46FD06A54CF8C2F8F710E946A0503
:100EA00055E0D695C7955A95E1F7CF70D0E0DC2F85
:100EB000CC27282F30E084FF05C044E0220F331FE9
:100EC0004A95E1F7C22BD32BD0693ACF8D2F8F7182
:100ED0000E946A05182FCE0199270E94B905C12FDB
:100EE000D0E0DC2FCC27CC27DF71C82BD92B77CFD4
:100EF00080959091C00298239093C00208958091AC
:100F000010039091D702981301C008958F5F8770E6
:100F1000FACFCF92DF92FF920F931F93CF93DF937D
:100F20006C010091510280915002082BC7E0D0E083
:100F300010E0FC2EC8010C2E02C0959587950A94EE
:100F4000E2F780FD0CC02197A0F7F12C8F2DDF91E7
:100F5000CF911F910F91FF90DF90CF900895B60130
:100F60008C2F0E945B060E947A06019761F3EECFF8
:100F7000CF93DF93EC010E948907BE010E945B06BC
:100F80000E947A06DF91CF910895292F9A3078F543
:100F90008C3068F590E03CE0239F800D911D11247A
:100FA000682F677023E0969587952A95E1F7FC01F5
:100FB000EE0FFF1FE80FF91FEC57FE4F50E040E027
:100FC00080E0219130E0062E02C0369527950A94E4
:100FD000E2F721703327042E01C0220F0A94EAF7AA
:100FE000822B4F5F5F4F4330510559F7089580E0E2
:100FF0000895292F9A3098F58C3088F590E03CE0E0
:10100000239F800D911D1124282F277041E001C0DE
:10101000440F2A95EAF723E0969587952A95E1F7FC
:10102000FC01EE0FFF1FE80FF91FEC57FE4F30E0F9
:1010300020E070E05191DF011197CB01022E02C038
:10104000969587950A94E2F7817081958527842388
:1010500085278C932F5F3F4F2330310559F7089533
:10106000809350020895FC0124812223C1F08081E5
:1010700091810E94B80792959F70963091F058F434
:10108000925F9F70923058F4803F19F030F4883EA0
:1010900030F481E008959A5FF4CF843FD1F380E08B
:1010A0000895883EB0F3813FD1F7F3CF982F929502
:1010B0009F7011F0892F94E0282F2695269511F026
:1010C0009E5F822F869509F09F5F892F0895A6E085
:1010D000B0E0EDE6F8E00C94F22049835A834981B0
:1010E0005A819923A1F0222391F0CA010E94890715
:1010F000182F682F89819A810E94F90769817A8166
:10110000812F0E945B062696E3E00C940E21CA0113
:101110000E94C507182FF2CFCF93C82F8091960257
:101120008C1751F00E94CD0460939702709398023F
:101130008093990290939A02C0939602CF9108955A
:10114000CF93C82F0E94560891E0833009F090E0B9
:10115000892F0E948C08C0935102CF91089521E0FD
:1011600030E001C0220F8A95EAF720958091510264
:1011700082230E94A00808959091B8018095892348
:101180008093B801282F277069F4891759F090913E
:10119000530292FF07C08695869586950E94AF08F8
:1011A0001092B801089521E030E001C0220F8A9525
:1011B000EAF780915102822B0E94A0080895B0E0C6
:1011C000A0E0E5EEF8E00C94ED20FC01EB0190913D
:1011D0009B02911101C094E06081718191509B014B
:1011E000092E02C0359527950A94E2F7D901092EF8
:1011F00002C0AA0FBB1F0A94E2F76A1B7B0B718324
:101200006083628173818B01092E02C01595079559
:101210000A94E2F7D80102C0AA0FBB1F9A95E2F721
:101220006A1B7B0B7383628381E80138BFEF1B0766
:101230002CF0802F003811050CF08FE78D832138BA
:101240009FEF390754F1203831054CF5922F9195D5
:101250009C83442319F081958D832C830E94CD04B7
:101260002D81211103C02C812223D9F060939C028F
:1012700070939D0280939E0290939F028091A002A2
:101280009BE0980F973120F4080F0093A0021D8275
:10129000CDB7DEB7E8E00C94092121E8D7CF2FE7DE
:1012A000D5CFC0909C02D0909D02E0909E02F0901D
:1012B0009F026C197D098E099F09643671058105AD
:1012C0009105E0F21092A002D9CFFC01DB0122814E
:1012D000338191E821388FEF38072CF0922F203896
:1012E00031050CF09FE712969C9312972081318173
:1012F00021388FEF3807A4F0203831059CF413967D
:101300002C931397442339F0919512969C9312973E
:10131000219513962C9311821082138212820895C4
:1013200021E8EDCF2FE7EBCF9C01860F971F37FD0C
:1013300007C077FD04C097FF02C08FEF9FE70895B5
:1013400077FFFDCF97FDFBCF80E090E808950F93E6
:101350001F93CF93DF938B01EA019091CD029430DC
:1013600061F58093E9008FEF9091E800815095FD41
:1013700006C095ED9A95F1F700008111F5CF8091A7
:10138000E80085FF1AC00E948E03811111C0809170
:10139000E80085FD06C08091E8008E778093E80024
:1013A000F2CFF80181918F018093F100219779F7B5
:1013B0008091E8008E778093E800DF91CF911F91B4
:1013C0000F91089546E050E0BC0182E00E94A70919
:1013D0000895CF93DF93EC0148E050E0BC0181E039
:1013E0000E94A70988E0FE01A3ECB2E001900D92F3
:1013F0008A95E1F7DF91CF910895B0E0A0E0E3E0B6
:10140000FAE00C94EB207C015B016A0180913502CB
:1014100001E010E08A3010F40AE010E0C1E0D0E012
:10142000B501C701F6010995811104C021960C1779
:101430001D072CF4CDB7DEB7EAE00C940721CC9F52
:101440009001CD9F300D300D112490E080E045E3F8
:101450004A95F1F70000019682179307C1F7E0CF94
:101460008091CF01811119C082E390E02091E300C7
:1014700027FD10C0EFE3FCE93197F1F700C0000051
:101480000197A1F782E08093CF010E946F03109231
:10149000CD0203C081E08093CF0181E09091CF0124
:1014A000913011F080E0089508950E94300A882359
:1014B00059F0E091B802F091B902309729F001900B
:1014C000F081E02D0995089580E008950F931F9312
:1014D0000E94300A882329F00E94CD041F910F91A9
:1014E00008950E94CD040091360210913702209198
:1014F000380230913902600F711F821F931FEECFA7
:101500003E98469A229A2A9885E08A95F1F700003B
:1015100086B122982A9A90EA9A95F1F790E026E00F
:10152000959587952A95E1F7809590958170089516
:10153000CF939091B3028091AC02981323C0809115
:10154000B402882321F09091AD0289131BC08091D1
:10155000B502882321F09091AE02891313C08091C7
:10156000B702882321F09091B00289130BC09091AB
:10157000B602992329F081E02091AF02291303C01C
:1015800080E001C081E0C82FC17080FF0FC0E091F2
:10159000B802F091B902309749F082E08093B2022C
:1015A0000480F581E02D82EB92E009959091B302E1
:1015B00086E0E2EBF2E0DF01282F1D922A95E9F7A1
:1015C0009093B302ABEAB2E001900D928A95E1F7F5
:1015D00081E0C11103C0911101C080E08170CF9101
:1015E0000895AEE1B0E0E7EFFAE00C94F32040910B
:1015F000B2025091B3026091B4027091B502809131
:10160000B6029091B7020E94AF102093B2023093BD
:10161000B3024093B4025093B5026093B602709344
:10162000B70286E0E2EBF2E0DE01179601900D9240
:101630008A95E1F786E0FE013796DE011D9601905E
:101640000D928A95E1F786E0FE013D96DE01119646
:1016500001900D928A95E1F786E0FE013196A2EBAA
:10166000B2E001900D928A95E1F786E0E2EBF2E0BC
:10167000DE01599601900D928A95E1F786E0FE0110
:101680007996DE01179601900D928A95E1F786E032
:10169000FE013796DE01119601900D928A95E1F7D1
:1016A00086E0FE013196DE01539601900D928A95F7
:1016B000E1F786E0FE017396DE01179601900D9228
:1016C0008A95E1F786E0FE013796A2EBB2E0019041
:1016D0000D928A95E1F70E94980A811109C08091C4
:1016E000B1021092B10281706E96E2E00C940F216B
:1016F00081E090E0F6CF2FE2280F283078F481E0E7
:1017000090E001C0880F2A95EAF72091B302662382
:1017100031F0822B8093B3020E94980A089580953D
:101720008223F8CF9091530292FB222720F92817A9
:1017300079F080FB92F9909353026091520270917C
:10174000530284E090E00E94622182E00E94BC0883
:101750000895B0E0A0E0EFEAFBE00C94EE20790100
:10176000C82F880FDD0B41155105A9F0FE0193E04C
:10177000EE0FFF1F9A95E1F7EE5EFE4F8181928199
:1017800080539E4F208130E04217530708F49A019E
:10179000A9010E948521CE010E946D20D82E8823A8
:1017A000D1F001151105B9F083E0CC0FDD1F8A954A
:1017B000E1F7FE01EE5EFE4F438150E0041715078E
:1017C00008F4A801CE5EDE4F6C817D8160537E4FB0
:1017D000C7010E9485218D2DCDB7DEB7E7E00C94BF
:1017E0000A21A5E0B0E0E7EFFBE00C94EB208D834D
:1017F000E62E5A01F22E6801809135028A3028F0D7
:1018000080E02596EAE00C9407218D818730C4F3AF
:101810001A8219828A836B832C8363E070E0CE0185
:1018200002960E94F3048983E0923201F09245010E
:1018300010E000E030E020E044E050E0BE016F5FE7
:101840007F4F83E00E94A90B8823D1F24E2D50E0F8
:1018500030E020E0B50184E00E94A90B882381F2EA
:1018600030E020E041E050E0BE016B5F7F4F85E05B
:101870000E94A90B882321F20F2D10E0960150E061
:1018800040E070E060E086E00E94A90BBACFA4E0DF
:10189000B0E0EDE4FCE00C94F12040913102509175
:1018A000320260913302709134022FB7F894809124
:1018B000BB029091BC02A091BD02B091BE022FBFAD
:1018C000841B950BA60BB70B11E084369105A1057F
:1018D000B10518F10E94660A6E5F7F4F8F4F9F4FD0
:1018E00069837A838B839C8310E000E030E020E002
:1018F00044E050E0BE016F5F7F4F82E00E94A90B81
:10190000182F882351F00E94CD0460933102709308
:1019100032028093330290933402812F2496E4E0C4
:101920000C940D21ABE0B0E0E8E9FCE00C94EF2072
:101930007B0101E010E09E01255F3F4F50E040E059
:1019400070E060E080E00E94A90B182F882309F462
:1019500053C040912D0250912E0260912F02709140
:1019600030022FB7F8948091BB029091BC02A091F5
:10197000BD02B091BE022FBF841B950BA60BB70B07
:1019800084369105A105B10548F46AE070E081ED67
:1019900091E00E94F3049B85891771F10AE010E041
:1019A0009E012F5F3F4F50E040E070E060E081E03B
:1019B0000E94A90B082F6AE070E081ED91E00E947F
:1019C000F30411E09B85981310E0102301F10E94AD
:1019D000CD0460932D0270932E0280932F0290937A
:1019E00030028AE0FE013196A3E2B2E001900D924E
:1019F0008A95E1F711E00BC08AE0E1EDF1E0DE014C
:101A0000119601900D928A95E1F71111EACF8AE0C3
:101A1000E3E2F2E0D70101900D928A95E1F7812F80
:101A20002B96E6E00C940B218091C0029091C201AC
:101A3000892B809376019091C101992391F0892B94
:101A40008093760120E088E791E0FC013191CF019D
:101A500031112F5FF1E08E379F07B9F721111092F6
:101A6000C10148E050E069EB71E086E791E00E9437
:101A70007821892BA9F088E0E6E7F1E0A9EBB1E055
:101A800001900D928A95E1F7E091B802F091B902C8
:101A9000309731F00280F381E02D86E791E00995DF
:101AA0000895E8E7F1E086E0DF011D928A95E9F705
:101AB0001092C2010E94140D0895AAE2B0E0E3E67C
:101AC000FDE00C94F2208FEC92E02091F100FC01FB
:101AD0002193CF01F2E0873D9F07B9F78091D002B3
:101AE000833009F470C0B8F4813009F447C0823003
:101AF00009F4B3C08091E80083FF80C28091CF02D7
:101B00009091D0029A3008F079C2E92FF0E0E057C6
:101B1000FE4D0C941A218A3009F48EC08B3009F4E2
:101B20006FC0893039F78091CF02813219F78091E7
:101B3000D3029091D4020297E8F68091E800877F63
:101B40008093E8008091E80082FF38C09091F30014
:101B50008091F200029731F48091F100813011F010
:101B6000863021F48091F1008093C2028091E800D8
:101B70008B778093E8000E94BF03BCCF8091CF0297
:101B8000813A09F0B7CF8091E800877F8093E80021
:101B90008091D3029091D402892B61F468E083ECA8
:101BA00092E070E00E946B048091E8008B77809354
:101BB000E800A0CF60E090E080E0F3CF8091CD021C
:101BC0008111C0CF97CF8091CF02813A09F092CF97
:101BD0008091D3029091D402892B09F08BCF809110
:101BE000E800877F8093E8008091E80080FFFCCFC9
:101BF00080916A018093F1008091E8008E77B9CFDF
:101C00008091CF02813209F075CF8091D3029091FB
:101C1000D402892B09F06ECF8091E800877F8093F2
:101C2000E8000E94BF038091D10280936A01109264
:101C3000C0020E94510D5ECF8091CF02813209F027
:101C400059CF8091E800877F8093E8000E94BF030E
:101C50008091D2028093C1024DCF8091CF02813A10
:101C600009F048CF8091E800877F8093E800809159
:101C7000E80080FFFCCF8091C102BCCF803899F092
:101C8000823809F0BBC18091D3028F70873008F091
:101C9000B5C18093E9008091EB0085FB882780F92E
:101CA0001092E90006C08091CB029091CC02911174
:101CB00082609091E800977F9093E8008093F10014
:101CC0001092F1008091E8008E7794C1882309F486
:101CD00082C1823009F092C18091D102811185C107
:101CE0008091D3028F702FEF280F263008F086C125
:101CF0008093E9002091EB0020FF77C1933031F40D
:101D00008091EB0080628093EB006FC19091EB00BB
:101D100090619093EB0021E030E001C0220F8A95A2
:101D2000EAF72093EA001092EA008091EB008860C5
:101D3000EACF811163C11091D1021F778091E30036
:101D40008078812B8093E3008091E800877F8093E7
:101D5000E8000E94BF038091E80080FFFCCF8091E3
:101D6000E30080688093E30082E0111183E08093B8
:101D7000CD0244C18058823008F040C18091D10228
:101D80009091D2028C3D23E09207A1F583E08A83F3
:101D90008AE289834FB7F894DE01139620E03EE093
:101DA00051E2E32FF0E050935700E49120FF03C08D
:101DB000E295EF703F5FEF708E2F90E0EA30C0F059
:101DC000C7968D939D932F5F243159F74FBF809114
:101DD000E800877F8093E8006AE270E0CE01019618
:101DE0000E946B048091E8008B778093E80006C125
:101DF000C096E7CF4091D3025091D402292F3327C8
:101E00002330310509F444C078F52130310509F457
:101E10006FC08BE390E0E9EEF5E02230310509F088
:101E2000EDC02091E800277F2093E8002091D502A3
:101E30003091D6028217930708F49C0140E02115E7
:101E4000310509F064C0411162C08091E80082FD53
:101E5000C9CF8091CD02882329F2853019F2809173
:101E6000E80083FFF2CFBECF21323105A9F1223243
:101E7000310509F0C3C04115510509F443C0413093
:101E8000510509F0BBC089E490E0ECE5F5E0C9CF6D
:101E9000992781309105C1F0009759F0029709F018
:101EA000ADC0E6E3F6E0E4918E2F90E0E6E3F6E0E5
:101EB00007C0EEE5F6E0E4918E2F90E0EEE5F6E067
:101EC000009709F49BC0ADCFEEE4F6E0E4918E2FCD
:101ED00090E0EEE4F6E0F4CF4115510571F04130A9
:101EE000510509F08BC089E090E0E4E1F6E099CF7C
:101EF00082E190E0E4E2F6E094CF89E090E0EBEF5D
:101F0000F5E08FCF84E490E0E5EAF5E08ACF8091B8
:101F1000CD02882309F466CF853009F463CF809120
:101F2000E80083FD5FCF8091E80082FD8ECF809135
:101F3000E80080FF84CF9091F3008091F20021159A
:101F4000310519F08830910550F041E0089709F00B
:101F500040E08091E8008E778093E80070CF449154
:101F60004093F1003196215031090196E8CF803835
:101F700009F044C08091E800877F8093E800809159
:101F8000CE028093F1009ECE811138C01091D10213
:101F90001230A0F58091E800877F8093E8001093CD
:101FA000CE020E94BF03112311F084E005C080918E
:101FB000E30087FDFACF81E08093CD0242E061EC3F
:101FC00081E00E94DE0342E261EC82E00E94DE03D7
:101FD0008091CD0213C08091D102813079F481E0EB
:101FE000933009F080E08093CC021092E900809158
:101FF000E800877F8093E8000E94BF038091E8009B
:1020000083FF0AC08091E800877F8093E800809179
:10201000EB0080628093EB00AA96E3E00C940E2123
:102020001092C0020E94510D2FEF84E39CE02150DA
:1020300080409040E1F700C0000088E19AE00FB6D0
:10204000F894A895809360000FBE90936000FFCF36
:10205000882321F00E9478070E94140D0895882398
:1020600039F09091C002982B9093C0020E94140DF9
:102070000895882349F19CEF980F913A80F4E8E79E
:10208000F1E02EE731E09191891303C0DF01119750
:102090001C922E173F07B9F70E94140D089590E285
:1020A000980F983050F4877091E001C0990F8A958D
:1020B000EAF7892F0E947807EFCF93E3980F9331C7
:1020C00018F460E00E947B0B0895CF93C82F8823FB
:1020D000A9F08CEF8C0F813A00F5E8E7F1E0DF0121
:1020E0008D91C81769F081E0AE37B807C9F76C2F3A
:1020F00086E791E00E94D9040E94140DCF910895C3
:102100008191C81303C0DF0111971C9281E0EE3763
:10211000F807B1F70E94140DEACF80E28C0F8830E7
:1021200068F4C77021E030E001C0220FCA95EAF7D9
:102130008091C002822B8093C002DECF83E38C0F9C
:102140008331E0F661E08C2F0E947B0BD7CF28E033
:1021500030E043E060E086E30E94551E0895ACE065
:10216000B0E0E5EBF0E10C94ED204F8358876987F0
:102170007A878B879C8780918902882399F00E94B7
:10218000A71080E50E94CD1E8AEB8A95F1F700C06A
:102190000E94E51E887899278038910509F487C048
:1021A0000E94FD1E0E94300A882309F46BC00E9421
:1021B000CD0400917E0110917F012091800130912A
:1021C00081016B017C01C01AD10AE20AF30A97016E
:1021D0008601083011052105310508F453C06093CC
:1021E0007E0170937F018093800190938101009123
:1021F0009702109198022091990230919A02601BE7
:10220000710B820B930B623371058105910580F48C
:1022100010928D0210928C0210928F0210928E02F8
:1022200010929102109290021092930210929202D8
:10223000109196020E94800A482FBE01695F7F4F6D
:102240008CE892E0112309F45FC00E94DF0800913E
:102250009602109189020E94800A41E04827BE013F
:10226000695F7F4F80E992E0011709F450C00E9436
:10227000DF0886E0FE013796A5EAB2E001900D92F4
:102280008A95E1F786E0FE013796DE01119601900E
:102290000D928A95E1F729813A814B815C816D81AC
:1022A0007E8180E090E02C96E8E00C9409210E9469
:1022B000E51E0E94E51E7C010E94E51E20E0E22A48
:1022C000F82A0E94E51E8C010E94E51E20E0022BE8
:1022D000182B0E94FD1EF894B70180918C029091FA
:1022E0008D020E94940990938D0280938C02B80114
:1022F00080918E0290918F020E94940990938F0298
:1023000080938E0278944ECF0E946509A0CF0E94E0
:102310006509AFCFCF93DF93D82FC62F0E94A710A8
:102320008D2F80680E94CD1E8C2F0E94CD1E0E9492
:10233000FD1E8FEC92E00197F1F700C00000DF91E5
:10234000CF910895682F893708F068E76093940269
:1023500091E09093950290918902992359F06150F0
:10236000811101C064E08FE00E948A1160E080E585
:102370000E948A110895FB0180810E94A211089594
:1023800090919402911101C095E0282F880F330B92
:10239000A901490F511DCA011816190614F081E050
:1023A00090E00E94A2110895B0E0A0E0EAEDF1E112
:1023B0000C94EB207C01DC0114968C9114978823FB
:1023C00009F471C021E04C9111965C91119712961D
:1023D0006C91129713967C91139715969C910E947D
:1023E0006708EC019093A2028093A102F70180811B
:1023F00091819093A4028093A302CE019A958115B6
:102400009F41D0F4FE01FF27D70115968C91E13D45
:10241000F10540F0E93DF10588F0E730BEE7FB0744
:1024200009F463C0882371F0FE57EA30F10550F4D7
:10243000E656FE4D0C941A21FE01E6CF682F8E2F32
:102440000E947B0BF7018581C631FCE7DF0709F0AD
:102450007AC0882309F462C08091C0028A7A91E030
:1024600009F490E09093820169E2811165E386E7C7
:1024700091E00E94D9040E94140D05C080E00E94E2
:10248000A21110929B028091B801877061F0D70170
:1024900015968C91882339F08091530282FF03C0F6
:1024A00082E00E94BC08CDB7DEB7EAE00C940721B9
:1024B0004091940250919B0250FB47F956955370FE
:1024C00060E070E08FE090E00E945621DCCF81E078
:1024D0000E94C011D8CF8FEFFBCF8AE0F9CF86EFF3
:1024E000F7CF9091960281E089270E948C08CBCF8C
:1024F00080919B02811101C084E08F5F18160CF05F
:1025000081E0883008F087E080939B02BCCF809107
:102510009B02811101C084E08150F0CF8091820143
:1025200081110FC089E2E8E7F1E02EE731E09191F7
:10253000891303C0DF0111971C922E173F07B9F7CB
:102540009ACF85E3F0CF882381F0C3302CE7D20700
:1025500009F489C008F05AC0C1158CE7D80709F4FE
:1025600064C0C130DC4709F484C0F7018581C081B3
:10257000D181882309F48BC0CE010E948907182FCE
:10258000682FCE010E94F907BE01812F0E945B06D1
:102590000E947A06D82FC92FA82ED7011596CC9065
:1025A00015971696BC90B2949FE0B9228091B8011D
:1025B0008770E9F00C2DCC20D9F08C2F807F8034EF
:1025C00051F080E28D0F883090F0B11004C08C2F54
:1025D000807E803261F08091530282FF08C082E0E9
:1025E0000E94BC088091B801877001E009F000E00A
:1025F000DC2ED2948FE0D822BBE0BD1508F4A8C031
:10260000ED2DF0E0EC55FE4D0C941A21CB35ACE7E6
:10261000DA0709F43AC0CC35BCE7DB0761F1CA350B
:10262000DC4709F0A2CF81E02DC01092C0020E94C9
:10263000510DFFEF24E33CE0F15020403040E1F742
:1026400000C0000087E797E7909301088093000897
:1026500088E19AE00FB6F894A895809360000FBEC9
:1026600090936000FFCF6FEF7FEF90E080E00E94DB
:1026700062210E9410108091530282FB882780F90A
:1026800091E089270E94920B70CF80E0FBCFCE01B2
:102690000E94C507182F78CF1C2F1F70C07F11F024
:1026A0001295107FCC20B9F0112369F080E28D0FD4
:1026B000883010F0A11009C08091C002182B10932F
:1026C000C0020E94140D8D2F41C08091C201182BB1
:1026D0001093C201F6CF8D2F0E9439101123C1F142
:1026E000D05ED83010F0A11004C0812F0E9478076E
:1026F00006C010958091C20118231093C2010E9458
:10270000140D26C01C2F1F70C07FC03211F012950F
:10271000107FAA2059F0E1E0AE1609F479C0CC2070
:1027200009F485C0BB2009F447C0CDCF8091530286
:1027300082FD3EC0CC20B1F1112339F08091C0025E
:10274000182B1093C0020E94140D80E00E946510A7
:10275000ED2DE850FF0B349710F40E94550A00232A
:10276000B1F08091B80180FD12C0D70115961C927E
:102770008695869586950E94D308C7010E94D4113C
:102780008091B8018695869586950E94AF0820E0D5
:10279000F7014081518162817381848195810E941A
:1027A000670881CE80E00E943910112389F29DCF05
:1027B000CC20A1F0B11004C0812F0E942F10C8CFEF
:1027C000F1E0BF12C5CF8091C101912F9823191755
:1027D00009F4BECF182B1093C101BACFB110B8CFF6
:1027E000812F0E9428109091C101812F892329F007
:1027F000812F809589238093C10180918301912F3E
:10280000982309F4A5CF1095182310938301A0CF26
:10281000CC2029F025E02B1508F49ACFCDCF34E059
:102820003B1508F495CF812F0E94281091CFBB2033
:10283000D1F389E3A8120DC09FEFA7EEB3E091504A
:10284000A040B040E1F700C000008D2F0E94391079
:102850007FCFEFE1FEE43197F1F7F5CF6C2D8D2FAF
:102860000E947B0B75CF8C2F837089F5C11070CFC0
:102870004D2F429546954770440F440F8D2F8F7012
:10288000042E01C0880F0A94EAF72D2F2071D4FF7F
:1028900007C02FE030E001C0220F4A95EAF72095EB
:1028A000C695C695C370C23069F050F4309150029D
:1028B000C13029F0822B83230E94300849CF832B1B
:1028C000822BFACF282B809150028227F5CF869554
:1028D000CC2011F08C2F8170882309F439CF4D2F33
:1028E000429546954770440F440F8D2F8F70042EEC
:1028F00001C0880F0A94EAF72D2F2071D4FF07C07A
:102900002FE030E001C0220F4A95EAF72095C695E6
:10291000C695C370C23069F050F430915102C13095
:1029200029F0822B83230E94A00812CF832B822BB5
:10293000FACF282B809151028227F5CFCF70CC207F
:1029400029F08C2F0E94D3088D2F37CF8D2F0E9416
:1029500028108C2F0E94AF08FBCE8D2FF2EFAF1600
:10296000A9F1FA1570F020EFA216D1F031EFA316FD
:1029700091F0CC2009F45AC0B110A5CE8C2F8F71E4
:1029800029C093EFA91649F1A4EFAA12F2CF8091C2
:10299000530282FD2DC08C2F8F71CC20D9F21AC02A
:1029A000CC2079F0B4E0BB1508F4D2CECF7181E031
:1029B00090E001C0880FCA95EAF7909151028927EB
:1029C000B2CFE5E0EB1508F4C3CEF0CF8C2F8F71BA
:1029D000C110C0CF0E94D308BBCE80E0CC2009F448
:1029E000A2CFCF7181E001C0880FCA95EAF79BCFD3
:1029F000CC2089F0CF718C2F0E94D3088091530294
:102A000082FF07C0F8E0CF9FC0011124836080934C
:102A1000B8018C2FDFCF81E00E94BC0821E02B158C
:102A200008F096CE82E00E94BC0892CEBB2079F0DE
:102A3000893341F43FEF87EE93E03150804090407E
:102A4000E1F701CFAFE1BEE41197F1F7FCCE8C2F97
:102A50008F7180CFCF93DF938091B701807F09F092
:102A60004DC08091B601882309F448C0E09110035D
:102A70005091D702C091B201D091B1016091B301E0
:102A80007091B40147E05E17C9F18E2F90E0E49F8A
:102A9000F0011124E852FD4F2481222391F1489F37
:102AA000F001499FF00D1124DF01A852BD4F11968E
:102AB0002C9111972C1325C02C912D1322C0159603
:102AC0002C91159721111DC012962D913C91261B1A
:102AD000370B283C3105A8F48091B7018F708061D5
:102AE0008093B701E252FD4F80818F7080618083B7
:102AF00081EB91E00E94D4110E947F07DF91CF917A
:102B00000895FC013196E770BECFA4E1B0E0EBE898
:102B1000F5E10C94E9208C0186E0F801DE011F96B6
:102B200001900D928A95E1F7F8018481E58091EB9F
:102B3000A92E91E0B92E9091B501911128C088235A
:102B400019F1EE20F1F0C8010E943308F82E882315
:102B5000C1F087E0F801D50101900D928A95E1F767
:102B60008091B501813031F48091B1019091B20131
:102B70000E94B8070E942A158F2D6496ECE00C94F1
:102B80000521C8010E94D411FF24F394F5CFD08011
:102B9000C18082809380F090B6012091B301309182
:102BA000B401A401421B530BFF2009F4D9C0483CD7
:102BB000510508F092C08823F9F29091B2018091FA
:102BC000B701282F207F09F056C0C91214C0909178
:102BD000B101D91210C0E11048C08F70806180939C
:102BE000B70181EB91E00E94D4118091B701F80107
:102BF0008683F12CC1CFE11038C06C2D8D2D0E9441
:102C000050036C2D8D2D0E945003E82E8111F1CFC1
:102C1000DF86C88A8F8598890E94B807292F229558
:102C20002F70243058F49F70223088F0992399F047
:102C3000F8019681907F79F4FE2C9ECF2A5F2F7049
:102C4000223068F0C8010E94D411EF2CF5CF9923EF
:102C500011F0882389F3805E883070F3F3CF803FD2
:102C600058F3815F833070F7E7CF8091B7018160BF
:102C70008093B701BECFC91207C09091B101D9129C
:102C800003C0EE2009F48DC0C8010E9433088823D8
:102C900009F477CFEE2009F474CF8091B701803228
:102CA00088F02091B1013091B201398728879B8645
:102CB0008A869091B5019C871D868E87CE010896E5
:102CC0000E94D41187E0F801A1EBB1E001900D92D0
:102CD0008A95E1F70E942A1557CF9091B701292FC5
:102CE000207F51F481EB91E00E94D41187E0F5013F
:102CF00011928A95E9F77DCF882309F43DCF809121
:102D0000B2018C1110C08091B101D8120CC0E11039
:102D10000AC09683C8010E94D41187E0F501119280
:102D20008A95E9F729CFC8010E943308882309F45E
:102D300028CFEE2009F425CF8091B701803210F220
:102D40002091B1013091B2013A8329839C828B8218
:102D50009091B5019D831E828F83CE010196B0CFE5
:102D6000483C5105D0F6882309F40ECFFE2CEE2006
:102D700009F407CF8091B2018C1120C08091B1017C
:102D8000D8121CC08091B70180FD0FC0982F907F92
:102D900061F08683903F31F0982F907F905F8F7025
:102DA000892B8683C8010E94D41187E0F801A1EB2A
:102DB000B1E001900D928A95E1F7DECEC8010E9444
:102DC000330881117FCF8091B70181608093B70173
:102DD000C8010E94D411D0CEABE1B0E0E2EFF6E141
:102DE0000C94F1204E8B5F8B688F798F8A8F9B8F2D
:102DF000192F91111092C2011D8A86E0FE0176966C
:102E0000DE011F9601900D928A95E1F70A8D00234D
:102E100041F021E04F85588969897A89C8010E946B
:102E200067080B8B1C8B87E0FE013F96DE0118962E
:102E300001900D928A95E1F7CE0108960E948515C2
:102E400081110CC087E0FE013896DE0111960190D9
:102E50000D928A95E1F78C8581110BC017E0809166
:102E600010039091D702891333C06B96E4E00C9461
:102E70000D212091D70230E0C90101968770992772
:102E8000409110034817190699F097E0929FD001DE
:102E9000939FB00D1124A852BD4FFE0131960190B1
:102EA0000D929A95E1F78093D7020E947F07D6CFC3
:102EB0001092C0020E94510D1092D702109210037E
:102EC00087E0E1EBF1E0DF011D928A95E9F7C6CFDB
:102ED000819FC001112488529D4F0E94851588232F
:102EE00021F28091100390E00196877099278093DA
:102EF0001003B5CFCF93C82F0E94A7108C2F0E942C
:102F0000CD1E8FE792E00197F1F700C000000E940C
:102F1000E51EC82F0E94FD1E9AE69A95F1F700C0A3
:102F20008C2FCF910895CF93DF930E944D1E269A48
:102F30000E94A7106AE58AE30E948A112FEF80E7BA
:102F400092E0215080409040E1F700C0000082E014
:102F50000E947A1783E00E947A1784E00E947A1711
:102F600085E00E947A1786E00E947A1760E080E18F
:102F70000E948A1180E00E947A17D82F81E00E9477
:102F80007A17C82F0E94FD1ED23419F481E0C13097
:102F900009F080E0817080938902882341F064E029
:102FA0008FE00E948A1160E080E50E948A11DF9123
:102FB000CF9108951F920F920FB60F9211242F9365
:102FC0003F934F935F936F937F938F939F93AF93B1
:102FD000BF93CF93DF93EF93FF93D091E900DF701E
:102FE0008091EC00C82FC17080FDC0E81092E9000C
:102FF0008091F000877F8093F00078940E945D0DAF
:103000001092E9008091F00088608093F000CD2B51
:10301000CF70C093E900FF91EF91DF91CF91BF9105
:10302000AF919F918F917F916F915F914F913F9160
:103030002F910F900FBE0F901F9018951F920F9217
:103040000FB60F9211242F933F934F935F936F937B
:103050007F938F939F93AF93BF93EF93FF93809151
:10306000E10082FF09C08091E20082FF05C08091EB
:10307000E1008B7F8093E1008091DA0080FF24C023
:103080008091D80080FF20C08091DA008E7F8093ED
:10309000DA008091D90080FF9DC080E189BD82E186
:1030A00089BD09B400FEFDCF81E08093CD028091FF
:1030B000BF02811109C00E946F030E941004809119
:1030C000E20084608093E2008091E10080FF17C0FD
:1030D0008091E20080FF13C08091E2008E7F809398
:1030E000E2008091E20080618093E2008091D8004C
:1030F00080628093D80019BC85E08093CD028091D6
:10310000E10084FF2BC08091E20084FF27C080E1B2
:1031100089BD82E189BD89B5982F917080FFFBCF71
:103120008091D8008F7D8093D8008091E1008F7EC0
:103130008093E1008091E2008F7E8093E200809195
:10314000E20081608093E2008091CE02882309F43E
:1031500047C084E08093CD028091CD028091E10050
:1031600083FF27C08091E20083FF23C08091E100AC
:10317000877F8093E10082E08093CD021092CE029F
:103180008091E1008E7F8093E1008091E2008E7F4C
:103190008093E2008091E20080618093E20042E04F
:1031A00060E080E00E94DE038091F0008860809300
:1031B000F000FF91EF91BF91AF919F918F917F911F
:1031C0006F915F914F913F912F910F900FBE0F9094
:1031D0001F90189519BC1092CD021092BF0274CFA7
:1031E0008091E30087FD93E09093CD02B5CF789472
:1031F0001F921FB61F9211248F939F93AF93BF937B
:103200008091BB029091BC02A091BD02B091BE0220
:103210000196A11DB11D8093BB029093BC02A093A7
:10322000BD02B093BE02BF91AF919F918F911F904D
:103230001FBE1F9018952FB7F8948091BB029091F4
:10324000BC02A091BD02B091BE022FBF0895AEE1B5
:10325000B0E0EDE2F9E10C94E5208E010F5F1F4F25
:1032600084E1D8011D928A95E9F76CE0E62E61E0D1
:10327000F62E680171E1472E71E0572E66246394A3
:10328000712CFCE08F2EF1E09F2EF70181917F01E0
:103290008F3F09F445C0F894E82FE295EF70F0E015
:1032A00021A18F70A30102C0440F551F8A95E2F738
:1032B000CA01922F982B91A392A18095892382A372
:1032C000789400C0E0E0F1E021E030E0B12CA12CE6
:1032D00041914F3F09F478C0A42FA295AF70B0E0A0
:1032E00090968C9190E04F7002C0959587954A9585
:1032F000E2F780FD69C0C901A82AB92A220F331F4D
:103300008E169F0629F7F701319780818F3F11F0C4
:103310000E94530550EA5A95F1F7D601AD92BC923E
:10332000B2E0CB0ED11C4E145F0409F0AECF44E1E5
:1033300050E0B8018AE392E00E947821009741F0C2
:1033400024E1F801AAE3B2E001900D922A95E1F799
:1033500000914F02892BD9F181E08093C7010E942F
:103360001B199093C6018093C5012091C50130912E
:10337000C6014FB7F8948091BB029091BC02A09116
:10338000BD02B091BE024FBF821B930B059718F18F
:1033900010E0000F111F0C5A1D4F4AE050E06AE385
:1033A00072E0C8010E947821F12C892B51F08AE04B
:1033B000EAE3F2E0D80101900D928A95E1F7FF244B
:1033C000F3941092C70108C090E080E095CF8091FF
:1033D000C7018111CACFF12C0E94300AE82EE0917A
:1033E0004F02882309F47EC06E01F5E1CF0ED11C97
:1033F0008AE0D6011D928A95E9F70E2F10E0000FA2
:10340000111F0C5A1D4F809135028A3038F542E960
:103410005CE0B601C8010E94FD09882309F451C08F
:1034200047E45CE0B601C8010E94FD09882309F465
:1034300048C01092350280914E0290E0880F991F8B
:103440004AE050E0B6018C5A9D4F0E94782121E05D
:103450002093CE01892B09F5E12C2DC02091C801C4
:103460003091C9014FB7F8948091BB029091BC0292
:10347000A091BD02B091BE024FBF821B930B843F4F
:10348000914028F68091CE01882331F38AE0F6013D
:1034900011928A95E9F71092CE01A0914E02B0E008
:1034A000AA0FBB1FAC5ABD4F8AE0FE017596019072
:1034B0000D928A95E1F78E2D8F296E96E0E10C949E
:1034C0000121809135028F3F31F08F5F809335026B
:1034D0008A3008F4B0CF0E941B199093C9018093E1
:1034E000C801D0CFF0E0EE0FFF1FEC5AFD4F8AE08D
:1034F000A1EDB1E001900D928A95E1F76AE070E0EC
:1035000081ED91E00E94F3048093D0018090DB0173
:103510009090DC01A090DD01B090DE018091CA01A5
:103520009091CB01A091CC01B091CD018816990664
:10353000AA06BB0609F490CF8092CA019092CB01F3
:10354000A092CC01B092CD010E94300AE82E8111E8
:1035500083CF0E94CD04861A970AA80AB90A8092DE
:10356000360290923702A0923802B0923902A3CF6D
:10357000A6E0B0E0EEEBFAE10C94F1200E941B19FA
:103580008C018091C3019091C4018017910781F053
:1035900019821A820E941B19682F49815A81792F3A
:1035A00080E090E00E94EC161093C4010093C301E8
:1035B0002696E4E00C940D211F921FB61F92112451
:1035C0008F939F93AF93BF938091BA02811113C0E1
:1035D0008091BB029091BC02A091BD02B091BE024D
:1035E0004196A11DB11D8093BB029093BC02A09394
:1035F000BD02B093BE02BF91AF919F918F911F907A
:103600001FBE1F901895CDB7DEB761970FB6F8941F
:10361000DEBF0FBECDBF85B7806885BF85B7806828
:1036200085BF84B7877F84BF0FB6F894A895809133
:103630006000886180936000109260000FBE80E897
:1036400090E00FB6F89480936100909361000FBEF4
:1036500082E295E090937501809374010E946F035C
:103660000E9410048091E20084608093E2007894CC
:103670008091CD028823A1F01091E9001F709091F4
:10368000EC00892F817090FD80E8182B1092E900E2
:103690008091E80083FD0E945D0D1F701093E9008A
:1036A00082E084BD93E095BD9AEF97BD80936E0054
:1036B000109236021092370210923802109239029C
:1036C0000E94800A809311010E94300A81110E9499
:1036D000811F80911101811135C085E0ECE6F1E098
:1036E000DE011D9601900D928A95E1F78D858093FC
:1036F0000C018E8580930D018F8580930E01888942
:1037000080930F01898980931001FE01379686E02E
:10371000DF011D928A95E9F787EF898386EF8A8317
:1037200085EF8B8384EF8C8380E98D8384E98E839E
:103730003697A0E0B1E0CE010D9621912D93E817C8
:10374000F907D9F78091110195E0811190E09093EC
:103750004F0285E0891B80934E020CE011E0F801D6
:1037600081918F018F3F11F00E945305F1E00131EB
:103770001F07A9F700E011E07CE0E72E71E0F72ECB
:10378000D8018D918D018F3F11F00E945305E016F5
:10379000F106B1F784E1E4E5F2E0DF01C82E1D9205
:1037A000CA94E9F7EAE3F2E0DF011D928A95E9F7AE
:1037B00090E080E00E942E21863E9E4F09F462C078
:1037C00066EE7EEF90E080E00E94622160E082E0A1
:1037D00090E00E94442160E083E090E00E94442158
:1037E0001092500260E074E184E090E00E94622157
:1037F00060E086E090E00E9444216FEF87E090E077
:103800000E94442140E050E0BA0188E090E00E942C
:10381000562160E084E290E00E94442160E087E16C
:1038200090E00E94442160E08CE090E00E944421FE
:1038300060E08DE090E00E94442119821A821B8290
:103840001C821D821E821F82188648E050E068E1BB
:1038500070E0CE0101960E94342140E050E0BA01B0
:1038600080E290E00E94562140E050E0BA018FE0F3
:1038700090E00E94562140E050E0BA0183E190E0E0
:103880000E94562182E090E00E94202180936802ED
:1038900084E090E00E942E21909353028093520284
:1038A00083E090E00E9420210E9430088091510224
:1038B0000E94560891E0833009F090E0892F0E9421
:1038C0008C080E94300A811102C00E94841F0E944D
:1038D00093170E94300A81112EC089E095E09093E1
:1038E00051018093500123E130E030934C0120934B
:1038F0004B0183E390E090934F0180934E014EE0A3
:1039000055E050935901409358013093540120934E
:10391000530190935701809356014BEB51E1509323
:1039200061014093600130935C0120935B019093AF
:103930005F0180935E0190E080E00E942E21863E30
:103940009E4F89F48FE090E00E9428218B01862F02
:103950008F770E94A211001F0027001F1370110F04
:10396000102B10939B0282E691E09093B902809312
:10397000B8026DE7662E62E0762E222423948091B1
:10398000CD0212E1853009F498C00E94271929E67A
:10399000A22E22E0B22E34E5832E32E0932ED40103
:1039A000F501219131918D919D916E167F0609F45B
:1039B00090C028173907A9F30E94300A382E512CDD
:1039C000D4010D911D914D01F501C190D1905F0180
:1039D000C016D10671F1C026D126412CEE24E39405
:1039E000F12CC6018E219F21892BC9F03320B9F01B
:1039F00049825A820E941B199C838B83F1E0FD83CC
:103A000091E098012E213F21232B09F490E09E8321
:103A100049815A816B817C818D810E94EC1643948F
:103A2000EE0CFF1C2CE04212DCCFF5013297118323
:103A3000008353943AE05312C3CF0E94660A4FC0EA
:103A40008091CD02843041F10E94F10A1092BA02B5
:103A500048E1C42ED12C50E4E52E0FB6F894A89579
:103A6000C09260000FBEE092600083B7817F8460E7
:103A700083BF83B7816083BF7894889583B78E7F37
:103A800083BF0FB6F894A8958091600088618093F9
:103A90006000109260000FBE8091CC02882369F014
:103AA0000E942719E4E5F2E081919191892B09F0B8
:103AB000DBC022E0E836F207B9F78091CD0285300D
:103AC00009F4BECF1092C0020E94510D0E94550A07
:103AD0005CCF2817390709F06FCF0E94B81A0E94EF
:103AE000300A0E94F10A81110E94660A0E94550A5A
:103AF00090917D02891721F080937D020E94CD0470
:103B00000E94300A882309F43ACF0E94CD04209104
:103B10008402211144C00091800210918102209101
:103B20008202309183026B017C01C01AD10AE20A41
:103B3000F30A97018601043F11402105310578F110
:103B4000609380027093810280938202909383023B
:103B500080917E0290917F02019690937F028093E4
:103B60007E021D868E01035F1F4F21E050E040E082
:103B700060E087E00E94F10B811106C080917E0217
:103B800090917F020A975CF02092840220928A0230
:103B900081E09D85911101C080E080938B0280912E
:103BA0008B02882309F4EBCE0E94CD046B017C01CB
:103BB0008091850290918602A0918702B09188023F
:103BC000A7019601281B390B4A0B5B0BDA01C901CF
:103BD0000497A105B10580F11D861E861F86188AEF
:103BE0008E01035F1F4F24E050E040E060E088E07A
:103BF0000E94F10B8823C1F06D857E858091900233
:103C0000909191020E949409909391028093900266
:103C10006F85788980919202909193020E94940915
:103C20009093930280939202C0928502D092860272
:103C3000E0928702F092880280919502882309F42D
:103C40009CCE809194028D8710E000E020E0AE01D0
:103C5000435F5F4F61E089E00E94F10B882309F424
:103C60008CCE1092950289CE30E139BD19BD09B4D0
:103C700000FEFDCF8091D8008F7D8093D800809189
:103C8000E00082608093E0008091E00081FDFCCF45
:103C90001092C0020E94510D10CF289A219A229AA8
:103CA00023982B9880E58CBD089590916B019F3FE0
:103CB00009F071C08F3F09F46EC0611144C01092C9
:103CC000120390911203423009F441C0433009F4C9
:103CD00042C094604130E1F141E050E042175307A7
:103CE000E0F1909112034031510509F452C0C0F542
:103CF0004230510509F446C04830510509F446C028
:103D00009CB520911203922B9CBD90911103992395
:103D100019F09DB591609DBD80936B01E82FE295F0
:103D2000EF70F0E031A1282F2F7081E090E001C00A
:103D3000880F2A95EAF7382B31A392A18095892321
:103D400082A381E0089590E290931203BACF986025
:103D500090931203C1CF9C60FBCF440F551FBECF81
:103D60004034510549F04038510541F04032510589
:103D700039F621E020931103926001C09360909383
:103D80001203BECF91E090931103BACF21E02093AC
:103D900011039160F4CF80E00895CF93DF938EBD3F
:103DA0000E941B19EC010DB407FE05C08EB590E012
:103DB000DF91CF9108950E941B198C1B9D0B8436B7
:103DC000910588F38EEF9FEFF3CFCF93DF931EBC67
:103DD0000E941B19EC010DB407FE05C08EB590E0E2
:103DE000DF91CF9108950E941B198C1B9D0B843687
:103DF000910588F38EEF9FEFF3CF80916B018F3F9A
:103E000029F1E82FE295EF70F0E041A18F7021E0F9
:103E100030E0B90102C0660F771F8A95E2F7CB0147
:103E2000942F982B91A392A1892B82A38FEF80933B
:103E30006B018DB58E7F8DBD9CB5809112038095F1
:103E400089238CBD109212031092110308958EE104
:103E50004A9B02C08150E1F74A9BFECF08955A98D1
:103E600080E28A95F1F75A9A0895FC013BE03A9571
:103E7000F1F798E020E080E031E040E14A95F1F789
:103E8000880F4A9B02C08160232742E04A95F1F7E0
:103E9000000040E14A95F1F7915079F790E19A9549
:103EA000F1F799B132E03A95F1F7000040E14A9517
:103EB000F1F792FB992790F992272081920F908336
:103EC0000895A1E0B0E0E7E6FFE10C94EF2019824D
:103ED0008C017C01E60EF11C0E151F0541F481E0FA
:103EE0009981911180E02196E6E00C940B210E94CB
:103EF000271FCE0101960E94351FF80181938F0183
:103F0000EBCF529A5A9A089552985A9AEA9AE9E649
:103F1000F0E080818F7C808308956150770B91E081
:103F200001C0990F6A95EAF720E031E0911108C0CD
:103F3000222391F05A9A80E28A95F1F75A980895CF
:103F4000492F482339F05A9A232740E24A95F1F73E
:103F50009695ECCF5A98F9CF5A98EDCFFF920F93E0
:103F60001F93CF93DF93EC018C01060F111DC01737
:103F7000D10729F4CDB7DEB7E5E00C940C21F99018
:103F80000E942F1F68E08F2D0E948D1FF0CF1F927F
:103F90000F920FB60F9211240F931F932F933F93FD
:103FA0004F935F936F937F938F939F93AF93BF9341
:103FB000EF93FF93CF93DF930F92CDB7DEB71982C4
:103FC0000E94271FCE0101960E94351F082F0695DB
:103FD00006950695282F22952570902F9570290F0C
:103FE000922F937026952695920F98279770898126
:103FF000982B09F05CC00B3008F059C080E18A951D
:10400000F1F75A9A529A82E08A95F1F700C05A98CD
:1040100088E0089F80011124D801AE5EBE4F16963D
:10402000ED91FC9117973097A9F060917101709113
:10403000720114962D913C911597260F371F1196FA
:104040008D919C911297680F791F13964C9113973D
:104050008C910995F801EE5EFE4F6381662351F065
:10406000209171013091720184819581820F931F9B
:104070000E94AE1F0E942F1F80E18A95F1F75A9887
:1040800052985A9A80E18A95F1F7F801EE5EFE4F58
:104090006081662351F0209171013091720181811C
:1040A0009281820F931F0E94611F0E94271F0F9011
:1040B000DF91CF91FF91EF91BF91AF919F918F9140
:1040C0007F916F915F914F913F912F911F910F9130
:1040D0000F900FBE0F901F9018950F931F93CF93C3
:1040E000DF93EC010B970CF04CC0F894529A5A985D
:1040F00085E08A95F1F700009C2F969595708C2F9E
:104100008570980F892F83709695969523E0CC0F34
:10411000DD1F2A95E1F7980F8E01092B0E942F1FB2
:1041200000C068E0802F0E948D1F80E18A95F1F722
:1041300052985A9A4A9B1EC087E090E04A991CC048
:10414000FE01EE5EFE4F63816623F9F0209171015E
:104150003091720184819581820F931F0E94611FAB
:10416000811113C0529A5A9A7894DF91CF911F917E
:104170000F91089500C0DECF019729F4529A5A9A00
:10418000789480E0F2CF00C0D9CF0E94271F80E250
:104190008A95F1F75A98529A80E18A95F1F7CE5EA6
:1041A000DE4F6881662351F02091710130917201D8
:1041B00089819A81820F931F0E94AE1F0E942F1F38
:1041C000789481E0D2CF2F923F924F925F926F927C
:1041D0007F928F929F92AF92BF92CF92DF92EF9297
:1041E000FF920F931F93CF93DF93CDB7DEB7CA1B18
:1041F000DB0B0FB6F894DEBF0FBECDBF09942A8843
:10420000398848885F846E847D848C849B84AA84EA
:10421000B984C884DF80EE80FD800C811B81AA8177
:10422000B981CE0FD11D0FB6F894DEBF0FBECDBF42
:10423000ED010895EE0FFF1F0590F491E02D099414
:10424000F999FECF92BD81BDF89A992780B508955E
:10425000A6E1B0E044E050E00C946A21A8E1B0E0AF
:1042600042E050E00C946A21DC01A40FB51F4150DC
:10427000504048F0CB01840F951F2E910E9445219C
:1042800041505040D0F70895262FF999FECF92BDA6
:1042900081BDF89A019700B4021639F01FBA20BD0B
:1042A0000FB6F894FA9AF99A0FBE08950396272F3D
:1042B0000E9445210E944421252F0E944521242F40
:1042C0000C9445210196272F0E9445210C944421EE
:1042D000DC01CB01FC01F999FECF06C0F2BDE1BDC6
:1042E000F89A319600B40D9241505040B8F70895B5
:1042F000FB01DC0104C08D910190801921F4415033
:104300005040C8F7881B990B0895FB01DC0102C0DF
:1043100001900D9241505040D8F70895F894FFCF86
:104320003E0E660EFE0F660EFE0F990EBA0EFE0FC3
:10433000B70FC40F3E12581267126B126D126F1234
:1043400071122212781287124C134C1382138213AB
:10435000A8132E14A813A81333149E14AD14AD146F
:10436000669497C63435000000000000F6F731333C
:10437000320100000001000000000000000A0100FE
:104380000000040B000000000000040F000000000B
:10439000470520130000000000000110000000008D
:1043A0002405000000203300000000000000000091
:1043B00000000000000000000000000000000000FD
:1043C0000000CA04E909E209C90401FF6697C6347E
:0443D00035D00100E3
:00000001FF
