:100000000C94960A0C94B30A0C94B30A0C94AE2E7A
:100010000C94B30A0C94B30A0C94B30A0C94B30A6C
:100020000C94B30A0C94B30A0C9405160C940F1A92
:100030000C9450280C94B30A0C94B30A0C94B30A91
:100040000C94B30A0C94B30A0C94B30A0C94B30A3C
:100050000C94B30A0C94DE160C94B30A0C94B30AF5
:100060000C94B30A0C94B30A0C94B30A0C94B30A1C
:100070000C94B30A0C94B30A0C94B30A0C94B30A0C
:100080000C94B30A0C94B30A0C94B30A0C94B30AFC
:100090000C94B30A0C94B30A0C94B30A0C94B30AEC
:1000A0000C94B30A0C94B30A0C94B30A0501090228
:1000B000A10185020901A1000509190129081500FE
:1000C0002501950875018102050109300931158165
:1000D000257F95027508810609381581257F9501D0
:1000E00075088106050C0A38021581257F95017572
:1000F000088106C0C005010980A101850319012AF4
:10010000B700150126B700950175108100C0050CD8
:100110000901A101850419012AA002150126A002E6
:10012000950175108100C00660FF0961A101096297
:10013000150026FF00952075088102096315002629
:10014000FF00952075089102C005010906A101056F
:100150000719E029E7150025019508750181029529
:1001600001750881010507190029FF150026FF0008
:100170009506750881000508190129051500250156
:10018000950575019102950175039101C00000006C
:10019000000000000000000000000000000000005F
:1001A000000000000000000000000000000000004F
:1001B000007E0F00D4FFFFFFC700000078000000A2
:1001C00000000000002A2B280000000000000000B2
:1001D000000000000000000029000000002C1E3478
:1001E00020212224342627252E362D3738271E1F7E
:1001F000202122232425263333362E37381F0405A9
:10020000060708090A0B0C0D0E0F10111213141516
:10021000161718191A1B1C1D2F3130232D350405F4
:10022000060708090A0B0C0D0E0F101112131415F6
:10023000161718191A1B1C1D2F3130354C01048E4E
:10024000966E773EFE7E5F1DB8F2664EFF5D19B07A
:10025000C20469542AD62EBFDD19B0C3E529B1E026
:1002600023A5A9B1C10082674C1A978D795120C787
:10027000068E7C7C7A764FFD5930E2460E9EBEDFBC
:100280001D9991A0A5A1A9D022C6EF5C1B958990CC
:10029000A2A7CCFB5528B3E44AF76C3BF46A562E70
:1002A000DE1F9DB8D3058892A6CE1EBEDF1D99B075
:1002B000E246EF5C07115D980B9D9497EE4E453337
:1002C0006B44C729562730C6A7D5F256DFB438622B
:1002D000CBA0B6E30F84062405656F7689B5774118
:1002E0002782666582CCD5E620D52717C5F803237B
:1002F0007C5F64A51DC1D636CB4CD4DB66D78BB1F1
:10030000997E6F4C364006D6EBD7A2E4F495515A4D
:100310005496D55344D78CE0B94068D218E9DD9A99
:10032000239248EE7F43AFEA7738848C0A72AF6934
:10033000F8DDF12483A3F84ABFF59413DBBBD8B4EE
:10034000B3A0FB4550603059123171A2D313E7FAC4
:10035000E7CE0F63150B6B94BB378326059DFB46D9
:1003600092FC0A15D10D7392D68C1B8CB8558ACE8F
:10037000BDFE8EFCED0912839182513123FBB40C3A
:1003800076AD7CD9B44BB26714099C7F0C18BA3B8C
:10039000D68E142AE41B529F2B7DE1FB6A3302FAAE
:1003A000AC5AF23E887EAED1F378E805D1E3DC2189
:1003B000F6E19ABD170ED9469B8803EAF666BE0E93
:1003C0001B5049964097F1F1E480A66EE87734BF60
:1003D000294044C2FF4E98D39CA3322B7651040986
:1003E000E7A9D1A632B12353E247ABD6F5695C3E0B
:1003F0005FFAAE4520E5D244FF39326DFD27575CE8
:10040000FDF0DEC1B599E5F51C770175C56D589213
:10041000F2B247000126967A30FFB7F0EF77C18A33
:100420005DDCC0D129301E77387A94F1B87A7EEF3E
:10043000A4D1AC314AF25D643DB2E2F00899FC709F
:10044000EE24A77EEE1E20697D44BF8742DF883BF5
:100450000CDA42C904F94550FC838F116A72BC99C9
:1004600095F0AC3DA73BCD1CE2887937115F398907
:10047000950A16847AF68AA428E4ED83803BB1239A
:10048000A50310F466EABB0C0FC5EC6C69C5D32458
:10049000ABD42AB799887608A0A8957CD8386DCDBA
:1004A0005902514BF1B52B50E3B6BDD072CF9EFD32
:1004B0006EBB44C8248A77188A1306EF977DFA81A9
:1004C000F031E6FA77ED3106315B548A9F3068DB14
:1004D000E240F84E73FAAB748B105813DCD2E67816
:1004E000D1322E8A9F2C58064827C5A95E8147899C
:1004F0004621910370A43E889CDA330ACEBC8B8ED1
:10050000CF9FD3718043CF6BA95183763082C56A68
:10051000853911501A82DC1E1CD57DA9719933478B
:100520001997B35AB1DFEDA4F2E62684A2289A9E69
:10053000DFA66AF4D6FC2E5B9D1A2A2768FBC183CE
:10054000214B90E036DD5B314255A013F7D0895343
:100550007199570929C5F321F8372F40F3D4AF1605
:10056000083602FC77C58B049056B9C9679A99E89A
:1005700000D386FF972D08E9B7B391BCDF45C6EDE0
:100580000F8C4C1EE65B6E3830E4AAE395DEB9E4CE
:100590009AF5B2559A879BF66AB2F2779A31F47A55
:1005A00031D11D04C07C32A29E9AF562F8278DBF1E
:1005B00051FFD3DF64373F2A6F763A7D77069E7707
:1005C0007F5EEB3251F916669A09F3B008A4709673
:1005D0004630FFDA4FE91BED8DF8741F3192B3738B
:1005E0001736DB9130D688556B3477877AE7EE067D
:1005F000C61C8C190C4846235E9C075CBFB47ED693
:100600004F749CE2C5508BC58B159060625729D002
:100610001343A18088910044C74D1986CC2F2A75B9
:100620005AFCEB972A70E378D891B04F9907A395BD
:10063000EA2421D5DE512093270A3073A8FF8A9738
:10064000E9A76A8E0DE8F0DFECEAB46C1D392A6286
:100650002D3D5A8B65F890052E7E912C78EF8E7A81
:10066000C12FAC78EEAF2845064C26AF3BA2DBA3EA
:100670009306B53CA5D8EE8FAF25CC3F856848A939
:1006800062CC978F7F2AEAE0150AAD6207BD45F874
:1006900041D836CB4CDB6EE63AE7DA15E9291E1273
:1006A00010A0142C0E3DF4BF394192750B257BA38D
:1006B000CE399C1564C8FA3DEF7327FE262ECEDA9C
:1006C0006EFD718EDDFE76EEDC125C02C53A4E4E9A
:1006D0004FBFCA4015C76E8D41F110E04F7E977F26
:1006E0001CAE478E6BB12531B073C71B9779F9806B
:1006F000D366223007741EE4D08021D6EE6B6C4F97
:10070000BFF5B7D909872FA914BE27D9725001D4D4
:100710001373A6A751027525E1B345347DA88EEB6E
:10072000F31649CB4F8CA1B9368539755D0800AEFB
:10073000EBF6EAD7133A215A5F3084522695C91452
:10074000F257556BB110C2E1BD3B51C0B7554C716A
:100750001226C70DF951A43802057FB8F1724BBFBC
:10076000718914F37738D97124F30011A1D8D469B1
:1007700027083735C9119D901C0EE71CFF2D1EE878
:1007800092E11810957CE080F4964321F97521647C
:1007900038DD9F1E9516DA561D4F9A53B2E2E418C3
:1007A000CB6B1A65EB56C63BE5FED8263F3A84591B
:1007B0007266A2F375FFFB60B322AD3F2D6BF9EBC0
:1007C000EA057CD88F6D2C989E2B93F15E46F087BE
:1007D00049297368D77FF9F0E57DDB1D7519F3C4EE
:1007E000589B1788A892E0BEBD8B1D8D9F5676AD95
:1007F000AF29E2D9D552F6B55635573AC8E1564336
:100800001994D3049B6D35D80B5F4D198EECFA64A7
:10081000910A72202BBC1A4AFE8BFDBBED1B23EA0A
:10082000AD7282A1299971BDF095C103DD7BC2B281
:100830003C2854D368A472C86696E0D1D87FF8D11A
:10084000262BF7ADBA55CA15B932C3E588978E5C29
:10085000FB92258BBFA245557AA76F8B575BCF0EB6
:10086000CB1DFB208277A88CCC16CE1DFADECC0BDC
:1008700062FECCE1B7F0C381647340A0C24D891120
:10088000753355338DE84AFDEA6E300BD7312CDED7
:1008900047E3BFF85542E27F59E517EF9934699174
:1008A000B1238E20872DA8FED58AF3843AF037E451
:1008B000090054EE674993E48170E3904DEFFE41E7
:1008C000B7997BC183BA62126F7DDE6BAFDA16F91E
:1008D0005551EEA60C2B02A3FD8DFB3017E46FDF04
:1008E0003671C4CA872548B047ECEAB4BFA54D9B12
:1008F0009F0293C4E3E4E8422D6881150AEB845B10
:10090000D6A874FB7D1DCB2CDA462A7662CEBC5C61
:100910009E8BE7CFBE78F57CEBB33A9CAA6FCC7286
:10092000D159F21123D63F48D1B7CEB0BFCBEA8020
:10093000DE57D45E972F75D1508E802C6679BF72AA
:100940004BBD8A816CD3E101DCD21526C536DA2C89
:100950001AC02794EDB79B850B5E8097C5EC4FECD2
:10096000885D50073547DC0B3B3DDD60AFA85D81FE
:100970003824255D5C15D1DEB3ABEC0569EF83ED62
:100980005754B8646411163269DA9F2D7F36BB4420
:100990005A34E87FBF03EB007F59682279CF736C2C
:1009A0002C29A7A15F38A11DF02053E01A63145829
:1009B0007110AA080C3E161A6022827FBAA443A0C6
:1009C000D0AC1BD56B64B51493319E5350D0576691
:1009D000EE5A4FFB032A695876F183F74EBA8C42E0
:1009E00006605D6DCE6088AEA4C3F103A54B98A1EF
:1009F000FF67E1ACA2B862D76FA031B4D277AF2164
:100A00001006C69AFF1D09170E5FF1AA54344B4514
:100A10008A8763A6DCF9243067C6B2D6613369EEF3
:100A200050615728E77EEEEC3A5A734EA88DE418D1
:100A3000EAEC4164C8E2E866B62DB6FB6A6C16B310
:100A4000DD4643B973006A71ED4E9D251AC33C4AD9
:100A500095159935811402D6989BECD8233B8429AF
:100A6000AF0C9983A69A344FFAE8D03C4BD0FBB632
:100A700068B89E8FCDF7602D7A22E57DAB651B951A
:100A8000A7A87FB677477B5F8B1272D0D491EFDE39
:100A900019503CA78BC4A9B323CB76E681F0C104DF
:100AA0008FA3B8545B97AC19FF3F55272FE01D4229
:100AB0009B57FC4B4E0FCE98A9435703BDE7C894F4
:100AC000DF6E367332B4EF2E857A6EFC6C18827549
:100AD000359007F3E49F3EDC68F3B5F31980920686
:100AE00099A2E86FFF2E7FAE42A45FFBD40E812B4C
:100AF000C304FF2BB3744E365B9C1500C6472BE82E
:100B00008B3DF19C039A587F9B9CBF854979352E7C
:100B1000567B411439478326AA078998111B86E71B
:100B2000737AD87D786153E979F5368D449284F9EA
:100B30001350583BA46A3665498E3C0EF16FD2843F
:100B4000C47E8E3F39AE7C84F163378E3CCC3E440C
:100B50008145F14BB9ED6B365DBB20601A0FA3AA3E
:100B600055773AA9AE374DBAB8866BBC0850F6CC6B
:100B7000A4BD1D4072A586FAE210AE3D584B97F316
:100B80004374A99EEB21B701A4869397EE2F4F3BA8
:100B900086A1416F412690785C7F30384B3FAAECAC
:100BA000ED5C6F0EAD4387FD9335E601EF41269076
:100BB000999EFB195BADD2918AE046AF65FA4F84EE
:100BC000C1A12DCF458BD38550557CF96788D44E74
:100BD000E9D76B6154A1A4A6A2C2BF309C409F5F1D
:100BE000D7692B24825ED9D6A712541AF7559F765F
:100BF00050A99584E66B6DB59654D6CDB3A19B46AE
:100C0000A7944DC494B498E3E1E234D53316075465
:100C1000CDB77753DB4F4D469DE9D49C8A36B6B8A5
:100C200038266C0EFF9C1B438B80CCB93DDAC7F194
:100C30008AF26DB8D7742F7E1EB7D34AB4ACFC7954
:100C4000486CBC96B69446572DB0A3FC1EB95260B2
:100C5000852D41D043011E1CD57DFCF3960DC7CBDD
:100C60002A299A93DD882D375DAAFB4968A09C50FC
:100C7000867F685657F9791839D4E001843361CA00
:100C8000A5D2D6E4C98A4A23444EBCF0DC24A1A0F4
:100C9000C4E2073C10C4B5254B6563F480E7CF611F
:100CA000B1718221872CF59100320CECA9B59A74B0
:100CB00085E3368F764F9C6DCEBCAD0A4BED760446
:100CC000CBC3B9339E019396697DC5A245799B0438
:100CD0005C8409ED8843C7AB931426A140B5CE4E82
:100CE000BF2A42853E2C3B54E8121F0E9759B2276B
:100CF00089FAF2DF8E6859DC06BCB6850D0622EC57
:100D0000B1CBE504E63DB3B04173083F3C58866380
:100D1000EB50EE1D2C3774A9D318A3476E9354AD36
:100D20000A5DB82A555D78F6EEBE8E3C7669B9400C
:100D3000C234EC2AB9ED7E20E48D0038C7E68F443A
:100D4000A886CEEB2AE990F14CDF32FB731B6D9243
:100D50001E95FEB4DB65DF4D23548948BF4A2E70D3
:100D6000D6D762B43329B13A334C236DA676A52188
:100D70006348E6905DED90950B7A84BEB80D5E6396
:100D80000C62264C145AB3AC23A474A76F333005FD
:100D9000600142A028B7EE1938F164808243E14136
:100DA000271F1F90547AD5232ED13DCB28BA587FC8
:100DB000DC7C9124E92851836EC5562142EDA05672
:100DC00022A140806BA8F794CA136B0C39D9FDE9B6
:100DD000F36FA69EFC708AB3BC593C1E1D6CF97C57
:100DE000AFF9887195EB5700BD9F8C4FE12483C507
:100DF00022EAFDD30CE217187C6A4CDE77B4539BD1
:100E00004C81CD2360AA0E25739C02793230DF74A9
:100E1000DF7519F4A5145CF77AA8A591847C6003AA
:100E2000063BCD50B6279CFEB1DDCCD3B05924B2E1
:100E3000CAE21C81229D078F8EB9BE4EFAFC39652D
:100E4000BABF9D12375E977EF389F55DF5E3098C95
:100E500062B5209D0C538A681BD28F75175DD4E54F
:100E6000DA756219146A262DEBF8AF37F06CA455C9
:100E7000B1BCE233C09ACAB011494F689B3B6B3C8E
:100E8000CC13F6C785616842AEBBDDCD4516291D82
:100E9000EADBC803943CEE4F8211C3EC28BD9705F2
:100EA00099DED7BB5E221FD4EB64D992D985B76A8D
:100EB000056AE42441F1CDF0D83FF89E0ECD0B7ABF
:100EC000706B5A750A6A3388EC17750870102F24F6
:100ED000CFC4E942006194CA1F3A7606FAD248812B
:100EE000F077600345D961F4A46F3DD930C3046B3A
:100EF000542AB7EC3BF44BF5685226CEFF5D1991AE
:100F0000A0A3A5A9B1E023C40A774DF95120A3A558
:100F1000A9B1C10082868E7F5D1991A0A3C4EB5454
:100F20000B756852078C9A978D79706246EF5C1B3F
:100F300095897141E121A1A1A1C002674C1AB6CFE8
:100F4000FD785324ABB5C9F16023A5C812876D584D
:100F500013858892876D5832C70C9A97ACDA36EEB3
:100F60005E3EDF1DB8F2662FBDF87247ED5813855F
:100F70008892878C7B550990A2C6EF3DF85324AB2D
:100F8000D42AB7EC5A36EE5E3EDF3CFA764FFD5976
:100F900030E246EF3DF853056931C10082868E7F0D
:100FA0005D19B0E227CCFB744B148B948B756833BE
:100FB000C50892878C9AB6CF1CBAD70D98B2E62F87
:100FC000DC1B9589716023C40A968F9CBAF66E3F2C
:100FD000FC5B15A8D226AFBDF872662FDC1BB4CB24
:100FE000148B94AAB7CDF951018082866F3DD93018
:100FF000E227CCFB744B14AAB7CDF97043046B35D0
:10100000C9F16023A5C8F3450892876D5832E62FD1
:10101000BDF872664E1EBEFE7E7E7E5F1D9991A05B
:10102000A3C40A774D1893A4ABD40B754910A2C67C
:10103000EF3DF85324ABB5E833E44A16AEDE1FBCEF
:10104000DB15A8B3C5087345E931C1E121A1A1A110
:10105000C002866F5C3AD70D9893A4CA16AEDE1F05
:101060009D99B0E246EF3DF872470C9AB6CFFD5914
:1010700011A0A3A5C8F3450892876D39F043048AEF
:1010800096AEDE3EDF1D9991A0C2066F3DF8724715
:101090000C9A978D989385887345E931E023A5A92B
:1010A000D003848A96AEDE1FBCDB15A8D226CEFF05
:1010B0005D1991818082672DD813A4ABD40B94AABB
:1010C000B7CDF95120A3A5C8F345E95022C6EF5C7E
:1010D0003AD70D9893858873644AF74DF95120A348
:1010E000C40A96AEDE3EFE7E7E7E5F3CFA764FFD03
:1010F0007872662FBDD930C3E54812878C7B55289E
:10110000D2078C9A97ACDA178D795120A3C4EB548F
:101110000B948B94AAD62EBFFC5B15A8D226AFDC0D
:101120001BB4EA37EC3BF46A37CD1893856931C1BB
:10113000E140E325C812878C9AB6CFFD5911A0C2B1
:10114000068E7F5D38F2470C7B746A37EC5A36EEB8
:101150003FFC7A764F1C9B95897141006344EB54A8
:101160002AD60F9CBAD70D9893856931C100828623
:101170008E9EBEDF3CFA572CDA36EE3FFC5B1589BB
:1011800071410082868E7F5D38F247ED5813A4CA04
:10119000F74DF95101806344EB542AD62EBFDD1977
:1011A00091A0A3A5A9B1E042068E7F5D1991A0A3ED
:1011B000C40A968F7D7872470C7B746A562EDE1FA8
:1011C000BCFA570D7951016121A1C0E325A9B1C134
:1011D000E14002674C1A978D9893A4ABD42AD60F9E
:1011E0009C9BB4CB14AAB7CDF95120A3C4EB35C94D
:1011F000F16042068E7F7C7A766E3FFC7A766E5E78
:101200003EFE7E5F3CDB15897141E121C0E344EB8A
:10121000542AB7CDF9706227ADD832C70C7B744B16
:1012200014AAB7EC3BD528D2076D39D120C2E74CC0
:101230001A978D98B2C70C5928F39B29001E001FDE
:10124000002000210022004C0014001A00080015A4
:101250000017002B0004001600070009000A0021F7
:10126000521D001B000600190005000000E300915C
:10127000412C429043300023002400250026002703
:10128000002D001C0018000C001200130089000B38
:10129000000D000E000F0033002402110010003674
:1012A0000037003800E50032002A00284291410052
:1012B00000000029021E022F002002210222024CFF
:1012C0000214021A020802150217022B0204021667
:1012D00002070209020A0201001D021B020602198E
:1012E0000205020000E30201000100010030022EAD
:1012F00000230234022502260287021C0218020C77
:10130000021202130289020B020D020E020F0234B6
:10131000001F0211021002360237023802E50232C3
:10132000020100010001000000000001003A003B42
:10133000003C003D003E0001000100240025002685
:1013400000010001000100210022002300330201FE
:101350000001001E001F0020002D020000370001C8
:10136000000100010025023F00400041004200430F
:101370000044000100500052004F00010045004BA6
:1013800000D1005100D200D30001004E0001000145
:101390000001000100010026024C000100010000D4
:1013A000000000207801000100010001000100217F
:1013B0007823782578277801000100227824782680
:1013C00078287801000100010001000100010001FE
:1013D0000001000000510052004F00010001002BED
:1013E000782C782D782E782F7830783178327833C1
:1013F00078347801000100010001000100010001C2
:101400000001004A004E004B004D000100010001A8
:101410000001002A0001000000000001000100019D
:1014200000010001000100010001000100010001B4
:1014300000010001000100010001000100010001A4
:101440000001000100010001000100000001000195
:101450000001000100010001000100010001000184
:101460000001000100010001000100010001000174
:1014700000010001000100010001000100407E01A7
:1014800000417E0100010001000100010001000097
:1014900000000009025B00030100A0FA090400003B
:1014A0000103010100092111010001224400070587
:1014B0008103080001090401000203000000092162
:1014C0001101000122220007058203200001070507
:1014D00003032000010904020001030000000921A8
:1014E00011010001227B0007058403200001120185
:1014F000000200000008571057F600010102000129
:101500001603730075006D006E00690067006800C7
:1015100074003500370000000E036D00610072009A
:1015200062007900330000000403090411241FBE87
:10153000CFEFDAE0DEBFCDBF11E0A0E0B1E0E0E147
:10154000F2E602C005900D92A438B107D9F722E067
:10155000A4E8B1E001C01D92A739B207E1F70E94EB
:1015600077280C94A4300C940000482F209191020D
:101570009091580257E0291302C080E0089530E0AE
:10158000529FF001539FF00D1124E75AFD4F8181C6
:10159000681306C08081481303C085818111EECF96
:1015A0002F5F3F4F2770E7CFFC01AC014B5F5F4FD0
:1015B0008FEF91E32191822728E030E087FF09C077
:1015C000880F892721503109C9F7E417F50791F7EA
:1015D0000895880FF7CFE8EDF0E080818E7F80835B
:1015E0001092E2001092DA001092E100A0EEB0E05A
:1015F0008C9181608C9380818F77808319BCA7ED5B
:10160000B0E08C918E7F8C9380818F7E808310924E
:101610003F0208952091E4003091E50095E6A9018C
:101620002091EC00822F817020FF06C08091E8009D
:1016300080FF06C080E008952091E80022FD1AC0D6
:1016400080914C02882389F0853089F08091EB00ED
:1016500085FD0FC02091E4003091E500421753074B
:10166000F9F29150E1F684E0089582E0089583E074
:10167000089581E0089580914E0287FF13C0809104
:10168000E80082FF06C08091E8008B778093E80035
:1016900004C080914C028111F2CF089580914C02D8
:1016A0008823D9F38091E80080FFF8CF8091E8008B
:1016B0008E77ECCF982F9093E900242F762F50E06F
:1016C000891731F07091EC002091ED005091F000FD
:1016D00021FD07C09F5F973071F78093E90081E09B
:1016E00008953091EB003E7F3093EB003091ED0098
:1016F0003D7F3093ED003091EB0031603093EB0093
:101700007093EC002093ED005093F0002091EE00D8
:1017100027FDE0CF80E00895B0E0A0E0E2E9FBE043
:101720000C94D42FC8EDD0E088818F7E8883E7EDBC
:10173000F0E080818160808384E082BF81E08093DB
:101740003F0288818E7F888302EE10E0F8011082CC
:101750001092DA0081EEC82ED12CF6011082888119
:101760008F77888388818068888388818F7D88834C
:1017700019BC10924C0210924D0210924B02109222
:101780004A0290EEE92EF12CF70180818B7F808355
:1017900088818160888342E060E080E00E945A0B8B
:1017A000F60180818E7F8083F80180818160808353
:1017B000808188608083F70180818E7F808388812B
:1017C00080618883CDB7DEB7E8E00C94F02FFC0190
:1017D000809154029091550286179707A0F06115E9
:1017E000710529F49091E8009E779093E80090E0CD
:1017F0006115710551F4911108C08091E80082FFD4
:1018000034C080E00895BC01F2CF80914C0288235F
:10181000C1F18530C1F18091E80083FD30C0809135
:10182000E80082FDEACF8091E80080FFE1CF80915F
:10183000F3002091F200382F6115710519F028305E
:10184000310558F091E02830310509F090E0209101
:10185000E8002E772093E800CBCF81918093F100B0
:10186000615071092F5F3F4FE7CF80914C02882371
:1018700041F0853041F08091E80083FFBECF81E0E8
:10188000089582E0089583E00895809141020895CB
:1018900087E797E7909301088093000888E19AE032
:1018A0000FB6F894A895809360000FBE90936000E7
:1018B000FFCF9C014FB7F89480913B0290913C027E
:1018C000A0913D02B0913E024FBF821B930B089541
:1018D0002FB7F89460913B0270913C0280913D02D9
:1018E00090913E022FBF0895DC01FB0111969C915F
:1018F00011978181981322C012968C911297882398
:1019000019F0928189131AC013968C91139788232A
:1019100019F09381891312C015968C91159788231D
:1019200019F0958189130AC014969C91992321F08E
:1019300081E02481291303C080E001C081E081702F
:1019400008959C01FC0132969FEF80E0419146177B
:1019500051F09F3F19F4411101C0982F8F5F8630DD
:10196000A9F79F3F09F40895290F311D97FD3A9576
:10197000F90162830895A3E0B0E0E1ECFCE00C948F
:10198000DA2F209138023091390228173907A1F057
:101990009093390280933802E0913602F091370239
:1019A000309751F024E029839B838A830680F78156
:1019B000E02DCE01019609952396E2E00C94F62FD6
:1019C000A3E0B0E0E6EEFCE00C94DA2F20913402C4
:1019D0003091350228173907A1F090933502809392
:1019E0003402E0913602F0913702309751F023E053
:1019F00029839B838A830680F781E02DCE0101969F
:101A000009952396E2E00C94F62FE0913602F091CE
:101A10003702309739F022E0DC012C930480F58105
:101A2000E02D0995089580910C0280FD16C081FD7E
:101A300016C082FD16C080910B028823A1F0883267
:101A400080F428E0829FC001112468E270E00E94C7
:101A50001530862F672B39F0089582E0089584E0D1
:101A6000089588E0089581E0089580910C0280FD3A
:101A700014C081FD14C082FD16C080910A02882323
:101A800081F08E3180F420E5829FC00111246EE147
:101A900070E00E941530862F089584E1089588E251
:101AA000089588E0089580E50895282F35EB2303F5
:101AB000C001112497FF04C080589109892F08950F
:101AC00080589F4FFBCF80E00895F894E82FE2956F
:101AD000EF70F0E031A1282F2F7081E090E001C07D
:101AE000880F2A95EAF7982F9095932391A392A1B6
:101AF000892B82A3789408959091F20192FF10C0EF
:101B000041E0282F2471243009F040E031E0282FF3
:101B10002871283009F030E0431711F02CE08227BB
:101B200093FF10C041E0282F2471243109F040E0D8
:101B300031E0282F2871283109F030E0431711F0E7
:101B40002CE082273091F30130FF10C051E0282FA4
:101B50002171213009F050E041E0282F2871283010
:101B600009F040E0541711F029E0822731FF10C03E
:101B700041E0282F2171213109F040E031E0282F88
:101B80002871283109F030E0431711F029E082274D
:101B900094FD877E089582389105B9F1B0F48133C0
:101BA000910509F47DC048F48932910509F46DC0AE
:101BB0008A32910509F47BC008958533910509F4B3
:101BC0005FC08933910509F10895833E9105D9F1EC
:101BD00038F4803E910529F1823E910579F108950E
:101BE000863E9105D9F1873E910509F43EC0843EB9
:101BF000910541F52091F30121FF24C08091F2016C
:101C000084FD19C087EE90E008952091F2012370C1
:101C100009F05AC02091F30123FF14C089E290E03B
:101C200008952091F20120FD38C03091F30130FF7A
:101C300009C024FF43C090E080E008952091F201A4
:101C400022FDF7CF08952091F20122FD3AC0309194
:101C5000F30130FD39C024FFF5CFEDCF2091F20123
:101C600023FFF0CF24FDE7CFCDCF2091F20123FD5C
:101C70002EC03091F30131FFEECF84EE90E0089555
:101C80002091F20125FFDECFC9CF2091F20125FD81
:101C900021C02091F30123FFD5CF89E390E0D2CF7B
:101CA0002091F20126FFCECF8AE290E008952091A4
:101CB000F20126FFC7CF81E390E0089583EE90E024
:101CC000089582EE90E0089580EE90E0089586EE0B
:101CD00090E0089585E390E008951F93CF93DF93FC
:101CE0000E94CB0DEC01C11580E5D807F0F5C115B8
:101CF00080E4D80708F09CC0C03ED10520F5CD3C5B
:101D0000D10508F082C0C83AD10578F4C53AD105AA
:101D100008F073C0C130D10519F1209709F1C43022
:101D2000D105F0F4D0E0C0E01BC0C33CD105D0F732
:101D3000C85AD0E0CC0FDD1FC45CDE4F0990D881BB
:101D4000C02DD4640DC0C11580E2D80708F0D1C001
:101D5000C11581E0D80708F05AC0C83ED10510F778
:101D6000CE01DF91CF911F910895C03682E5D8074B
:101D700018F5C03482E5D80708F06BC0C03282E5A0
:101D8000D80708F05FC0C11582E5D80708F497C0EE
:101D90002C2F2695269580E2289F900111248C2FC8
:101DA0008370C1E0D0E002C0CC0FDD1F8A95E2F75E
:101DB000C22BD32BDD68D4CFC03A82E5D80760F4BC
:101DC000C03882E5D80708F459C0CF71D0E0DC2FC5
:101DD000CC27C46FD06AC4CFC03C82E5D80708F4D2
:101DE00062C0C03E82E5D80708F09CCFDC2FCC272C
:101DF000CC27DF71C06FD06AB3CFC55AD0E0C75CC3
:101E0000DE4FC881D0E0D064ABCFD065A9CF8D2F95
:101E10000E947C0D182FCE0199270E94CB0DC12F57
:101E2000D0E0DC2FCC27CC27DF71C82BD92B98CF63
:101E3000CE0199270E94CB0DCC27DF70C82BD92B60
:101E4000D06A8ECFCF71D0E0DC2FCC27C16FD06AA3
:101E500087CF2C2F26952695277080E2289F90010A
:101E600011248C2F8370C1E0D0E002C0CC0FDD1FA5
:101E70008A95E2F7C22BD32BDC6872CF2C2F2695E4
:101E80002695277080E2289F900111248C2F837063
:101E9000C1E0D0E002C0CC0FDD1F8A95E2F7C22B73
:101EA000D32BDA685DCF8C2F8F710E947C0DC82FE9
:101EB000D0E0DC2FCC27CC27DF71D06251CF8C2F24
:101EC0008F710E947C0D55E0D695C7955A95E1F724
:101ED000CF70D0E0DC2FCC27282F30E084FF05C066
:101EE00044E0220F331F4A95E1F7C22BD32BD06970
:101EF00037CF8D2F8F710E947C0D182FCE0199271F
:101F00000E94CB0DC12FD0E0DC2FCC27CC27DF7176
:101F1000C82BD92BD2CF80959091BA01982390935A
:101F2000BA0108958091910290915802981301C0CE
:101F300008958F5F8770FACF292F9A3078F5863011
:101F400068F590E036E0239F800D911D1124682FE5
:101F5000677023E0969587952A95E1F7FC01EE0FCF
:101F6000FF1FE80FF91FE057FE4F50E040E080E010
:101F7000219130E0062E02C0369527950A94E2F7AB
:101F800021703327042E01C0220F0A94EAF7822B16
:101F90004F5F5F4F4330510559F7089580E0089532
:101FA000292F9A3098F5863088F590E036E0239F07
:101FB000800D911D1124282F277041E001C0440F8E
:101FC0002A95EAF723E0969587952A95E1F7FC0193
:101FD000EE0FFF1FE80FF91FE057FE4F30E020E043
:101FE00070E05191DF011197CB01022E02C096954E
:101FF00087950A94E2F78170819585278423852748
:102000008C932F5F3F4F2330310559F7089580930C
:10201000F10108959091F10121E030E0F90101C052
:10202000EE0F8A95EAF7D90102C0AA0FBB1F6A9585
:10203000E2F7EA2B01C0220F4A95EAF7892F8E2397
:10204000E81305C0292B822F0E94071008952095C0
:102050002923F9CF21E030E001C0220F8A95EAF769
:1020600020958091F10182230E940710089590919C
:10207000AF01809589238093AF01282F277069F4E1
:10208000891759F09091F30192FF07C086958695C4
:1020900086950E942A101092AF01089521E030E049
:1020A00001C0220F8A95EAF78091F101822B0E94EC
:1020B000071008958093F00108950F931F93CF9315
:1020C000DF938B01EA0190914C02943061F580938B
:1020D000E9008FEF9091E800815095FD06C095EDE5
:1020E0009A95F1F700008111F5CF8091E80085FF06
:1020F0001AC00E940A0B811111C08091E80085FD71
:1021000006C08091E8008E778093E800F2CFF80156
:1021100081918F018093F100219779F78091E800F8
:102120008E778093E800DF91CF911F910F910895F2
:1021300043E050E0BC0184E00E945D10089546E059
:1021400050E0BC0184E00E945D100895CF93DF93BE
:10215000EC0148E050E0BC0181E00E945D1088E0A5
:10216000FE01A2E4B2E001900D928A95E1F7DF91C1
:10217000CF910895B0E0A0E0E0ECF0E10C94D22F14
:102180007C015B016A018091DF0101E010E08A308F
:1021900010F40AE010E0C1E0D0E0B501C701F6019B
:1021A0000995811104C021960C171D072CF4CDB799
:1021B000DEB7EAE00C94EE2FCC9F9001CD9F300D5E
:1021C000300D112490E080E045E34A95F1F70000DE
:1021D000019682179307C1F7E0CF8091C701811163
:1021E00019C082E390E02091E30027FD10C0EFE3E7
:1021F000FCE93197F1F700C000000197A1F782E0F8
:102200008093C7010E94EB0A10924C0203C081E048
:102210008093C70181E09091C701913011F080E077
:10222000089508950E94ED10882359F0E091360238
:10223000F0913702309729F00190F081E02D099557
:10224000089580E008950F931F930E94ED10882356
:1022500029F00E94680C1F910F9108950E94680C4C
:102260000091E0011091E1012091E2013091E30140
:10227000600F711F821F931FEECF3E98469A229ADD
:102280002A9885E08A95F1F7000086B122982A9A6B
:1022900090EA9A95F1F790E026E0959587952A9532
:1022A000E1F78095909581700895CF930E943D113C
:1022B00028E030E043E060E086E30E940C2DC82F68
:1022C000811105C00E94E42D8C2FCF91089585E0E7
:1022D0008A95F1F70000F8CFA2E0B0E0E2E7F1E183
:1022E0000C94D72F182FF62E0E945511082F81110C
:1022F00006C000E0802F2296E5E00C94F32F103505
:1023000049F00E943D11E6E5F2E0882311F0E7E58F
:10231000F2E0108210681983FA8262E070E0CE0168
:1023200001960E94B42D892B21F78AEB8A95F1F74B
:1023300000C00E94E42D83E492E00197F1F700C011
:102340000000D8CFCF93C82F0E9455118823C9F021
:102350008C2F0E94842D8FE792E00197F1F700C047
:1023600000000E949C2DC82F95E09A95F1F700007F
:102370000E94E42D85E68A95F1F700008C2FCF911D
:102380000895C0E0FBCFCF93DF93C1E8D2E060E0D7
:10239000CE010E945A302196C11584E0D807B9F7C2
:1023A000DF91CF9108951F93CF93DF93122F853044
:1023B000E0F46A30D0F44630C0F4C42FD0E0CC0F43
:1023C000DD1F9CE0699FC00DD11D112498E7899FF6
:1023D000C00DD11D1124632FCE0189960E945A3061
:1023E000612FCE018A960E945A30DF91CF911F91C2
:1023F0000895AF92BF92CF92DF92EF92FF921F9318
:10240000CF93DF938BE3C82E82E1D82ED0E0760104
:10241000C0E014C0F50125913491412F6C2F8D2F10
:102420000E94D31182E0A80EB11C1F5F163091F7F5
:102430008CE0E80EF11CCF5FCA3019F0570110E0B4
:10244000E9CFDF5F88E7C80ED11CD53001F7DF91F7
:10245000CF911F91FF90EF90DF90CF90BF90AF9002
:102460000895CF93C82F6FEF811163E285E290E06A
:102470000E945A306FEFC11169E086E290E00E943D
:102480005A306FEFC11168E187E290E00E945A3044
:10249000CF91089580E00E94311260E088E290E0E0
:1024A0000E945A300E94F9110E94C31181E00E94DB
:1024B000311208950F931F93CF93DF93853030F53A
:1024C0006A3020F5463010F5C42FD0E0CC0FDD1F68
:1024D0002CE0629FC00DD11D112438E7839FC00DF1
:1024E000D11D1124CE0189960E943630082F10E0AC
:1024F000102F0027CE018A960E9436309801282B93
:10250000C901DF91CF911F910F91089590E080E074
:10251000F8CF462F7A3040F4663030F4853020F41E
:10252000672F0E945A12089590E080E00895CF929C
:10253000DF92FF920F931F93CF93DF936C01009173
:10254000F1018091F001082BC4E0D0E010E0FC2EF6
:10255000C8010C2E02C0959587950A94E2F780FD7C
:102560000CC02197A0F7F12C8F2DDF91CF911F91F7
:102570000F91FF90DF90CF900895B6018C2F0E94AD
:1025800089120E946D0E019761F3EECFCF93DF9316
:10259000EC010E949712BE010E9489120E946D0EEA
:1025A000DF91CF910895FC0124812223C1F0808125
:1025B00091810E94C61292959F70963091F058F4C6
:1025C000925F9F70923058F4803F19F030F4883E4B
:1025D00030F481E008959A5FF4CF843FD1F380E036
:1025E0000895883EB0F3813FD1F7F3CFA6E0B0E085
:1025F000ECEFF2E10C94D92F49835A8349815A8137
:102600009923A1F0222391F0CA010E949712182F5A
:10261000682F89819A810E94D00F69817A81812FE8
:102620000E9489122696E3E00C94F52FCA010E94BD
:102630009C0F182FF2CF85E290E00E943630833253
:1026400089F486E290E00E943630893059F487E2BE
:1026500090E00E94363091E0883109F090E0892FB7
:102660008170089580E0FCCFA8E1B0E0EAE3F3E1F7
:102670000C94D82F4B8B5C8B6D8B7E8B8F8B988FB4
:102680008E01095F1F4F86E0F80111928A95E9F7E4
:102690000E943D110E943D118823A1F180915702B3
:1026A00081113DC060E080E50E946C1181112DC058
:1026B00086E0FE013796DE01119601900D928A9513
:1026C000E1F786E0FE013196DE011D9601900D9244
:1026D0008A95E1F78D8583FF4FC086E0FE017396F2
:1026E000DE01179601900D928A95E1F72F813885CA
:1026F00049855A856B857C8580E090E06896E4E0AA
:102700000C94F42F80915602CBCF0E943D11E6E548
:10271000F2E0882311F0E7E5F2E081E080830E9497
:102720005511882329F280E50E94842DFAEBFA9551
:10273000F1F700C066E070E0C8010E94CC2D8F81E7
:10274000877049F00E943D11E6E5F2E0882311F020
:10275000E7E5F2E010820E94E42D89859A85919543
:10276000819591099A8789878B859C85919581951B
:1027700091099C878B879CCF898187FD03C010922C
:102780003302ABCF2B813C818D819E8140913302FE
:10279000411103C041E04093330220384FEF34072A
:1027A0008CF02038310514F02FE730E08038EFEF5F
:1027B0009E0754F08038910514F08FE790E02D8B40
:1027C0008E8B8BCF20E8F2CF80E8F9CF0F931F9349
:1027D000CF93DF930E943D110E94042D0E9455115A
:1027E000882309F48AC025ED2A95F1F700000E949C
:1027F000E42D85ED8A95F1F700006AE58AE30E94F1
:102800006C11882309F479C09FEFE0E7F2E0915062
:10281000E040F040E1F700C0000082E00E94A21119
:1028200083E00E94A21184E00E94A21185E00E9430
:10283000A21186E00E94A2116DE183E10E946C1159
:10284000882309F45AC08FE39CE90197F1F700C08F
:10285000000068E183E10E946C110E9455118823F9
:1028600009F44BC082EE0E94842D90E59A95F1F711
:10287000CDE3D2E00BE312E1FE0184910E94842DAE
:10288000F0E5FA95F1F721960C171D07A9F78FE1EE
:1028900093E00197F1F700C000008AE20E94A211C4
:1028A00060E080E10E946C110E94E42DEFE3FCE9FE
:1028B0003197F1F700C000000E943D116FE08FE0FA
:1028C0000E946C118FE99FE00197F1F700C00000B2
:1028D00060E080E10E946C1160E081E10E946C1177
:1028E00062E083E60E946C1180E00E94A2118FE3F7
:1028F0000E94A2118AE20E94A211DF91CF911F9142
:102900000F9108958091BA019091B901892B80931C
:1029100086019091B801992391F0892B80938601CB
:1029200020E088E891E0FC013191CF0131112F5F67
:10293000F1E08E389F07B9F721111092B80148E0F5
:1029400050E060EB71E086E891E00E948E30892BC8
:10295000A9F088E0E6E8F1E0A0EBB1E001900D928B
:102960008A95E1F7E0913602F0913702309731F025
:102970000280F381E02D86E891E00995089588238F
:1029800021F00E948B0F0E9482140895882339F051
:102990009091BA01982B9093BA010E9482140895E5
:1029A000CF9361E172E08DE292E00E94740CC82F37
:1029B000882321F08DE292E00E94050D90912E0275
:1029C00086E0EDE2F2E0DF01282F1D922A95E9F77B
:1029D00090932E02A1E1B2E001900D928A95E1F769
:1029E00081E0C11103C0911101C080E08170CF91DD
:1029F00008959091F30192FB222720F9281779F08E
:102A000080FB92F99093F3016091F2017091F301D0
:102A100084E090E00E94783082E00E9437100895B0
:102A2000A4E0B0E0E6E1F5E10C94D92F4091DB01A0
:102A30005091DC016091DD017091DE012FB7F894B7
:102A400080913B0290913C02A0913D02B0913E02E8
:102A50002FBF841B950BA60BB70B11E08436910595
:102A6000A105B10570F10E9423116E5F7F4F8F4F5A
:102A70009F4F69837A838B839C838091110190910E
:102A800012018F529E4F4091100150E04530510588
:102A900010F044E050E0BE016F5F7F4F0E949B301A
:102AA00082E090E00E94542F182F882351F00E945A
:102AB000680C6093DB017093DC018093DD019093DF
:102AC000DE01812F2496E3E00C94F52FEF92FF9224
:102AD0001F93CF93DF9300D000D000D0CDB7DEB7E7
:102AE0007B0190E080E00E94542F182F882309F486
:102AF00080C04091030150E04115510511F041E0C3
:102B000050E060910401709105016F527E4FCE013B
:102B100006960E949B304091CD015091CE0160916C
:102B2000CF017091D0012FB7F89480913B02909122
:102B30003C02A0913D02B0913E022FBF841B950B39
:102B4000A60BB70B84369105A105B10540F482EDC3
:102B500091E00E94D40A9E81891709F44AC081E05D
:102B600090E00E94542F811116C010E085E0E8EC3F
:102B7000F1E0D70101900D928A95E1F7812F269619
:102B80000FB6F894DEBF0FBECDBFDF91CF911F917E
:102B9000FF90EF90089540910B0150E046305105B1
:102BA00010F045E050E060910C0170910D016F5202
:102BB0007E4FCE0101960E949B3082ED91E00E94F3
:102BC000D40A9E818913D1CF0E94680C6093CD01F5
:102BD0007093CE018093CF019093D00185E0FE01E8
:102BE0003196A8ECB1E001900D928A95E1F711E0E1
:102BF000BDCF85E0E2EDF1E0DE01119601900D928E
:102C00008A95E1F71111EACFB1CF1F920F920FB65B
:102C10000F9211242F933F934F935F936F937F9362
:102C20008F939F93AF93BF93EF93FF938091E100B6
:102C300082FF09C08091E20082FF05C08091E1001F
:102C40008B7F8093E1008091DA0080FF24C0809127
:102C5000D80080FF20C08091DA008E7F8093DA0058
:102C60008091D90080FF9DC080E189BD82E189BD4E
:102C700009B400FEFDCF81E080934C0280913F02B9
:102C8000811109C00E94EB0A0E948C0B8091E20026
:102C900084608093E2008091E10080FF17C0809102
:102CA000E20080FF13C08091E2008E7F8093E200FB
:102CB0008091E20080618093E2008091D800806280
:102CC0008093D80019BC85E080934C028091E1008C
:102CD00084FF2BC08091E20084FF27C080E189BD82
:102CE00082E189BD89B5982F917080FFFBCF8091DB
:102CF000D8008F7D8093D8008091E1008F7E8093F3
:102D0000E1008091E2008F7E8093E2008091E200FA
:102D100081608093E20080914D02882309F447C0CE
:102D200084E080934C0280914C028091E10083FF0B
:102D300027C08091E20083FF23C08091E100877F5C
:102D40008093E10082E080934C0210924D028091CA
:102D5000E1008E7F8093E1008091E2008E7F80937E
:102D6000E2008091E20080618093E20042E060E056
:102D700080E00E945A0B8091F00088608093F00000
:102D8000FF91EF91BF91AF919F918F917F916F9143
:102D90005F914F913F912F910F900FBE0F901F9019
:102DA000189519BC10924C0210923F0274CF80917A
:102DB000E30087FD93E090934C02B5CF78941F9287
:102DC0001FB61F9211248F939F93AF93BF9380914F
:102DD0003B0290913C02A0913D02B0913E020196CF
:102DE000A11DB11D80933B0290933C02A0933D0234
:102DF000B0933E02BF91AF919F918F911F901FBEE4
:102E00001F9018952FB7F89480913B0290913C0247
:102E1000A0913D02B0913E022FBF08950E9402177B
:102E20009C019091280280912902982B21F03093E7
:102E3000100220930F0290912A0280912B02982B6E
:102E400021F030930E0220930D0286E292E00E9460
:102E5000050D0895CF931092BA01C6E0E8E8F1E0BD
:102E6000DF018C2F1D928A95E9F790E080E00E94A7
:102E7000E00C90E080E00E94BB0C1092B9010E942F
:102E80008214E6E2F2E0DF011D92CA95E9F71092A2
:102E90000A0210920B0210920C020E940E17CF91A0
:102EA0000895AAE2B0E0E7E5F7E10C94D92F8EE4AB
:102EB00092E02091F100DC012D93CD01B2E0863546
:102EC0009B07B9F780914F02833009F472C0B8F4C0
:102ED000813009F449C0823009F4B3C08091E80020
:102EE00083FF8BC280914E0290914F029A3008F07E
:102EF00084C2E92FF0E0EA55FF4C0C9429308A3067
:102F000009F48EC08B3009F471C0893039F7809193
:102F10004E02813219F7809152029091530200972C
:102F200011F00297D9F68091E800877F8093E8003E
:102F30008091E80082FF38C09091F3008091F20008
:102F4000029731F48091F100813011F0863021F444
:102F50008091F100809341028091E8008B7780930B
:102F6000E8000E943B0BBACF80914E02813A09F0F3
:102F7000B5CF8091E800877F8093E800809152026E
:102F800090915302892B61F468E082E492E070E052
:102F90000E94E70B8091E8008B778093E8009ECF3A
:102FA00060E090E080E0F3CF80914C028111C0CFCF
:102FB00095CF80914E02813A09F090CF80915202D4
:102FC00090915302892B09F089CF8091E800877F87
:102FD0008093E8008091E80080FFFCCF80912C0175
:102FE0008093F1008091E8008E77B9CF80914E02F6
:102FF000813209F073CF8091520290915302892B54
:1030000009F06CCF8091E800877F8093E8000E94F0
:103010003B0B8091500280932C010E942A175ECFB7
:1030200080914E02813209F059CF8091E800877F6C
:103030008093E8000E943B0B8091510280934002F4
:103040004DCF80914E02813A09F048CF8091E8003F
:10305000877F8093E8008091E80080FFFCCF80911B
:103060004002BECF803899F0823809F0C6C1809105
:1030700052028F70873008F0C0C18093E9008091C0
:10308000EB0085FB882780F91092E90006C080914B
:103090004A0290914B02911182609091E800977FD3
:1030A0009093E8008093F1001092F1008091E80085
:1030B0008E779FC1882309F48DC1823009F09DC1AC
:1030C00080915002811190C1809152028F702FEF38
:1030D000280F263008F091C18093E9002091EB0081
:1030E00020FF82C1933031F48091EB0080628093A5
:1030F000EB007AC19091EB0090619093EB0021E09E
:1031000030E001C0220F8A95EAF72093EA0010927E
:10311000EA008091EB008860EACF81116EC11091C6
:1031200050021F778091E3008078812B8093E30029
:103130008091E800877F8093E8000E943B0B80919C
:10314000E80080FFFCCF8091E30080688093E3007B
:1031500082E0111183E080934C024FC1805882308D
:1031600008F04BC120915002309151022C3DE3E018
:103170003E07A1F583E08A838AE289834FB7F894FA
:10318000DE01139620E03EE051E2E32FF0E05093A1
:103190005700E49120FF03C0E295EF703F5FEF70AE
:1031A0008E2F90E0EA30C0F0C7968D939D932F5FED
:1031B000243159F74FBF8091E800877F8093E80062
:1031C0006AE270E0CE0101960E94E70B8091E80070
:1031D0008B778093E80011C1C096E7CF80915202AF
:1031E00090915302432F55274330510509F44AC0AB
:1031F00078F54130510509F47AC08BE590E0E3E9B8
:10320000F4E14230510509F0F8C02091E800277F31
:103210002093E800209154023091550282179307C1
:1032200008F49C0140E02115310509F065C0411109
:1032300063C08091E80082FDC9CF80914C02882351
:1032400029F2853019F28091E80083FFF2CFBECFDA
:103250004132510509F43CC04232510509F0CDC05C
:103260008330910508F0C9C0FC01EE0FFF1FE9583B
:10327000FE4F0190F081E02D8C589E4FDC018C9127
:1032800090E01AC0332721303105D1F021153105E6
:1032900061F02230310509F0B0C0E0E0F5E1E491E1
:1032A0008E2F90E0E0E0F5E107C0E8E2F5E1E4917F
:1032B0008E2F90E0E8E2F5E1009709F49EC0A5CFDB
:1032C000E8E1F5E1E4918E2F90E0E8E1F5E1F4CF5B
:1032D0008330910508F091C0880F991FFC01E358D5
:1032E000FE4F0190F081E02D89E090E08ECF82E1E9
:1032F00090E0EEEEF4E189CF80914C02882309F44E
:1033000065CF853009F462CF8091E80083FD5ECF00
:103310008091E80082FD8DCF8091E80080FF83CF0F
:103320009091F3008091F2002115310519F0883059
:10333000910550F041E0089709F040E08091E800E5
:103340008E778093E8006FCF44914093F1003196DF
:10335000215031090196E8CF803809F04EC08091A4
:10336000E800877F8093E80080914D028093F10010
:103370009DCE811142C0109150021230F0F5809123
:10338000E800877F8093E80010934D020E943B0B7A
:10339000112311F084E005C08091E30087FDFACF8E
:1033A00081E080934C0242E061EC81E00E945A0B84
:1033B00042E261EC84E00E945A0B42E261EC82E05E
:1033C0000E945A0B42E260EC83E00E945A0B80910B
:1033D0004C0213C080915002813079F481E0933027
:1033E00009F080E080934B021092E9008091E800A0
:1033F000877F8093E8000E943B0B8091E80083FF69
:103400000AC08091E800877F8093E8008091EB00FC
:1034100080628093EB00AA96E3E00C94F52F1F9254
:103420000F920FB60F9211242F933F934F935F93F8
:103430006F937F938F939F93AF93BF93CF93DF93BC
:10344000EF93FF93D091E900DF708091EC00C82FDB
:10345000C17080FDC0E81092E9008091F000877F84
:103460008093F00078940E9451171092E9008091A7
:10347000F00088608093F000CD2BCF70C093E900FE
:10348000FF91EF91DF91CF91BF91AF919F918F917C
:103490007F916F915F914F913F912F910F900FBE50
:1034A0000F901F9018950E942A172FEF84E39CE03D
:1034B000215080409040E1F700C0000088E19AE090
:1034C0000FB6F894A895809360000FBE90936000AB
:1034D000FFCF662309F472C08D3C41F40E94350D84
:1034E0008195809329020E940E1708958E3C19F44D
:1034F0000E94350DF6CF8F3C31F40E94350D819539
:1035000080932802F0CF803D19F40E94350DF8CF4A
:10351000893D29F40E94130D80932A02E4CF8A3D4D
:1035200021F40E94130D8195F7CF8B3D31F40E9459
:10353000130D819580932B02D6CF8C3D19F40E94F8
:10354000130DF8CF9FE2980F983020F5282F215DBA
:10355000330BA90121E030E001C0220F4A95EAF7C0
:1035600090912702922B90932702815D21E030E019
:10357000A90102C0440F551F8A95E2F7CA012091A4
:103580002E02662309F493C0822B80932E020E94A0
:10359000D01408958D3D31F480910C0281608093A8
:1035A0000C02A1CF8E3D21F480910C028260F7CFF6
:1035B0008F3D19F580910C028460F1CF9091280223
:1035C0008D3C59F42091290227FF0DC01092290249
:1035D00091110BC010920A0208C08E3CB1F42091E8
:1035E000290212169CF39923B1F090912A0220919E
:1035F0002B02922B11F410920B02482F415D550BB8
:103600004830510508F4B1CF6ECF8F3C39F497FFA5
:10361000EACF1092280290912902DACF803D19F466
:103620001916BCF3E0CF20912A02893D29F4121625
:10363000D4F610922A02D7CF8A3D19F427FFD3CFB0
:10364000F8CF20912B028B3D29F427FFCCCF10928D
:103650002B02C9CF8C3D19F41216CCF3C4CF2FE244
:10366000280F283088F4282F215D330BA90121E091
:1036700030E001C0220F4A95EAF7209530912702E9
:10368000232320932702AFCF20910C022E7F8D3D64
:1036900059F020910C022D7F8E3D31F08F3D09F0C5
:1036A000A2CF20910C022B7F20930C029CCF8095FF
:1036B00082236BCF8823D1F19CEF980F913A78F455
:1036C000E8E8F1E09191891303C0DF0111971C92A2
:1036D00091E0EE38F907B1F70E948214089590E264
:1036E000980F983050F4877091E001C0990F8A9537
:1036F000EAF7892F0E948B0FEFCF9BE5980F93304D
:1037000028F490E080E00E94E00C089598E5980F7E
:103710009B3128F490E080E00E94BB0C089593E375
:10372000980F933118F460E00E94691A0895CF93BE
:10373000C82F8823B1F08CEF8C0F813A00F5E8E8B0
:10374000F1E08EE891E0DF012D91C21761F08A1758
:103750009B07D1F76C2F86E891E00E94A10C0E9494
:103760008214CF9108952191C21303C0DF011197F4
:103770001C928E179F07B9F70E948214EBCF80E24C
:103780008C0F883068F4C77021E030E001C0220F50
:10379000CA95EAF78091BA01822B8093BA01DFCFF4
:1037A000EBE5EC0FE33040F4F0E0E75CFE4F8081A6
:1037B00090E00E94E00CD5CFE8E5EC0FEB3150F43F
:1037C000F0E0EE0FFF1FE45CFE4F808191810E94CC
:1037D000BB0CC7CF83E38C0F833118F661E08C2FCD
:1037E0000E94691ABECF1F93CF93DF93182FD0E0AA
:1037F000C0E0893311F4C0E5D0E0812F0E94971B0F
:10380000209739F4812F0E945A1BDF91CF911F918D
:1038100008958FE99FE00197F1F700C0000021971C
:10382000EFCF0F931F93CF93DF93C62FD42F022F89
:10383000FC0185818823A9F0609394020E940217FD
:103840009093930280939202C77081E001C0880F29
:10385000CA95EAF70E94C614DF91CF911F910F918C
:10386000089580919402681332C0809192029091E1
:1038700093020E94590C883C910548F510E21D0FF7
:10388000CD17B9F080E28C0F883040F4C77081E02A
:1038900001C0880FCA95EAF70E94BF14183048F497
:1038A00081E09D2F977001C0880F9A95EAF70E94DA
:1038B000C614802F0E94F31B183070F6D77081E079
:1038C00001C0880FDA95EAF70E94BF14C5CFC77010
:1038D00081E001C0880FCA95EAF7F6CFAFE0B0E00B
:1038E000E4E7FCE10C94CF2F8E010F5F1F4F8AE0BD
:1038F000D8011D928A95E9F78EE1C82E81E0D82E75
:10390000F12CE12CAA24A394B12C2EE1822E21E0EB
:10391000922EF60181916F018F3F09F442C0F89415
:10392000E82FE295EF70F0E021A18F70A50102C0B1
:10393000440F551F8A95E2F7CA01922F982B91A345
:1039400092A18095892382A3789400C0E8E1F1E0F8
:10395000712C31E021912F3F09F46BC0A22FA29569
:10396000AF70B0E090968C9190E02F7002C095956A
:1039700087952A95E2F780FD5CC0832F782A330F64
:103980008E169F0639F7F601319780818F3F11F02F
:103990000E94650D50EA5A95F1F7F801EE0DFF1DF2
:1039A00070828FEFE81AF80AA5E0EA16F10409F030
:1039B000B0CF4AE050E0B80184EE91E00E948E3032
:1039C000009741F02AE0F801A4EEB1E001900D92D9
:1039D0002A95E1F70091EF01892B69F181E080934D
:1039E000BF010E9402179093BE018093BD01809198
:1039F000BD019091BE010E94590C059700F110E0A5
:103A000000501E4F45E050E064EE71E0C8010E9496
:103A10008E30B12C892B51F085E0E4EEF1E0D80135
:103A200001900D928A95E1F7BB24B3941092BF01E7
:103A300007C080E0A3CF8091BF018111D8CFB12C06
:103A40000E94ED10F82EE091EF01882309F46DC07B
:103A50006E01BBE0CB0ED11C85E0D6011D928A958C
:103A6000E9F70E2F10E000501E4F8091DF018A30E1
:103A700050F546E655E1B601C8010E94BA10882308
:103A800009F442C040E155E1B601C8010E94BA10F4
:103A90008823D1F11092DF018091EE0190E045E0A2
:103AA00050E0B60180509E4F0E948E3021E020935E
:103AB000C601892BE1F4F12C1F2D812F8B292F9624
:103AC000EDE00C94EB2F8091C0019091C1010E9418
:103AD000590C843F914068F68091C601882359F3C0
:103AE00085E0F60111928A95E9F71092C601A0913E
:103AF000EE01B0E0A050BE4F85E0FE013B96019084
:103B00000D928A95E1F7D8CF8091DF018F3F31F098
:103B10008F5F8093DF018A3008F4BECF0E940217C6
:103B20009093C1018093C001D7CFF0E0E050FE4FE9
:103B300085E0A2EDB1E001900D928A95E1F782ED6A
:103B400091E00E94D40A8093D101C090D701D09017
:103B5000D801E090D901F090DA018091C2019091F2
:103B6000C301A091C401B091C501C816D906EA06E7
:103B7000FB0611F410E0A1CFC092C201D092C301A4
:103B8000E092C401F092C5010E94ED10182F81113E
:103B9000F1CF0E94680CC61AD70AE80AF90AC09247
:103BA000E001D092E101E092E201F092E30185CFE1
:103BB00088E00E944E100E94021790932402809386
:103BC000230282E0809325020895AEE1B0E0EBEE9F
:103BD000FDE10C94D62F40912D0250912E02609160
:103BE0002F027091300280913102909132020E9436
:103BF000341320932D0230932E0240932F025093C2
:103C00003002609331027093320286E0EDE2F2E01E
:103C1000DE01179601900D928A95E1F786E0FE018C
:103C20003796DE011D9601900D928A95E1F786E0A8
:103C3000FE013D96DE01119601900D928A95E1F705
:103C400086E0FE013196ADE2B2E001900D928A95D8
:103C5000E1F786E0EDE2F2E0DE01599601900D9287
:103C60008A95E1F786E0FE017996DE0117960190CC
:103C70000D928A95E1F70B8DEC8C9E2D902B809107
:103C80002502992309F42CC1002E000C110B0E2CD7
:103C9000000CFF088230F1F188F4813009F4F7C09C
:103CA0000E940217909324028093230281E0809364
:103CB0002502109218021092170232C0833099F137
:103CC000843071F7980117FF04C022273327201B87
:103CD000310BC701F7FE04C0882799278E199F0969
:103CE000880F991F281739070CF042C080911F02D6
:103CF00090912002E80EF91E40E0F7FE26C17EEC0E
:103D0000E7167FEFF7067CF1F0922002E0921F02A7
:103D100080E041C00E940217909324028093230206
:103D200080E020E069C0C701F7FE04C0882799271A
:103D30008E199F09980117FF04C022273327201BE3
:103D4000310B280F391F8091210290912202821B92
:103D5000930B90932202809321021816190604F700
:103D600080E020E045C022E3E20EF11C4E5CC5CFAE
:103D700080911D0290911E02080F191F80E017FF0D
:103D8000EEC00E3C9FEF19070CF47AC010931E0290
:103D900000931D0240E0082E000C990B62E370E0D6
:103DA0000E94153080911C0281116EC081E090E06C
:103DB000689F9001699F300D789F300D1124642F0A
:103DC000772761950CF47095CB0162E370E00E9457
:103DD000153080911B0241E050E0882311F04FEF35
:103DE0005FEF649FC001659F900D749F900D11243B
:103DF000F12CE12C10E000E00987EA868B872C8704
:103E000086E0FE013796DE01119601900D928A95AB
:103E1000E1F786E0FE013196DE01539601900D92A6
:103E20008A95E1F786E0FE017396DE011796019010
:103E30000D928A95E1F786E0FE013796ADE2B2E099
:103E400001900D928A95E1F786E0E6E2F2E0DE016C
:103E5000179601900D928A95E1F780912E02988530
:103E6000892B80932E020E94D01481116BC0809107
:103E70002C0210922C0281706E96E6E00C94F22FC8
:103E80000E5C1F4F8E5C7BCF8FEF9FEF91CFC701F2
:103E9000F7FE04C0882799278E199F09980117FFFC
:103EA00004C022273327201B310B820F931F209140
:103EB000170230911802820F931F9093180280937B
:103EC00017022091190230911A02821793070CF4FD
:103ED00027CF10921802109217020E94D81D20CFEF
:103EE000823071F048F4813019F11092180210926A
:103EF00017021092250234CF853008F431CFF5CF68
:103F000080912302909124020E94590C893E934093
:103F100008F426CF1092250288E00E942A10109201
:103F2000200210921F0210921E0210921D0218CF42
:103F300080912302909124020E94590CC39708F4A7
:103F40000FCFD3CF81E090E094CF83E3E816F10464
:103F50000CF4DACE62E3E61AF1084253CECE033314
:103F600011050CF413CF02531109825308CFA4E1B9
:103F7000B0E0EDEBFFE10C94CC2F8C01DC0114964A
:103F80008C911497882309F4B8C021E04C911196C4
:103F90005C91119712966C91129713967C911397DE
:103FA00015969C910E94F6127C01F8018581882368
:103FB00009F43CC1970137572038310508F0D7C5BF
:103FC000FFE0FE1508F489C08FEF93E00E943630C1
:103FD000811183C061E8A62E62E0B62EE11047C0D1
:103FE000FE01339686E0DF011D928A95E9F75AE0DB
:103FF000452E7501BFEFEB1AFB0AC5010E94363052
:1040000089831A82882309F468C0813009F079C055
:104010006501E2E0CE0ED11CC7010E9436308A83D2
:10402000882309F45AC09FEF980F933070F5F3E09E
:10403000AF0EB11CC6010E9436308B83882309F471
:104040004CC01C82DE0111967D01F70120812223E4
:1040500081F2213009F095C091818281913009F07F
:1040600052C0F2E0EF0EF11C0E94F31B53C0A114EA
:1040700024E0B20691F1C5010E943630811101C0E1
:10408000EA943FEFA31AB30AA9CF56018430D1F6C0
:1040900042E0E42EF12C56012FEFA21AB20AC6011B
:1040A0000E943630E1E0F0E0EC0FFD1FEE0DFF1D49
:1040B0008083882391F08C3741F4E2E0F0E0EC0F4C
:1040C000FD1FEE0DFF1D1082BDCF3FEFE31AF30A77
:1040D000650187E0E816F104F1F68091AF01877081
:1040E00061F0D80115968C91882339F08091F30105
:1040F00082FF03C082E00E9437106496E0E10C94D6
:10410000E82F57019FCF923049F422E0E20EF11CD4
:104110000E94971BEFEFEE1AFE0A97CF933031F40F
:1041200032E0E30EF11C0E945A1BF4CF943021F0D0
:104130008FEFE81AF80AEECF92E0E90EF11C30E0BA
:1041400020E0B7016F5F7F4FD70111964C918053EC
:10415000990B8A30910550F021503109D8F2EFE9DE
:10416000FFE03197F1F700C00000F6CF429EF0016A
:10417000439EF00D11249C012E0F3F1F842F7B01C5
:10418000E0CFE22FF0E0E354FE4F5490822F86956B
:104190008695869590E0FC01E355FE4F649027706C
:1041A000712C022E02C0759467940A94E2F731E0F4
:1041B00063227724FC01E356FE4F8490912C022E5B
:1041C00002C0959487940A94E2F7A1E08A22992488
:1041D000FC01E357FE4FC490D12C02C0D594C79484
:1041E0002A95E2F7B1E0CB22DD246114710419F0C5
:1041F00081EE0E94971B8114910419F086EE0E94B3
:10420000971B852D0E94F31B8114910419F086EEF3
:104210000E945A1B6114710419F081EE0E945A1B0E
:10422000C114D10409F476CF8CE21ECFF701E0541B
:10423000FE47E830F10508F0B3C0E055FF4C0C94A0
:10424000293096E0EDE2F2E0DE01199601900D9240
:104250009A95E1F796E0FE013996DE011F960190EE
:104260000D929A95E1F79A85F0E4EF1AFEE7FF0ABE
:1042700021E030E00E2C01C0220F0A94EAF78823D7
:1042800061F1F92EF22A83E0809325028EE190E01D
:1042900090932202809321020E94D81DF88A86E022
:1042A000FE013F96DE01119601900D928A95E1F78D
:1042B000BE016F5F7F4F8DE292E00E94740C80938D
:1042C0002C0286E0FE013196ADE2B2E001900D9243
:1042D0008A95E1F70E94D01400CF2095F22EF922A2
:1042E000DBCF882321F084E080932502F6CE0E9464
:1042F000D81DF3CE882309F4F0CE80911902909155
:104300001A02059690931A0280931902409119029D
:1043100050911A0260911B0270911C0283E190E09F
:104320000E946C30DACE882309F4D7CE809119022E
:1043300090911A0205978530910524F785E090E069
:10434000E1CF882309F4C9CE80911B0291E089272F
:1043500080931B02DBCF882309F4BFCE80911C021F
:1043600091E0892780931C02D1CF80912502835050
:10437000823008F4BCCF23EEE216F104D9F030EE1F
:10438000E316F104B9F01092250288E00E942A1089
:104390001092200210921F0210921E0210921D0213
:1043A000F701E851FC47E730F10528F5E854FF4CE8
:1043B0000C9429300E94D81DF3CF26E241EE61EE25
:1043C000C8010E94111C89CE27E245EE65EEF8CFA8
:1043D00026E241EE60EEF4CF27E245EE64EEF0CF48
:1043E00026E241EE62EEECCF27E245EE66EEE8CF44
:1043F00028E241E0EBCFD80115968C91882309F48F
:104400009EC310929402C7019057839708F080C30F
:1044100084E090E00E9444309093F3018093F20195
:10442000F701E150F047E232F10520F4E154FF4C8E
:104430000C9429308091F20181608093F20195C043
:104440008091F30188608093F3018FC08091F20125
:104450008260F3CF8091F2018460EFCF8091F2010E
:104460008860EBCF8091F3018160EDCF8091F30103
:104470008260E9CF8091F2018061DFCF8091F2010B
:104480008062DBCF8091F2018064D7CF0E942A172F
:104490008091F2018068D1CF8091F2018C60CDCF04
:1044A0008091F3018360CFCF8091F2018E7FC5CFE1
:1044B0008091F301877FC7CF8091F2018D7FBDCFBF
:1044C0008091F2018B7FB9CF8091F201877FB5CFC8
:1044D0008091F3018E7FB7CF8091F3018D7FB3CFB1
:1044E0008091F2018F7EA9CF8091F2018F7DA5CFBF
:1044F0008091F2018F7BA1CF0E942A178091F20157
:104500008F779BCF8091F201837F97CF8091F301CA
:104510008C7F99CF8091F20182FB992790F921E05D
:10452000922790FB82F990FB83F987CF8091F3016A
:10453000982F909591708E7F892B90FB81F983CF76
:104540009091F201892F8F7B96FF806476CF0E9435
:104550002A179091F201892F97FB87F980586DCF28
:1045600061E08EE090E00E945A306091F20170911B
:10457000F30184E090E00E9478300E942A17ADCDCC
:1045800060E0EFCF9091F201892F8F7E94FF8061E0
:1045900054CF9091F201892F8E7F90FF81604DCF93
:1045A0009091F301892F877F93FF88604CCF85E33B
:1045B000D0C281E00E944E1003C081E00E942A1008
:1045C00043E062E081E00E940A1087CDB3E0EB1681
:1045D000BCE7FB0609F47DC008F05CC0E114FCE711
:1045E000FF0609F469C021E0E2162CE7F20609F49F
:1045F00076C0F8018581E080F180882309F47DC0D0
:10460000C7010E949712D82E682FC7010E94D00FB1
:10461000B7018D2D0E9489120E946D0E7C01882E9B
:10462000D8011596AC90159716969C9092943FE001
:1046300093228091AF018770F1F0CA2CAA20E1F09B
:104640008F2D807F803451F080E28E0D883098F07D
:10465000911004C08F2D807E803269F08091F3012B
:1046600082FF09C082E00E9437108091AF018770FD
:10467000CC24C3948111C12CBF2CB2942FE0B22260
:10468000BBE0BB1508F4A1C0EB2DF0E0EF51FF4CEF
:104690000C9429303BE5E3163CE7F30661F18CE529
:1046A000E8168CE7F806E9F09AE5E9169CE7F906C2
:1046B00009F09FCF81E01CC00E942A17AFEFB4E33E
:1046C000ECE0A150B040E040E1F700C000000E94E3
:1046D000480C6FEF7FEF90E080E00E9478300E94FE
:1046E000531A8091F30182FB882780F991E0892792
:1046F0000E94F9147ECF80E0FBCFC7010E949C0F7F
:10470000D82E86CFEF2DEF70DE2E8F2D807F19F003
:10471000D29490EFD922AA20B9F0DD2069F080E28E
:104720008E0D883010F0811009C08091BA01D82A0E
:10473000D092BA010E9482148E2D45C08091B90199
:10474000D82AD092B901F6CF8E2D0E945A1BDD20B7
:10475000E1F180E28E0D883010F0811004C08D2DC3
:104760000E948B0F06C0D0948091B901D822D092BC
:10477000B9010E94821429C0FF2DFF70DF2E8F2DFA
:10478000807F803219F0D29480EFD822882059F0AF
:1047900021E0821609F481C0AA2009F48DC0992075
:1047A00009F44FC0C9CF8091F30182FD46C0AA2011
:1047B000F1F1DD2039F08091BA01D82AD092BA0106
:1047C0000E94821480E00E94971BAB2DA850BB0B67
:1047D000149710F40E941211CC20A9F08091AF011F
:1047E00080FD11C0F80115828695869586950E94F8
:1047F0004E10C8010E94B71F8091AF018695869523
:1048000086950E942A1020E0D8014C9111965C9167
:10481000119712966C91129713967C911397149698
:104820008C91149715969C910E94F61266CC80E0AC
:104830000E945A1BDD2049F292CFAA20A1F09110CC
:1048400004C08D2D0E94C614C0CF31E09312BDCF9D
:104850008091B8019D2D9823D91609F4B6CFD82A96
:10486000D092B801B2CF9110B0CF8D2D0E94BF145D
:104870009091B8018D2D892329F08D2D8095892364
:104880008093B80180918F019D2D982309F49DCFCD
:10489000D094D822D0928F0198CFAA2029F085E019
:1048A000891508F492CFCDCF94E0991508F48DCFF7
:1048B0008D2D0E94BF1489CF9920D1F3A9E38A12CC
:1048C00009C0BFEFE7EEF3E0B150E040F040E1F7A0
:1048D00000C000008E2D0E945A1B77CF8F2D869529
:1048E0008695837061F0813009F06FCFC7019370B6
:1048F000A11002C080E090E00E94BB0C66CFC7010F
:104900009370A11002C080E090E00E94E00C5DCFA7
:104910006A2D8E2D0E94691A58CF8F2D837091F5C4
:10492000A11053CF4E2D429546954770440F440F2A
:104930008E2D8F70042E01C0880F0A94EAF72E2D59
:104940002071E4FE07C02FE030E001C0220F4A953D
:10495000EAF720953F2D369536953370323069F061
:1049600050F44091F001313029F0822B84230E94D1
:104970005A102BCF842B822BFACF282B8091F00159
:104980008227F5CF8695AA2011F08F2D817088237C
:1049900009F41BCF4E2D429546954770440F440FA6
:1049A0008E2D8F70042E01C0880F0A94EAF72E2DE9
:1049B0002071E4FE07C02FE030E001C0220F4A95CD
:1049C000EAF720953F2D369536953370323069F0F1
:1049D00050F44091F101313029F0822B84230E9460
:1049E0000710F3CE842B822BFACF282B8091F10174
:1049F0008227F5CF2F2D2F70F22EAA2029F0822F9B
:104A00000E944E108E2D1ECF8E2D0E94BF148F2D12
:104A10000E942A10DACE8E2D32EF8316B1F13815AE
:104A200070F090EF8916D1F0A1EF8A1691F0AA20CC
:104A300009F45EC0911080CE8F2D8F712AC0B3EF24
:104A40008B1651F1E4EF8E12F2CF8091F30182FDCB
:104A50002FC08F2D8F71AA20D9F21BC0AA2081F000
:104A6000F4E0F91508F4B1CE2F2D2F7181E090E01C
:104A700001C0880F2A95EAF79091F1018927AFCFFD
:104A800025E0291508F4A1CEEFCF8F2D8F71A1104D
:104A9000BFCF0E944E1099CE80E0AA2009F49FCF8C
:104AA0009F2D9F7181E001C0880F9A95EAF797CFFB
:104AB000AA2099F03F2D3F71F32E832F0E944E10B4
:104AC0008091F30182FF07C0A8E0FA9EC001112483
:104AD00083608093AF018F2DDCCF81E00E9437107F
:104AE000B1E0B91508F071CE82E00E9437106DCEAA
:104AF000992059F0893309F0EDCEEFEFF7EE23E07E
:104B0000E150F0402040E1F7E3CE8F2D8F7180CF50
:104B1000B6E1EB16BCE7FB06A9F58091BA018A7AEB
:104B200091E009F490E090938E0169E2811165E3D0
:104B300086E891E00E94A10C0E948214CECAE6E1B0
:104B4000EE16ECE7FE0661F580918E0181112FCD06
:104B500089E2E8E8F1E02EE831E09191891303C0A1
:104B6000DF0111971C922E173F07B9F7E5CFF70128
:104B7000E054FE47E830F10508F0F7CBE351FF4C75
:104B80000C942930F7E7EF16FCE7FF0609F411CD86
:104B900028E7E2162CE7F20609F018CD82E00ACDEC
:104BA00037E7E3163CE7F30609F407CD88E7E81694
:104BB0008CE7F80609F01DCD82E000CDCF93DF939E
:104BC0008091AE01807F09F04DC08091AD018823B6
:104BD00009F448C0E091910250915802C091A90196
:104BE000D091A8016091AA017091AB0147E05E17D6
:104BF000C9F18E2F90E0E49FF0011124E75AFD4F98
:104C00002481222391F1489FF001499FF00D112446
:104C1000DF01A75ABD4F11962C9111972C1325C077
:104C20002C912D1322C015962C91159721111DC082
:104C300012962D913C91261B370B283C3105A8F488
:104C40008091AE018F7080618093AE01E15AFD4F7B
:104C500080818F708061808388EA91E00E94B71F15
:104C60000E94920FDF91CF910895FC013196E77079
:104C7000BECFA4E1B0E0EFE3F6E20C94D02F8C01BC
:104C800086E0F801DE011F9601900D928A95E1F70A
:104C9000F8018481E58098EAA92E91E0B92E9091DF
:104CA000AC01911128C0882319F1EE20F1F0C80160
:104CB0000E94D312F82E8823C1F087E0F801D501B5
:104CC00001900D928A95E1F78091AC01813031F429
:104CD0008091A8019091A9010E94C6120E94DE2530
:104CE0008F2D6496ECE00C94EC2FC8010E94B71F46
:104CF000FF24F394F5CFD080C18082809380F09020
:104D0000AD012091AA013091AB01A401421B530BCC
:104D1000FF2009F4D9C0483C510508F092C088230F
:104D2000F9F29091A9018091AE01282F207F09F01E
:104D300056C0C91214C09091A801D91210C0E11038
:104D400048C08F7080618093AE0188EA91E00E9434
:104D5000B71F8091AE01F8018683F12CC1CFE1101D
:104D600038C06C2D8D2D0E94B50A6C2D8D2D0E94A2
:104D7000B50AE82E8111F1CFDF86C88A8F85988920
:104D80000E94C612292F22952F70243058F49F704C
:104D9000223088F0992399F0F8019681907F79F478
:104DA000FE2C9ECF2A5F2F70223068F0C8010E942F
:104DB000B71FEF2CF5CF992311F0882389F3805E7C
:104DC000883070F3F3CF803F58F3815F833070F702
:104DD000E7CF8091AE0181608093AE01BECFC91252
:104DE00007C09091A801D91203C0EE2009F48DC02C
:104DF000C8010E94D312882309F477CFEE2009F46A
:104E000074CF8091AE01803288F02091A80130915A
:104E1000A901398728879B868A869091AC019C8757
:104E20001D868E87CE0108960E94B71F87E0F80185
:104E3000A8EAB1E001900D928A95E1F70E94DE2583
:104E400057CF9091AE01292F207F51F488EA91E04D
:104E50000E94B71F87E0F50111928A95E9F77DCF8F
:104E6000882309F43DCF8091A9018C1110C0809155
:104E7000A801D8120CC0E1100AC09683C8010E9494
:104E8000B71F87E0F50111928A95E9F729CFC8018C
:104E90000E94D312882309F428CFEE2009F425CFED
:104EA0008091AE01803210F22091A8013091A901C9
:104EB0003A8329839C828B829091AC019D831E82D0
:104EC0008F83CE010196B0CF483C5105D0F68823A0
:104ED00009F40ECFFE2CEE2009F407CF8091A90132
:104EE0008C1120C08091A801D8121CC08091AE0105
:104EF00080FD0FC0982F907F61F08683903F31F046
:104F0000982F907F905F8F70892B8683C8010E94B5
:104F1000B71F87E0F801A8EAB1E001900D928A95E9
:104F2000E1F7DECEC8010E94D31281117FCF8091BC
:104F3000AE0181608093AE01C8010E94B71FD0CE40
:104F4000ABE1B0E0E6EAF7E20C94D82F4E8B5F8B32
:104F5000688F798F8A8F9B8F192F91111092B901C9
:104F60001D8A86E0FE017696DE011F9601900D9265
:104F70008A95E1F70A8D002341F021E04F85588999
:104F800069897A89C8010E94F6120B8B1C8B87E015
:104F9000FE013F96DE01189601900D928A95E1F789
:104FA000CE0108960E94392681110CC087E0FE01CF
:104FB0003896DE01119601900D928A95E1F78C8565
:104FC00081110BC017E080919102909158028913D2
:104FD00031C06B96E4E00C94F42F2091580230E03D
:104FE000C9010196877099274091910248171906C7
:104FF00099F097E0929FD001939FB00D1124A75A8A
:10500000BD4FFE01319601900D929A95E1F7809384
:1050100058020E94920FD6CF0E942A17109258026F
:105020001092910287E0E8EAF1E0DF011D928A9593
:10503000E9F7C8CF819FC0011124875A9D4F0E9474
:105040003926882331F28091910290E00196877091
:10505000992780939102B7CFA6E0B0E0E2E3F8E2AF
:105060000C94D82F0E9402178C018091BB01909163
:10507000BC018017910781F019821A820E940217E1
:10508000682F49815A81792F80E090E00E94A02703
:105090001093BC010093BB012696E4E00C94F42F1E
:1050A0001F921FB61F9211248F939F93AF93BF93AC
:1050B00080913A02811113C080913B0290913C0291
:1050C000A0913D02B0913E024196A11DB11D809379
:1050D0003B0290933C02A0933D02B0933E02BF91ED
:1050E000AF919F918F911F901FBE1F901895CDB7C4
:1050F000DEB7A6970FB6F894DEBF0FBECDBF85B75B
:10510000806885BF85B7806885BF84B7877F84BF87
:105110000FB6F894A8958091600088618093600034
:10512000109260000FBE80E890E00FB6F894809374
:105130006100909361000FBE83E69DE0909385012E
:10514000809384010E94EB0A0E948C0B8091E20004
:1051500084608093E200789480914C028823A1F0CF
:105160001091E9001F709091EC00892F817090FDE3
:1051700080E8182B1092E9008091E80083FD0E94DE
:1051800051171F701093E90082E084BD93E095BD34
:105190009AEF97BD80936E001092E0011092E101AA
:1051A0001092E2011092E3010E941B13811102C0D0
:1051B0000E944A120E943D11809323010E94ED102B
:1051C00081110E94682E8091230181112CC085E0FD
:1051D000EEE2F1E0DE01919601900D928A95E1F701
:1051E00089A180931E018AA180931F018BA18093C6
:1051F00020018CA1809321018DA18093220186E062
:10520000E3E3F1E0DE01119601900D928A95E1F75A
:10521000FE013196A8E1B1E0CE01079621912D93D0
:10522000E817F907D9F78091230195E0811190E003
:105230009093EF0185E0891B8093EE010EE111E070
:1052400053E2E52E51E0F52ED8018D918D018F3F6F
:1052500011F00E94650DE016F106B1F708E111E0CA
:10526000F80181918F018F3F11F00E94650DF1E0EF
:105270000E311F07A9F78AE0E0E0F2E0DF01282FF6
:105280001D922A95E9F7E4EEF1E0DF011D928A957F
:10529000E9F790E080E00E944430863E9E4F21F482
:1052A0000E941B1381117AC066EE7EEF90E080E0D1
:1052B0000E94783060E082E090E00E945A3060E026
:1052C00083E090E00E945A301092F00160E074E1B7
:1052D00084E090E00E94783060E086E090E00E94F8
:1052E0005A306FEF87E090E00E945A3040E050E083
:1052F000BA0188E090E00E946C3060E084E290E0C7
:105300000E945A3060E087E190E00E945A3060E0ED
:105310008CE090E00E945A3060E08DE090E00E94C6
:105320005A3019821A821B821C821D821E821F82A1
:10533000188648E050E068E170E0CE0101960E94D6
:105340004A3040E050E0BA0180E290E00E946C30C8
:1053500080E00E9431120E944A1240E050E0BA01FF
:105360008FE090E00E946C301092190210921A02A5
:1053700010921B0210921C0282E390E090931A029A
:10538000809319024091190250911A0260911B02F8
:1053900070911C0283E190E00E946C3082E090E00A
:1053A0000E9436308093F40184E090E00E94443003
:1053B0009093F3018093F2010E946E1CEFEFF6E7E9
:1053C00021E0E150F0402040E1F700C000000E94E1
:1053D0006E1C8091000280FF08C06FEF7FEF90E0AD
:1053E00080E00E9478300E94480C83E090E00E94A8
:1053F00036300E945A100E94ED10811102C00E94A6
:105400006B2E0E94E61383E190E00E943E30609391
:10541000190270931A0280931B0290931C0284E27B
:1054200091E0909337028093360228E1622E712C2E
:105430003AE0E32E32E0F32E4FEFC42E41E0D42EBB
:1054400080914C0200E112E1853009F481C00E9494
:105450006E1C05EF11E090E0A92E92E0B92ED50167
:10546000F80191918D91CE16DF0609F47BC0981753
:10547000C1F30E94ED10282E912CD5018D905D0175
:10548000F80131908F01381431F13824512C442423
:105490004394832D8421B9F02220A9F059A29AA225
:1054A0000E9402179CA38BA3F1E0FDA391E0882D3D
:1054B000842109F490E09EA349A15AA16BA17CA18B
:1054C0008DA10E94A0275394440C26E05212E1CFF4
:1054D000F8013197808293948AE09812CECF0E948F
:1054E000231144C080914C02843021F10E94E51DBB
:1054F00010923A0280E40FB6F894A895609260008A
:105500000FBE8093600083B7817F846083BF83B7C1
:10551000816083BF7894889583B78E7F83BF0FB6F1
:10552000F894A89580916000886180936000109243
:1055300060000FBE80914B02882351F00E946E1CC8
:10554000E0E0F2E08191811136C2EE16FF06D1F75C
:1055500080914C02853009F4C5CF0E942A170E9421
:10556000121175CF981385CF0E942C280E94ED1040
:105570000E94E51D81110E94231186E0E6E2F2E01F
:10558000DE01119601900D928A95E1F710922802A2
:105590001092290210922A0210922B028B819C8178
:1055A000892B09F447C080910F02909110020E944C
:1055B000590C9C0190910A02992309F420C22531CB
:1055C0003105C0F19F3F19F09F5F90930A021B8144
:1055D000112359F00E94350D9FEF11160CF491E044
:1055E000899F802D1124809328021C81112359F05A
:1055F0000E94350D9FEF11160CF491E0899F802DCC
:1056000011248093290280912802882399F0109117
:105610002902112379F00E94550D882309F4A7C0AF
:1056200080932802812F0E94550D882309F4A1C080
:10563000809329028D819E81892B09F447C0809136
:105640000D0290910E020E94590C9C0190910B0248
:10565000992309F4CFC121353105C0F19F3F19F0DD
:105660009F5F90930B021D81112359F00E94130D2F
:105670009FEF11160CF491E0899F802D11248093E7
:105680002A021E81112359F00E94130D9FEF11165B
:105690000CF491E0899F802D112480932B0280913E
:1056A0002A02882399F010912B02112379F00E948D
:1056B000550D882309F45FC080932A02812F0E9430
:1056C000550D882309F459C080932B02BE016F5FEA
:1056D0007F4F86E292E00E94740C81110CC0809191
:1056E000280290912902892B90912A02892B90916E
:1056F0002B02892B11F00E940E1786E0FE013196D5
:10570000A6E2B2E001900D928A95E1F70E94121193
:105710009091FF01891721F08093FF010E94680C8E
:1057200080914C02843009F08BCE83E08093E900B5
:105730008091E80082FF84CE8091E80090E085FFB0
:1057400005C00E940A0B8823D1F091E08091E80007
:105750008B778093E800992309F472CEE981E150B8
:10576000E331B0F5F0E0EB50FF4C0C94293081E0D0
:1057700057CF81E05DCF81E09FCF81E0A5CF80E270
:10578000A82EB12C8E010F5F1F4F8091E80085FD80
:105790000AC08091E8008B778093E8000E940A0B92
:1057A000882399F3D2CF8091F100D8018D938D0198
:1057B000B1E0AB1AB10849F7C8CF1A828CE08B83ED
:1057C0001BC08A81823009F40CC128F4813061F059
:1057D0008FEF898311C08330C1F08430C9F71B82F9
:1057E0001C821D821E8208C00E94680C0E942F30FD
:1057F0006B837C838D839E8340E250E0BE016F5FAC
:105800007F4F82E00E945D101BCE2B81822F90E0A3
:10581000FE013496245E8A30910570F7DC01A050B9
:10582000BE4F3C91319301962813F5CFE5CF8A8185
:10583000823019F0853001F3CBCF6B817C818D8173
:105840009E810E942F3088E290E00E945A30D4CF8F
:105850004C816B818A810E945A1298278927982748
:105860009E838D83C9CF2D813E8132272327322706
:105870004C816B818A810E94D311BECF0E94F911A5
:10588000BBCF80E18A83B8CF81E08A838FE797CF4F
:105890000A811B81102701271027FE0131965F0125
:1058A0008C80CF01880D911D4C01C8018F579D4FF1
:1058B000A814B90409F4A0CF0F37A1E01A0750F4D7
:1058C0000E943630F50184830F5F1F4FBFEFAB1A84
:1058D000BB0AEBCFD50114961C92F6CF0A811B812F
:1058E000102701271027FE0131964F01AC80A00E32
:1058F000B12EB11CC8018F579D4F0A151B0509F425
:105900007BCF0F37F1E01F0728F4D40114966C9178
:105910000E945A30BFEF8B1A9B0A0F5F1F4FEACFCE
:105920000E94C31169CF85E0ADCF0A811B8110278A
:1059300001271027FE0131965F018C80CF01880D71
:10594000911D4C01C80189968A149B0409F454CF17
:105950000835A2E01A0750F40E943630F50184831E
:105960000F5F1F4FBFEFAB1ABB0AECCFD5011496E8
:105970001C92F6CF0A811B81102701271027FE01F8
:1059800031964F01AC80A00EB12EB11CC801899692
:10599000A016B10609F430CF0835F2E01F0728F44D
:1059A000D40114966C910E945A30BFEF8B1A9B0A57
:1059B0000F5F1F4FEBCF09BD19BD09B400FEFDCF2E
:1059C0008091D8008F7D8093D8008091E000826024
:1059D0008093E0008091E00081FDFCCF0E942A17B7
:1059E000B7CD88E290E00E9436301B821C821D8277
:1059F0008E8302CF2B30310508F032CE67CE2B30AC
:105A0000310508F0E1CD16CE289A219A229A2398E2
:105A10002B9880E58CBD089590912D019F3F09F052
:105A200071C08F3F09F46EC0611144C0109296029C
:105A300090919602423009F441C0433009F442C0CB
:105A400094604130E1F141E050E042175307E0F14A
:105A5000909196024031510509F452C0C0F5423090
:105A6000510509F446C04830510509F446C09CB5BB
:105A700020919602922B9CBD90919502992319F04A
:105A80009DB591609DBD80932D01E82FE295EF704B
:105A9000F0E031A1282F2F7081E090E001C0880F45
:105AA0002A95EAF7382B31A392A18095892382A306
:105AB00081E0089590E290939602BACF9860909317
:105AC0009602C1CF9C60FBCF440F551FBECF403420
:105AD000510549F04038510541F04032510539F641
