:100000000C947D0A0C949A0A0C949A0A0C94502A27
:100010000C949A0A0C949A0A0C949A0A0C949A0AD0
:100020000C949A0A0C949A0A0C94E8180C94A4184C
:100030000C94D3240C949A0A0C949A0A0C949A0A5D
:100040000C949A0A0C949A0A0C949A0A0C949A0AA0
:100050000C949A0A0C94C1190C949A0A0C949A0A5A
:100060000C949A0A0C949A0A0C949A0A0C949A0A80
:100070000C949A0A0C949A0A0C949A0A0C949A0A70
:100080000C949A0A0C949A0A0C949A0A0C949A0A60
:100090000C949A0A0C949A0A0C949A0A0C949A0A50
:1000A0000C949A0A0C949A0A0C949A0A0501090273
:1000B000A10185020901A1000509190129081500FE
:1000C0002501950875018102050109300931158165
:1000D000257F95027508810609381581257F9501D0
:1000E00075088106050C0A38021581257F95017572
:1000F000088106C0C00660FF0961A1010962150000
:1001000026FF009520750881020963150026FF006F
:10011000952075089102C005010906A1010507197E
:10012000E029E71500250195087501810295017503
:100130000881010507190029FF150026FF00950613
:100140007508810005081901290515002501950587
:1001500075019102950175039101C0000000000036
:10016000000000000000000000000000000000008F
:100170000000000000000000000000000000007E01
:100180000F00D4FFFFFFC700000078000000000050
:100190000000002A2B2800000000000000000000E2
:1001A00000000000000029000000002C1E34202167
:1001B0002224342627252E362D3738271E1F2021AE
:1001C00022232425263333362E37381F040506070D
:1001D00008090A0B0C0D0E0F101112131415161727
:1001E00018191A1B1C1D2F3130232D350405060745
:1001F00008090A0B0C0D0E0F101112131415161707
:1002000018191A1B1C1D2F3130354C01048E966EA7
:10021000773EFE7E5F1DB8F2664EFF5D19B0C204E8
:1002200069542AD62EBFDD19B0C3E529B1E023A554
:10023000A9B1C10082674C1A978D795120C7068EEB
:100240007C7C7A764FFD5930E2460E9EBEDF1D99CA
:1002500091A0A5A1A9D022C6EF5C1B958990A2A769
:10026000CCFB5528B3E44AF76C3BF46A562EDE1FEC
:100270009DB8D3058892A6CE1EBEDF1D99B0E2467A
:10028000EF5C07115D980B9D9497EE4E45336B44E0
:10029000C729562730C6A7D5F256DFB43862CBA09F
:1002A000B6E30F84062405656F7689B5774127820A
:1002B000666582CCD5E620D52717C5F803237C5F79
:1002C00064A51DC1D636CB4CD4DB66D78BB1997EE5
:1002D0006F4C364006D6EBD7A2E4F495515A5496AB
:1002E000D55344D78CE0B94068D218E9DD9A2392FF
:1002F00048EE7F43AFEA7738848C0A72AF69F8DD45
:10030000F12483A3F84ABFF59413DBBBD8B4B3A0A0
:10031000FB4550603059123171A2D313E7FAE7CE92
:100320000F63150B6B94BB378326059DFB4692FC30
:100330000A15D10D7392D68C1B8CB8558ACEBDFE92
:100340008EFCED0912839182513123FBB40C76AD02
:100350007CD9B44BB26714099C7F0C18BA3BD68E7B
:10036000142AE41B529F2B7DE1FB6A3302FAAC5A3C
:10037000F23E887EAED1F378E805D1E3DC21F6E1E8
:100380009ABD170ED9469B8803EAF666BE0E1B502F
:1003900049964097F1F1E480A66EE87734BF294092
:1003A00044C2FF4E98D39CA3322B76510409E7A98F
:1003B000D1A632B12353E247ABD6F5695C3E5FFA72
:1003C000AE4520E5D244FF39326DFD27575CFDF084
:1003D000DEC1B599E5F51C770175C56D5892F2B28D
:1003E00047000126967A30FFB7F0EF77C18A5DDCCF
:1003F000C0D129301E77387A94F1B87A7EEFA4D133
:10040000AC314AF25D643DB2E2F00899FC70EE2432
:10041000A77EEE1E20697D44BF8742DF883B0CDA51
:1004200042C904F94550FC838F116A72BC9995F05A
:10043000AC3DA73BCD1CE2887937115F3989950A1D
:1004400016847AF68AA428E4ED83803BB123A503C1
:1004500010F466EABB0C0FC5EC6C69C5D324ABD4B1
:100460002AB799887608A0A8957CD8386DCD59020E
:10047000514BF1B52B50E3B6BDD072CF9EFD6EBB94
:1004800044C8248A77188A1306EF977DFA81F031E1
:10049000E6FA77ED3106315B548A9F3068DBE24043
:1004A000F84E73FAAB748B105813DCD2E678D13265
:1004B0002E8A9F2C58064827C5A95E814789462168
:1004C000910370A43E889CDA330ACEBC8B8ECF9FFA
:1004D000D3718043CF6BA95183763082C56A853949
:1004E00011501A82DC1E1CD57DA9719933471997CA
:1004F000B35AB1DFEDA4F2E62684A2289A9EDFA6C5
:100500006AF4D6FC2E5B9D1A2A2768FBC183214B17
:1005100090E036DD5B314255A013F7D089537199D5
:10052000570929C5F321F8372F40F3D4AF16083601
:1005300002FC77C58B049056B9C9679A99E800D335
:1005400086FF972D08E9B7B391BCDF45C6ED0F8C48
:100550004C1EE65B6E3830E4AAE395DEB9E49AF50A
:10056000B2559A879BF66AB2F2779A31F47A31D112
:100570001D04C07C32A29E9AF562F8278DBF51FF00
:10058000D3DF64373F2A6F763A7D77069E777F5EAA
:10059000EB3251F916669A09F3B008A4709646300A
:1005A000FFDA4FE91BED8DF8741F3192B3731736E4
:1005B000DB9130D688556B3477877AE7EE06C61C18
:1005C0008C190C4846235E9C075CBFB47ED64F74E2
:1005D0009CE2C5508BC58B159060625729D01343A0
:1005E000A18088910044C74D1986CC2F2A755AFCEA
:1005F000EB972A70E378D891B04F9907A395EA2436
:1006000021D5DE512093270A3073A8FF8A97E9A7E6
:100610006A8E0DE8F0DFECEAB46C1D392A622D3DDC
:100620005A8B65F890052E7E912C78EF8E7AC12F2B
:10063000AC78EEAF2845064C26AF3BA2DBA3930671
:10064000B53CA5D8EE8FAF25CC3F856848A962CCD4
:10065000978F7F2AEAE0150AAD6207BD45F841D8B9
:1006600036CB4CDB6EE63AE7DA15E9291E1210A00C
:10067000142C0E3DF4BF394192750B257BA3CE3966
:100680009C1564C8FA3DEF7327FE262ECEDA6EFD68
:10069000718EDDFE76EEDC125C02C53A4E4E4FBF27
:1006A000CA4015C76E8D41F110E04F7E977F1CAE9A
:1006B000478E6BB12531B073C71B9779F980D3662C
:1006C000223007741EE4D08021D6EE6B6C4FBFF54C
:1006D000B7D909872FA914BE27D9725001D4137333
:1006E000A6A751027525E1B345347DA88EEBF3161C
:1006F00049CB4F8CA1B9368539755D0800AEEBF654
:10070000EAD7133A215A5F3084522695C914F2571A
:10071000556BB110C2E1BD3B51C0B7554C711226AB
:10072000C70DF951A43802057FB8F1724BBF71892A
:1007300014F37738D97124F30011A1D8D4692708AC
:100740003735C9119D901C0EE71CFF2D1EE892E164
:100750001810957CE080F4964321F975216438DD0A
:100760009F1E9516DA561D4F9A53B2E2E418CB6BD2
:100770001A65EB56C63BE5FED8263F3A84597266A9
:10078000A2F375FFFB60B322AD3F2D6BF9EBEA05D9
:100790007CD88F6D2C989E2B93F15E46F08749296B
:1007A0007368D77FF9F0E57DDB1D7519F3C4589B9D
:1007B0001788A892E0BEBD8B1D8D9F5676ADAF29E0
:1007C000E2D9D552F6B55635573AC8E15643199491
:1007D000D3049B6D35D80B5F4D198EECFA64910AEA
:1007E00072202BBC1A4AFE8BFDBBED1B23EAAD72B7
:1007F00082A1299971BDF095C103DD7BC2B23C286D
:1008000054D368A472C86696E0D1D87FF8D1262B5D
:10081000F7ADBA55CA15B932C3E588978E5CFB921D
:10082000258BBFA245557AA76F8B575BCF0ECB1D8B
:10083000FB208277A88CCC16CE1DFADECC0B62FE94
:10084000CCE1B7F0C381647340A0C24D8911753308
:1008500055338DE84AFDEA6E300BD7312CDE47E385
:10086000BFF85542E27F59E517EF99346991B123FA
:100870008E20872DA8FED58AF3843AF037E409004C
:1008800054EE674993E48170E3904DEFFE41B799D0
:100890007BC183BA62126F7DDE6BAFDA16F95551F8
:1008A000EEA60C2B02A3FD8DFB3017E46FDF367133
:1008B000C4CA872548B047ECEAB4BFA54D9B9F0248
:1008C00093C4E3E4E8422D6881150AEB845BD6A863
:1008D00074FB7D1DCB2CDA462A7662CEBC5C9E8BE7
:1008E000E7CFBE78F57CEBB33A9CAA6FCC72D159B6
:1008F000F21123D63F48D1B7CEB0BFCBEA80DE5746
:10090000D45E972F75D1508E802C6679BF724BBD07
:100910008A816CD3E101DCD21526C536DA2C1AC0E7
:100920002794EDB79B850B5E8097C5EC4FEC885DF7
:1009300050073547DC0B3B3DDD60AFA85D813824B7
:10094000255D5C15D1DEB3ABEC0569EF83ED575443
:10095000B8646411163269DA9F2D7F36BB445A346D
:10096000E87FBF03EB007F59682279CF736C2C2995
:10097000A7A15F38A11DF02053E01A63145871102D
:10098000AA080C3E161A6022827FBAA443A0D0ACFB
:100990001BD56B64B51493319E5350D05766EE5AF5
:1009A0004FFB032A695876F183F74EBA8C420660F2
:1009B0005D6DCE6088AEA4C3F103A54B98A1FF671F
:1009C000E1ACA2B862D76FA031B4D277AF211006E4
:1009D000C69AFF1D09170E5FF1AA54344B458A874A
:1009E00063A6DCF9243067C6B2D6613369EE506184
:1009F0005728E77EEEEC3A5A734EA88DE418EAECDD
:100A00004164C8E2E866B62DB6FB6A6C16B3DD46F3
:100A100043B973006A71ED4E9D251AC33C4A951582
:100A20009935811402D6989BECD8233B8429AF0CCE
:100A30009983A69A344FFAE8D03C4BD0FBB668B8FD
:100A40009E8FCDF7602D7A22E57DAB651B95A7A81B
:100A50007FB677477B5F8B1272D0D491EFDE19504F
:100A60003CA78BC4A9B323CB76E681F0C1048FA346
:100A7000B8545B97AC19FF3F55272FE01D429B5799
:100A8000FC4B4E0FCE98A9435703BDE7C894DF6EC9
:100A9000367332B4EF2E857A6EFC6C188275359001
:100AA00007F3E49F3EDC68F3B5F31980920699A240
:100AB000E86FFF2E7FAE42A45FFBD40E812BC304F0
:100AC000FF2BB3744E365B9C1500C6472BE88B3D5D
:100AD000F19C039A587F9B9CBF854979352E567BA4
:100AE000411439478326AA078998111B86E7737A30
:100AF000D87D786153E979F5368D449284F91350A5
:100B0000583BA46A3665498E3C0EF16FD284C47E90
:100B10008E3F39AE7C84F163378E3CCC3E448145B8
:100B2000F14BB9ED6B365DBB20601A0FA3AA557768
:100B30003AA9AE374DBAB8866BBC0850F6CCA4BD06
:100B40001D4072A586FAE210AE3D584B97F34374F0
:100B5000A99EEB21B701A4869397EE2F4F3B86A168
:100B6000416F412690785C7F30384B3FAAECED5CBA
:100B70006F0EAD4387FD9335E601EF412690999EB8
:100B8000FB195BADD2918AE046AF65FA4F84C1A1F3
:100B90002DCF458BD38550557CF96788D44EE9D746
:100BA0006B6154A1A4A6A2C2BF309C409F5FD769CD
:100BB0002B24825ED9D6A712541AF7559F7650A9D6
:100BC0009584E66B6DB59654D6CDB3A19B46A7949C
:100BD0004DC494B498E3E1E234D533160754CDB74D
:100BE0007753DB4F4D469DE9D49C8A36B6B83826FC
:100BF0006C0EFF9C1B438B80CCB93DDAC7F18AF2A7
:100C00006DB8D7742F7E1EB7D34AB4ACFC79486C4C
:100C1000BC96B69446572DB0A3FC1EB95260852DE4
:100C200041D043011E1CD57DFCF3960DC7CB2A296C
:100C30009A93DD882D375DAAFB4968A09C50867F7A
:100C4000685657F9791839D4E001843361CAA5D2BE
:100C5000D6E4C98A4A23444EBCF0DC24A1A0C4E2F5
:100C6000073C10C4B5254B6563F480E7CF61B171D3
:100C70008221872CF59100320CECA9B59A7485E39A
:100C8000368F764F9C6DCEBCAD0A4BED7604CBC350
:100C9000B9339E019396697DC5A245799B045C8416
:100CA00009ED8843C7AB931426A140B5CE4EBF2AA9
:100CB00042853E2C3B54E8121F0E9759B22789FA01
:100CC000F2DF8E6859DC06BCB6850D0622ECB1CB8E
:100CD000E504E63DB3B04173083F3C588663EB50F2
:100CE000EE1D2C3774A9D318A3476E9354AD0A5D3B
:100CF000B82A555D78F6EEBE8E3C7669B940C234AE
:100D0000EC2AB9ED7E20E48D0038C7E68F44A88632
:100D1000CEEB2AE990F14CDF32FB731B6D921E95EE
:100D2000FEB4DB65DF4D23548948BF4A2E70D6D709
:100D300062B43329B13A334C236DA676A5216348BA
:100D4000E6905DED90950B7A84BEB80D5E630C6203
:100D5000264C145AB3AC23A474A76F33300560013A
:100D600042A028B7EE1938F164808243E141271F81
:100D70001F90547AD5232ED13DCB28BA587FDC7CE6
:100D80009124E92851836EC5562142EDA05622A137
:100D900040806BA8F794CA136B0C39D9FDE9F36F47
:100DA000A69EFC708AB3BC593C1E1D6CF97CAFF941
:100DB000887195EB5700BD9F8C4FE12483C522EAD3
:100DC000FDD30CE217187C6A4CDE77B4539B4C8140
:100DD000CD2360AA0E25739C02793230DF74DF7553
:100DE00019F4A5145CF77AA8A591847C6003063BEE
:100DF000CD50B6279CFEB1DDCCD3B05924B2CAE2A7
:100E00001C81229D078F8EB9BE4EFAFC3965BABF90
:100E10009D12375E977EF389F55DF5E3098C62B527
:100E2000209D0C538A681BD28F75175DD4E5DA7547
:100E30006219146A262DEBF8AF37F06CA455B1BCDB
:100E4000E233C09ACAB011494F689B3B6B3CCC134C
:100E5000F6C785616842AEBBDDCD4516291DEADBCC
:100E6000C803943CEE4F8211C3EC28BD970599DE70
:100E7000D7BB5E221FD4EB64D992D985B76A056AC5
:100E8000E42441F1CDF0D83FF89E0ECD0B7A706B83
:100E90005A750A6A3388EC17750870102F24CFC46E
:100EA000E942006194CA1F3A7606FAD24881F07787
:100EB000600345D961F4A46F3DD930C3046B542A53
:100EC000B7EC3BF44BF5685226CEFF5D1991A0A319
:100ED000A5A9B1E023C40A774DF95120A3A5A9B172
:100EE000C10082868E7F5D1991A0A3C4EB540B755F
:100EF0006852078C9A978D79706246EF5C1B9589D2
:100F00007141E121A1A1A1C002674C1AB6CFFD78C1
:100F10005324ABB5C9F16023A5C812876D5813855A
:100F20008892876D5832C70C9A97ACDA36EE5E3EDF
:100F3000DF1DB8F2662FBDF87247ED581385889211
:100F4000878C7B550990A2C6EF3DF85324ABD42A79
:100F5000B7EC5A36EE5E3EDF3CFA764FFD5930E292
:100F600046EF3DF853056931C10082868E7F5D19D9
:100F7000B0E227CCFB744B148B948B756833C50897
:100F800092878C9AB6CF1CBAD70D98B2E62FDC1B8D
:100F90009589716023C40A968F9CBAF66E3FFC5BFC
:100FA00015A8D226AFBDF872662FDC1BB4CB148B0C
:100FB00094AAB7CDF951018082866F3DD930E227DE
:100FC000CCFB744B14AAB7CDF97043046B35C9F14F
:100FD0006023A5C8F3450892876D5832E62FBDF807
:100FE00072664E1EBEFE7E7E7E5F1D9991A0A3C4DA
:100FF0000A774D1893A4ABD40B754910A2C6EF3DE8
:10100000F85324ABB5E833E44A16AEDE1FBCDB155B
:10101000A8B3C5087345E931C1E121A1A1A1C0026E
:10102000866F5C3AD70D9893A4CA16AEDE1F9D99C1
:10103000B0E246EF3DF872470C9AB6CFFD5911A0C9
:10104000A3A5C8F3450892876D39F043048A96AE8C
:10105000DE3EDF1D9991A0C2066F3DF872470C9AE3
:10106000978D989385887345E931E023A5A9D0032E
:10107000848A96AEDE1FBCDB15A8D226CEFF5D1992
:1010800091818082672DD813A4ABD40B94AAB7CDDD
:10109000F95120A3A5C8F345E95022C6EF5C3AD721
:1010A0000D9893858873644AF74DF95120A3C40ABB
:1010B00096AEDE3EFE7E7E7E5F3CFA764FFD787217
:1010C000662FBDD930C3E54812878C7B5528D207DF
:1010D0008C9A97ACDA178D795120A3C4EB540B94FA
:1010E0008B94AAD62EBFFC5B15A8D226AFDC1BB40E
:1010F000EA37EC3BF46A37CD1893856931C1E1409A
:10110000E325C812878C9AB6CFFD5911A0C2068E6E
:101110007F5D38F2470C7B746A37EC5A36EE3FFC41
:101120007A764F1C9B95897141006344EB542AD613
:101130000F9CBAD70D9893856931C10082868E9E27
:10114000BEDF3CFA572CDA36EE3FFC5B1589714165
:101150000082868E7F5D38F247ED5813A4CAF74DA2
:10116000F95101806344EB542AD62EBFDD1991A0BA
:10117000A3A5A9B1E042068E7F5D1991A0A3C40A80
:10118000968F7D7872470C7B746A562EDE1FBCFAF0
:10119000570D7951016121A1C0E325A9B1C1E140F9
:1011A00002674C1A978D9893A4ABD42AD60F9C9BB8
:1011B000B4CB14AAB7CDF95120A3C4EB35C9F16063
:1011C00042068E7F7C7A766E3FFC7A766E5E3EFEBD
:1011D0007E5F3CDB15897141E121C0E344EB542A79
:1011E000B7CDF9706227ADD832C70C7B744B14AA07
:1011F000B7EC3BD528D2076D39D120C2E74C1A97FE
:101200008D98B2C70C5928F39B29001E001F00209F
:1012100000210022004C0014001A000800150017DD
:10122000002B0004001600070009000A0021521DCF
:10123000001B000600190005000000E30091412C8E
:101240004290433000230024002500260027002D73
:10125000001C0018000C001200130089000B000D88
:10126000000E000F0033002402110010003600377A
:10127000003800E50032002A0028429141000000B9
:101280000029021E022F002002210222024C021419
:10129000021A020802150217022B020402160207A4
:1012A0000209020A0201001D021B020602190205C0
:1012B000020000E30201000100010030022E0023C1
:1012C0000234022502260287021C0218020C0212B6
:1012D00002130289020B020D020E020F0234001FDC
:1012E0000211021002360237023802E50232020110
:1012F00000010001000000000001003A003B003C3A
:10130000003D003E000100010024002500260001F0
:10131000000100010021002200230033020100012E
:10132000001E001F0020002D0200003700010001F8
:1013300000010025023F00400041004200430044FC
:10134000000100500052004F00010045004B00D149
:10135000005100D200D30001004E00010001000145
:10136000000100010026024C000100010000000005
:101370000020780100010001000100010021782314
:1013800078257827780100010022782478267828AB
:1013900078010001000100010001000100010001CD
:1013A000000000510052004F00010001002B782C7A
:1013B000782D782E782F78307831783278337834E9
:1013C000780100010001000100010001000100019D
:1013D000004A004E004B004D0001000100010001D9
:1013E000002A0001000000000001000100010001CE
:1013F00000010001000100010001000100010001E5
:1014000000010001000100010001000100010001D4
:1014100000010001000100010000000100010001C5
:1014200000010001000100010001000100010001B4
:101430000001000100010001000100010001004065
:101440007E0100417E010001000100010001000158
:101450000001000100010001000100010000000086
:101460000009025B00030100A0FA09040000010367
:101470000101000921110100012244000705810337
:101480000800010904010002030000000921110104
:101490000001222200070582032000010705030343
:1014A00020000109040200010300000009211101CC
:1014B00000012249000705840320000112010002F7
:1014C0000000000857F600010001010200011603A8
:1014D000530075006D006E006900670068007400BD
:1014E0003500370000000E036D00610072006200DD
:1014F0007900330000000403090411241FBECFEF5C
:10150000DAE0DEBFCDBF11E0A0E0B1E0E2E0F9E556
:1015100002C005900D92AA34B107D9F722E0AAE4DF
:10152000B1E001C01D92A934B207E1F70E94FA248C
:101530000C94462C0C940000FC0190914202818195
:10154000981321C080914302882319F09281891356
:101550001AC080914402882319F09381891313C023
:1015600080914602882319F0958189130CC08091DF
:101570004502882351F091E02481281301C090E0B6
:10158000892F8170089581E0FCCF80E0FACF482F49
:10159000209140029091070257E0291302C080E099
:1015A000089530E0529FF001539FF00D1124E85F41
:1015B000FD4F8181681306C08081481303C0858177
:1015C0008111EECF2F5F3F4F2770E7CFFC01AC01B9
:1015D0004B5F5F4F8FEF91E32191822728E030E04E
:1015E00087FF09C0880F892721503109C9F7E417FF
:1015F000F50791F70895880FF7CFE8EDF0E08081C7
:101600008E7F80831092E2001092DA001092E10047
:10161000A0EEB0E08C9181608C9380818F77808385
:1016200019BCA7EDB0E08C918E7F8C9380818F7E6A
:1016300080831092ED0108952091E4003091E5003F
:1016400095E6A9012091EC00822F817020FF06C051
:101650008091E80080FF06C080E008952091E800B6
:1016600022FD1AC08091FB01882389F0853089F022
:101670008091EB0085FD0FC02091E4003091E500E2
:1016800042175307F9F29150E1F684E0089582E0A1
:10169000089583E0089581E008958091FD0187FF1A
:1016A00013C08091E80082FF06C08091E8008B772C
:1016B0008093E80004C08091FB018111F2CF08956E
:1016C0008091FB018823D9F38091E80080FFF8CF57
:1016D0008091E8008E77ECCF982F9093E900242F2B
:1016E000762F50E0891731F07091EC002091ED00D9
:1016F0005091F00021FD07C09F5F973071F78093F4
:10170000E90081E008953091EB003E7F3093EB00DB
:101710003091ED003D7F3093ED003091EB00316072
:101720003093EB007093EC002093ED005093F000A9
:101730002091EE0027FDE0CF80E00895B0E0A0E02A
:10174000E4EAFBE00C94762BC8EDD0E088818F7E34
:101750008883E7EDF0E080818160808384E082BF50
:1017600081E08093ED0188818E7F888302EE10E016
:10177000F80110821092DA0081EEC82ED12CF60109
:10178000108288818F7788838881806888838881A8
:101790008F7D888319BC1092FB011092FC0110927E
:1017A000FA011092F90190EEE92EF12CF7018081F7
:1017B0008B7F808388818160888342E060E080E065
:1017C0000E946C0BF60180818E7F8083F8018081FE
:1017D00081608083808188608083F70180818E7F33
:1017E0008083888180618883CDB7DEB7E8E00C9480
:1017F000922BFC01809103029091040286179707B7
:10180000A0F06115710529F49091E8009E779093FE
:10181000E80090E06115710551F4911108C08091C4
:10182000E80082FF34C080E00895BC01F2CF8091CF
:10183000FB018823C1F18530C1F18091E80083FD6F
:1018400030C08091E80082FDEACF8091E80080FFFF
:10185000E1CF8091F3002091F200382F61157105DE
:1018600019F02830310558F091E02830310509F0A1
:1018700090E02091E8002E772093E800CBCF819173
:101880008093F100615071092F5F3F4FE7CF809146
:10189000FB01882341F0853041F08091E80083FF0F
:1018A000BECF81E0089582E0089583E00895089511
:1018B0008091F001089587E797E79093010880935E
:1018C000000888E19AE00FB6F894A895809360002C
:1018D0000FBE90936000FFCF9C014FB7F8948091AA
:1018E000E9019091EA01A091EB01B091EC014FBFA9
:1018F000821B930B08952FB7F8946091E9017091C2
:10190000EA018091EB019091EC012FBF08959C01B9
:10191000FC0132969FEF80E04191461751F09F3FC6
:1019200019F4411101C0982F8F5F8630A9F79F3FAE
:1019300009F40895290F311D97FD3A95F901628345
:10194000089580E00895F894E82FE295EF70F0E0B4
:1019500031A1282F2F7081E090E001C0880F2A95D7
:10196000EAF7982F9095932391A392A1892B82A3B4
:10197000789408959091B70192FF10C041E0282F0C
:101980002471243009F040E031E0282F28712830FC
:1019900009F030E0431711F02CE0822793FF10C0CC
:1019A00041E0282F2471243109F040E031E0282F54
:1019B0002871283109F030E0431711F02CE082271C
:1019C0003091B80130FF10C051E0282F2171213033
:1019D00009F050E041E0282F2871283009F040E05C
:1019E000541711F029E0822731FF10C041E0282F61
:1019F0002171213109F040E031E0282F2871283190
:101A000009F030E0431711F029E0822794FD877E2A
:101A1000089582389105B9F1B0F48133910509F444
:101A20007DC048F48932910509F46DC08A32910570
:101A300009F47BC008958533910509F45FC08933AB
:101A4000910509F10895833E9105D9F138F4803E5E
:101A5000910529F1823E910579F10895863E91051F
:101A6000D9F1873E910509F43EC0843E910541F5C8
:101A70002091B80121FF24C08091B70184FD19C0D5
:101A800087EE90E008952091B701237009F05AC0C5
:101A90002091B80123FF14C089E290E008952091BD
:101AA000B70120FD38C03091B80130FF09C024FFD4
:101AB00043C090E080E008952091B70122FDF7CF68
:101AC00008952091B70122FD3AC03091B80130FD50
:101AD00039C024FFF5CFEDCF2091B70123FFF0CF20
:101AE00024FDE7CFCDCF2091B70123FD2EC030914B
:101AF000B80131FFEECF84EE90E008952091B70158
:101B000025FFDECFC9CF2091B70125FD21C020914F
:101B1000B80123FFD5CF89E390E0D2CF2091B70160
:101B200026FFCECF8AE290E008952091B70126FFEC
:101B3000C7CF81E390E0089583EE90E0089582EEB0
:101B400090E0089580EE90E0089586EE90E008958C
:101B500085E390E008951F93CF93DF930E94090DD2
:101B6000EC01C11582E5D80708F03FC0C11590E52A
:101B7000D90708F0C2C0C83ED105C0F4C03ED105A7
:101B800080F4C53AD10548F4C430D10550F4C130D1
:101B9000D10539F0D0E0C0E004C0CD3CD105D0F390
:101BA000D065CE01DF91CF911F910895C11580E4DA
:101BB000D80708F053C0C11590E2D90708F0B7C0A4
:101BC000C11581E0D80730F38D2F0E94BA0C182F71
:101BD000CE0199270E94090DC12FD0E0DC2FCC2720
:101BE000CC27DF71C82BD92BDCCFC03892E5D907C1
:101BF000A8F4C03682E5D80708F063C0C03492E587
:101C0000D90708F049C0C03282E5D80788F1CF7102
:101C1000D0E0DC2FCC27C16FD06AC3CFC03C92E5A7
:101C2000D90780F48C2F8F71C03AD24508F45EC07A
:101C30000E94BA0CC82FD0E0DC2FCC27CC27DF7154
:101C4000D062AFCFC03E82E5D80708F0A3CFDC2F2B
:101C5000CC27CC27DF71C06FD06AA3CFCE019927E4
:101C60000E94090DCC27DF70C82BD92BD06A99CFE1
:101C70002C2F2695269590E2299F900111248C2FD8
:101C80008370C1E0D0E002C0CC0FDD1F8A95E2F77F
:101C9000C22BD32BDD6885CF2C2F26952695277058
:101CA00080E2289F900111248C2F8370C1E0D0E046
:101CB00002C0CC0FDD1F8A95E2F7C22BD32BDC6864
:101CC00070CF2C2F26952695277090E2299F9001A2
:101CD00011248C2F8370C1E0D0E002C0CC0FDD1F37
:101CE0008A95E2F7C22BD32BDA685BCFC82FD0E0FE
:101CF000DC2FCC27C46FD06A54CF8C2F8F710E94F9
:101D0000BA0C55E0D695C7955A95E1F7CF70D0E05B
:101D1000DC2FCC27282F30E084FF05C044E0220FC1
:101D2000331F4A95E1F7C22BD32BD0693ACF8D2FC1
:101D30008F710E94BA0C182FCE0199270E94090DAD
:101D4000C12FD0E0DC2FCC27CC27DF71C82BD92BBB
:101D500077CF80959091EE0198239093EE010895AE
:101D60008091400290910702981301C008958F5FFF
:101D70008770FACF292F9A3078F5863068F590E091
:101D800036E0239F800D911D1124682F677023E09A
:101D9000969587952A95E1F7FC01EE0FFF1FE80F56
:101DA000F91FEA5AFE4F50E040E080E0219130E018
:101DB000062E02C0369527950A94E2F72170332744
:101DC000042E01C0220F0A94EAF7822B4F5F5F4F67
:101DD0004330510559F7089580E00895292F9A302E
:101DE00098F5863088F590E036E0239F800D911DB0
:101DF0001124282F277041E001C0440F2A95EAF7EB
:101E000023E0969587952A95E1F7FC01EE0FFF1FD9
:101E1000E80FF91FEA5AFE4F30E020E070E05191E0
:101E2000DF011197CB01022E02C0969587950A9487
:101E3000E2F7817081958527842385278C932F5F16
:101E40003F4F2330310559F708958093B601089527
:101E50009091B60121E030E0F90101C0EE0F8A95C2
:101E6000EAF7D90102C0AA0FBB1F6A95E2F7EA2B75
:101E700001C0220F4A95EAF7892F8E23E81305C087
:101E8000292B822F0E94250F089520952923F9CF11
:101E900021E030E001C0220F8A95EAF72095809179
:101EA000B60182230E94250F0895909175018095B7
:101EB000892380937501282F277069F4891759F0B9
:101EC0009091B80192FF07C08695869586950E94ED
:101ED000480F10927501089521E030E001C0220FF3
:101EE0008A95EAF78091B601822B0E94250F08950A
:101EF0008093B50108950F931F93CF93DF938B01C8
:101F0000EA019091FB01943061F58093E9008FEF35
:101F10009091E800815095FD06C095ED9A95F1F7F6
:101F200000008111F5CF8091E80085FF1AC00E9462
:101F30001C0B811111C08091E80085FD06C08091C5
:101F4000E8008E778093E800F2CFF80181918F014D
:101F50008093F100219779F78091E8008E77809344
:101F6000E800DF91CF911F910F91089546E050E076
:101F7000BC0184E00E947B0F0895CF93DF93EC01B6
:101F800048E050E0BC0181E00E947B0F88E0FE0148
:101F9000A1EFB1E001900D928A95E1F7DF91CF9129
:101FA0000895B0E0A0E0E7EDFFE00C94742B7C0115
:101FB0005B016A018091A40101E010E08A3010F415
:101FC0000AE010E0C1E0D0E0B501C701F6010995D3
:101FD000811104C021960C171D072CF4CDB7DEB774
:101FE000EAE00C94902BCC9F9001CD9F300D300DEA
:101FF000112490E080E045E34A95F1F70000019656
:1020000082179307C1F7E0CF80918C01811119C02D
:1020100082E390E02091E30027FD10C0EFE3FCE9AC
:102020003197F1F700C000000197A1F782E080939B
:102030008C010E94FD0A1092FB0103C081E0809395
:102040008C0181E090918C01913011F080E0089535
:1020500008950E940410882359F0E091E601F09160
:10206000E701309729F00190F081E02D099508955E
:1020700080E008950F931F930E940410882329F095
:102080000E947B0C1F910F9108950E947B0C009180
:10209000A5011091A6012091A7013091A801600F20
:1020A000711F821F931FEECF3E98469A229A2A985C
:1020B00085E08A95F1F7000086B122982A9A90EA85
:1020C0009A95F1F790E026E0959587952A95E1F7A6
:1020D0008095909581700895CF930E94541028E0C8
:1020E00030E043E060E086E30E94AE28C82F811113
:1020F00005C00E9486298C2FCF91089585E08A958E
:10210000F1F70000F8CFA2E0B0E0E9E8F0E10C94CC
:10211000792B182FF62E0E946C10082F811106C003
:1021200000E0802F2296E5E00C94952B103549F0C5
:102130000E945410E5E0F2E0882311F0E6E0F2E0BE
:10214000108210681983FA8262E070E0CE01019675
:102150000E945629892B21F78AEB8A95F1F700C056
:102160000E94862983E492E00197F1F700C0000005
:10217000D8CFCF93C82F0E946C108823C9F08C2F22
:102180000E9426298FE792E00197F1F700C0000036
:102190000E943E29C82F95E09A95F1F700000E9411
:1021A000862985E68A95F1F700008C2FCF91089556
:1021B000C0E0FBCFCF93DF93C1E8D2E060E0CE0177
:1021C0000E94FC2B2196C11584E0D807B9F7DF9156
:1021D000CF9108951F93CF93DF93122F8530E0F4B2
:1021E0006A30D0F44630C0F4C42FD0E0CC0FDD1FED
:1021F0009CE0699FC00DD11D112498E7899FC00DF7
:10220000D11D1124632FCE0189960E94FC2B612FD2
:10221000CE018A960E94FC2BDF91CF911F910895E9
:10222000AF92BF92CF92DF92EF92FF921F93CF9324
:10223000DF9389E0C82E82E1D82ED0E07601C0E09D
:1022400014C0F50125913491412F6C2F8D2F0E94E0
:10225000EA1082E0A80EB11C1F5F163091F78CE0E7
:10226000E80EF11CCF5FCA3019F0570110E0E9CF3A
:10227000DF5F88E7C80ED11CD53001F7DF91CF9121
:102280001F91FF90EF90DF90CF90BF90AF90089597
:10229000CF93C82F6FEF811163E285E290E00E9437
:1022A000FC2B6FEFC11160E186E290E00E94FC2BF5
:1022B0006FEFC11169E087E290E00E94FC2BCF91A3
:1022C000089580E00E94481160E088E290E00E945A
:1022D000FC2B0E9410110E94DA1081E00E9448112C
:1022E00008950F931F93CF93DF93853030F56A30B5
:1022F00020F5463010F5C42FD0E0CC0FDD1F2CE0C8
:10230000629FC00DD11D112438E7839FC00DD11DE0
:102310001124CE0189960E94D82B082F10E0102F8F
:102320000027CE018A960E94D82B9801282BC9013C
:10233000DF91CF911F910F91089590E080E0F8CF49
:10234000462F7A3040F4663030F4853020F4672F21
:102350000E947111089590E080E00895CF92DF927D
:10236000FF920F931F93CF93DF936C010091B601FF
:102370008091B501082BC4E0D0E010E0FC2EC8012C
:102380000C2E02C0959587950A94E2F780FD0CC04B
:102390002197A0F7F12C8F2DDF91CF911F910F91F5
:1023A000FF90DF90CF900895B6018C2F0E94A0116E
:1023B0000E94AB0D019761F3EECFCF93DF93EC0159
:1023C0000E94AE11BE010E94A0110E94AB0DDF91D0
:1023D000CF910895FC0124812223C1F08081918155
:1023E0000E94DD1192959F70963091F058F4925FA3
:1023F0009F70923058F4803F19F030F4883E30F4EA
:1024000081E008959A5FF4CF843FD1F380E008958E
:10241000883EB0F3813FD1F7F3CFA6E0B0E0E3E12F
:10242000F2E10C947B2B49835A8349815A81992389
:10243000A1F0222391F0CA010E94AE11182F682F3B
:1024400089819A810E94EE0E69817A81812F0E9492
:10245000A0112696E3E00C94972BCA010E94BA0EB5
:10246000182FF2CF85E290E00E94D82B833289F4B6
:1024700086E290E00E94D82B803159F487E290E008
:102480000E94D82B91E0893009F090E0892F81706B
:10249000089580E0FCCFA8E1B0E0E1E5F2E10C9422
:1024A0007A2B4B8B5C8B6D8B7E8B8F8B988F8E01F9
:1024B000095F1F4F86E0F80111928A95E9F70E94A3
:1024C00054100E9454108823A1F1809106028111BA
:1024D0003DC060E080E50E94831081112DC086E040
:1024E000FE013796DE01119601900D928A95E1F773
:1024F00086E0FE013196DE011D9601900D928A95CF
:10250000E1F78D8583FF4FC086E0FE017396DE0103
:10251000179601900D928A95E1F72F8138854985AC
:102520005A856B857C8580E090E06896E4E00C94A9
:10253000962B80910502CBCF0E945410E5E0F2E08B
:10254000882311F0E6E0F2E081E080830E946C10C5
:10255000882329F280E50E942629FAEBFA95F1F703
:1025600000C066E070E0C8010E946E298F8187700C
:1025700049F00E945410E5E0F2E0882311F0E6E013
:10258000F2E010820E94862989859A85919581952D
:1025900091099A8789878B859C8591958195910969
:1025A0009C878B879CCF898187FD03C01092E501B2
:1025B000ABCF2B813C818D819E814091E501411102
:1025C00003C041E04093E50120384FEF34078CF021
:1025D0002038310514F02FE730E08038EFEF9E0708
:1025E00054F08038910514F08FE790E02D8B8E8B9E
:1025F0008BCF20E8F2CF80E8F9CF0F931F93CF93D2
:10260000DF930E9454100E94A6280E946C10882319
:1026100009F48AC025ED2A95F1F700000E94862969
:1026200085ED8A95F1F700006AE58AE30E94831040
:10263000882309F479C09FEFE0E7F2E09150E04091
:10264000F040E1F700C0000082E00E94B91083E092
:102650000E94B91084E00E94B91085E00E94B91070
:1026600086E00E94B9106DE183E10E948310882307
:1026700009F45AC08FE39CE90197F1F700C000000C
:1026800068E183E10E9483100E946C10882309F4A2
:102690004BC082EE0E94262990E59A95F1F7CBE097
:1026A000D2E009E012E1FE0184910E942629F0E5C2
:1026B000FA95F1F721960C171D07A9F78FE193E022
:1026C0000197F1F700C000008AE20E94B91060E0B3
:1026D00080E10E9483100E948629EFE3FCE9319794
:1026E000F1F700C000000E9454106FE08FE00E94DC
:1026F00083108FE99FE00197F1F700C0000060E0D0
:1027000080E10E94831060E081E10E94831062E01A
:1027100083E60E94831080E00E94B9108FE30E943C
:10272000B9108AE20E94B910DF91CF911F910F91E9
:1027300008958091EE0190917F01892B80934C0147
:1027400090917E01992391F0892B80934C0120E098
:102750008EE491E0FC013191CF0131112F5FF1E066
:1027600084359F07B9F7211110927E0148E050E0AF
:1027700066E771E08CE491E00E94302C892BA9F08F
:1027800088E0ECE4F1E0A6E7B1E001900D928A95D3
:10279000E1F7E091E601F091E701309731F0028036
:1027A000F381E02D8CE491E009950895882321F0D0
:1027B0000E94A90E0E9499130895882339F09091E0
:1027C000EE01982B9093EE010E9499130895CF93F8
:1027D0008FEC91E00E949C0AC82F882379F0E09149
:1027E000E601F091E701309749F082E080934102E1
:1027F0000480F581E02D81E492E0099590914202F8
:1028000086E0E1E4F2E0DF01282F1D922A95E9F746
:1028100090934202AFECB1E001900D928A95E1F7FE
:1028200081E0C11103C0911101C080E08170CF919E
:1028300008952FE2280F283078F481E090E001C05D
:10284000880F2A95EAF720914202662331F0822B05
:10285000809342020E94E713089580958223F8CF67
:10286000882349F19CEF980F913A80F4EEE4F1E06F
:1028700024E531E09191891303C0DF0111971C9287
:102880002E173F07B9F70E949913089590E2980F09
:10289000983050F4877091E001C0990F8A95EAF75B
:1028A000892F0E94A90EEFCF93E3980F933118F46C
:1028B00060E00E9419140895CF93C82F8823A9F0CF
:1028C0008CEF8C0F813A00F5EEE4F1E0DF018D91A1
:1028D000C81769F081E0A435B807C9F76C2F8CE4FC
:1028E00091E00E94870C0E949913CF9108958191E5
:1028F000C81303C0DF0111971C9281E0E435F8078B
:10290000B1F70E949913EACF80E28C0F883068F407
:10291000C77021E030E001C0220FCA95EAF780912C
:10292000EE01822B8093EE01DECF83E38C0F8331A7
:10293000E0F661E08C2F0E941914D7CF1F93CF933C
:10294000DF93182FEB010E945C148FE99FE0019741
:10295000F1F700C000002197C1F7812F0E943014C9
:10296000DF91CF911F910895EEE4F1E086E0DF0161
:102970001D928A95E9F710927F010E94991308959C
:10298000AAE2B0E0E6ECF4E10C947B2B8DEF91E051
:102990002091F100DC012D93CD01B2E085309B0741
:1029A000B9F78091FE01833009F472C0B8F4813028
:1029B00009F449C0823009F4B5C08091E80083FF72
:1029C0008DC28091FD019091FE019A3008F086C27F
:1029D000E92FF0E0E85BF34D0C94CB2B8A3009F43F
:1029E00090C08B3009F471C0893039F78091FD01B6
:1029F000813219F78091010290910202009711F043
:102A00000297D9F68091E800877F8093E800809153
:102A1000E80082FF38C09091F3008091F2000297A5
:102A200031F48091F100813011F0863021F48091F1
:102A3000F1008093F0018091E8008B778093E800AB
:102A40000E944D0BBACF8091FD01813A09F0B5CFBC
:102A50008091E800877F8093E80080910102909147
:102A60000202892B61F468E081EF91E070E00E943E
:102A7000F90B8091E8008B778093E8009ECF60E0AF
:102A800090E080E0F3CF8091FB018111C0CF95CF22
:102A90008091FD01813A09F090CF809101029091DF
:102AA0000202892B09F089CF8091E800877F80930B
:102AB000E8008091E80080FFFCCF80912C0180939A
:102AC000F1008091E8008E77B9CF8091FD018132CD
:102AD00009F073CF8091010290910202892B09F0D5
:102AE0006CCF8091E800877F8093E8000E944D0BB7
:102AF0008091FF0180932C011092EE010E94B4148A
:102B00005CCF8091FD01813209F057CF8091E800C0
:102B1000877F8093E8000E944D0B80910002809394
:102B2000EF014BCF8091FD01813A09F046CF8091B2
:102B3000E800877F8093E8008091E80080FFFCCF69
:102B40008091EF01BCCF803899F0823809F0C6C17E
:102B5000809101028F70873008F0C0C18093E90036
:102B60008091EB0085FB882780F91092E90006C070
:102B70008091F9019091FA01911182609091E800A1
:102B8000977F9093E8008093F1001092F10080917C
:102B9000E8008E779FC1882309F48DC1823009F047
:102BA0009DC18091FF01811190C1809101028F70C0
:102BB0002FEF280F263008F091C18093E900209173
:102BC000EB0020FF82C1933031F48091EB008062F2
:102BD0008093EB007AC19091EB0090619093EB00B1
:102BE00021E030E001C0220F8A95EAF72093EA0045
:102BF0001092EA008091EB008860EACF81116EC1EB
:102C00001091FF011F778091E3008078812B8093E2
:102C1000E3008091E800877F8093E8000E944D0BDD
:102C20008091E80080FFFCCF8091E3008068809372
:102C3000E30082E0111183E08093FB014FC18058D3
:102C4000823008F04BC12091FF01309100022C3DF1
:102C5000E3E03E07A1F583E08A838AE289834FB7E8
:102C6000F894DE01139620E03EE051E2E32FF0E01D
:102C700050935700E49120FF03C0E295EF703F5F4F
:102C8000EF708E2F90E0EA30C0F0C7968D939D9341
:102C90002F5F243159F74FBF8091E800877F8093E1
:102CA000E8006AE270E0CE0101960E94F90B809183
:102CB000E8008B778093E80011C1C096E7CF809140
:102CC000010290910202432F55274330510509F428
:102CD0004AC078F54130510509F47AC08BE590E09F
:102CE000E1E6F4E14230510509F0F8C02091E80036
:102CF000277F2093E800209103023091040282177D
:102D0000930708F49C0140E02115310509F065C0E6
:102D1000411163C08091E80082FDC9CF8091FB0121
:102D2000882329F2853019F28091E80083FFF2CFE1
:102D3000BECF4132510509F43CC04232510509F081
:102D4000CDC08330910508F0C9C0FC01EE0FFF1F14
:102D5000E25CFE4F0190F081E02D855C9E4FDC012E
:102D60008C9190E01AC0332721303105D1F0211524
:102D7000310561F02230310509F0B0C0EEECF4E12C
:102D8000E4918E2F90E0EEECF4E107C0E6EFF4E181
:102D9000E4918E2F90E0E6EFF4E1009709F49EC0F5
:102DA000A5CFE6EEF4E1E4918E2F90E0E6EEF4E1BB
:102DB000F4CF8330910508F091C0880F991FFC0172
:102DC000EC5BFE4F0190F081E02D89E090E08ECF2A
:102DD00082E190E0ECEBF4E189CF8091FB01882364
:102DE00009F465CF853009F462CF8091E80083FD56
:102DF0005ECF8091E80082FD8DCF8091E80080FF5A
:102E000083CF9091F3008091F2002115310519F0E4
:102E10008830910550F041E0089709F040E080913A
:102E2000E8008E778093E8006FCF44914093F100E3
:102E30003196215031090196E8CF803809F04EC013
:102E40008091E800877F8093E8008091FC01809367
:102E5000F1009DCE811142C01091FF011230F0F5BA
:102E60008091E800877F8093E8001093FC010E9426
:102E70004D0B112311F084E005C08091E30087FD24
:102E8000FACF81E08093FB0142E061EC81E00E9497
:102E90006C0B42E261EC84E00E946C0B42E261EC5C
:102EA00082E00E946C0B42E260EC83E00E946C0BBB
:102EB0008091FB0113C08091FF01813079F481E0A2
:102EC000933009F080E08093FA011092E90080913C
:102ED000E800877F8093E8000E944D0B8091E80016
:102EE00083FF0AC08091E800877F8093E80080918B
:102EF000EB0080628093EB00AA96E3E00C94972BA2
:102F00001092EE010E94B4142FEF84E39CE0215054
:102F100080409040E1F700C0000088E19AE00FB6E1
:102F2000F894A895809360000FBE90936000FFCF47
:102F30009091B80192FB222720F9281779F080FBA5
:102F400092F99093B8016091B7017091B80184E053
:102F500090E00E941A2C82E00E94550F0895A4E090
:102F6000B0E0E5EBF7E10C947B2B4091A001509190
:102F7000A1016091A2017091A3012FB7F8948091F3
:102F8000E9019091EA01A091EB01B091EC012FBF12
:102F9000841B950BA60BB70B11E084369105A10598
:102FA000B10570F10E943A106E5F7F4F8F4F9F4FB7
:102FB00069837A838B839C838091110190911201A4
:102FC0008A569E4F4091100150E04530510510F057
:102FD00044E050E0BE016F5F7F4F0E943D2C82E0D5
:102FE00090E00E94F62A182F882351F00E947B0C53
:102FF0006093A0017093A1018093A2019093A3011B
:10300000812F2496E3E00C94972BEF92FF921F936D
:10301000CF93DF9300D000D000D0CDB7DEB77B01D7
:1030200090E080E00E94F62A182F882309F480C0DF
:103030004091030150E04115510511F041E050E08D
:1030400060910401709105016A567E4FCE0106968B
:103050000E943D2C40919201509193016091940106
:10306000709195012FB7F8948091E9019091EA0150
:10307000A091EB01B091EC012FBF841B950BA60B27
:10308000B70B84369105A105B10540F487E991E0BD
:103090000E94E60A9E81891709F44AC081E090E007
:1030A0000E94F62A811116C010E085E0EDE8F1E0FB
:1030B000D70101900D928A95E1F7812F26960FB6E0
:1030C000F894DEBF0FBECDBFDF91CF911F91FF906F
:1030D000EF90089540910B0150E04630510510F0FB
:1030E00045E050E060910C0170910D016A567E4FF1
:1030F000CE0101960E943D2C87E991E00E94E60AEC
:103100009E818913D1CF0E947B0C609392017093B2
:103110009301809394019093950185E0FE0131968F
:10312000ADE8B1E001900D928A95E1F711E0BDCFD5
:1031300085E0E7E9F1E0DE01119601900D928A95B4
:10314000E1F71111EACFB1CF1F920F920FB60F9294
:1031500011242F933F934F935F936F937F938F939C
:103160009F93AF93BF93CF93DF93EF93FF93D09150
:10317000E900DF708091EC00C82FC17080FDC0E8CD
:103180001092E9008091F000877F8093F00078949E
:103190000E94C0141092E9008091F0008860809332
:1031A000F000CD2BCF70C093E900FF91EF91DF913C
:1031B000CF91BF91AF919F918F917F916F915F91CF
:1031C0004F913F912F910F900FBE0F901F90189528
:1031D0001F920F920FB60F9211242F933F934F938C
:1031E0005F936F937F938F939F93AF93BF93EF936F
:1031F000FF938091E10082FF09C08091E20082FF8D
:1032000005C08091E1008B7F8093E1008091DA001E
:1032100080FF24C08091D80080FF20C08091DA0018
:103220008E7F8093DA008091D90080FF9DC080E17D
:1032300089BD82E189BD09B400FEFDCF81E08093A4
:10324000FB018091ED01811109C00E94FD0A0E94DD
:103250009E0B8091E20084608093E2008091E10007
:1032600080FF17C08091E20080FF13C08091E200D0
:103270008E7F8093E2008091E20080618093E20083
:103280008091D80080628093D80019BC85E080933B
:10329000FB018091E10084FF2BC08091E20084FF5C
:1032A00027C080E189BD82E189BD89B5982F9170E1
:1032B00080FFFBCF8091D8008F7D8093D8008091D4
:1032C000E1008F7E8093E1008091E2008F7E809309
:1032D000E2008091E20081608093E2008091FC0135
:1032E000882309F447C084E08093FB018091FB01AF
:1032F0008091E10083FF27C08091E20083FF23C01B
:103300008091E100877F8093E10082E08093FB0160
:103310001092FC018091E1008E7F8093E10080910A
:10332000E2008E7F8093E2008091E20080618093D2
:10333000E20042E060E080E00E946C0B8091F000CF
:1033400088608093F000FF91EF91BF91AF919F91C2
:103350008F917F916F915F914F913F912F910F903E
:103360000FBE0F901F90189519BC1092FB01109280
:10337000ED0174CF8091E30087FD93E09093FB0112
:10338000B5CF78941F921FB61F9211248F939F93ED
:10339000AF93BF938091E9019091EA01A091EB0175
:1033A000B091EC010196A11DB11D8093E9019093AC
:1033B000EA01A093EB01B093EC01BF91AF919F9113
:1033C0008F911F901FBE1F9018952FB7F894809172
:1033D000E9019091EA01A091EB01B091EC012FBFBE
:1033E0000895AFE0B0E0E7EFF9E10C94712B8E01A6
:1033F0000F5F1F4F8AE0D8011D928A95E9F78EE191
:10340000C82E81E0D82EF12CE12CAA24A394B12C53
:103410002EE1822E21E0922EF60181916F018F3FE5
:1034200009F442C0F894E82FE295EF70F0E021A192
:103430008F70A50102C0440F551F8A95E2F7CA019B
:10344000922F982B91A392A18095892382A378949F
:1034500000C0E8E1F1E0712C31E021912F3F09F447
:103460006BC0A22FA295AF70B0E090968C9190E0C7
:103470002F7002C0959587952A95E2F780FD5CC074
:10348000832F782A330F8E169F0639F7F60131976E
:1034900080818F3F11F00E94A30C50EA5A95F1F7FA
:1034A000F801EE0DFF1D70828FEFE81AF80AA5E013
:1034B000EA16F10409F0B0CF4AE050E0B80189EA19
:1034C00091E00E94302C009741F02AE0F801A9EA2F
:1034D000B1E001900D922A95E1F70091B401892B9A
:1034E00069F181E0809384010E94E5199093830142
:1034F0008093820180918201909183010E946C0CE3
:10350000059700F110E00B531E4F45E050E069EACB
:1035100071E0C8010E94302CB12C892B51F085E05C
:10352000E9EAF1E0D80101900D928A95E1F7BB2418
:10353000B3941092840107C080E0A3CF80918401EE
:103540008111D8CFB12C0E940410F82EE091B40163
:10355000882309F46DC06E01BBE0CB0ED11C85E061
:10356000D6011D928A95E9F70E2F10E00B531E4FDE
:103570008091A4018A3050F545E058E1B601C801B8
:103580000E94D10F882309F442C04FEA57E1B601E7
:10359000C8010E94D10F8823D1F11092A40180911B
:1035A000B30190E045E050E0B6018B539E4F0E947E
:1035B000302C21E020938B01892BE1F4F12C1F2D7D
:1035C000812F8B292F96EDE00C948D2B8091850116
:1035D000909186010E946C0C843F914068F6809126
:1035E0008B01882359F385E0F60111928A95E9F75A
:1035F00010928B01A091B301B0E0AB53BE4F85E0B8
:10360000FE013B9601900D928A95E1F7D8CF80910B
:10361000A4018F3F31F08F5F8093A4018A3008F4BA
:10362000BECF0E94E5199093860180938501D7CF84
:10363000F0E0EB53FE4F85E0A7E9B1E001900D9279
:103640008A95E1F787E991E00E94E60A8093960166
:10365000C0909C01D0909D01E0909E01F0909F0150
:103660008091870190918801A0918901B0918A0190
:10367000C816D906EA06FB0611F410E0A1CFC092E5
:103680008701D0928801E0928901F0928A010E941C
:103690000410182F8111F1CF0E947B0CC61AD70A93
:1036A000E80AF90AC092A501D092A601E092A7010A
:1036B000F092A80185CF88E00E946C0F0E94E51966
:1036C0009093E2018093E10182E08093E301089509
:1036D000AEE1B0E0EEE6FBE10C94782B40914102C4
:1036E00050914202609143027091440280914502E0
:1036F000909146020E944B12209341023093420265
:1037000040934302509344026093450270934602F3
:1037100086E0E1E4F2E0DE01179601900D928A95D1
:10372000E1F786E0FE013796DE011D9601900D92CD
:103730008A95E1F786E0FE013D96DE011196019043
:103740000D928A95E1F786E0FE013196A1E4B2E0A0
:1037500001900D928A95E1F786E0E1E4F2E0DE0166
:10376000599601900D928A95E1F786E0FE017996CF
:10377000DE01179601900D928A95E1F70B8DEC8C86
:103780009E2D902B8091E301992309F41DC1002EF9
:10379000000C110B0E2C000CFF088230F1F188F4A4
:1037A000813009F4E8C00E94E5199093E20180930A
:1037B000E10181E08093E3011092D6011092D501DE
:1037C00032C0833099F1843071F7980117FF04C03B
:1037D00022273327201B310BC701F7FE04C088279F
:1037E00099278E199F09880F991F281739070CF000
:1037F00042C08091DD019091DE01E80EF91E40E0AB
:10380000F7FE17C17EECE7167FEFF7067CF1F0922A
:10381000DE01E092DD0180E041C00E94E519909355
:10382000E2018093E10180E020E069C0C701F7FE7A
:1038300004C0882799278E199F09980117FF04C093
:1038400022273327201B310B280F391F8091DF01DE
:103850009091E001821B930B9093E0018093DF0134
:103860001816190604F780E020E045C022E3E20EB6
:10387000F11C4E5CC5CF8091DB019091DC01080FFB
:10388000191F80E017FFDFC00E3C9FEF19070CF4F3
:103890006BC01093DC010093DB0140E0082E000CAC
:1038A000990B62E370E00E94B72B8091DA018111DD
:1038B0005FC081E090E0689F9001699F300D789F24
:1038C000300D1124642F772761950CF47095CB018E
:1038D00062E370E00E94B72B8091D90141E050E093
:1038E000882311F04FEF5FEF649FC001659F900D3B
:1038F000749F900D1124F12CE12C10E000E0098759
:10390000EA868B872C8786E0FE013796DE011196CA
:1039100001900D928A95E1F786E0FE013196DE0175
:10392000539601900D928A95E1F786E0FE01739619
:10393000DE01179601900D928A95E1F786E0FE016F
:103940003796A1E4B2E001900D928A95E1F70E94CA
:10395000E71381116BC08091E4011092E401817042
:103960006E96E6E00C94942B0E5C1F4F8E5C8ACF13
:103970008FEF9FEFA0CFC701F7FE04C088279927DC
:103980008E199F09980117FF04C022273327201B97
:10399000310B820F931F2091D5013091D601820FF8
:1039A000931F9093D6018093D5012091D701309138
:1039B000D801821793070CF436CF1092D6011092DB
:1039C000D5010E945B1B2FCF823071F048F481300B
:1039D00019F11092D6011092D5011092E30143CF54
:1039E000853008F440CFF5CF8091E1019091E2015C
:1039F0000E946C0C893E934008F435CF1092E3018D
:103A000088E00E94480F1092DE011092DD011092B2
:103A1000DC011092DB0127CF8091E1019091E2015E
:103A20000E946C0CC39708F41ECFD3CF81E090E0C6
:103A300094CF83E3E816F1040CF4E9CE62E3E61ACE
:103A4000F1084253DDCE033311050CF422CF0253AB
:103A50001109825317CFA4E1B0E0E1E3FDE10C943A
:103A60006E2B8C01DC0114968C911497882309F439
:103A7000BEC021E04C9111965C91119712966C9109
:103A8000129713967C91139715969C910E940D1294
:103A90007C01F8018581882309F46AC197013757B1
:103AA0002038310508F000C5FFE0FE1508F48FC08E
:103AB0008FEF93E00E94D82B811189C061E8A62E78
:103AC00062E0B62EE1104DC0FE01339686E0DF01C4
:103AD0001D928A95E9F75AE0452E7501BFEFEB1A62
:103AE000FB0AC5010E94D82B89831A82882309F416
:103AF0006EC0813009F07FC06501E2E0CE0ED11CBE
:103B0000C7010E94D82B8A83882309F460C09FEFE5
:103B1000980F9330A0F5F3E0AF0EB11CC6010E94E0
:103B2000D82B8B83882309F452C01C82DE011196A6
:103B30007D01F7012081222381F2213009F0BAC0F2
:103B400091818281913009F058C0F2E0EF0EF11CB2
:103B500065E070E0893311F460E570E00E949E1426
:103B600053C0A11424E0B20691F1C5010E94D82BE4
:103B7000811101C0EA943FEFA31AB30AA3CF560103
:103B80008430A1F642E0E42EF12C56012FEFA21A68
:103B9000B20AC6010E94D82BE1E0F0E0EC0FFD1F55
:103BA000EE0DFF1D8083882391F08C3741F4E2E015
:103BB000F0E0EC0FFD1FEE0DFF1D1082B7CF3FEFC1
:103BC000E31AF30A650187E0E816F104F1F6809143
:103BD0007501877061F0D80115968C91882339F0B2
:103BE0008091B80182FF03C082E00E94550F649665
:103BF000E0E10C948A2B570199CF923039F522E0FD
:103C0000E20EF11C0E945C14FFEFEF1AFF0A8FE92D
:103C10009FE00197F1F700C00000AFE9BFE0119706
:103C2000F1F700C00000EFE9FFE03197F1F700C0C5
:103C300000008FE99FE00197F1F700C00000AFE9B5
:103C4000BFE01197F1F700C0000073CF933031F45B
:103C500032E0E30EF11C0E943014D6CF943021F0F4
:103C60008FEFE81AF80AD0CF92E0E90EF11C30E0AD
:103C700020E0B7016F5F7F4FD70111964C918053C1
:103C8000990B8A30910558F02150310908F4BCCFC6
:103C9000EFE9FFE03197F1F700C00000F5CF429E59
:103CA000F001439EF00D11249C012E0F3F1F842F25
:103CB0007B01DFCFE22FF0E0E557FE4F5490822FDB
:103CC00086958695869590E0FC01E558FE4F6490B8
:103CD0002770712C022E02C0759467940A94E2F743
:103CE00031E063227724FC01E559FE4F8490912C4A
:103CF000022E02C0959487940A94E2F7A1E08A22EA
:103D00009924FC01E55AFE4FC490D12C02C0D594F1
:103D1000C7942A95E2F7B1E0CB22DD246114710447
:103D200019F081EE0E945C148114910419F086EE62
:103D30000E945C14E9E365E070E05E1202C060E599
:103D400070E0852D0E949E148114910419F086EE76
:103D50000E9430146114710419F081EE0E94301435
:103D6000C114D10409F450CF65E070E08CE2F6CEC6
:103D7000F701E054FE47E830F10508F0B0C0EE5A14
:103D8000F34D0C94CB2B96E0E1E4F2E0DE011996C2
:103D900001900D929A95E1F796E0FE013996DE01C9
:103DA0001F9601900D929A95E1F79A85B0E4EB1A6F
:103DB000BEE7FB0A21E030E00E2C01C0220F0A947E
:103DC000EAF7882349F1F92EF22A83E08093E30190
:103DD0008EE190E09093E0018093DF010E945B1BF5
:103DE000F88A86E0FE013F96DE01119601900D9261
:103DF0008A95E1F7CE0101960E949C0A8093E40126
:103E000086E0FE013196A1E4B2E001900D928A9520
:103E1000E1F70E94E713DBCE2095F22EF922DECFE8
:103E2000882321F084E08093E301D1CE0E945B1BC4
:103E3000CECE882309F4CBCE8091D7019091D801C2
:103E400005969093D8018093D7014091D701509166
:103E5000D8016091D9017091DA0183E190E00E946C
:103E60000E2CB5CE882309F4B2CE8091D701909163
:103E7000D80105978530910524F785E090E0E1CFE2
:103E8000882309F4A4CE8091D90191E089278093F9
:103E9000D901DBCF882309F49ACE8091DA0191E031
:103EA00089278093DA01D1CF8091E301835082305A
:103EB00008F4BCCFE3EEEE16F10469F1F0EEEF1674
:103EC000F10449F11092E30188E00E94480F10923A
:103ED000DE011092DD011092DC011092DB01D801AD
:103EE00015968C91B6E1EB16BCE7FB0661F58823CD
:103EF000A9F08091EE018A7A91E009F490E0909324
:103F0000540169E2811165E38CE491E00E94870C21
:103F10000E9499135CCE0E945B1BE1CF80915401FB
:103F200081110FC089E2EEE4F1E024E531E09191E6
:103F3000891303C0DF0111971C922E173F07B9F7B1
:103F4000E7CF85E3F0CFE7E7EE16ECE7FE0609F4EE
:103F50006CC0F8E7EF16FCE7FF0609F475C088238C
:103F600099F023E0E2162CE7F20609F494C008F079
:103F700071C0E1148CE7F80609F47EC091E0E916FF
:103F80009CE7F90609F48DC0F8018581E080F18095
:103F9000882309F494C0C7010E94AE11D82E682F5F
:103FA000C7010E94EE0EB7018D2D0E94A0110E9444
:103FB000AB0D7C01882ED8011596AC9015971696FE
:103FC0009C9092943FE09322809175018770F1F06C
:103FD000CA2CAA20E1F08F2D807F803451F080E23E
:103FE0008E0D883098F0911004C08F2D807E803225
:103FF00069F08091B80182FF09C082E00E94550FEC
:10400000809175018770CC24C3948111C12CBF2C81
:10401000B2942FE0B222BBE0BB1508F4B8C0EB2D80
:10402000F0E0E65AF34D0C94CB2B882349F081E065
:104030000E946C0F43E062E081E00E94280FC7CD30
:1040400081E00E94480FF6CF882311F082E0F0CF84
:1040500082E0F7CFABE5EA16ACE7FA0671F1BCE512
:10406000EB16BCE7FB06F9F0EAE5EE16ECE7FE0618
:1040700009F08ACF81E01EC01092EE010E94B414B4
:10408000FFEF24E33CE0F15020403040E1F700C076
:1040900000000E945B0C6FEF7FEF90E080E00E94D9
:1040A0001A2C0E9480178091B80182FB882780F922
:1040B00091E089270E94981767CF80E0FBCFC70166
:1040C0000E94BA0ED82E6FCFEF2DEF70DE2E8F2DFF
:1040D000807F19F0D29490EFD922AA20B9F0DD2088
:1040E00069F080E28E0D883010F0811009C0809157
:1040F000EE01D82AD092EE010E9499138E2D45C070
:1041000080917F01D82AD0927F01F6CF8E2D0E9418
:104110003014DD20E1F180E28E0D883010F0811046
:1041200004C08D2D0E94A90E06C0D09480917F01FD
:10413000D822D0927F010E94991329C0FF2DFF70D1
:10414000DF2E8F2D807F803219F0D29480EFD8221D
:10415000882059F021E0821609F481C0AA2009F4D0
:104160008DC0992009F44FC0C9CF8091B80182FD5C
:1041700046C0AA20F1F1DD2039F08091EE01D82A65
:10418000D092EE010E94991380E00E945C14AB2D46
:10419000A850BB0B149710F40E942910CC20A9F052
:1041A0008091750180FD11C0F80115828695869574
:1041B00086950E946C0FC8010E942B1D809175018D
:1041C0008695869586950E94480F20E0D8014C91EF
:1041D00011965C91119712966C91129713967C919F
:1041E000139714968C91149715969C910E940D121A
:1041F000FECC80E00E943014DD2049F292CFAA204C
:10420000A1F0911004C08D2D0E94DD13C0CF31E0CC
:104210009312BDCF80917E019D2D9823D91609F46C
:10422000B6CFD82AD0927E01B2CF9110B0CF8D2DCB
:104230000E94D61390917E018D2D892329F08D2D1A
:104240008095892380937E01809155019D2D98232F
:1042500009F49DCFD094D822D092550198CFAA20AE
:1042600029F085E0891508F492CFCDCF94E0991517
:1042700008F48DCF8D2D0E94D61389CF9920D1F3CC
:10428000A9E38A1209C1BFEFE7EEF3E0B150E040C5
:10429000F040E1F700C000008E2D0E94301477CF6F
:1042A0006A2D8E2D0E94191472CF8F2D837091F577
:1042B000A1106DCF4E2D429546954770440F440F87
:1042C0008E2D8F70042E01C0880F0A94EAF72E2DD0
:1042D0002071E4FE07C02FE030E001C0220F4A95B4
:1042E000EAF720953F2D369536953370323069F0D8
:1042F00050F44091B501313029F0822B84230E9483
:10430000780F45CF842B822BFACF282B8091B501D3
:104310008227F5CF8695AA2011F08F2D81708823F2
:1043200009F435CF4E2D429546954770440F440F02
:104330008E2D8F70042E01C0880F0A94EAF72E2D5F
:104340002071E4FE07C02FE030E001C0220F4A9543
:10435000EAF720953F2D369536953370323069F067
:1043600050F44091B601313029F0822B84230E9411
:10437000250F0DCF842B822BFACF282B8091B601ED
:104380008227F5CF9F2D9F70F92EAA2029F0892F23
:104390000E946C0F8E2D38CF8E2D0E94D6138F2D3C
:1043A0000E94480FF4CE8E2DA2EF8A16B1F1A81507
:1043B00070F0B0EF8B16D1F0E1EF8E1691F0AA20DD
:1043C00009F45EC091109ACE8F2D8F712AC0F3EF41
:1043D0008F1651F124EF8212F2CF8091B80182FD45
:1043E0002FC08F2D8F71AA20D9F21BC0AA2081F077
:1043F00034E0391508F4CBCE2F2D2F7181E090E0F9
:1044000001C0880F2A95EAF79091B6018927AFCFAE
:1044100085E0891508F4BBCEEFCF8F2D8F71A110E9
:10442000BFCF0E946C0FB3CE80E0AA2009F49FCFCB
:104430009F2D9F7181E001C0880F9A95EAF797CF71
:10444000AA2099F09F2D9F71F92E892F0E946C0F41
:104450008091B80182FF07C0A8E0FA9EC001112434
:104460008360809375018F2DDCCF81E00E94550F12
:10447000B1E0B91508F08BCE82E00E94550F87CECF
:10448000992079F0893341F4EFEFF7EE23E0E15022
:10449000F0402040E1F7FECE8FE19EE40197F1F776
:1044A000F9CE8F2D8F717CCFF701E054FE47E830B5
:1044B000F10508F0F9CCEA59F34D0C94CB2BCF93CE
:1044C000DF9380917401807F09F04DC0809173016A
:1044D000882309F448C0E091400250910702C0913E
:1044E0006F01D0916E01609170017091710147E090
:1044F0005E17C9F18E2F90E0E49FF0011124E85F70
:10450000FD4F2481222391F1489FF001499FF00D36
:104510001124DF01A85FBD4F11962C9111972C1328
:1045200025C02C912D1322C015962C911597211181
:104530001DC012962D913C91261B370B283C31054E
:10454000A8F4809174018F70806180937401E25FA0
:10455000FD4F80818F70806180838EE691E00E94A4
:104560002B1D0E94B00EDF91CF910895FC01319672
:10457000E770BECFA4E1B0E0E0ECF2E20C94722B65
:104580008C0186E0F801DE011F9601900D928A955C
:10459000E1F7F8018481E5809EE6A92E91E0B92E2D
:1045A00090917201911128C0882319F1EE20F1F049
:1045B000C8010E94EA11F82E8823C1F087E0F801B3
:1045C000D50101900D928A95E1F7809172018130B9
:1045D00031F480916E0190916F010E94DD110E9473
:1045E0005F228F2D6496ECE00C948E2BC8010E9404
:1045F0002B1DFF24F394F5CFD080C180828093805F
:10460000F09073012091700130917101A401421B5F
:10461000530BFF2009F4D9C0483C510508F092C063
:104620008823F9F290916F0180917401282F207FE7
:1046300009F056C0C91214C090916E01D91210C071
:10464000E11048C08F708061809374018EE691E024
:104650000E942B1D80917401F8018683F12CC1CF3B
:10466000E11038C06C2D8D2D0E94C70A6C2D8D2D48
:104670000E94C70AE82E8111F1CFDF86C88A8F8594
:1046800098890E94DD11292F22952F70243058F42B
:104690009F70223088F0992399F0F8019681907FDD
:1046A00079F4FE2C9ECF2A5F2F70223068F0C8016B
:1046B0000E942B1DEF2CF5CF992311F0882389F34D
:1046C000805E883070F3F3CF803F58F3815F833092
:1046D00070F7E7CF80917401816080937401BECF41
:1046E000C91207C090916E01D91203C0EE2009F4DF
:1046F0008DC0C8010E94EA11882309F477CFEE200B
:1047000009F474CF80917401803288F020916E0199
:1047100030916F01398728879B868A869091720134
:104720009C871D868E87CE0108960E942B1D87E0F0
:10473000F801AEE6B1E001900D928A95E1F70E9492
:104740005F2257CF90917401292F207F51F48EE67C
:1047500091E00E942B1D87E0F50111928A95E9F7FF
:104760007DCF882309F43DCF80916F018C1110C05B
:1047700080916E01D8120CC0E1100AC09683C80166
:104780000E942B1D87E0F50111928A95E9F729CF48
:10479000C8010E94EA11882309F428CFEE2009F409
:1047A00025CF80917401803210F220916E013091FA
:1047B0006F013A8329839C828B82909172019D8341
:1047C0001E828F83CE010196B0CF483C5105D0F6B2
:1047D000882309F40ECFFE2CEE2009F407CF809138
:1047E0006F018C1120C080916E01D8121CC0809185
:1047F000740180FD0FC0982F907F61F08683903FF9
:1048000031F0982F907F905F8F70892B8683C8013D
:104810000E942B1D87E0F801AEE6B1E001900D92F9
:104820008A95E1F7DECEC8010E94EA1181117FCF9F
:1048300080917401816080937401C8010E942B1DD6
:10484000D0CEABE1B0E0E7E2F4E20C947A2B4E8BF1
:104850005F8B688F798F8A8F9B8F192F91111092A0
:104860007F011D8A86E0FE017696DE011F9601908B
:104870000D928A95E1F70A8D002341F021E04F85E2
:10488000588969897A89C8010E940D120B8B1C8B8B
:1048900087E0FE013F96DE01189601900D928A9501
:1048A000E1F7CE0108960E94BA2281110CC087E080
:1048B000FE013896DE01119601900D928A95E1F77E
:1048C0008C8581110BC017E0809140029091070206
:1048D000891333C06B96E4E00C94962B2091070269
:1048E00030E0C9010196877099274091400248172E
:1048F000190699F097E0929FD001939FB00D112473
:10490000A85FBD4FFE01319601900D929A95E1F797
:10491000809307020E94B00ED6CF1092EE010E9443
:10492000B414109207021092400287E0EEE6F1E024
:10493000DF011D928A95E9F7C6CF819FC00111243E
:10494000885F9D4F0E94BA22882321F28091400205
:1049500090E001968770992780934002B5CFA6E03A
:10496000B0E0E5EBF4E20C947A2B0E94E5198C019F
:1049700080918001909181018017910781F01982C7
:104980001A820E94E519682F49815A81792F80E0A7
:1049900090E00E94212410938101009380012696CB
:1049A000E4E00C94962B1F921FB61F9211248F9354
:1049B0009F93AF93BF938091E801811113C08091C1
:1049C000E9019091EA01A091EB01B091EC014196CF
:1049D000A11DB11D8093E9019093EA01A093EB0121
:1049E000B093EC01BF91AF919F918F911F901FBE2B
:1049F0001F901895CDB7DEB7A6970FB6F894DEBF17
:104A00000FBECDBF85B7806885BF85B7806885BF7D
:104A100084B7877F84BF0FB6F894A8958091600013
:104A2000886180936000109260000FBE80E890E083
:104A30000FB6F89480936100909361000FBE81EAF5
:104A40009CE090934B0180934A010E94FD0A0E94D2
:104A50009E0B8091E20084608093E20078948091C4
:104A6000FB018823A1F01091E9001F709091EC00E8
:104A7000892F817090FD80E8182B1092E9008091B9
:104A8000E80083FD0E94C0141F701093E90082E0CB
:104A900084BD93E095BD9AEF97BD80936E00109210
:104AA000A5011092A6011092A7011092A8010E94E0
:104AB0003212811102C00E9461110E945410809331
:104AC00023010E94041081110E940A2A809123016F
:104AD00081112CC085E0EEE2F1E0DE0191960190BB
:104AE0000D928A95E1F789A180931E018AA1809396
:104AF0001F018BA1809320018CA1809321018DA1A6
:104B00008093220186E0E3E3F1E0DE01119601905B
:104B10000D928A95E1F7FE013196A8E1B1E0CE0150
:104B2000079621912D938E179F07D9F78091230126
:104B300095E0811190E09093B40185E0891B80930A
:104B4000B3010EE111E0D8018D918D018F3F11F07D
:104B50000E94A30CB1E003321B07A9F708E111E0A2
:104B6000F80181918F018F3F11F00E94A30CF1E0B9
:104B70000E311F07A9F78AE0E5ECF1E0DF01282FED
:104B80001D922A95E9F7E9EAF1E0DF011D928A9585
:104B9000E9F790E080E00E94E62B863E9E4F21F4EC
:104BA0000E94321281117AC066EE7EEF90E080E0C2
:104BB0000E941A2C60E082E090E00E94FC2B60E0F2
:104BC00083E090E00E94FC2B1092B50160E074E15C
:104BD00084E090E00E941A2C60E086E090E00E9461
:104BE000FC2B6FEF87E090E00E94FC2B40E050E050
:104BF000BA0188E090E00E940E2C60E084E290E030
:104C00000E94FC2B60E087E190E00E94FC2B60E0BA
:104C10008CE090E00E94FC2B60E08DE090E00E9430
:104C2000FC2B19821A821B821C821D821E821F820B
:104C3000188648E050E068E170E0CE0101960E94DD
:104C4000EC2B40E050E0BA0180E290E00E940E2C94
:104C500080E00E9448110E94611140E050E0BA01DA
:104C60008FE090E00E940E2C1092D7011092D80194
:104C70001092D9011092DA0182E390E09093D8016A
:104C80008093D7014091D7015091D8016091D9010B
:104C90007091DA0183E190E00E940E2C82E090E0B6
:104CA0000E94D82B8093B90184E090E00E94E62B0B
:104CB0009093B8018093B7010E94F119EFE3FCE9EA
:104CC0003197F1F700C000000E94F1198091C501F1
:104CD00080FF08C06FEF7FEF90E080E00E941A2C09
:104CE0000E945B0C83E090E00E94D82B0E94780F1A
:104CF0000E940410811102C00E940D2A0E94FD1220
:104D000083E190E00E94E02B6093D7017093D8017B
:104D10008093D9019093DA0184E291E09093E701C6
:104D20008093E60128E1C22ED12C30E4632E40E1CD
:104D3000B42E77247394AA24A3948091FB0112E1EA
:104D4000853009F481C00E94F1190AEB11E095EC5D
:104D5000E92E91E0F92ED701F80191918D9121E092
:104D6000E43CF20709F47CC09817B9F30E940410E0
:104D7000282E912CD7018D907D01F80131908F0163
:104D8000381429F13824512C44244394832D842150
:104D9000B1F02220A1F059A29AA20E94E5199CA389
:104DA0008BA3ADA291E0882D842109F490E09EA30D
:104DB00049A15AA16BA17CA18DA10E9421245394E9
:104DC000440CF6E05F12E2CFF801319780829394B1
:104DD0002AE09212CFCF0E943A1046C08091FB0188
:104DE000843019F10E94681B1092E8010FB6F89404
:104DF000A895C09260000FBE6092600083B7817F6B
:104E0000846083BF83B7816083BF7894889583B7BC
:104E10008E7F83BF0FB6F894A8958091600088615B
:104E200080936000109260000FBE8091FA01882389
:104E300059F00E94F119E5ECF1E08191811165C111
:104E400021E0EF3CF207C9F78091FB01853009F4BE
:104E5000C5CF1092EE010E94B4140E94291073CFA6
:104E6000981384CF0E94AF240E9404100E94681BF4
:104E700081110E943A100E9429109091C401891753
:104E800021F08093C4010E947B0C8091FB0184304F
:104E900009F053CF83E08093E9008091E80082FF1E
:104EA0004CCF8091E80090E085FF05C00E941C0B6C
:104EB000882391F091E08091E8008B778093E8005F
:104EC000992309F43ACFE981E150E33170F5F0E03C
:104ED000E259F34D0C94CB2B80E2E82EF12C8E019D
:104EE0000F5F1F4F8091E80085FD0AC08091E800A8
:104EF0008B778093E8000E941C0B882399F3DACF0C
:104F00008091F100D8018D938D01B1E0EB1AF10889
:104F100049F7D0CF1A828CE08B831BC08A81823004
:104F200009F40BC128F4813061F08FEF898311C03F
:104F30008330C1F08430C9F71B821C821D821E821F
:104F400008C00E947B0C0E94D12B6B837C838D83D5
:104F50009E8340E250E0BE016F5F7F4F82E00E947F
:104F60007B0FEBCE2B81822F90E0FE013496245EE6
:104F70008A30910570F7DC01AB53BE4F3C91319301
:104F800001962813F5CFE5CF8A81823019F085305C
:104F900001F3CBCF6B817C818D819E810E94D12BCF
:104FA00088E290E00E94FC2BD4CF4C816B818A81F7
:104FB0000E9471119827892798279E838D83C9CFD6
:104FC0002D813E813227232732274C816B818A81B4
:104FD0000E94EA10BECF0E941011BBCFBA82B9CF97
:104FE0007A828FE799CFEA80FB80FE24EF24FE24AB
:104FF0008E010F5F1F4F8C80800E912E911CC70178
:105000008F579D4F8016910609F4A3CFEFE7EE1658
:10501000E1E0FE0658F40E94D82BD80114968C9338
:10502000FFEFEF1AFF0A0F5F1F4FE9CFF80114825D
:10503000F7CF0A811B81102701271027CE01019687
:105040004C01EC80E00EF12EF11CC8018F579D4FF2
:105050000E151F0509F47DCF0F37A1E01A0720F4C4
:10506000F40164810E94FC2BFFEF8F1A9F0A0F5FEF
:105070001F4FEBCF0E94DA106CCF85E08A8369CF97
:10508000EA80FB80FE24EF24FE248E010F5F1F4F79
:105090008C80800E912E911CC701899608151905E8
:1050A00009F457CF28E5E21622E0F20658F40E94F0
:1050B000D82BD80114968C93FFEFEF1AFF0A0F5FDD
:1050C0001F4FEACFF8011482F7CF0A811B81102706
:1050D00001271027CE0101964C01EC80E00EF12E45
:1050E000F11CC8018996E016F10609F432CF0835A3
:1050F000A2E01A0720F4F40164810E94FC2BFFEF68
:105100008F1A9F0A0F5F1F4FECCFB9BC19BD09B4AE
:1051100000FEFDCF8091D8008F7D8093D8008091D4
:10512000E00082608093E0008091E00081FDFCCF90
:105130001092EE010E94B41487CE88E290E00E94A3
:10514000D82B1B821C821D828E8303CF289A219A22
:10515000229A23982B9880E58CBD089590912D017B
:105160009F3F09F071C08F3F09F46EC0611144C0C8
:105170001092480290914802423009F441C04330F5
:1051800009F442C094604130E1F141E050E042173F
:105190005307E0F1909148024031510509F452C0A3
:1051A000C0F54230510509F446C04830510509F4B4
:1051B00046C09CB520914802922B9CBD909147021D
:1051C000992319F09DB591609DBD80932D01E82F25
:1051D000E295EF70F0E031A1282F2F7081E090E090
:1051E00001C0880F2A95EAF7382B31A392A1809548
:1051F000892382A381E0089590E290934802BACF78
:10520000986090934802C1CF9C60FBCF440F551F1C
:10521000BECF4034510549F04038510541F040328D
:10522000510539F621E020934702926001C0936056
:1052300090934802BECF91E090934702BACF21E00D
:10524000209347029160F4CF80E00895CF93DF93DD
:105250008EBD0E94E519EC010DB407FE05C08EB5A8
:1052600090E0DF91CF9108950E94E5198C1B9D0B72
:105270008436910588F38EEF9FEFF3CFCF93DF93C2
:105280001EBC0E94E519EC010DB407FE05C08EB5E9
:1052900090E0DF91CF9108950E94E5198C1B9D0B42
:1052A0008436910588F38EEF9FEFF3CF0F931F9312
:1052B000CF93DF93EC018C01060F171FC017D107A6
:1052C00019F490E080E005C089910E94262997FF9B
:1052D000F5CFDF91CF911F910F9108950F931F93F9
:1052E000CF93DF93EC018C01060F171FC017D10776
:1052F00039F490E080E0DF91CF911F910F910895F4
:105300000E943E2997FDF7CF8993F0CF80912D0120
:105310008F3F29F1E82FE295EF70F0E041A18F7007
:1053200021E030E0B90102C0660F771F8A95E2F7ED
:10533000CB01942F982B91A392A1892B82A38FEF5D
:1053400080932D018DB58E7F8DBD9CB580914802D7
:10535000809589238CBD10924802109247020895CF
:105360008EE14A9B02C08150E1F74A9BFECF08952F
:105370005A9880E28A95F1F75A9A0895FC013BE029
:105380003A95F1F798E020E080E031E040E14A957D
:10539000F1F7880F4A9B02C08160232742E04A95BB
:1053A000F1F7000040E14A95F1F7915079F790E16B
:1053B0009A95F1F799B132E03A95F1F7000040E1A2
:1053C0004A95F1F792FB992790F992272081920F45
:1053D00090830895A1E0B0E0E0EFF9E20C94782B1F
:1053E00019828C017C01E60EF11C0E151F0541F49B
:1053F00081E09981911180E02196E6E00C94942B54
:105400000E94B029CE0101960E94BE29F801819325
:105410008F01EBCF529A5A9A089552985A9AEA9A63
:10542000E9E6F0E080818F7C808308956150770BFE
:1054300091E001C0990F6A95EAF720E031E09111FF
:1054400008C0222391F05A9A80E28A95F1F75A987F
:105450000895492F482339F05A9A232740E24A9564
:10546000F1F79695ECCF5A98F9CF5A98EDCFFF9275
:105470000F931F93CF93DF93EC018C01060F111D47
:10548000C017D10729F4CDB7DEB7E5E00C94952B12
:10549000F9900E94B82968E08F2D0E94162AF0CF5B
:1054A0001F920F920FB60F9211240F931F932F93F9
:1054B0003F934F935F936F937F938F939F93AF939C
:1054C000BF93EF93FF93CF93DF930F92CDB7DEB7E8
:1054D00019820E94B029CE0101960E94BE29082F90
:1054E000069506950695282F22952570902F957084
:1054F000290F922F937026952695920F98279770D3
:105500008981982B09F05CC0043008F059C080E113
:105510008A95F1F75A9A529A82E08A95F1F700C07B
:105520005A9888E0089F80011124D801A050BF4FED
:105530001696ED91FC9117973097A9F0609139017B
:1055400070913A0114962D913C911597260F371FB3
:1055500011968D919C911297680F791F13964C911B
:1055600013978C910995F801E050FF4F63816623F2
:1055700051F02091390130913A0184819581820F57
:10558000931F0E94372A0E94B82980E18A95F1F77B
:105590005A9852985A9A80E18A95F1F7F801E050AA
:1055A000FF4F6081662351F02091390130913A011B
:1055B00081819281820F931F0E94EA290E94B02963
:1055C0000F90DF91CF91FF91EF91BF91AF919F919C
:1055D0008F917F916F915F914F913F912F911F918B
:1055E0000F910F900FBE0F901F9018950F931F9360
:1055F000CF93DF93EC0104970CF04CC0F894529ACF
:105600005A9885E08A95F1F700009C2F9695957041
:105610008C2F8570980F892F83709695969523E02F
:10562000CC0FDD1F2A95E1F7980F8E01092B0E9400
:10563000B82900C068E0802F0E94162A80E18A9570
:10564000F1F752985A9A4A9B1EC087E090E04A9917
:105650001CC0FE01E050FF4F63816623F9F02091EA
:10566000390130913A0184819581820F931F0E9404
:10567000EA29811113C0529A5A9A7894DF91CF91F6
:105680001F910F91089500C0DECF019729F4529A1F
:105690005A9A789480E0F2CF00C0D9CF0E94B02906
:1056A00080E28A95F1F75A98529A80E18A95F1F74B
:1056B000C050DF4F6881662351F02091390130914D
:1056C0003A0189819A81820F931F0E94372A0E9492
:1056D000B829789481E0D2CF2F923F924F925F9277
:1056E0006F927F928F929F92AF92BF92CF92DF92F2
:1056F000EF92FF920F931F93CF93DF93CDB7DEB757
:10570000CA1BDB0B0FB6F894DEBF0FBECDBF0994EA
:105710002A88398848885F846E847D848C849B8441
:10572000AA84B984C884DF80EE80FD800C811B814F
:10573000AA81B981CE0FD11D0FB6F894DEBF0FBE7E
:10574000CDBFED010895AA1BBB1B51E107C0AA1FE5
:10575000BB1FA617B70710F0A61BB70B881F991F12
:105760005A95A9F780959095BC01CD01089597FBB6
:10577000072E16F4009407D077FD09D00E94A32BC2
:1057800007FC05D03EF4909581959F4F0895709544
:1057900061957F4F0895EE0FFF1F0590F491E02D66
:1057A00009946927962769277827872778270895F6
:1057B000F999FECF92BD81BDF89A992780B50895D9
:1057C000A6E1B0E044E050E00C94222CA8E1B0E067
:1057D00042E050E00C94222CDC01A40FB51F415094
:1057E000504048F0CB01840F951F2E910E94FD2B55
:1057F00041505040D0F70895262FF999FECF92BD21
:1058000081BDF89A019700B4021639F01FBA20BD85
:105810000FB6F894FA9AF99A0FBE08950396272FB7
:105820000E94FD2B0E94FC2B252F0E94FD2B242F74
:105830000C94FD2B0196272F0E94FD2B0C94FC2B22
:10584000DC01CB01FC01F999FECF06C0F2BDE1BD40
:10585000F89A319600B40D9241505040B8F708952F
:10586000FB01DC0104C08D910190801921F44150AD
:105870005040C8F7881B990B0895FB01DC0102C05A
:1058800001900D9241505040D8F70895F894FFCF01
:10589000A315CB156E17CB156E17FE151F166E17B9
:1058A0001D172A17C31EC31EC31E161FE71DE71DA3
:1058B000E71DE71D642064209E209E20C720502104
:1058C000C720C7205521C221D321D321C31EC31E07
:1058D000C31E101F191F321F401F4A1F8A278E2701
:1058E000C427D527E027EB279527952795279527C8
:1058F0009527EE27F027F32719283A283D28402836
:02590000652818
:10590200000000010000000000000005010000008E
:105912000406000000000000669497C63435F6F7CE
:1059220031333201580CBD0FB60F570C01FF669789
:10593200C63435F7F6F5F4909496014422491701DE
:0A594200F500AC0073148C14AC14D3
:00000001FF
