:100000000C947D0A0C949A0A0C949A0A0C94D72D9D
:100010000C949A0A0C949A0A0C949A0A0C949A0AD0
:100020000C949A0A0C949A0A0C947B150C947D19E2
:100030000C9479270C949A0A0C949A0A0C949A0AB4
:100040000C949A0A0C949A0A0C949A0A0C949A0AA0
:100050000C949A0A0C9454160C949A0A0C949A0ACA
:100060000C949A0A0C949A0A0C949A0A0C949A0A80
:100070000C949A0A0C949A0A0C949A0A0C949A0A70
:100080000C949A0A0C949A0A0C949A0A0C949A0A60
:100090000C949A0A0C949A0A0C949A0A0C949A0A50
:1000A0000C949A0A0C949A0A0C949A0A0501090273
:1000B000A10185020901A1000509190129081500FE
:1000C0002501950875018102050109300931158165
:1000D000257F95027508810609381581257F9501D0
:1000E00075088106050C0A38021581257F95017572
:1000F000088106C0C00660FF0961A1010962150000
:1001000026FF009520750881020963150026FF006F
:10011000952075089102C005010906A1010507197E
:10012000E029E71500250195087501810295017503
:100130000881010507190029FF150026FF00950613
:100140007508810005081901290515002501950587
:1001500075019102950175039101C0000000000036
:10016000000000000000000000000000000000008F
:100170000000000000000000000000000000007E01
:100180000F00D4FFFFFFC700000078000000000050
:100190000000002A2B2800000000000000000000E2
:1001A00000000000000029000000002C1E34202167
:1001B0002224342627252E362D3738271E1F2021AE
:1001C00022232425263333362E37381F040506070D
:1001D00008090A0B0C0D0E0F101112131415161727
:1001E00018191A1B1C1D2F3130232D350405060745
:1001F00008090A0B0C0D0E0F101112131415161707
:1002000018191A1B1C1D2F3130354C01048E966EA7
:10021000773EFE7E5F1DB8F2664EFF5D19B0C204E8
:1002200069542AD62EBFDD19B0C3E529B1E023A554
:10023000A9B1C10082674C1A978D795120C7068EEB
:100240007C7C7A764FFD5930E2460E9EBEDF1D99CA
:1002500091A0A5A1A9D022C6EF5C1B958990A2A769
:10026000CCFB5528B3E44AF76C3BF46A562EDE1FEC
:100270009DB8D3058892A6CE1EBEDF1D99B0E2467A
:10028000EF5C07115D980B9D9497EE4E45336B44E0
:10029000C729562730C6A7D5F256DFB43862CBA09F
:1002A000B6E30F84062405656F7689B5774127820A
:1002B000666582CCD5E620D52717C5F803237C5F79
:1002C00064A51DC1D636CB4CD4DB66D78BB1997EE5
:1002D0006F4C364006D6EBD7A2E4F495515A5496AB
:1002E000D55344D78CE0B94068D218E9DD9A2392FF
:1002F00048EE7F43AFEA7738848C0A72AF69F8DD45
:10030000F12483A3F84ABFF59413DBBBD8B4B3A0A0
:10031000FB4550603059123171A2D313E7FAE7CE92
:100320000F63150B6B94BB378326059DFB4692FC30
:100330000A15D10D7392D68C1B8CB8558ACEBDFE92
:100340008EFCED0912839182513123FBB40C76AD02
:100350007CD9B44BB26714099C7F0C18BA3BD68E7B
:10036000142AE41B529F2B7DE1FB6A3302FAAC5A3C
:10037000F23E887EAED1F378E805D1E3DC21F6E1E8
:100380009ABD170ED9469B8803EAF666BE0E1B502F
:1003900049964097F1F1E480A66EE87734BF294092
:1003A00044C2FF4E98D39CA3322B76510409E7A98F
:1003B000D1A632B12353E247ABD6F5695C3E5FFA72
:1003C000AE4520E5D244FF39326DFD27575CFDF084
:1003D000DEC1B599E5F51C770175C56D5892F2B28D
:1003E00047000126967A30FFB7F0EF77C18A5DDCCF
:1003F000C0D129301E77387A94F1B87A7EEFA4D133
:10040000AC314AF25D643DB2E2F00899FC70EE2432
:10041000A77EEE1E20697D44BF8742DF883B0CDA51
:1004200042C904F94550FC838F116A72BC9995F05A
:10043000AC3DA73BCD1CE2887937115F3989950A1D
:1004400016847AF68AA428E4ED83803BB123A503C1
:1004500010F466EABB0C0FC5EC6C69C5D324ABD4B1
:100460002AB799887608A0A8957CD8386DCD59020E
:10047000514BF1B52B50E3B6BDD072CF9EFD6EBB94
:1004800044C8248A77188A1306EF977DFA81F031E1
:10049000E6FA77ED3106315B548A9F3068DBE24043
:1004A000F84E73FAAB748B105813DCD2E678D13265
:1004B0002E8A9F2C58064827C5A95E814789462168
:1004C000910370A43E889CDA330ACEBC8B8ECF9FFA
:1004D000D3718043CF6BA95183763082C56A853949
:1004E00011501A82DC1E1CD57DA9719933471997CA
:1004F000B35AB1DFEDA4F2E62684A2289A9EDFA6C5
:100500006AF4D6FC2E5B9D1A2A2768FBC183214B17
:1005100090E036DD5B314255A013F7D089537199D5
:10052000570929C5F321F8372F40F3D4AF16083601
:1005300002FC77C58B049056B9C9679A99E800D335
:1005400086FF972D08E9B7B391BCDF45C6ED0F8C48
:100550004C1EE65B6E3830E4AAE395DEB9E49AF50A
:10056000B2559A879BF66AB2F2779A31F47A31D112
:100570001D04C07C32A29E9AF562F8278DBF51FF00
:10058000D3DF64373F2A6F763A7D77069E777F5EAA
:10059000EB3251F916669A09F3B008A4709646300A
:1005A000FFDA4FE91BED8DF8741F3192B3731736E4
:1005B000DB9130D688556B3477877AE7EE06C61C18
:1005C0008C190C4846235E9C075CBFB47ED64F74E2
:1005D0009CE2C5508BC58B159060625729D01343A0
:1005E000A18088910044C74D1986CC2F2A755AFCEA
:1005F000EB972A70E378D891B04F9907A395EA2436
:1006000021D5DE512093270A3073A8FF8A97E9A7E6
:100610006A8E0DE8F0DFECEAB46C1D392A622D3DDC
:100620005A8B65F890052E7E912C78EF8E7AC12F2B
:10063000AC78EEAF2845064C26AF3BA2DBA3930671
:10064000B53CA5D8EE8FAF25CC3F856848A962CCD4
:10065000978F7F2AEAE0150AAD6207BD45F841D8B9
:1006600036CB4CDB6EE63AE7DA15E9291E1210A00C
:10067000142C0E3DF4BF394192750B257BA3CE3966
:100680009C1564C8FA3DEF7327FE262ECEDA6EFD68
:10069000718EDDFE76EEDC125C02C53A4E4E4FBF27
:1006A000CA4015C76E8D41F110E04F7E977F1CAE9A
:1006B000478E6BB12531B073C71B9779F980D3662C
:1006C000223007741EE4D08021D6EE6B6C4FBFF54C
:1006D000B7D909872FA914BE27D9725001D4137333
:1006E000A6A751027525E1B345347DA88EEBF3161C
:1006F00049CB4F8CA1B9368539755D0800AEEBF654
:10070000EAD7133A215A5F3084522695C914F2571A
:10071000556BB110C2E1BD3B51C0B7554C711226AB
:10072000C70DF951A43802057FB8F1724BBF71892A
:1007300014F37738D97124F30011A1D8D4692708AC
:100740003735C9119D901C0EE71CFF2D1EE892E164
:100750001810957CE080F4964321F975216438DD0A
:100760009F1E9516DA561D4F9A53B2E2E418CB6BD2
:100770001A65EB56C63BE5FED8263F3A84597266A9
:10078000A2F375FFFB60B322AD3F2D6BF9EBEA05D9
:100790007CD88F6D2C989E2B93F15E46F08749296B
:1007A0007368D77FF9F0E57DDB1D7519F3C4589B9D
:1007B0001788A892E0BEBD8B1D8D9F5676ADAF29E0
:1007C000E2D9D552F6B55635573AC8E15643199491
:1007D000D3049B6D35D80B5F4D198EECFA64910AEA
:1007E00072202BBC1A4AFE8BFDBBED1B23EAAD72B7
:1007F00082A1299971BDF095C103DD7BC2B23C286D
:1008000054D368A472C86696E0D1D87FF8D1262B5D
:10081000F7ADBA55CA15B932C3E588978E5CFB921D
:10082000258BBFA245557AA76F8B575BCF0ECB1D8B
:10083000FB208277A88CCC16CE1DFADECC0B62FE94
:10084000CCE1B7F0C381647340A0C24D8911753308
:1008500055338DE84AFDEA6E300BD7312CDE47E385
:10086000BFF85542E27F59E517EF99346991B123FA
:100870008E20872DA8FED58AF3843AF037E409004C
:1008800054EE674993E48170E3904DEFFE41B799D0
:100890007BC183BA62126F7DDE6BAFDA16F95551F8
:1008A000EEA60C2B02A3FD8DFB3017E46FDF367133
:1008B000C4CA872548B047ECEAB4BFA54D9B9F0248
:1008C00093C4E3E4E8422D6881150AEB845BD6A863
:1008D00074FB7D1DCB2CDA462A7662CEBC5C9E8BE7
:1008E000E7CFBE78F57CEBB33A9CAA6FCC72D159B6
:1008F000F21123D63F48D1B7CEB0BFCBEA80DE5746
:10090000D45E972F75D1508E802C6679BF724BBD07
:100910008A816CD3E101DCD21526C536DA2C1AC0E7
:100920002794EDB79B850B5E8097C5EC4FEC885DF7
:1009300050073547DC0B3B3DDD60AFA85D813824B7
:10094000255D5C15D1DEB3ABEC0569EF83ED575443
:10095000B8646411163269DA9F2D7F36BB445A346D
:10096000E87FBF03EB007F59682279CF736C2C2995
:10097000A7A15F38A11DF02053E01A63145871102D
:10098000AA080C3E161A6022827FBAA443A0D0ACFB
:100990001BD56B64B51493319E5350D05766EE5AF5
:1009A0004FFB032A695876F183F74EBA8C420660F2
:1009B0005D6DCE6088AEA4C3F103A54B98A1FF671F
:1009C000E1ACA2B862D76FA031B4D277AF211006E4
:1009D000C69AFF1D09170E5FF1AA54344B458A874A
:1009E00063A6DCF9243067C6B2D6613369EE506184
:1009F0005728E77EEEEC3A5A734EA88DE418EAECDD
:100A00004164C8E2E866B62DB6FB6A6C16B3DD46F3
:100A100043B973006A71ED4E9D251AC33C4A951582
:100A20009935811402D6989BECD8233B8429AF0CCE
:100A30009983A69A344FFAE8D03C4BD0FBB668B8FD
:100A40009E8FCDF7602D7A22E57DAB651B95A7A81B
:100A50007FB677477B5F8B1272D0D491EFDE19504F
:100A60003CA78BC4A9B323CB76E681F0C1048FA346
:100A7000B8545B97AC19FF3F55272FE01D429B5799
:100A8000FC4B4E0FCE98A9435703BDE7C894DF6EC9
:100A9000367332B4EF2E857A6EFC6C188275359001
:100AA00007F3E49F3EDC68F3B5F31980920699A240
:100AB000E86FFF2E7FAE42A45FFBD40E812BC304F0
:100AC000FF2BB3744E365B9C1500C6472BE88B3D5D
:100AD000F19C039A587F9B9CBF854979352E567BA4
:100AE000411439478326AA078998111B86E7737A30
:100AF000D87D786153E979F5368D449284F91350A5
:100B0000583BA46A3665498E3C0EF16FD284C47E90
:100B10008E3F39AE7C84F163378E3CCC3E448145B8
:100B2000F14BB9ED6B365DBB20601A0FA3AA557768
:100B30003AA9AE374DBAB8866BBC0850F6CCA4BD06
:100B40001D4072A586FAE210AE3D584B97F34374F0
:100B5000A99EEB21B701A4869397EE2F4F3B86A168
:100B6000416F412690785C7F30384B3FAAECED5CBA
:100B70006F0EAD4387FD9335E601EF412690999EB8
:100B8000FB195BADD2918AE046AF65FA4F84C1A1F3
:100B90002DCF458BD38550557CF96788D44EE9D746
:100BA0006B6154A1A4A6A2C2BF309C409F5FD769CD
:100BB0002B24825ED9D6A712541AF7559F7650A9D6
:100BC0009584E66B6DB59654D6CDB3A19B46A7949C
:100BD0004DC494B498E3E1E234D533160754CDB74D
:100BE0007753DB4F4D469DE9D49C8A36B6B83826FC
:100BF0006C0EFF9C1B438B80CCB93DDAC7F18AF2A7
:100C00006DB8D7742F7E1EB7D34AB4ACFC79486C4C
:100C1000BC96B69446572DB0A3FC1EB95260852DE4
:100C200041D043011E1CD57DFCF3960DC7CB2A296C
:100C30009A93DD882D375DAAFB4968A09C50867F7A
:100C4000685657F9791839D4E001843361CAA5D2BE
:100C5000D6E4C98A4A23444EBCF0DC24A1A0C4E2F5
:100C6000073C10C4B5254B6563F480E7CF61B171D3
:100C70008221872CF59100320CECA9B59A7485E39A
:100C8000368F764F9C6DCEBCAD0A4BED7604CBC350
:100C9000B9339E019396697DC5A245799B045C8416
:100CA00009ED8843C7AB931426A140B5CE4EBF2AA9
:100CB00042853E2C3B54E8121F0E9759B22789FA01
:100CC000F2DF8E6859DC06BCB6850D0622ECB1CB8E
:100CD000E504E63DB3B04173083F3C588663EB50F2
:100CE000EE1D2C3774A9D318A3476E9354AD0A5D3B
:100CF000B82A555D78F6EEBE8E3C7669B940C234AE
:100D0000EC2AB9ED7E20E48D0038C7E68F44A88632
:100D1000CEEB2AE990F14CDF32FB731B6D921E95EE
:100D2000FEB4DB65DF4D23548948BF4A2E70D6D709
:100D300062B43329B13A334C236DA676A5216348BA
:100D4000E6905DED90950B7A84BEB80D5E630C6203
:100D5000264C145AB3AC23A474A76F33300560013A
:100D600042A028B7EE1938F164808243E141271F81
:100D70001F90547AD5232ED13DCB28BA587FDC7CE6
:100D80009124E92851836EC5562142EDA05622A137
:100D900040806BA8F794CA136B0C39D9FDE9F36F47
:100DA000A69EFC708AB3BC593C1E1D6CF97CAFF941
:100DB000887195EB5700BD9F8C4FE12483C522EAD3
:100DC000FDD30CE217187C6A4CDE77B4539B4C8140
:100DD000CD2360AA0E25739C02793230DF74DF7553
:100DE00019F4A5145CF77AA8A591847C6003063BEE
:100DF000CD50B6279CFEB1DDCCD3B05924B2CAE2A7
:100E00001C81229D078F8EB9BE4EFAFC3965BABF90
:100E10009D12375E977EF389F55DF5E3098C62B527
:100E2000209D0C538A681BD28F75175DD4E5DA7547
:100E30006219146A262DEBF8AF37F06CA455B1BCDB
:100E4000E233C09ACAB011494F689B3B6B3CCC134C
:100E5000F6C785616842AEBBDDCD4516291DEADBCC
:100E6000C803943CEE4F8211C3EC28BD970599DE70
:100E7000D7BB5E221FD4EB64D992D985B76A056AC5
:100E8000E42441F1CDF0D83FF89E0ECD0B7A706B83
:100E90005A750A6A3388EC17750870102F24CFC46E
:100EA000E942006194CA1F3A7606FAD24881F07787
:100EB000600345D961F4A46F3DD930C3046B542A53
:100EC000B7EC3BF44BF5685226CEFF5D1991A0A319
:100ED000A5A9B1E023C40A774DF95120A3A5A9B172
:100EE000C10082868E7F5D1991A0A3C4EB540B755F
:100EF0006852078C9A978D79706246EF5C1B9589D2
:100F00007141E121A1A1A1C002674C1AB6CFFD78C1
:100F10005324ABB5C9F16023A5C812876D5813855A
:100F20008892876D5832C70C9A97ACDA36EE5E3EDF
:100F3000DF1DB8F2662FBDF87247ED581385889211
:100F4000878C7B550990A2C6EF3DF85324ABD42A79
:100F5000B7EC5A36EE5E3EDF3CFA764FFD5930E292
:100F600046EF3DF853056931C10082868E7F5D19D9
:100F7000B0E227CCFB744B148B948B756833C50897
:100F800092878C9AB6CF1CBAD70D98B2E62FDC1B8D
:100F90009589716023C40A968F9CBAF66E3FFC5BFC
:100FA00015A8D226AFBDF872662FDC1BB4CB148B0C
:100FB00094AAB7CDF951018082866F3DD930E227DE
:100FC000CCFB744B14AAB7CDF97043046B35C9F14F
:100FD0006023A5C8F3450892876D5832E62FBDF807
:100FE00072664E1EBEFE7E7E7E5F1D9991A0A3C4DA
:100FF0000A774D1893A4ABD40B754910A2C6EF3DE8
:10100000F85324ABB5E833E44A16AEDE1FBCDB155B
:10101000A8B3C5087345E931C1E121A1A1A1C0026E
:10102000866F5C3AD70D9893A4CA16AEDE1F9D99C1
:10103000B0E246EF3DF872470C9AB6CFFD5911A0C9
:10104000A3A5C8F3450892876D39F043048A96AE8C
:10105000DE3EDF1D9991A0C2066F3DF872470C9AE3
:10106000978D989385887345E931E023A5A9D0032E
:10107000848A96AEDE1FBCDB15A8D226CEFF5D1992
:1010800091818082672DD813A4ABD40B94AAB7CDDD
:10109000F95120A3A5C8F345E95022C6EF5C3AD721
:1010A0000D9893858873644AF74DF95120A3C40ABB
:1010B00096AEDE3EFE7E7E7E5F3CFA764FFD787217
:1010C000662FBDD930C3E54812878C7B5528D207DF
:1010D0008C9A97ACDA178D795120A3C4EB540B94FA
:1010E0008B94AAD62EBFFC5B15A8D226AFDC1BB40E
:1010F000EA37EC3BF46A37CD1893856931C1E1409A
:10110000E325C812878C9AB6CFFD5911A0C2068E6E
:101110007F5D38F2470C7B746A37EC5A36EE3FFC41
:101120007A764F1C9B95897141006344EB542AD613
:101130000F9CBAD70D9893856931C10082868E9E27
:10114000BEDF3CFA572CDA36EE3FFC5B1589714165
:101150000082868E7F5D38F247ED5813A4CAF74DA2
:10116000F95101806344EB542AD62EBFDD1991A0BA
:10117000A3A5A9B1E042068E7F5D1991A0A3C40A80
:10118000968F7D7872470C7B746A562EDE1FBCFAF0
:10119000570D7951016121A1C0E325A9B1C1E140F9
:1011A00002674C1A978D9893A4ABD42AD60F9C9BB8
:1011B000B4CB14AAB7CDF95120A3C4EB35C9F16063
:1011C00042068E7F7C7A766E3FFC7A766E5E3EFEBD
:1011D0007E5F3CDB15897141E121C0E344EB542A79
:1011E000B7CDF9706227ADD832C70C7B744B14AA07
:1011F000B7EC3BD528D2076D39D120C2E74C1A97FE
:101200008D98B2C70C5928F39B29001E001F00209F
:101210000021002200230024002500260027002DA5
:10122000004C0014001A000800150017001C0018DC
:10123000000C0012001300890000002B00040016AF
:1012400000070009000A000B000D000E000F00331C
:1012500000240221521D001B000600190005003069
:1012600000320011001000360037003800E500E3BE
:101270000091412C4290432A0028429141000000F5
:101280000029021E022F002002210222022E00232A
:101290000234022502260287024C0214021A0208B6
:1012A00002150217021C0218020C02120213028914
:1012B0000200002B0204021602070209020A020BB6
:1012C000020D020E020F0234001F0201001D021B5C
:1012D0000206021902050230023202110210023621
:1012E0000237023802E502E30201000100010001B9
:1012F00000010001000000000001003A003B003C3A
:10130000003D003E003F00400041004200430044D9
:10131000000100010024002500260001000100500A
:101320000052004F000100450000000100010021B3
:10133000002200230033024B00D1005100D200D321
:10134000000100010001001E001F0020002D0225E9
:101350000226024E000100010001000100010037D9
:10136000000100010001004C00010001000000002C
:10137000002078010001000100010001002B782C01
:10138000782D782E782F7830782178237825782753
:101390007801000100317832783378347801000127
:1013A00000000022782478267828780100010001C6
:1013B0000001000100010001000100010001000125
:1013C00000010001000100010001004A004E004B35
:1013D000004D0001000100510052004F00010001CA
:1013E000002A0001000000000001000100010001CE
:1013F00000010001000100010001000100010001E5
:1014000000010001000100010001000100010001D4
:1014100000010001000100010000000100010001C5
:1014200000010001000100010001000100010001B4
:1014300000010001000100010001000100010001A4
:101440000001000100407E0100417E010001000119
:101450000001000100010001000100010000000086
:101460000009025B00030100A0FA09040000010367
:101470000101000921110100012244000705810337
:101480000800010904010002030000000921110104
:101490000001222200070582032000010705030343
:1014A00020000109040200010300000009211101CC
:1014B00000012249000705840320000112010002F7
:1014C00000000008000199F9000101020001160363
:1014D000730075006D006E0069006700680074009D
:1014E0003500370000000E036D00610072006200DD
:1014F0007900330000000403090411241FBECFEF5C
:10150000DAE0DEBFCDBF11E0A0E0B1E0E2E6F0E658
:1015100002C005900D92AA34B107D9F722E0AAE4DF
:10152000B1E001C01D92A935B207E1F70E94A027E2
:101530000C94CD2F0C940000482F209153029091D1
:101540001A0257E0291302C080E0089530E0529F4C
:10155000F001539FF00D1124E55EFD4F818168136A
:1015600006C08081481303C085818111EECF2F5FB3
:101570003F4F2770E7CFFC01AC014B5F5F4F8FEF10
:1015800091E32191822728E030E087FF09C0880F8E
:10159000892721503109C9F7E417F50791F7089514
:1015A000880FF7CFE8EDF0E080818E7F8083109286
:1015B000E2001092DA001092E100A0EEB0E08C910F
:1015C00081608C9380818F77808319BCA7EDB0E018
:1015D0008C918E7F8C9380818F7E8083109201020C
:1015E00008952091E4003091E50095E6A90120914D
:1015F000EC00822F817020FF06C08091E80080FF00
:1016000006C080E008952091E80022FD1AC0809174
:101610000E02882389F0853089F08091EB0085FDEA
:101620000FC02091E4003091E50042175307F9F212
:101630009150E1F684E0089582E0089583E00895F2
:1016400081E008958091100287FF13C08091E80027
:1016500082FF06C08091E8008B778093E80004C089
:1016600080910E028111F2CF089580910E0288239D
:10167000D9F38091E80080FFF8CF8091E8008E7761
:10168000ECCF982F9093E900242F762F50E0891704
:1016900031F07091EC002091ED005091F00021FDAF
:1016A00007C09F5F973071F78093E90081E008954C
:1016B0003091EB003E7F3093EB003091ED003D7FA9
:1016C0003093ED003091EB0031603093EB0070937C
:1016D000EC002093ED005093F0002091EE0027FDE8
:1016E000E0CF80E00895B0E0A0E0E9E7FBE00C94F3
:1016F000FD2EC8EDD0E088818F7E8883E7EDF0E095
:1017000080818160808384E082BF81E080930102D8
:1017100088818E7F888302EE10E0F801108210929B
:10172000DA0081EEC82ED12CF601108288818F77E5
:10173000888388818068888388818F7D888319BCAD
:1017400010920E0210920F0210920D0210920C02D3
:1017500090EEE92EF12CF70180818B7F80838881C8
:101760008160888342E060E080E00E94410BF601E6
:1017700080818E7F8083F801808181608083808179
:1017800088608083F70180818E7F8083888180617B
:101790008883CDB7DEB7E8E00C94192FFC01809167
:1017A00016029091170286179707A0F06115710530
:1017B00029F49091E8009E779093E80090E06115FD
:1017C000710551F4911108C08091E80082FF34C086
:1017D00080E00895BC01F2CF80910E028823C1F110
:1017E0008530C1F18091E80083FD30C08091E80030
:1017F00082FDEACF8091E80080FFE1CF8091F30085
:101800002091F200382F6115710519F0283031054B
:1018100058F091E02830310509F090E02091E8007F
:101820002E772093E800CBCF81918093F100615017
:1018300071092F5F3F4FE7CF80910E02882341F05F
:10184000853041F08091E80083FFBECF81E00895AC
:1018500082E0089583E00895089580910302089539
:1018600087E797E7909301088093000888E19AE062
:101870000FB6F894A895809360000FBE9093600017
:10188000FFCF9C014FB7F8948091FD019091FE012C
:10189000A091FF01B09100024FBF821B930B0895EE
:1018A0002FB7F8946091FD017091FE018091FF01C6
:1018B000909100022FBF0895DC01FB0111969C91CD
:1018C00011978181981322C012968C9112978823C8
:1018D00019F0928189131AC013968C91139788235B
:1018E00019F09381891312C015968C91159788234E
:1018F00019F0958189130AC014969C91992321F0BF
:1019000081E02481291303C080E001C081E081705F
:1019100008959C01FC0132969FEF80E041914617AB
:1019200051F09F3F19F4411101C0982F8F5F86300D
:10193000A9F79F3F09F40895290F311D97FD3A95A6
:10194000F90162830895E091FA01F091FB0130976B
:1019500039F022E0DC012C930480F581E02D09951B
:1019600008958091D20180FD16C081FD16C082FDD0
:1019700016C08091D1018823A1F0883280F428E03C
:10198000829FC001112468E270E00E943E2F862FE2
:10199000672B39F0089582E0089584E0089588E087
:1019A000089581E008958091D20180FD14C081FDE9
:1019B00014C082FD16C08091D001882381F08E3141
:1019C00080F420E5829FC00111246EE170E00E9446
:1019D0003E2F862F089584E1089588E2089588E0D7
:1019E000089580E50895282F35EB2303C0011124C5
:1019F00097FF04C080589109892F089580589F4F00
:101A0000FBCF80E00895F894E82FE295EF70F0E0C6
:101A100031A1282F2F7081E090E001C0880F2A9516
:101A2000EAF7982F9095932391A392A1892B82A3F3
:101A3000789408959091B80192FF10C041E0282F4A
:101A40002471243009F040E031E0282F287128303B
:101A500009F030E0431711F02CE0822793FF10C00B
:101A600041E0282F2471243109F040E031E0282F93
:101A70002871283109F030E0431711F02CE082275B
:101A80003091B90130FF10C051E0282F2171213071
:101A900009F050E041E0282F2871283009F040E09B
:101AA000541711F029E0822731FF10C041E0282FA0
:101AB0002171213109F040E031E0282F28712831CF
:101AC00009F030E0431711F029E0822794FD877E6A
:101AD000089582389105B9F1B0F48133910509F484
:101AE0007DC048F48932910509F46DC08A329105B0
:101AF00009F47BC008958533910509F45FC08933EB
:101B0000910509F10895833E9105D9F138F4803E9D
:101B1000910529F1823E910579F10895863E91055E
:101B2000D9F1873E910509F43EC0843E910541F507
:101B30002091B90121FF24C08091B80184FD19C012
:101B400087EE90E008952091B801237009F05AC003
:101B50002091B90123FF14C089E290E008952091FB
:101B6000B80120FD38C03091B90130FF09C024FF11
:101B700043C090E080E008952091B80122FDF7CFA6
:101B800008952091B80122FD3AC03091B90130FD8D
:101B900039C024FFF5CFEDCF2091B80123FFF0CF5E
:101BA00024FDE7CFCDCF2091B80123FD2EC0309189
:101BB000B90131FFEECF84EE90E008952091B80195
:101BC00025FFDECFC9CF2091B80125FD21C020918E
:101BD000B90123FFD5CF89E390E0D2CF2091B8019E
:101BE00026FFCECF8AE290E008952091B80126FF2B
:101BF000C7CF81E390E0089583EE90E0089582EEF0
:101C000090E0089580EE90E0089586EE90E00895CB
:101C100085E390E008951F93CF93DF930E94690DB1
:101C2000EC01C11582E5D80708F03FC0C11590E569
:101C3000D90708F0C2C0C83ED105C0F4C03ED105E6
:101C400080F4C53AD10548F4C430D10550F4C13010
:101C5000D10539F0D0E0C0E004C0CD3CD105D0F3CF
:101C6000D065CE01DF91CF911F910895C11580E419
:101C7000D80708F053C0C11590E2D90708F0B7C0E3
:101C8000C11581E0D80730F38D2F0E941A0D182F4F
:101C9000CE0199270E94690DC12FD0E0DC2FCC27FF
:101CA000CC27DF71C82BD92BDCCFC03892E5D90700
:101CB000A8F4C03682E5D80708F063C0C03492E5C6
:101CC000D90708F049C0C03282E5D80788F1CF7142
:101CD000D0E0DC2FCC27C16FD06AC3CFC03C92E5E7
:101CE000D90780F48C2F8F71C03AD24508F45EC0BA
:101CF0000E941A0DC82FD0E0DC2FCC27CC27DF7133
:101D0000D062AFCFC03E82E5D80708F0A3CFDC2F6A
:101D1000CC27CC27DF71C06FD06AA3CFCE01992723
:101D20000E94690DCC27DF70C82BD92BD06A99CFC0
:101D30002C2F2695269590E2299F900111248C2F17
:101D40008370C1E0D0E002C0CC0FDD1F8A95E2F7BE
:101D5000C22BD32BDD6885CF2C2F26952695277097
:101D600080E2289F900111248C2F8370C1E0D0E085
:101D700002C0CC0FDD1F8A95E2F7C22BD32BDC68A3
:101D800070CF2C2F26952695277090E2299F9001E1
:101D900011248C2F8370C1E0D0E002C0CC0FDD1F76
:101DA0008A95E2F7C22BD32BDA685BCFC82FD0E03D
:101DB000DC2FCC27C46FD06A54CF8C2F8F710E9438
:101DC0001A0D55E0D695C7955A95E1F7CF70D0E03A
:101DD000DC2FCC27282F30E084FF05C044E0220F01
:101DE000331F4A95E1F7C22BD32BD0693ACF8D2F01
:101DF0008F710E941A0D182FCE0199270E94690D2C
:101E0000C12FD0E0DC2FCC27CC27DF71C82BD92BFA
:101E100077CF8095909180019823909380010895C9
:101E20008091530290911A02981301C008958F5F18
:101E30008770FACF292F9A3078F5863068F590E0D0
:101E400036E0239F800D911D1124682F677023E0D9
:101E5000969587952A95E1F7FC01EE0FFF1FE80F95
:101E6000F91FEA5AFE4F50E040E080E0219130E057
:101E7000062E02C0369527950A94E2F72170332783
:101E8000042E01C0220F0A94EAF7822B4F5F5F4FA6
:101E90004330510559F7089580E00895292F9A306D
:101EA00098F5863088F590E036E0239F800D911DEF
:101EB0001124282F277041E001C0440F2A95EAF72A
:101EC00023E0969587952A95E1F7FC01EE0FFF1F19
:101ED000E80FF91FEA5AFE4F30E020E070E0519120
:101EE000DF011197CB01022E02C0969587950A94C7
:101EF000E2F7817081958527842385278C932F5F56
:101F00003F4F2330310559F708958093B701089565
:101F10009091B70121E030E0F90101C0EE0F8A9500
:101F2000EAF7D90102C0AA0FBB1F6A95E2F7EA2BB4
:101F300001C0220F4A95EAF7892F8E23E81305C0C6
:101F4000292B822F0E94850F089520952923F9CFF0
:101F500021E030E001C0220F8A95EAF720958091B8
:101F6000B70182230E94850F089590917501809595
:101F7000892380937501282F277069F4891759F0F8
:101F80009091B90192FF07C08695869586950E942B
:101F9000A80F10927501089521E030E001C0220FD2
:101FA0008A95EAF78091B701822B0E94850F0895E8
:101FB0008093B60108950F931F93CF93DF938B0106
:101FC000EA0190910E02943061F58093E9008FEF61
:101FD0009091E800815095FD06C095ED9A95F1F736
:101FE00000008111F5CF8091E80085FF1AC00E94A2
:101FF000F10A811111C08091E80085FD06C0809131
:10200000E8008E778093E800F2CFF80181918F018C
:102010008093F100219779F78091E8008E77809383
:10202000E800DF91CF911F910F91089546E050E0B5
:10203000BC0184E00E94DB0F0895CF93DF93EC0195
:1020400048E050E0BC0181E00E94DB0F88E0FE0127
:10205000A4E0B2E001900D928A95E1F7DF91CF9173
:102060000895B0E0A0E0E7E3F0E10C94FB2E7C01E2
:102070005B016A018091A50101E010E08A3010F453
:102080000AE010E0C1E0D0E0B501C701F601099512
:10209000811104C021960C171D072CF4CDB7DEB7B3
:1020A000EAE00C94172FCC9F9001CD9F300D300D9E
:1020B000112490E080E045E34A95F1F70000019695
:1020C00082179307C1F7E0CF80918D01811119C06C
:1020D00082E390E02091E30027FD10C0EFE3FCE9EC
:1020E0003197F1F700C000000197A1F782E08093DB
:1020F0008D010E94D20A10920E0203C081E08093EB
:102100008D0181E090918D01913011F080E0089572
:1021100008950E946410882359F0E091FA01F0912B
:10212000FB01309729F00190F081E02D0995089589
:1021300080E008950F931F930E946410882329F074
:102140000E94500C1F910F9108950E94500C009115
:10215000A6011091A7012091A8013091A901600F5B
:10216000711F821F931FEECF22982A9A3E9A46989B
:1021700085E08A95F1F7000083B13E98469A90EA8F
:102180009A95F1F790E09595879595958795809527
:10219000909581700895CF930E94B41028E030E0AC
:1021A00043E060E086E30E94352CC82F811105C012
:1021B0000E940D2D8C2FCF91089585E08A95F1F71F
:1021C0000000F8CFA2E0B0E0E8EEF0E10C94002FC0
:1021D000182FF62E0E94CB10082F811106C000E0A8
:1021E000802F2296E5E00C941C2F103549F00E94B8
:1021F000B410E8E1F2E0882311F0E9E1F2E01082A6
:1022000010681983FA8262E070E0CE0101960E94A4
:10221000DD2C892B21F78AEB8A95F1F700C00E940B
:102220000D2D83E492E00197F1F700C00000D8CFB4
:10223000CF93C82F0E94CB108823C9F08C2F0E9407
:10224000AD2C8FE792E00197F1F700C000000E94EB
:10225000C52CC82F95E09A95F1F700000E940D2D2E
:1022600085E68A95F1F700008C2FCF910895C0E0A4
:10227000FBCFCF93DF93C1E8D2E060E0CE010E94B4
:10228000832F2196C11584E0D807B9F7DF91CF914C
:1022900008951F93CF93DF93122F8530E0F46A30B7
:1022A000D0F44630C0F4C42FD0E0CC0FDD1F9CE04A
:1022B000699FC00DD11D112498E7899FC00DD11DC4
:1022C0001124632FCE0189960E94832F612FCE01A6
:1022D0008A960E94832FDF91CF911F910895AF922C
:1022E000BF92CF92DF92EF92FF921F93CF93DF9333
:1022F00089E0C82E82E1D82ED0E07601C0E014C07B
:10230000F50125913491412F6C2F8D2F0E94491199
:1023100082E0A80EB11C1F5F163091F78CE0E80E2A
:10232000F11CCF5FCA3019F0570110E0E9CFDF5F31
:1023300088E7C80ED11CD53001F7DF91CF911F91EE
:10234000FF90EF90DF90CF90BF90AF900895CF9324
:10235000C82F6FEF811163E285E290E00E94832F26
:102360006FEFC11169E086E290E00E94832F6FEF6A
:10237000C11166E187E290E00E94832FCF9108951A
:1023800080E00E94A71160E088E290E00E94832F25
:102390000E946F110E94391181E00E94A7110895D7
:1023A0000F931F93CF93DF93853030F56A3020F57C
:1023B000463010F5C42FD0E0CC0FDD1F2CE0629F1B
:1023C000C00DD11D112438E7839FC00DD11D1124EC
:1023D000CE0189960E945F2F082F10E0102F002752
:1023E000CE018A960E945F2F9801282BC901DF91A8
:1023F000CF911F910F91089590E080E0F8CF462F84
:102400007A3040F4663030F4853020F4672F0E9433
:10241000D011089590E080E00895CF92DF92FF926E
:102420000F931F93CF93DF936C010091B7018091BD
:10243000B601082BC4E0D0E010E0FC2EC8010C2E41
:1024400002C0959587950A94E2F780FD0CC021970C
:10245000A0F7F12C8F2DDF91CF911F910F91FF905D
:10246000DF90CF900895B6018C2F0E94FF110E943B
:102470000B0E019761F3EECFCF93DF93EC010E9437
:102480000D12BE010E94FF110E940B0EDF91CF9131
:102490000895FC0124812223C1F0808191810E9452
:1024A0003C1292959F70963091F058F4925F9F7015
:1024B000923058F4803F19F030F4883E30F481E0D7
:1024C00008959A5FF4CF843FD1F380E00895883E69
:1024D000B0F3813FD1F7F3CFA6E0B0E0E2E7F2E15D
:1024E0000C94022F49835A8349815A819923A1F080
:1024F000222391F0CA010E940D12182F682F8981A2
:102500009A810E944E0F69817A81812F0E94FF116A
:102510002696E3E00C941E2FCA010E941A0F182F72
:10252000F2CF85E290E00E945F2F833289F486E249
:1025300090E00E945F2F893059F487E290E00E947A
:102540005F2F91E0863109F090E0892F8170089526
:1025500080E0FCCFA8E1B0E0E0EBF2E10C94012FC9
:102560004B8B5C8B6D8B7E8B8F8B988F8E01095F75
:102570001F4F86E0F80111928A95E9F70E94B41086
:102580000E94B4108823A1F18091190281113DC0ED
:1025900060E080E50E94E21081112DC086E0FE011E
:1025A0003796DE01119601900D928A95E1F786E04B
:1025B000FE013196DE011D9601900D928A95E1F79C
:1025C0008D8583FF4FC086E0FE017396DE0117966E
:1025D00001900D928A95E1F72F81388549855A85BA
:1025E0006B857C8580E090E06896E4E00C941D2F7C
:1025F00080911802CBCF0E94B410E8E1F2E088236A
:1026000011F0E9E1F2E081E080830E94CB108823A1
:1026100029F280E50E94AD2CFAEBFA95F1F700C0A3
:1026200066E070E0C8010E94F52C8F81877049F048
:102630000E94B410E8E1F2E0882311F0E9E1F2E051
:1026400010820E940D2D89859A8591958195910919
:102650009A8789878B859C859195819591099C871F
:102660008B879CCF898187FD03C01092F901ABCF86
:102670002B813C818D819E814091F901411103C0E4
:1026800041E04093F90120384FEF34078CF02038B7
:10269000310514F02FE730E08038EFEF9E0754F05B
:1026A0008038910514F08FE790E02D8B8E8B8BCFC7
:1026B00020E8F2CF80E8F9CF0F931F93CF93DF93F9
:1026C0000E94B4100E942D2C0E94CB10882309F484
:1026D0008AC025ED2A95F1F700000E940D2D85EDA9
:1026E0008A95F1F700006AE58AE30E94E2108823E8
:1026F00009F479C09FEFE0E7F2E09150E040F0404C
:10270000E1F700C0000082E00E94181183E00E94FF
:10271000181184E00E94181185E00E94181186E0CB
:102720000E9418116DE183E10E94E210882309F4F0
:102730005AC08FE39CE90197F1F700C0000068E1FF
:1027400083E10E94E2100E94CB10882309F44BC061
:1027500082EE0E94AD2C90E59A95F1F7CBE0D2E0A5
:1027600009E012E1FE0184910E94AD2CF0E5FA959A
:10277000F1F721960C171D07A9F78FE193E0019758
:10278000F1F700C000008AE20E94181160E080E1C9
:102790000E94E2100E940D2DEFE3FCE93197F1F762
:1027A00000C000000E94B4106FE08FE00E94E210B1
:1027B0008FE99FE00197F1F700C0000060E080E141
:1027C0000E94E21060E081E10E94E21062E083E694
:1027D0000E94E21080E00E9418118FE30E941811FD
:1027E0008AE20E941811DF91CF911F910F910895F5
:1027F0008091800190917F01892B80934C01909171
:102800007E01992391F0892B80934C0120E08EE486
:1028100091E0FC013191CF0131112F5FF1E084355E
:102820009F07B9F7211110927E0148E050E066E75A
:1028300071E08CE491E00E94B72F892BA9F088E029
:10284000ECE4F1E0A6E7B1E001900D928A95E1F7A2
:10285000E091FA01F091FB01309731F00280F381B1
:10286000E02D8CE491E009950895882321F00E94E1
:10287000090F0E94F8130895882339F09091800180
:10288000982B909380010E94F8130895CF9367EDE1
:1028900071E083EF91E00E945C0CC82F882321F047
:1028A00083EF91E00E94A30C9091F40186E0E3EFA6
:1028B000F1E0DF01282F1D922A95E9F79093F401AA
:1028C000A7EDB1E001900D928A95E1F781E0C11189
:1028D00003C0911101C080E08170CF910895909163
:1028E000B90192FB222720F9281779F080FB92F991
:1028F0009093B9016091B8017091B90184E090E0C2
:102900000E94A12F82E00E94B50F0895A4E0B0E0DC
:10291000ECE8F4E10C94022F4091A1015091A20146
:102920006091A3017091A4012FB7F8948091FD01EB
:102930009091FE01A091FF01B09100022FBF841B76
:10294000950BA60BB70B11E084369105A105B105D7
:1029500070F10E949A106E5F7F4F8F4F9F4F698377
:102960007A838B839C838091110190911201895607
:102970009E4F4091100150E04530510510F044E069
:1029800050E0BE016F5F7F4F0E94C42F82E090E055
:102990000E947D2E182F882351F00E94500C6093C6
:1029A000A1017093A2018093A3019093A401812FB0
:1029B0002496E3E00C941E2FEF92FF921F93CF9387
:1029C000DF9300D000D000D0CDB7DEB77B0190E020
:1029D00080E00E947D2E182F882309F480C040914A
:1029E000030150E04115510511F041E050E06091C4
:1029F00004017091050169567E4FCE0106960E9432
:102A0000C42F409193015091940160919501709170
:102A100096012FB7F8948091FD019091FE01A0914D
:102A2000FF01B09100022FBF841B950BA60BB70BC3
:102A300084369105A105B10540F488E991E00E9432
:102A4000BB0A9E81891709F44AC081E090E00E9488
:102A50007D2E811116C010E085E0EEE8F1E0D7018F
:102A600001900D928A95E1F7812F26960FB6F89482
:102A7000DEBF0FBECDBFDF91CF911F91FF90EF90D2
:102A8000089540910B0150E04630510510F045E0AB
:102A900050E060910C0170910D0169567E4FCE019E
:102AA00001960E94C42F88E991E00E94BB0A9E8192
:102AB0008913D1CF0E94500C6093930170939401BD
:102AC000809395019093960185E0FE013196AEE8E2
:102AD000B1E001900D928A95E1F711E0BDCF85E05C
:102AE000E8E9F1E0DE01119601900D928A95E1F797
:102AF0001111EACFB1CF1F920F920FB60F9211248E
:102B00002F933F934F935F936F937F938F939F93F5
:102B1000AF93BF93EF93FF938091E10082FF09C0D1
:102B20008091E20082FF05C08091E1008B7F80935D
:102B3000E1008091DA0080FF24C08091D80080FFFE
:102B400020C08091DA008E7F8093DA008091D900D6
:102B500080FF9DC080E189BD82E189BD09B400FE8E
:102B6000FDCF81E080930E0280910102811109C0A6
:102B70000E94D20A0E94730B8091E20084608093CD
:102B8000E2008091E10080FF17C08091E20080FFA9
:102B900013C08091E2008E7F8093E2008091E2007A
:102BA00080618093E2008091D80080628093D80099
:102BB00019BC85E080930E028091E10084FF2BC058
:102BC0008091E20084FF27C080E189BD82E189BD58
:102BD00089B5982F917080FFFBCF8091D8008F7DB1
:102BE0008093D8008091E1008F7E8093E1008091F6
:102BF000E2008F7E8093E2008091E200816080930A
:102C0000E20080910F02882309F447C084E080939A
:102C10000E0280910E028091E10083FF27C0809117
:102C2000E20083FF23C08091E100877F8093E10071
:102C300082E080930E0210920F028091E1008E7F5D
:102C40008093E1008091E2008E7F8093E20080918A
:102C5000E20080618093E20042E060E080E00E9458
:102C6000410B8091F00088608093F000FF91EF911C
:102C7000BF91AF919F918F917F916F915F914F9194
:102C80003F912F910F900FBE0F901F90189519BC78
:102C900010920E021092010274CF8091E30087FD22
:102CA00093E090930E02B5CF78941F921FB61F92B7
:102CB00011248F939F93AF93BF938091FD019091C7
:102CC000FE01A091FF01B09100020196A11DB11D6E
:102CD0008093FD019093FE01A093FF01B093000249
:102CE000BF91AF919F918F911F901FBE1F9018951C
:102CF0002FB7F8948091FD019091FE01A091FF0102
:102D0000B09100022FBF08950E9478169C01909107
:102D1000EE018091EF01982B21F03093D6012093A2
:102D2000D5019091F0018091F101982B21F0309321
:102D3000D4012093D3018CEE91E00E94A30C08955E
:102D4000CF9310928001C6E0EEE4F1E0DF018C2F1A
:102D50001D928A95E9F710927F010E94F813ECEE1C
:102D6000F1E0DF011D92CA95E9F71092D0011092AF
:102D7000D1011092D2010E948416CF910895AAE247
:102D8000B0E0E5ECF6E10C94022F80E192E02091B6
:102D9000F100DC012D93CD01B2E088319B07B9F73A
:102DA00080911102833009F472C0B8F4813009F4C3
:102DB00049C0823009F4B3C08091E80083FF8BC220
:102DC00080911002909111029A3008F084C2E92F8C
:102DD000F0E0E153F04D0C94522F8A3009F48EC08C
:102DE0008B3009F471C0893039F78091100281323B
:102DF00019F78091140290911502009711F0029733
:102E0000D9F68091E800877F8093E8008091E80000
:102E100082FF38C09091F3008091F200029731F464
:102E20008091F100813011F0863021F48091F10021
:102E3000809303028091E8008B778093E8000E94E2
:102E4000220BBACF80911002813A09F0B5CF809160
:102E5000E800877F8093E80080911402909115022A
:102E6000892B61F468E084E092E070E00E94CE0B70
:102E70008091E8008B778093E8009ECF60E090E03F
:102E800080E0F3CF80910E028111C0CF95CF809169
:102E90001002813A09F090CF8091140290911502AE
:102EA000892B09F089CF8091E800877F8093E80023
:102EB0008091E80080FFFCCF80912C018093F1008D
:102EC0008091E8008E77B9CF80911002813209F0AD
:102ED00073CF8091140290911502892B09F06CCF69
:102EE0008091E800877F8093E8000E94220B809108
:102EF000120280932C010E94A0165ECF80911002D6
:102F0000813209F059CF8091E800877F8093E800F3
:102F10000E94220B80911302809302024DCF809178
:102F20001002813A09F048CF8091E800877F8093B2
:102F3000E8008091E80080FFFCCF80910202BECFC4
:102F4000803899F0823809F0C6C1809114028F70E0
:102F5000873008F0C0C18093E9008091EB0085FBC9
:102F6000882780F91092E90006C080910C029091A8
:102F70000D02911182609091E800977F9093E80094
:102F80008093F1001092F1008091E8008E779FC14C
:102F9000882309F48DC1823009F09DC1809112020D
:102FA000811190C1809114028F702FEF280F26306D
:102FB00008F091C18093E9002091EB0020FF82C1CD
:102FC000933031F48091EB0080628093EB007AC102
:102FD0009091EB0090619093EB0021E030E001C014
:102FE000220F8A95EAF72093EA001092EA00809176
:102FF000EB008860EACF81116EC1109112021F7739
:103000008091E3008078812B8093E3008091E80039
:10301000877F8093E8000E94220B8091E80080FF68
:10302000FCCF8091E30080688093E30082E011117F
:1030300083E080930E024FC18058823008F04BC16C
:1030400020911202309113022C3DE3E03E07A1F5DE
:1030500083E08A838AE289834FB7F894DE0113966E
:1030600020E03EE051E2E32FF0E050935700E4917E
:1030700020FF03C0E295EF703F5FEF708E2F90E06E
:10308000EA30C0F0C7968D939D932F5F243159F796
:103090004FBF8091E800877F8093E8006AE270E08C
:1030A000CE0101960E94CE0B8091E8008B77809331
:1030B000E80011C1C096E7CF8091140290911502EB
:1030C000432F55274330510509F44AC078F5413064
:1030D000510509F47AC08BE590E0E1E6F4E1423075
:1030E000510509F0F8C02091E800277F2093E800FF
:1030F00020911602309117028217930708F49C0161
:1031000040E02115310509F065C0411163C080918F
:10311000E80082FDC9CF80910E02882329F2853014
:1031200019F28091E80083FFF2CFBECF4132510502
:1031300009F43CC04232510509F0CDC083309105FD
:1031400008F0C9C0FC01EE0FFF1FE25CFE4F0190CA
:10315000F081E02D855C9E4FDC018C9190E01AC0DF
:10316000332721303105D1F02115310561F02230AE
:10317000310509F0B0C0EEECF4E1E4918E2F90E05F
:10318000EEECF4E107C0E6EFF4E1E4918E2F90E07D
:10319000E6EFF4E1009709F49EC0A5CFE6EEF4E176
:1031A000E4918E2F90E0E6EEF4E1F4CF83309105C8
:1031B00008F091C0880F991FFC01EC5BFE4F019055
:1031C000F081E02D89E090E08ECF82E190E0ECEBA1
:1031D000F4E189CF80910E02882309F465CF853010
:1031E00009F462CF8091E80083FD5ECF8091E80012
:1031F00082FD8DCF8091E80080FF83CF9091F30016
:103200008091F2002115310519F08830910550F0B8
:1032100041E0089709F040E08091E8008E778093C4
:10322000E8006FCF44914093F1003196215031096D
:103230000196E8CF803809F04EC08091E800877F82
:103240008093E80080910F028093F1009DCE811160
:1032500042C0109112021230F0F58091E800877F91
:103260008093E80010930F020E94220B112311F0AB
:1032700084E005C08091E30087FDFACF81E0809370
:103280000E0242E061EC81E00E94410B42E261ECFF
:1032900084E00E94410B42E261EC82E00E94410B1B
:1032A00042E260EC83E00E94410B80910E0213C069
:1032B00080911202813079F481E0933009F080E04E
:1032C00080930D021092E9008091E800877F80933F
:1032D000E8000E94220B8091E80083FF0AC08091E1
:1032E000E800877F8093E8008091EB008062809304
:1032F000EB00AA96E3E00C941E2F1F920F920FB6DC
:103300000F9211242F933F934F935F936F937F936B
:103310008F939F93AF93BF93CF93DF93EF93FF93DD
:10332000D091E900DF708091EC00C82FC17080FD62
:10333000C0E81092E9008091F000877F8093F00050
:1033400078940E94BF161092E9008091F000886086
:103350008093F000CD2BCF70C093E900FF91EF91E7
:10336000DF91CF91BF91AF919F918F917F916F919D
:103370005F914F913F912F910F900FBE0F901F9033
:1033800018950E94A0162FEF84E39CE02150804006
:103390009040E1F700C0000088E19AE00FB6F89491
:1033A000A895809360000FBE90936000FFCF6623C6
:1033B00009F472C08D3C41F40E94D30C8195809336
:1033C000EF010E94841608958E3C19F40E94D30CDC
:1033D000F6CF8F3C31F40E94D30C81958093EE019F
:1033E000F0CF803D19F40E94D30CF8CF893D29F429
:1033F0000E94B10C8093F001E4CF8A3D21F40E9439
:10340000B10C8195F7CF8B3D31F40E94B10C8195C1
:103410008093F101D6CF8C3D19F40E94B10CF8CF06
:103420009FE2980F983020F5282F215D330BA901DA
:1034300021E030E001C0220F4A95EAF79091ED01BA
:10344000922B9093ED01815D21E030E0A90102C053
:10345000440F551F8A95E2F7CA012091F4016623B3
:1034600009F493C0822B8093F4010E9446140895BE
:103470008D3D31F48091D20181608093D201A1CF42
:103480008E3D21F48091D2018260F7CF8F3D19F5F6
:103490008091D2018460F1CF9091EE018D3C59F47E
:1034A0002091EF0127FF0DC01092EF0191110BC089
:1034B0001092D00108C08E3CB1F42091EF01121699
:1034C0009CF39923B1F09091F0012091F101922B9E
:1034D00011F41092D101482F415D550B4830510530
:1034E00008F4B1CF6ECF8F3C39F497FFEACF10923A
:1034F000EE019091EF01DACF803D19F41916BCF37B
:10350000E0CF2091F001893D29F41216D4F61092F3
:10351000F001D7CF8A3D19F427FFD3CFF8CF209100
:10352000F1018B3D29F427FFCCCF1092F101C9CFD7
:103530008C3D19F41216CCF3C4CF2FE2280F28309B
:1035400088F4282F215D330BA90121E030E001C070
:10355000220F4A95EAF720953091ED01232320931D
:10356000ED01AFCF2091D2012E7F8D3D59F02091FA
:10357000D2012D7F8E3D31F08F3D09F0A2CF2091F9
:10358000D2012B7F2093D2019CCF809582236BCFD9
:10359000882349F19CEF980F913A80F4EEE4F1E032
:1035A00024E531E09191891303C0DF0111971C924A
:1035B0002E173F07B9F70E94F813089590E2980F6D
:1035C000983050F4877091E001C0990F8A95EAF71E
:1035D000892F0E94090FEFCF93E3980F933118F4CE
:1035E00060E00E94D7190895CF93C82F8823A9F0CF
:1035F0008CEF8C0F813A00F5EEE4F1E0DF018D9164
:10360000C81769F081E0A435B807C9F76C2F8CE4BE
:1036100091E00E94890C0E94F813CF910895819146
:10362000C81303C0DF0111971C9281E0E435F8074D
:10363000B1F70E94F813EACF80E28C0F883068F46B
:10364000C77021E030E001C0220FCA95EAF78091EF
:103650008001822B80938001DECF83E38C0F833146
:10366000E0F661E08C2F0E94D719D7CF1F93CF933C
:10367000DF93182FD0E0C0E0893311F4C0E5D0E02B
:10368000812F0E94F41A209739F4812F0E94C81AC2
:10369000DF91CF911F9108958FE99FE00197F1F796
:1036A00000C000002197EFCF0F931F93CF93DF93BC
:1036B000C62FD42F022FFC0185818823A9F06093A7
:1036C00056020E9478169093550280935402C77058
:1036D00081E001C0880FCA95EAF70E943C14DF918F
:1036E000CF911F910F91089580915602681332C0B7
:1036F00080915402909155020E94410C883C9105A2
:1037000048F510E21D0FCD17B9F080E28C0F88301C
:1037100040F4C77081E001C0880FCA95EAF70E94A3
:103720003514183048F481E09D2F977001C0880F40
:103730009A95EAF70E943C14802F0E94361B18309D
:1037400070F6D77081E001C0880FDA95EAF70E9421
:103750003514C5CFC77081E001C0880FCA95EAF75C
:10376000F6CFAFE0B0E0E7EBFBE10C94F82E8E0172
:103770000F5F1F4F8AE0D8011D928A95E9F78EE10D
:10378000C82E81E0D82EF12CE12CAA24A394B12CD0
:103790002EE1822E21E0922EF60181916F018F3F62
:1037A00009F442C0F894E82FE295EF70F0E021A10F
:1037B0008F70A50102C0440F551F8A95E2F7CA0118
:1037C000922F982B91A392A18095892382A378941C
:1037D00000C0E8E1F1E0712C31E021912F3F09F4C4
:1037E0006BC0A22FA295AF70B0E090968C9190E044
:1037F0002F7002C0959587952A95E2F780FD5CC0F1
:10380000832F782A330F8E169F0639F7F6013197EA
:1038100080818F3F11F00E94030D50EA5A95F1F715
:10382000F801EE0DFF1D70828FEFE81AF80AA5E08F
:10383000EA16F10409F0B0CF4AE050E0B8018AEA94
:1038400091E00E94B72F009741F02AE0F801AAEA20
:10385000B1E001900D922A95E1F70091B501892B15
:1038600069F181E0809385010E947816909384012C
:103870008093830180918301909184010E94410C87
:10388000059700F110E00A531E4F45E050E06AEA48
:1038900071E0C8010E94B72FB12C892B51F085E04F
:1038A000EAEAF1E0D80101900D928A95E1F7BB2494
:1038B000B3941092850107C080E0A3CF8091850169
:1038C0008111D8CFB12C0E946410F82EE091B5017F
:1038D000882309F46DC06E01BBE0CB0ED11C85E0DE
:1038E000D6011D928A95E9F70E2F10E00A531E4F5C
:1038F0008091A5018A3050F54CED54E1B601C80124
:103900000E943110882309F442C046E854E1B60110
:10391000C8010E9431108823D1F11092A501809135
:10392000B40190E045E050E0B6018A539E4F0E94FA
:10393000B72F21E020938C01892BE1F4F12C1F2D6E
:10394000812F8B292F96EDE00C94142F8091860106
:10395000909187010E94410C843F914068F68091CC
:103960008C01882359F385E0F60111928A95E9F7D5
:1039700010928C01A091B401B0E0AA53BE4F85E033
:10398000FE013B9601900D928A95E1F7D8CF809188
:10399000A5018F3F31F08F5F8093A5018A3008F435
:1039A000BECF0E9478169093870180938601D7CF6F
:1039B000F0E0EA53FE4F85E0A8E9B1E001900D92F6
:1039C0008A95E1F788E991E00E94BB0A809397010C
:1039D000C0909D01D0909E01E0909F01F090A001C9
:1039E0008091880190918901A0918A01B0918B0109
:1039F000C816D906EA06FB0611F410E0A1CFC09262
:103A00008801D0928901E0928A01F0928B010E9494
:103A10006410182F8111F1CF0E94500CC61AD70ADA
:103A2000E80AF90AC092A601D092A701E092A80183
:103A3000F092A90185CF88E00E94CC0F0E947816F1
:103A40009093EA018093E90182E08093EB0108956D
:103A5000AEE1B0E0EEE2FDE10C94FF2E4091F30107
:103A60005091F4016091F5017091F6018091F70198
:103A70009091F8010E94AA122093F3013093F4016F
:103A80004093F5015093F6016093F7017093F801AC
:103A900086E0E3EFF1E0DE01179601900D928A9542
:103AA000E1F786E0FE013796DE011D9601900D924A
:103AB0008A95E1F786E0FE013D96DE0111960190C0
:103AC0000D928A95E1F786E0FE013196A3EFB1E011
:103AD00001900D928A95E1F786E0E3EFF1E0DE01D7
:103AE000599601900D928A95E1F786E0FE0179964C
:103AF000DE01179601900D928A95E1F70B8DEC8C03
:103B00009E2D902B8091EB01992309F42CC1002E5E
:103B1000000C110B0E2C000CFF088230F1F188F420
:103B2000813009F4F7C00E9478169093EA018093DF
:103B3000E90181E08093EB011092DE011092DD013A
:103B400032C0833099F1843071F7980117FF04C0B7
:103B500022273327201B310BC701F7FE04C088271B
:103B600099278E199F09880F991F281739070CF07C
:103B700042C08091E5019091E601E80EF91E40E017
:103B8000F7FE26C17EECE7167FEFF7067CF1F09298
:103B9000E601E092E50180E041C00E947816909332
:103BA000EA018093E90180E020E069C0C701F7FEE7
:103BB00004C0882799278E199F09980117FF04C010
:103BC00022273327201B310B280F391F8091E70153
:103BD0009091E801821B930B9093E8018093E70199
:103BE0001816190604F780E020E045C022E3E20E33
:103BF000F11C4E5CC5CF8091E3019091E401080F68
:103C0000191F80E017FFEEC00E3C9FEF19070CF460
:103C10007AC01093E4010093E30140E0082E000C09
:103C2000990B62E370E00E943E2F8091E2018111C6
:103C30006EC081E090E0689F9001699F300D789F91
:103C4000300D1124642F772761950CF47095CB010A
:103C500062E370E00E943E2F8091E10141E050E07C
:103C6000882311F04FEF5FEF649FC001659F900DB7
:103C7000749F900D1124F12CE12C10E000E00987D5
:103C8000EA868B872C8786E0FE013796DE01119647
:103C900001900D928A95E1F786E0FE013196DE01F2
:103CA000539601900D928A95E1F786E0FE01739696
:103CB000DE01179601900D928A95E1F786E0FE01EC
:103CC0003796A3EFB1E001900D928A95E1F786E077
:103CD000ECEEF1E0DE01179601900D928A95E1F786
:103CE0008091F4019885892B8093F4010E944614F9
:103CF00081116BC08091F2011092F20181706E9679
:103D0000E6E00C941B2F0E5C1F4F8E5C7BCF8FEF79
:103D10009FEF91CFC701F7FE04C0882799278E191E
:103D20009F09980117FF04C022273327201B310B5E
:103D3000820F931F2091DD013091DE01820F931FCE
:103D40009093DE018093DD012091DF013091E0014D
:103D5000821793070CF427CF1092DE011092DD0139
:103D60000E941B1D20CF823071F048F4813019F180
:103D70001092DE011092DD011092EB0134CF8530FC
:103D800008F431CFF5CF8091E9019091EA010E94CA
:103D9000410C893E934008F426CF1092EB0188E055
:103DA0000E94A80F1092E6011092E5011092E40122
:103DB0001092E30118CF8091E9019091EA010E94ED
:103DC000410CC39708F40FCFD3CF81E090E094CF9C
:103DD00083E3E816F1040CF4DACE62E3E61AF108A4
:103DE0004253CECE033311050CF413CF0253110905
:103DF000825308CFA4E1B0E0E0E0FFE10C94F52E9F
:103E00008C01DC0114968C911497882309F4B8C0B6
:103E100021E04C9111965C91119712966C9112973A
:103E200013967C91139715969C910E946C127C01BD
:103E3000F8018581882309F43CC197013757203860
:103E4000310508F0BDC5FFE0FE1508F489C08FEF0D
:103E500093E00E945F2F811183C061E8A62E62E08B
:103E6000B62EE11047C0FE01339686E0DF011D92B9
:103E70008A95E9F75AE0452E7501BFEFEB1AFB0A68
:103E8000C5010E945F2F89831A82882309F468C0C4
:103E9000813009F079C06501E2E0CE0ED11CC70186
:103EA0000E945F2F8A83882309F45AC09FEF980FDE
:103EB000933070F5F3E0AF0EB11CC6010E945F2F86
:103EC0008B83882309F44CC01C82DE0111967D018E
:103ED000F7012081222381F2213009F095C09181E0
:103EE0008281913009F052C0F2E0EF0EF11C0E9485
:103EF000361B53C0A11424E0B20691F1C5010E9403
:103F00005F2F811101C0EA943FEFA31AB30AA9CF32
:103F100056018430D1F642E0E42EF12C56012FEF09
:103F2000A21AB20AC6010E945F2FE1E0F0E0EC0F96
:103F3000FD1FEE0DFF1D8083882391F08C3741F427
:103F4000E2E0F0E0EC0FFD1FEE0DFF1D1082BDCF93
:103F50003FEFE31AF30A650187E0E816F104F1F692
:103F600080917501877061F0D80115968C91882336
:103F700039F08091B90182FF03C082E00E94B50F41
:103F80006496E0E10C94112F57019FCF923049F4D1
:103F900022E0E20EF11C0E94F41AEFEFEE1AFE0A84
:103FA00097CF933031F432E0E30EF11C0E94C81A2F
:103FB000F4CF943021F08FEFE81AF80AEECF92E0B8
:103FC000E90EF11C30E020E0B7016F5F7F4FD701B1
:103FD00011964C918053990B8A30910550F02150E5
:103FE0003109D8F2EFE9FFE03197F1F700C00000A6
:103FF000F6CF429EF001439EF00D11249C012E0F3E
:104000003F1F842F7B01E0CFE22FF0E0E557FE4F0A
:104010005490822F86958695869590E0FC01E55810
:10402000FE4F64902770712C022E02C07594679425
:104030000A94E2F731E063227724FC01E559FE4F50
:104040008490912C022E02C0959487940A94E2F7F2
:10405000A1E08A229924FC01E55AFE4FC490D12C9C
:1040600002C0D594C7942A95E2F7B1E0CB22DD24B3
:104070006114710419F081EE0E94F41A8114910404
:1040800019F086EE0E94F41A852D0E94361B8114C9
:10409000910419F086EE0E94C81A6114710419F097
:1040A00081EE0E94C81AC114D10409F476CF8CE2C3
:1040B0001ECFF701E054FE47E830F10508F0B3C029
:1040C000E752F04D0C94522F96E0E3EFF1E0DE0161
:1040D000199601900D929A95E1F796E0FE013996B6
:1040E000DE011F9601900D929A95E1F79A85F0E412
:1040F000EF1AFEE7FF0A21E030E00E2C01C0220F8C
:104100000A94EAF7882361F1F92EF22A83E080937A
:10411000EB018EE190E09093E8018093E7010E942B
:104120001B1DF88A86E0FE013F96DE011196019084
:104130000D928A95E1F7BE016F5F7F4F83EF91E0AB
:104140000E945C0C8093F20186E0FE013196A3EFA1
:10415000B1E001900D928A95E1F70E94461400CFDC
:104160002095F22EF922DBCF882321F084E0809382
:10417000EB01F6CE0E941B1DF3CE882309F4F0CE8E
:104180008091DF019091E00105969093E00180938A
:10419000DF014091DF015091E0016091E1017091F8
:1041A000E20183E190E00E94952FDACE882309F4A2
:1041B000D7CE8091DF019091E00105978530910580
:1041C00024F785E090E0E1CF882309F4C9CE8091FF
:1041D000E10191E089278093E101DBCF882309F495
:1041E000BFCE8091E20191E089278093E201D1CF97
:1041F0008091EB018350823008F4BCCF23EEE216AD
:10420000F104D9F030EEE316F104B9F01092EB01AD
:1042100088E00E94A80F1092E6011092E50110922A
:10422000E4011092E301F701E851FC47E730F105A2
:1042300028F5EF51F04D0C94522F0E941B1DF3CF27
:1042400026E241EE61EEC8010E94541B89CE27E2AE
:1042500045EE65EEF8CF26E241EE60EEF4CF27E2C0
:1042600045EE64EEF0CF26E241EE62EEECCF27E2BF
:1042700045EE66EEE8CF28E241E0EBCFD801159697
:104280008C91882309F484C310925602C701905779
:10429000839708F066C384E090E00E946D2F9093AE
:1042A000B9018093B801F701E150F047E232F1051E
:1042B00020F4E851F04D0C94522F8091B8018160A8
:1042C0008093B80195C08091B90188608093B9014D
:1042D0008FC08091B8018260F3CF8091B801846073
:1042E000EFCF8091B8018860EBCF8091B9018160F8
:1042F000EDCF8091B9018260E9CF8091B8018061F2
:10430000DFCF8091B8018062DBCF8091B8018064FB
:10431000D7CF0E94A0168091B8018068D1CF80913C
:10432000B8018C60CDCF8091B9018360CFCF8091EF
:10433000B8018E7FC5CF8091B901877FC7CF8091AB
:10434000B8018D7FBDCF8091B8018B7FB9CF8091AF
:10435000B801877FB5CF8091B9018E7FB7CF8091AB
:10436000B9018D7FB3CF8091B8018F7EA9CF8091A5
:10437000B8018F7DA5CF8091B8018F7BA1CF0E941E
:10438000A0168091B8018F779BCF8091B801837F71
:1043900097CF8091B9018C7F99CF8091B80182FB32
:1043A000992790F921E0922790FB82F990FB83F9FD
:1043B00087CF8091B901982F909591708E7F892B2E
:1043C00090FB81F983CF9091B801892F8F7B96FF65
:1043D000806476CF0E94A0169091B801892F97FB38
:1043E00087F980586DCF61E08EE090E00E94832FC6
:1043F0006091B8017091B90184E090E00E94A12F12
:104400000E94A016ADCD60E0EFCF9091B801892F4A
:104410008F7E94FF806154CF9091B801892F8E7F59
:1044200090FF81604DCF9091B901892F877F93FFD5
:1044300088604CCF85E3B6C281E00E94CC0F03C0F8
:1044400081E00E94A80F43E062E081E00E94880FB3
:1044500087CDB3E0EB16BCE7FB0609F47DC008F09E
:104460005CC0E114FCE7FF0609F469C021E0E21634
:104470002CE7F20609F476C0F8018581E080F1802E
:10448000882309F47DC0C7010E940D12D82E682F21
:10449000C7010E944E0FB7018D2D0E94FF110E948F
:1044A0000B0E7C01882ED8011596AC9015971696A8
:1044B0009C9092943FE09322809175018770F1F077
:1044C000CA2CAA20E1F08F2D807F803451F080E249
:1044D0008E0D883098F0911004C08F2D807E803230
:1044E00069F08091B90182FF09C082E00E94B50F96
:1044F000809175018770CC24C3948111C12CBF2C8D
:10450000B2942FE0B222BBE0BB1508F4A1C0EB2DA2
:10451000F0E0E65FFF4C0C94522F3BE5E3163CE7DE
:10452000F30661F18CE5E8168CE7F806E9F09AE508
:10453000E9169CE7F90609F09FCF81E01CC00E94B4
:10454000A016AFEFB4E3ECE0A150B040E040E1F7DB
:1045500000C000000E94300C6FEF7FEF90E080E021
:104560000E94A12F0E94C1198091B90182FB882766
:1045700080F991E089270E946F147ECF80E0FBCF05
:10458000C7010E941A0FD82E86CFEF2DEF70DE2EB6
:104590008F2D807F19F0D29490EFD922AA20B9F004
:1045A000DD2069F080E28E0D883010F0811009C0A6
:1045B00080918001D82AD09280010E94F8138E2D1C
:1045C00045C080917F01D82AD0927F01F6CF8E2DF1
:1045D0000E94C81ADD20E1F180E28E0D883010F0D3
:1045E000811004C08D2D0E94090F06C0D0948091C7
:1045F0007F01D822D0927F010E94F81329C0FF2D9D
:10460000FF70DF2E8F2D807F803219F0D29480EFE3
:10461000D822882059F021E0821609F481C0AA200E
:1046200009F48DC0992009F44FC0C9CF8091B90118
:1046300082FD46C0AA20F1F1DD2039F08091800191
:10464000D82AD09280010E94F81380E00E94F41AC8
:10465000AB2DA850BB0B149710F40E948910CC20EE
:10466000A9F08091750180FD11C0F8011582869531
:10467000869586950E94CC0FC8010E94FA1E8091F3
:1046800075018695869586950E94A80F20E0D80131
:104690004C9111965C91119712966C91129713960A
:1046A0007C91139714968C91149715969C910E9467
:1046B0006C1266CC80E00E94C81ADD2049F292CFCD
:1046C000AA20A1F0911004C08D2D0E943C14C0CFEF
:1046D00031E09312BDCF80917E019D2D9823D91694
:1046E00009F4B6CFD82AD0927E01B2CF9110B0CFC4
:1046F0008D2D0E94351490917E018D2D892329F0F6
:104700008D2D8095892380937E01809155019D2D6B
:10471000982309F49DCFD094D822D092550198CFF8
:10472000AA2029F085E0891508F492CFCDCF94E036
:10473000991508F48DCF8D2D0E94351489CF9920BD
:10474000D1F3A9E38A1209C0BFEFE7EEF3E0B1505D
:10475000E040F040E1F700C000008E2D0E94C81A32
:1047600077CF6A2D8E2D0E94D71972CF8F2D83702F
:1047700091F5A1106DCF4E2D429546954770440F8F
:10478000440F8E2D8F70042E01C0880F0A94EAF713
:104790002E2D2071E4FE07C02FE030E001C0220F73
:1047A0004A95EAF720953F2D36953695337032308D
:1047B00069F050F44091B601313029F0822B842306
:1047C0000E94D80F45CF842B822BFACF282B8091C3
:1047D000B6018227F5CF8695AA2011F08F2D817022
:1047E000882309F435CF4E2D429546954770440FE6
:1047F000440F8E2D8F70042E01C0880F0A94EAF7A3
:104800002E2D2071E4FE07C02FE030E001C0220F02
:104810004A95EAF720953F2D36953695337032301C
:1048200069F050F44091B701313029F0822B842394
:104830000E94850F0DCF842B822BFACF282B8091DD
:10484000B7018227F5CF2F2D2F70F22EAA2029F045
:10485000822F0E94CC0F8E2D38CF8E2D0E943514C2
:104860008F2D0E94A80FF4CE8E2D32EF8316B1F15A
:10487000381570F090EF8916D1F0A1EF8A1691F0FB
:10488000AA2009F45EC091109ACE8F2D8F712AC094
:10489000B3EF8B1651F1E4EF8E12F2CF8091B90194
:1048A00082FD2FC08F2D8F71AA20D9F21BC0AA20A4
:1048B00081F0F4E0F91508F4CBCE2F2D2F7181E0B3
:1048C00090E001C0880F2A95EAF79091B7018927F7
:1048D000AFCF25E0291508F4BBCEEFCF8F2D8F7118
:1048E000A110BFCF0E94CC0FB3CE80E0AA2009F464
:1048F0009FCF9F2D9F7181E001C0880F9A95EAF7A5
:1049000097CFAA2099F03F2D3F71F32E832F0E945D
:10491000CC0F8091B90182FF07C0A8E0FA9EC001C8
:1049200011248360809375018F2DDCCF81E00E947C
:10493000B50FB1E0B91508F08BCE82E00E94B50F3B
:1049400087CE992059F0893309F007CFEFEFF7EEC2
:1049500023E0E150F0402040E1F7FDCE8F2D8F7134
:1049600080CFB6E1EB16BCE7FB06A9F5809180018C
:104970008A7A91E009F490E09093540169E2811100
:1049800065E38CE491E00E94890C0E94F813E8CA68
:10499000E6E1EE16ECE7FE0661F580915401811127
:1049A00049CD89E2EEE4F1E024E531E0919189130B
:1049B00003C0DF0111971C922E173F07B9F7E5CF0F
:1049C000F701E054FE47E830F10508F011CCEA5E4B
:1049D000FF4C0C94522FF7E7EF16FCE7FF0609F4A3
:1049E0002BCD28E7E2162CE7F20609F032CD82E063
:1049F00024CD37E7E3163CE7F30609F421CD88E739
:104A0000E8168CE7F80609F037CD82E01ACDCF938F
:104A1000DF9380917401807F09F04DC08091730114
:104A2000882309F448C0E091530250911A02C091C2
:104A30006F01D0916E01609170017091710147E03A
:104A40005E17C9F18E2F90E0E49FF0011124E55E1E
:104A5000FD4F2481222391F1489FF001499FF00DE1
:104A60001124DF01A55EBD4F11962C9111972C13D7
:104A700025C02C912D1322C015962C91159721112C
:104A80001DC012962D913C91261B370B283C3105F9
:104A9000A8F4809174018F70806180937401EF5D40
:104AA000FD4F80818F70806180838EE691E00E944F
:104AB000FA1E0E94100FDF91CF910895FC013196EC
:104AC000E770BECFA4E1B0E0E8E6F5E20C94F92E81
:104AD0008C0186E0F801DE011F9601900D928A9507
:104AE000E1F7F8018481E5809EE6A92E91E0B92ED8
:104AF00090917201911128C0882319F1EE20F1F0F4
:104B0000C8010E944912F82E8823C1F087E0F801FD
:104B1000D50101900D928A95E1F780917201813063
:104B200031F480916E0190916F010E943C120E94BD
:104B300007258F2D6496ECE00C94152FC8010E9478
:104B4000FA1EFF24F394F5CFD080C1808280938039
:104B5000F09073012091700130917101A401421B0A
:104B6000530BFF2009F4D9C0483C510508F092C00E
:104B70008823F9F290916F0180917401282F207F92
:104B800009F056C0C91214C090916E01D91210C01C
:104B9000E11048C08F708061809374018EE691E0CF
:104BA0000E94FA1E80917401F8018683F12CC1CF16
:104BB000E11038C06C2D8D2D0E949C0A6C2D8D2D1E
:104BC0000E949C0AE82E8111F1CFDF86C88A8F856A
:104BD00098890E943C12292F22952F70243058F476
:104BE0009F70223088F0992399F0F8019681907F88
:104BF00079F4FE2C9ECF2A5F2F70223068F0C80116
:104C00000E94FA1EEF2CF5CF992311F0882389F327
:104C1000805E883070F3F3CF803F58F3815F83303C
:104C200070F7E7CF80917401816080937401BECFEB
:104C3000C91207C090916E01D91203C0EE2009F489
:104C40008DC0C8010E944912882309F477CFEE2055
:104C500009F474CF80917401803288F020916E0144
:104C600030916F01398728879B868A8690917201DF
:104C70009C871D868E87CE0108960E94FA1E87E0CB
:104C8000F801AEE6B1E001900D928A95E1F70E943D
:104C9000072557CF90917401292F207F51F48EE67C
:104CA00091E00E94FA1E87E0F50111928A95E9F7DA
:104CB0007DCF882309F43DCF80916F018C1110C006
:104CC00080916E01D8120CC0E1100AC09683C80111
:104CD0000E94FA1E87E0F50111928A95E9F729CF23
:104CE000C8010E944912882309F428CFEE2009F454
:104CF00025CF80917401803210F220916E013091A5
:104D00006F013A8329839C828B82909172019D83EB
:104D10001E828F83CE010196B0CF483C5105D0F65C
:104D2000882309F40ECFFE2CEE2009F407CF8091E2
:104D30006F018C1120C080916E01D8121CC080912F
:104D4000740180FD0FC0982F907F61F08683903FA3
:104D500031F0982F907F905F8F70892B8683C801E8
:104D60000E94FA1E87E0F801AEE6B1E001900D92D4
:104D70008A95E1F7DECEC8010E94491281117FCFEA
:104D800080917401816080937401C8010E94FA1EB1
:104D9000D0CEABE1B0E0EFECF6E20C94012F4E8BFD
:104DA0005F8B688F798F8A8F9B8F192F911110924B
:104DB0007F011D8A86E0FE017696DE011F96019036
:104DC0000D928A95E1F70A8D002341F021E04F858D
:104DD000588969897A89C8010E946C120B8B1C8BD7
:104DE00087E0FE013F96DE01189601900D928A95AC
:104DF000E1F7CE0108960E94622581110CC087E080
:104E0000FE013896DE01119601900D928A95E1F728
:104E10008C8581110BC017E08091530290911A028A
:104E2000891331C06B96E4E00C941D2F20911A0277
:104E300030E0C901019687709927409153024817C5
:104E4000190699F097E0929FD001939FB00D11241D
:104E5000A55EBD4FFE01319601900D929A95E1F746
:104E600080931A020E94100FD6CF0E94A0161092B3
:104E70001A021092530287E0EEE6F1E0DF011D9284
:104E80008A95E9F7C8CF819FC0011124855E9D4FA7
:104E90000E946225882331F28091530290E00196AE
:104EA0008770992780935302B7CFA6E0B0E0EBE577
:104EB000F7E20C94012F0E9478168C0180918101F9
:104EC000909182018017910781F019821A820E94C5
:104ED0007816682F49815A81792F80E090E00E94EE
:104EE000C92610938201009381012696E4E00C9478
:104EF0001D2F1F921FB61F9211248F939F93AF9364
:104F0000BF938091FC01811113C08091FD019091AC
:104F1000FE01A091FF01B09100024196A11DB11DBB
:104F20008093FD019093FE01A093FF01B0930002D6
:104F3000BF91AF919F918F911F901FBE1F901895A9
:104F4000CDB7DEB7A6970FB6F894DEBF0FBECDBFC4
:104F500085B7806885BF85B7806885BF84B7877F40
:104F600084BF0FB6F894A895809160008861809303
:104F70006000109260000FBE80E890E00FB6F894D9
:104F800080936100909361000FBE81E09DE090935B
:104F90004B0180934A010E94D20A0E94730B8091B8
:104FA000E20084608093E200789480910E0288236E
:104FB000A1F01091E9001F709091EC00892F817091
:104FC00090FD80E8182B1092E9008091E80083FDA5
:104FD0000E94BF161F701093E90082E084BD93E029
:104FE00095BD9AEF97BD80936E001092A601109226
:104FF000A7011092A8011092A9010E94911281119B
:1050000002C00E94C0110E94B410809323010E942C
:10501000641081110E94912D8091230181112CC077
:1050200085E0EEE2F1E0DE01919601900D928A9525
:10503000E1F789A180931E018AA180931F018BA1B2
:10504000809320018CA1809321018DA18093220166
:1050500086E0E3E3F1E0DE01119601900D928A957E
:10506000E1F7FE013196A8E1B1E0CE01079621916A
:105070002D93E817F907D9F78091230195E0811165
:1050800090E09093B50185E0891B8093B4010EE117
:1050900011E053E2E52E51E0F52ED8018D918D01FE
:1050A0008F3F11F00E94030DE016F106B1F708E101
:1050B00011E0F80181918F018F3F11F00E94030DE3
:1050C000F1E00E311F07A9F78AE0E6ECF1E0DF011D
:1050D000282F1D922A95E9F7EAEAF1E0DF011D92F7
:1050E0008A95E9F790E080E00E946D2F863E9E4F02
:1050F00021F40E94911281117AC066EE7EEF90E059
:1051000080E00E94A12F60E082E090E00E94832F67
:1051100060E083E090E00E94832F1092B60160E08F
:1051200074E184E090E00E94A12F60E086E090E0CE
:105130000E94832F6FEF87E090E00E94832F40E072
:1051400050E0BA0188E090E00E94952F60E084E290
:1051500090E00E94832F60E087E190E00E94832F1F
:1051600060E08CE090E00E94832F60E08DE090E0B2
:105170000E94832F19821A821B821C821D821E822A
:105180001F82188648E050E068E170E0CE01019689
:105190000E94732F40E050E0BA0180E290E00E944C
:1051A000952F80E00E94A7110E94C01140E050E0BE
:1051B000BA018FE090E00E94952F1092DF011092CB
:1051C000E0011092E1011092E20182E390E09093FD
:1051D000E0018093DF014091DF015091E001609197
:1051E000E1017091E20183E190E00E94952F82E05D
:1051F00090E00E945F2F8093BA0184E090E00E94CB
:105200006D2F9093B9018093B8010E94B11BEFEF0D
:10521000F6E721E0E150F0402040E1F700C0000057
:105220000E94B11B8091C60180FF08C06FEF7FEF25
:1052300090E080E00E94A12F0E94300C83E090E07B
:105240000E945F2F0E94D80F0E946410811102C03B
:105250000E94942D0E945C1383E190E00E94672FCE
:105260006093DF017093E0018093E1019093E2018C
:1052700084E291E09093FB018093FA0128E1622E91
:10528000712C30EDE32E31E0F32E45ECC42E41E0DD
:10529000D42E80910E0200E112E1853009F481C024
:1052A0000E94B11B0BEB11E096ECA92E91E0B92EF8
:1052B000D501F80191918D91CE16DF0609F47BC0DE
:1052C0009817C1F30E946410282E912CD5018D905F
:1052D0005D01F80131908F01381431F13824512CDF
:1052E00044244394832D8421B9F02220A9F059A2AB
:1052F0009AA20E9478169CA38BA3F1E0FDA391E0F3
:10530000882D842109F490E09EA349A15AA16BA1A4
:105310007CA18DA10E94C9265394440C26E0521210
:10532000E1CFF8013197808293948AE09812CECF32
:105330000E949A1044C080910E02843021F10E9494
:10534000281D1092FC0180E40FB6F894A895609295
:1053500060000FBE8093600083B7817F846083BF4D
:1053600083B7816083BF7894889583B78E7F83BF2E
:105370000FB6F894A89580916000886180936000D2
:10538000109260000FBE80910D02882351F00E94A0
:10539000B11BE6ECF1E08191811136C2EE16FF06F9
:1053A000D1F780910E02853009F4C5CF0E94A01676
:1053B0000E94891075CF981385CF0E9455270E94AF
:1053C00064100E94281D81110E949A1086E0ECEE64
:1053D000F1E0DE01119601900D928A95E1F71092AD
:1053E000EE011092EF011092F0011092F1018B8109
:1053F0009C81892B09F447C08091D5019091D601F9
:105400000E94410C9C019091D001992309F420C283
:1054100025313105C0F19F3F19F09F5F9093D00176
:105420001B81112359F00E94D30C9FEF11160CF42D
:1054300091E0899F802D11248093EE011C8111231E
:1054400059F00E94D30C9FEF11160CF491E0899F44
:10545000802D11248093EF018091EE01882399F033
:105460001091EF01112379F00E94F30C882309F4C5
:10547000A7C08093EE01812F0E94F30C882309F4CA
:10548000A1C08093EF018D819E81892B09F447C0D3
:105490008091D3019091D4010E94410C9C01909184
:1054A000D101992309F4CFC121353105C0F19F3FC6
:1054B00019F09F5F9093D1011D81112359F00E9433
:1054C000B10C9FEF11160CF491E0899F802D1124EF
:1054D0008093F0011E81112359F00E94B10C9FEFBF
:1054E00011160CF491E0899F802D11248093F10115
:1054F0008091F001882399F01091F101112379F046
:105500000E94F30C882309F45FC08093F001812F7F
:105510000E94F30C882309F459C08093F101BE0165
:105520006F5F7F4F8CEE91E00E945C0C81110CC08C
:105530008091EE019091EF01892B9091F001892BE0
:105540009091F101892B11F00E94841686E0FE01F2
:105550003196ACEEB1E001900D928A95E1F70E9490
:1055600089109091C501891721F08093C5010E948F
:10557000500C80910E02843009F08BCE83E0809332
:10558000E9008091E80082FF84CE8091E80090E0FD
:1055900085FF05C00E94F10A8823D1F091E0809137
:1055A000E8008B778093E800992309F472CEE981B3
:1055B000E150E331B0F5F0E0E25EFF4C0C94522F85
:1055C00081E057CF81E05DCF81E09FCF81E0A5CF23
:1055D00080E2A82EB12C8E010F5F1F4F8091E80052
:1055E00085FD0AC08091E8008B778093E8000E94D7
:1055F000F10A882399F3D2CF8091F100D8018D93DD
:105600008D01B1E0AB1AB10849F7C8CF1A828CE01E
:105610008B831BC08A81823009F40CC128F481304D
:1056200061F08FEF898311C08330C1F08430C9F7F6
:105630001B821C821D821E8208C00E94500C0E9488
:10564000582F6B837C838D839E8340E250E0BE01A4
:105650006F5F7F4F82E00E94DB0F1BCE2B81822F7A
:1056600090E0FE013496245E8A30910570F7DC01EB
:10567000AA53BE4F3C91319301962813F5CFE5CF45
:105680008A81823019F0853001F3CBCF6B817C8128
:105690008D819E810E94582F88E290E00E94832F86
:1056A000D4CF4C816B818A810E94D01198278927A1
:1056B00098279E838D83C9CF2D813E813227232752
:1056C00032274C816B818A810E944911BECF0E9492
:1056D0006F11BBCF80E18A83B8CF81E08A838FE7E7
:1056E00097CF0A811B81102701271027FE013196D1
:1056F0005F018C80CF01880D911D4C01C8018F572F
:105700009D4FA814B90409F4A0CF0F37A1E01A07E0
:1057100050F40E945F2FF50184830F5F1F4FBFEF8E
:10572000AB1ABB0AEBCFD50114961C92F6CF0A81B7
:105730001B81102701271027FE0131964F01AC80F5
:10574000A00EB12EB11CC8018F579D4F0A151B0525
:1057500009F47BCF0F37F1E01F0728F4D40114962A
:105760006C910E94832FBFEF8B1A9B0A0F5F1F4F14
:10577000EACF0E94391169CF85E0ADCF0A811B8144
:10578000102701271027FE0131965F018C80CF0181
:10579000880D911D4C01C80189968A149B0409F457
:1057A00054CF0835A2E01A0750F40E945F2FF5018C
:1057B00084830F5F1F4FBFEFAB1ABB0AECCFD5013D
:1057C00014961C92F6CF0A811B81102701271027FF
:1057D000FE0131964F01AC80A00EB12EB11CC80164
:1057E0008996A016B10609F430CF0835F2E01F07FC
:1057F00028F4D40114966C910E94832FBFEF8B1A6A
:105800009B0A0F5F1F4FEBCF09BD19BD09B400FE06
:10581000FDCF8091D8008F7D8093D8008091E000EB
:1058200082608093E0008091E00081FDFCCF0E94C7
:10583000A016B7CD88E290E00E945F2F1B821C82E9
:105840001D828E8302CF2B30310508F032CE67CE19
:105850002B30310508F0E1CD16CE289A219A229AF4
:1058600023982B9880E58CBD089590912D019F3F42
:1058700009F071C08F3F09F46EC0611144C01092ED
:10588000580290915802423009F441C0433009F463
:1058900042C094604130E1F141E050E042175307CB
:1058A000E0F1909158024031510509F452C0C0F521
:1058B0004230510509F446C04830510509F446C04C
:1058C0009CB520915802922B9CBD90915702992330
:1058D00019F09DB591609DBD80932D01E82FE29553
:1058E000EF70F0E031A1282F2F7081E090E001C02F
:1058F000880F2A95EAF7382B31A392A18095892346
:1059000082A381E0089590E290935802BACF986004
:1059100090935802C1CF9C60FBCF440F551FBECF60
:105920004034510549F04038510541F040325105AD
:1059300039F621E020935702926001C09360909362
:105940005802BECF91E090935702BACF21E0209346
:1059500057029160F4CF80E00895CF93DF938EBD1E
:105960000E947816EC010DB407FE05C08EB590E0DC
:10597000DF91CF9108950E9478168C1B9D0B843681
:10598000910588F38EEF9FEFF3CFCF93DF931EBC8B
:105990000E947816EC010DB407FE05C08EB590E0AC
:1059A000DF91CF9108950E9478168C1B9D0B843651
:1059B000910588F38EEF9FEFF3CF0F931F93CF9353
:1059C000DF93EC018C01060F171FC017D10719F4E4
:1059D00090E080E005C089910E94AD2C97FFF5CF43
:1059E000DF91CF911F910F9108950F931F93CF9344
:1059F000DF93EC018C01060F171FC017D10739F494
:105A000090E080E0DF91CF911F910F9108950E9467
:105A1000C52C97FDF7CF8993F0CF80912D018F3F53
:105A200029F1E82FE295EF70F0E041A18F7021E0BD
:105A300030E0B90102C0660F771F8A95E2F7CB010B
:105A4000942F982B91A392A1892B82A38FEF8093FF
:105A50002D018DB58E7F8DBD9CB5809158028095AE
:105A600089238CBD109258021092570208958EE13E
:105A70004A9B02C08150E1F74A9BFECF08955A9895
:105A800080E28A95F1F75A9A0895FC013BE03A9535
:105A9000F1F798E020E080E031E040E14A95F1F74D
:105AA000880F4A9B02C08160232742E04A95F1F7A4
:105AB000000040E14A95F1F7915079F790E19A950D
:105AC000F1F799B132E03A95F1F7000040E14A95DB
:105AD000F1F792FB992790F992272081920F9083FA
